:020000040800F2
:100000000007002021050008E9140008ED1400088D
:1000100041150008ED140008151500082305000817
:10002000230500082305000823050008E938000817
:100030002305000823050008230500082305000800
:1000400023050008230500082305000823050008F0
:100050002305000823050008993C0008C53C00085A
:10006000F13C00081D3D0008493D0008230500083B
:1000700023050008230500082305000823050008C0
:100080002305000823050008230500086926000849
:10009000D5260008292700087D270008753D00089F
:1000A0002305000823050008230500082305000890
:1000B000A93A0008230500082305000823050008C5
:1000C0002305000823050008230500082305000870
:1000D000230500083D2B0008512B000823050008CC
:1000E000DD3D00082305000823050008230500085E
:1000F0002305000823050008230500082305000840
:10010000230500082305000823050008230500082F
:10011000230500082305000823050008230500081F
:10012000230500082305000823050008230500080F
:1001300023050008230500082305000823050008FF
:1001400023050008230500082305000823050008EF
:1001500023050008230500082305000823050008DF
:1001600023050008230500082305000823050008CF
:1001700023050008230500082305000823050008BF
:1001800023050008230500082305000823050008AF
:10019000230500082305000823050008230500089F
:1001A000230500082305000823050008230500088F
:1001B000230500082305000823050008230500087F
:1001C000230500082305000823050008230500086F
:1001D000230500082305000823050008230500085F
:1001E000D0400B1CD1409C46203AD3401843524289
:1001F00063469340184370479140031C90409C46CF
:10020000203A9340194352426346D3401943704702
:1002100053B94AB9002908BF00281CBF4FF0FF316D
:100220004FF0FF3000F07AB9ADF1080C6DE904CE63
:1002300000F006F8DDF804E0DDE9022304B07047C1
:100240002DE9F0478C460D460446089E002B51D1FF
:100250008A4217466DD9B2FA82FEBEF1000F0BD06A
:10026000CEF1200C01FA0EF520FA0CFC02FA0EF782
:100270004CEA050C00FA0EF44FEA174A250CBCFBB9
:10028000FAF81FFA87F90AFB18CC45EA0C4508FB77
:1002900009F3AB420AD9ED1908F1FF3280F023814E
:1002A000AB4240F22081A8F102083D44ED1AA4B20D
:1002B000B5FBFAF00AFB105544EA054400FB09F9C6
:1002C000A14509D9E41900F1FF3380F00A81A14565
:1002D00040F2078102383C44A4EB090440EA08409C
:1002E0000021002E61D024FA0EF4002334607360E4
:1002F000BDE8F0878B4207D9002E54D0002186E854
:1003000021000846BDE8F087B3FA83F1002940F0E8
:100310008E80AB4202D3824200F2FA80841A65EBEF
:1003200003050120AC46002E3FD086E81010BDE842
:10033000F08712B90127B7FBF2F7B7FA87FEBEF1D3
:10034000000F34D1EB1B3A0C1FFA87FC0121B3FBE1
:10035000F2F8250C02FB183345EA03450CFB08F3C1
:10036000AB4207D9ED1908F1FF3002D2AB4200F2DF
:10037000D1808046ED1AA3B2B5FBF2F002FB105516
:1003800043EA05440CFB00FCA44507D9E41900F13D
:10039000FF3302D2A44500F2B8801846A4EB0C0447
:1003A00040EA08409DE731463046BDE8F087CEF18F
:1003B000200405FA0EF307FA0EF720FA04F83A0CB7
:1003C00025FA04F448EA0308B4FBF2F14FEA1845B1
:1003D00002FB11441FFA87FC45EA044501FB0CF3BC
:1003E000AB4200FA0EF409D9ED1901F1FF3080F0AB
:1003F0008A80AB4240F2878002393D44EB1A1FFAF3
:1004000088F5B3FBF2F002FB103345EA034500FB2D
:100410000CF3AB4207D9ED1900F1FF386FD2AB42B4
:100420006DD902383D44EB1A40EA01418FE7C1F132
:10043000200722FA07F88B4005FA01F448EA030383
:1004400020FA07FE4FEA134CFD404EEA040EB5FBBE
:10045000FCF94FEA1E440CFB19551FFA83F844EAD5
:10046000054509FB08F4AC4202FA01F200FA01FA70
:1004700008D9ED1809F1FF3043D2AC4241D9A9F1B6
:1004800002091D442D1B1FFA8EFEB5FBFCF00CFB70
:1004900010554EEA054400FB08F8A04507D9E418BA
:1004A00000F1FF3529D2A04527D902381C4440EA83
:1004B0000940A4EB0804A0FB02894C45C6464D4602
:1004C00015D312D056B1BAEB0E0364EB050404FA4F
:1004D00007F7CB401F43CC40376074600021BDE874
:1004E000F0871846F8E69046E0E6C245EAD2B8EB57
:1004F000020E69EB03050138E4E72846D7E74046DA
:1005000091E78146BEE7014678E702383C4445E77B
:10051000084608E7A8F102083D442BE7704700BFF2
:1005200002E000F000F8FEE772B6394880F3088870
:10053000384880F3098838484EF60851CEF2000159
:10054000086040F20000CCF200004EF63471CEF2AA
:1005500000010860BFF34F8FBFF36F8F40F20000C0
:10056000C0F2F0004EF68851CEF200010860BFF3F1
:100570004F8FBFF36F8F4FF00000E1EE100A4EF681
:100580003C71CEF200010860062080F31488BFF3AE
:100590006F8F03F0E7F903F027FA4FF055301F494A
:1005A0001B4A91423CBF41F8040BFAE71C49194A27
:1005B00091423CBF41F8040BFAE71A491A4A1B4B17
:1005C0009A423EBF51F8040B42F8040BF8E70020B2
:1005D0001749184A91423CBF41F8040BFAE703F06F
:1005E000C5F903F055FA144C144DAC4203DA54F833
:1005F000041B8847F9E700F03FF8114C114DAC425D
:1006000003DA54F8041B8847F9E703F0ADB900009A
:100610000007002000270020000000080001002043
:1006200000070020984600080027002074270020BB
:1006300078270020D8440020E0010008E0010008ED
:10064000E0010008E00100082DE9F04F2DED108ACF
:10065000C1F80CD0C3689D46BDEC108ABDE8F08F90
:10066000002383F311882846A047002002F080FE73
:1006700002F088FD00DFFEE7384B6FF016022DE92F
:10068000F0411A70032200245A7007229C70DC701B
:100690001C715C719C71DC711C725C729A72DC72F0
:1006A00003F0CCF8074603F019F90546002839D1C4
:1006B0002B4B9F4238D001339F4238D0294B27F033
:1006C000FF029A4237D1F8B200F052FAA84642F23D
:1006D000107400F07BFC00F051FA064678B384BB3E
:1006E000464635B1204B9F4203D003F0EFF800247B
:1006F0002646002003F0ACF81C4B1B691B0723D4D3
:100700000EB100F035F800F083FC00F01DFE00F0A3
:100710002BFF0546D4B900F0D1FC4FF47A7002F0FB
:100720002DFEF7E78046D4E780460446D1E704462D
:100730004FF00108CDE780464FF47A74C9E70446CC
:10074000CFE74FF47A74CCE70024DCE700F00CFF2D
:10075000401BA042DFD900F00BF8D8E77827002033
:10076000010007B0000008B0263A09B000040240BA
:1007700010B51E4B1E4953F8042F013200D110BD95
:100780008B42F8D11B4C1C4B22689A422CD91B4B34
:100790009B6803F1006303F580339A4224D203F08F
:1007A00069F803F07BF8002000F0E8FD144B02200C
:1007B000187000F01FFE134B1A6C00221A64196E99
:1007C0001A66196E596C5A64596E5A665B6E72B627
:1007D0000D4A0E4B13601B682268202181F311889B
:1007E0009D4683F30888104710BD00BFFCFF00083A
:1007F0001C00010804000108FFFF00087827002002
:10080000842700200038024008ED00E000000108C5
:1008100009490B6849F269009AB21B0C00FB0233CC
:10082000064A0B60136844F2506198B21B0C01FB3E
:100830000030106080B270470C270020082700208D
:1008400010B500211022044600F0F0FD034B03CB4D
:10085000206061601868A06010BD00BF107AFF1FA3
:10086000F0B51F4CBBB000F07FFEA368C31AF92B94
:1008700030D906AD2346A06028220021284601F089
:1008800001FC04F10E0000F0C9FD0023C6B2591DA1
:100890005F1CDBB2B3424FEAC10107DA0E332344D7
:1008A0000822284601F0EEFB3B46F0E701230393C4
:1008B0000823207B02930B4B0193C1F3CF0130231C
:1008C000059100930146049503A3D3E9002306484C
:1008D00001F0A8F93BB0F0BD78F6339F93CACD8DF7
:1008E000C8370020D5370020A037002070B50D464E
:1008F00014461E4601F03CF950B9022E0ED1012CCF
:100900000CD112A3D3E90023C5E90023012070BD57
:10091000052C14D003D8012C09D0002070BD282C40
:1009200009D0302CF9D10BA3D3E90023ECE70BA3BA
:10093000D3E90023E8E70BA3D3E90023E4E70BA303
:10094000D3E90023E0E700BFAFF30080401DA12002
:1009500026812A0B78F6339F93CACD8D9E6AC421D7
:10096000818A46EE26417272DF25D7B7F017304AEA
:1009700039059E5638B504460D46034620222846C2
:10098000002101F07FFB22792346032A28BF03229E
:1009900003F8042F28460222202101F073FB62791C
:1009A0002346072A28BF072203F8052F28460322DB
:1009B000222101F067FBA2792346072A28BF0722DC
:1009C00003F8062F28460322252101F05BFB284669
:1009D00004F108031022282101F054FB382038BD0F
:1009E0002DE9F04FFFB01FAE0CAD40F279128046FA
:1009F0000F463046002100F019FD4822002128460C
:100A000000F014FD00F0B0FD574B4FF47A72B0FBCC
:100A1000F2F0186093E80700012385E807002B74C3
:100A20000DF1520000236B74FFF70AFF032385F8D2
:100A30002030E92385F8213006AB18464B4903F0F6
:100A400083FA162228643146284685F83C20FFF7B1
:100A500091FF10AB044601460822304601F012FB1C
:100A60000822A1180DF14103304601F00BFB0DF1F6
:100A70004203082204F11001304601F003FB11ABE0
:100A8000202204F11801304601F0FCFA12AB40229A
:100A900004F13801304601F0F5FA14AB082204F1F4
:100AA0007801304601F0EEFA0DF15103082204F10D
:100AB0008001304601F0E6FA04F1880A0DF152098E
:100AC00004F5847B4B465146082230460AF1080A59
:100AD00001F0D8FAD34509F10109F3D119AB082285
:100AE0005946304601F0CEFA04F588744FF00009FB
:100AF00095F834304B4510D84FF0000995F83C304C
:100B00004B4515D92B6C21464B440822304601F049
:100B1000B9FA083409F10109F0E7AB6B21464B44FF
:100B20000822304601F0AEFA083409F10109DFE786
:100B3000E31DC3F3CF03F97E0593002304960393CB
:100B4000BB7E0293193701230093019704A3D3E9D5
:100B50000023404601F066F87FB0BDE8F08F00BF8B
:100B60009E6AC421818A46EE882700202041000821
:100B7000014B1870704700BF94270020F0B5334B2D
:100B80001C7B85B034B1324B0E221A8100242046E2
:100B900005B0F0BD2F4A1068516802AB03C30823AB
:100BA0000DEB03022C492D4803F0B0F9054630B98E
:100BB000274B2B480A221A8100F08CFCE6E70169DA
:100BC000B1F5E02F06D9224B26480B221A8100F0FE
:100BD00081FCDCE7438B40F2E932934207D01C49A9
:100BE0000C2008811946204800F074FCCFE71F4A0A
:100BF000024402F11003994204D2154B1C48102202
:100C00001A81E4E710398E1A2046144900F0B0FC2E
:100C10003246074605F11801204600F0A9FCAB68F2
:100C20009F4202D1EB6898420AD0094B0D221A81EB
:100C300000903B46EA68A9680E4800F04BFCA5E727
:100C40000D4800F047FC0124A1E700BFC837002091
:100C500088270020F03F0008DCFF060000000108A4
:100C6000F83F000804400008164000080800FFF79D
:100C700034400008514000087A4000082DE9F04F48
:100C8000ADB006AF80460C4600F072FF0546002866
:100C90006AD1237E022B18D1E38A012B15D100F0F3
:100CA00063FC8146FFF7B4FD4FF4C873BD4EB0FB43
:100CB000F3F209F5167902FB1300E37E19FA80F0CE
:100CC00030608BB9B84B00221A709C37BD46BDE826
:100CD000F08F3B1D1D440095002308224FEAC901F7
:100CE000204601F033F84D46A38A013BAB425FFA40
:100CF00085F90BD905F10109B9F1110FE9D1AB4B18
:100D0000AB4A40F23911AB4803F0D2F807F11400B6
:100D1000FFF796FD2A4607F11401381D03F0E6F8A7
:100D200003460028CED1B9F1100F07D09E4B83F8AF
:100D300000903368A3F516733360C6E707F1980295
:100D4000014602F8950D20460092072200F0FEFFB2
:100D5000F9787F2904DD984B954A4FF4A871D2E7C2
:100D6000404600F0E9FEB0E7E38A052B00F006817B
:100D700006D8012BA9D121464046FFF731FEA4E752
:100D8000282B3DD0302BA0D1637E8C4D01336A7B64
:100D9000DBB29342E94640F0EF80E27E2B7B9A4241
:100DA00040F0EA8007F19803002623F8846D1022B2
:100DB000009331460123204600F0C8FFB4F81480A8
:100DC000A8F102081FFA88F808F1030323F00303CF
:100DD0000A3323F00703ADEB030D0DF1180A334678
:100DE0009BB2B11C98454FEAC10106F101066CDDCA
:100DF0005344009308220023204600F0A7FFEEE7AB
:100E0000A38A013B9BB2C92B3FF65FAF6B4E357B8C
:100E10004DBB06F10C03009308222B4629462046C1
:100E200000F094FFA38A05F10109013BEDB29D4258
:100E30004FEAC90109DA0E3535440095002308222E
:100E4000204600F083FF4D46ECE700230022C6E970
:100E500000230023B36086F8D730C6F8D830337B40
:100E60000BB9E37E3373002507F114063B1D0822FE
:100E7000294630467D60BD60FD6001F003F93B7A94
:100E800005F10109AB424FEAC90107D9FB68082205
:100E90002B44304601F0F6F84D46F0E7C1F3CF01A0
:100EA0000023E07E059104960393A37E02931934F8
:100EB000282301460093019438A3D3E90023404638
:100EC00000F0B0FEFFF7CCFCFFE695F8D70000F08D
:100ED0005FFAD5F8D83006461BB995F8D70000F070
:100EE00067FAD5F8D83043449E4204D295F8D7002B
:100EF000013000F05DFA4FEA980B0024A0B258458B
:100F000004F1010408DA2B6880000AEB00010122D9
:100F1000184400F093FAF1E7D5E90023D5F8D8405A
:100F200095F8D70012EB080243F100034444C5E9E9
:100F30000023C5F8D84000F02BFA844209D395F875
:100F4000D730013385F8D730D5F8D8309E1BC5F897
:100F5000D860B8F1FF0F08DC00232B7300F03AFAD9
:100F6000FFF70CFE08B1FFF703FC2B68144A9B0A3D
:100F7000013313810023AB60CD46A6E6BFF34F8F4C
:100F80001049114BCA6802F4E0621343CB60BFF30F
:100F90004F8F00BFFDE700BFAFF3008026417272A4
:100FA000DF25D7B79C370020993700208C400008F8
:100FB00038410008E540000807410008C837002014
:100FC0008827002000ED00E00400FA0508B54FF086
:100FD00000530B4A196891420AD10A4A597D11708F
:100FE00009481B7D0373C92208490E3000F00CFA32
:100FF000E02200214FF00050BDE8084000F016BA92
:101000009AAD44C594270020C83700201600002060
:1010100030B5204C2049214885B002236371032359
:101020000025ADF808300123ADF80C5006228DF8EC
:101030000C308DF80B301A4B4B608DF80A2001F004
:10104000DBFD184B019500931749184B18484FF4D6
:10105000805200F03BFD174B1978254611B114481A
:1010600000F06AFD00F080FA0446FFF7D1FB4FF470
:10107000C87304F51674B0FBF3F202FB13000E4BB9
:1010800014FA80F0186002F029FC08B10F232B81BC
:1010900005B030BD8827002000270020E038002060
:1010A00002000500ED080008982700207D0C0008CC
:1010B000A0370020942700209C3700202DE9F04F16
:1010C00096A7D7E900670FF25C29D9E900898F4C10
:1010D00093B0DFF858B2DFF858A2204600F0EEFDDA
:1010E0000CAD079098B310220021284600F09EF91D
:1010F000079B197B4FF0000261F3030219468DF83C
:10110000302051F8040F49680EAA03C21B680D9ADB
:1011100063F31C029DF830300D9243F020038DF8EC
:10112000303000232A461946584601F075FD0790D5
:1011300030B9204600F0C6FD079B8AF80030CCE7A6
:101140009AF80030072B40DC01338AF8003018226F
:101150000021284600F06AF9DFF8D0B1DFF8D4A109
:10116000002319462A46584601F07EFD014680BB01
:10117000102208A800F05AF9DAF8143083F48053EA
:10118000CAF8143000F0F2F90B4612A9024611E930
:1011900003000DF1240E8EE803009DF83410C1F316
:1011A000030089064CBF0E99BDF838108DF82C004D
:1011B00046BFC1F31C0141F00041C1F30A0108918F
:1011C000204608A900F0C4FFCAE7204600F07AFDD7
:1011D000BDE7204600F0CCFC824600284AD1DFF86B
:1011E00058B100F0C1F9DBF80030984242D300F06A
:1011F000BBF90790FFF70CFB079A8DF820A04FF47E
:10120000C87302F51672B0FBF3F101FB130012FA7A
:1012100080F0CBF80000DFF824B19BF8001011B982
:1012200001238DF8203028460791FFF709FB079925
:10123000C1F1100A5FFA8AFABAF1060F28BF4FF01F
:10124000060A524629440DF1210000F0DDF80AF1AA
:101250000103049308AB0393182302932C4B0193CF
:101260000123009332463B46204600F083FC0023D6
:101270008BF8003000F078F9264ADFF8C4A0136834
:10128000C31AB3F57A7F32D3106000F06FF90246CB
:101290000B46204600F01CFD204600F069FC30B3F0
:1012A0009AF80C30DFF89CB0002B14BF0323022304
:1012B0008BF8053000F058F94FF47A732946B0FBEB
:1012C000F3F0CBF800005846FFF754FB1823073023
:1012D0000293114B0193C0F3CF0040F255130490D9
:1012E0000093039542464B46204600F043FC9AF893
:1012F0000C300BB1FFF7B4FA9AF80C30002B7FF4E6
:10130000E8AE13B0BDE8F08FAFF30080A037002047
:1013100098370020A8380020AC380020401DA120BC
:1013200026812A0BF1C6A7C1D068080FE03800203B
:10133000AD380020000402409C370020993700207F
:10134000C83700208827002070B502F041F9094C09
:10135000094E2070002530682378834208D902F0B6
:1013600031F9336805440133B5F5803F3360F2D37A
:1013700070BD00BFDC380020B038002002F0E2B9B8
:1013800000F10060920000F5803002F071B90000B9
:10139000054B1A68054B1B789B1A834202D91044EF
:1013A00002F010B900207047B0380020DC3800206F
:1013B00038B5074D04462868204402F00BF928B9D7
:1013C00028682044BDE8384002F01CB938BD00BF91
:1013D000B0380020064991F8243033B100230822A8
:1013E000086A81F82430FFF7CBBF0120704700BFA7
:1013F000B4380020022802BF024B4FF080529A619D
:10140000704700BF0004024010B50023934203D090
:10141000CC5CC4540133F9E710BD0000024603461A
:10142000981A13F9011B0029FAD1704702440346A8
:10143000934202D003F8011BFAE770472DE9F04709
:10144000234C94F8243005468846174683BB2E4625
:10145000DFF87C90C7B394F824302BB92022FF2109
:1014600048462662FFF7E2FF94F82400C0F1080521
:10147000BD4228BF3D465FFA85FAAD0041462A4687
:1014800004EB8000FFF7C0FF94F82430A7EB0A07B5
:101490009A445FFA8AFABAF1080F2E44A844FFB2C0
:1014A00084F824A0D6D1FFF795FF0028D2D108E018
:1014B000266A06EB8306B042CAD0FFF78BFF0028EE
:1014C000C5D10020BDE8F0870120BDE8F08700BF4E
:1014D000B43800200FB4002004B070470FB44FF0B0
:1014E000FF3004B070470000FEE7000000B59BB07D
:1014F000EFF3098168226846FFF786FFEFF3058363
:10150000034B9A6B9A6A9A6A9A6A9A6A9B6AFEE78E
:1015100000ED00E000B59BB0EFF30981682268465A
:10152000FFF772FFEFF30583044B9A6B9A6A9A6A8E
:101530009A6A9A6A9A6A9B6AFEE700BF00ED00E029
:1015400000B59BB0EFF3098168226846FFF75CFFA6
:10155000EFF30583034B5A6B9A6A9A6A9A6A9A6AFE
:101560009B6AFEE700ED00E002F024B902F0FEB84D
:1015700030B5084D0A4491420BD011F8013B0924C3
:101580005840013CF7D040F300032B4083EA500061
:10159000F7E730BD2083B8ED0246006848B1036824
:1015A0001360D388118901339BB29942D38038BF2D
:1015B0001381704770B588B00D4604462022002183
:1015C0006846FFF733FF20460495FFF7E5FF054621
:1015D00058B16B46044608AE1A4603CAB2422060B0
:1015E0006160134604F10804F6D1284608B070BDC6
:1015F0002DE9F04130B9274B274A40F2C531274841
:1016000002F056FC0B7C23B9254B234A40F2C6312D
:10161000F5E7C66986B9C161BDE8F081002B29DA1A
:10162000930CAB4229D1B44201D10C60F3E7C8F866
:1016300000100C60BDE8F0814B6823F06047BD0CE2
:101640004FEAD37EC3F3807C15EA230538BF3D46BD
:10165000B04634466368BEEBD37F23F06042DDD1F1
:10166000974203D1C3F380739C450AD1974205E0AA
:101670001C46EFE7AA4206D013469D422CBF00232A
:101680000123002BCFD12368A046002BF0D121608D
:10169000BDE8F0810C44000800420008C444000882
:1016A000E544000808B5034A034B044840F25E31A4
:1016B00002F0FEFBDC41000884440008C44400083A
:1016C00008B503680B60C388016033B9044B054A51
:1016D00005484FF4C76102F0EBFB013BC38008BD36
:1016E0005444000850420008C444000870B50C4639
:1016F00000F10C05616831B9E38A61F30903E38203
:101700000020002170BD0E682846FFF7D9FF6660F3
:10171000F0E7000008B5426832B10B4B0B4A0C48A9
:1017200040F22F4102F0C4FBC37DC3F384010131B9
:1017300061F38603C375C38A62F30903C3821B0A7C
:1017400062F3C713C37508BDA04400080C4200082B
:10175000C44400082DE9F047089E32B91F4B204AC7
:10176000204840F2395102F0A3FB01F007054FEA8F
:10177000D6082A4406F0070600EBD1004FF47F4953
:10178000954201D1BDE8F08705F0070E06F0070A83
:10179000D645774638BF5746C7F10807511BEC08B6
:1017A0008F4228BF0F46045D08EBD60104FA0EF401
:1017B00013F801C029FA07FE24FA0AF45FFA8EFE34
:1017C0008CEA04044EFA0AFE04EA0E048CEA040CC5
:1017D00003F801C03D443E44D2E700BF2044000866
:1017E00024420008C44400082DE9F04106460F4693
:1017F00000254FF6FF7441F221082A46304639464B
:10180000FEF7EEFCC0B284EA0024082314F4004F73
:101810004FEA4404A4B203F1FF3318BF84EA08047A
:1018200013F0FF03F2D10835402DE6D12046BDE884
:10183000F081000010B50A4441F22104914200D128
:1018400010BD11F8013B80EA0320082310F4004F7B
:101850004FEA400080B203F1FF3318BF604013F03D
:10186000FF03F3D1EAE700002DE9F04F85B08A4687
:101870008DE80C00BDF83C40814630B9494B4A4ADE
:1018800040F26E31494802F013FB11F0604F04D072
:10189000474B454A40F26F31F4E7009B002B7ED066
:1018A00024B10E9B002B7AD0072C28D809F10C000C
:1018B000FFF772FE054628B96FF00205284605B00D
:1018C000BDE8F08F14220021FFF7B0FD22460E99EB
:1018D00005F10800FFF798FD631C2B74009B1B7833
:1018E0002C4403F01F0363F03F0323724AF00043CC
:1018F0006B6029464846FFF77BFE0125DEE7019B2A
:101900001B0A4FF00008029300F10C034FF0800B0C
:101910004646454603930398FFF73EFE07460028D8
:10192000CAD014220021FFF781FDB6BB9DF8043018
:101930003B729DF808307B7202220E9B711E194487
:10194000B4420AD9B8180132D2B211F801EF80F8C6
:1019500008E00136072AB6B2F2D1009B197801F0EF
:101960001F01B44208BF4FF0400BB81841EA4811BC
:101970004BEA0103037201324AF000437B603A7480
:1019800039464846FFF734FE0135B4422DB288F09F
:1019900001084FF0000BBED190E70022CDE76FF0B9
:1019A00001058BE70C440008F0410008C44400081E
:1019B000304400082DE9F0471E46CB8A9146C3F318
:1019C0000902062A80460F4619D013460021B0B2FC
:1019D0008DB25A1992B2052A09D9A84210D8FA8AAA
:1019E000034463F30902FA820120BDE8F087A842AC
:1019F000F3D93A4419F8014094760131E8E700251B
:101A0000FB8A7C68C3F30900821F1C23B2FBF3FA34
:101A100003FB1A2A1FFA8AF27CB301212368002BE8
:101A200039D1B31F03441C20B3FBF0F301339BB245
:101A300099420CD2BAF1000F09D14046FFF7ACFD34
:101A400008B1C0F800A0206008B304460022B6B276
:101A50004FF0000AB54230D2691E49441346E018DF
:101A600001339BB211F801EF80F804E001351C2B23
:101A7000ADB214D0AE42F2D8ECE74046FFF78CFD91
:101A8000044608B1002303607C60002CDED16FF0B7
:101A90000200BDE8F087013189B21C46BEE7AE42C4
:101AA000D8D94046FFF778FD08B1C0F800A0206003
:101AB0000028ECD004460022CCE7FB8AC3F30902DD
:101AC000164466F30903FB828EE70000F8B50E4664
:101AD00015461F46044628B9144B154A15484F2190
:101AE00002F0E6F924220021FFF7A0FC069B6360C8
:101AF000079B23626A094FF6FF739A424FF000007A
:101B000028BF1A46A7602070A061E06197B204F177
:101B10000C05824205D100232B6027826382A382B9
:101B2000F8BD2E60013035462036F2E70844000843
:101B30007C410008C444000808B528B9084B094A8C
:101B40007321094802F0B4F9037823B94BB2002B92
:101B500001DD017008BD054B024A7D21F1E700BFA0
:101B60000C44000888410008C444000850430008A1
:101B7000007870472DE9F7430D9EBDF828900B9D26
:101B80009DF83040BDF8388007461946104616B912
:101B9000B8F1000F43D11F2C41D83B78D3B9B8F12D
:101BA000070F39D839F0030339D1424631464FF691
:101BB000FF70FFF73FFE4FEA092920F0010009F40A
:101BC0004079400449EA0464400C44EA40244FF65A
:101BD000FF730DE043EA0923B8F1070F43EA0464F9
:101BE000F5D9FFF701FE42463146FFF723FE0346D3
:101BF0008DE840012A4621463846FFF735FE0DB9EB
:101C0000FFF750FD2B780133DBB21F2B88BF002379
:101C10002B7003B0BDE8F0836FF00300F9E76FF0BD
:101C20000100F6E72DE9F7430E9F0B9D9DF83480E8
:101C3000BDF83C6081469DF8300007B9C6BB1F283F
:101C400036D899F800E0BEF1000F34D00C0244F011
:101C500080049DF8281044EAC83444EA014444EA68
:101C60000E04072E44EA006415D919461046FFF702
:101C7000BBFD32463946FFF7DDFD0346019600976E
:101C80002A4621464846FFF7EFFDB8F1010F0CD177
:101C900025B9FFF707FD4FF6FF73EFE72B78013308
:101CA000DBB21F2B88BF00232B7003B0BDE8F0838D
:101CB0006FF00100F9E76FF00300F6E7C06900B1CB
:101CC00004307047C1690B68C3610C30FFF7F8BC82
:101CD0002DE9F84FD0F818A0DFF86C8005461646BD
:101CE0001F4654464FF0000900F10C0B0CB9BDE83B
:101CF000F88FD4E90223B21A67EB0303994508BFB2
:101D000090451FD2AB699C42214628460DD1FFF772
:101D1000EDFCAB691B68AB6121465846FFF7D0FC70
:101D2000AC692346A2461C46E0E7FFF7DFFC2368C8
:101D3000CAF8003021465846FFF7C2FC5446DAF88C
:101D40000030EFE72368EDE780841E002DE9F04FB7
:101D50008BB00D4614460793DDF85090824600285C
:101D600000F06481B9F1000F00F06081531E3F2B39
:101D700000F25C81012A03D1079B002B40F05681C1
:101D8000BAF81460F6000023B5420893099380F076
:101D900053812B199E420AD2761B16F0FF0607D1FB
:101DA000AB4BAC4A40F26751AB4802F081F8264693
:101DB000DAF80C3023B9DAF81030002B00F0A580E7
:101DC0002F2D31D8C5F1300846454FF000032CBF08
:101DD0005FFA88F8B0460093294608AB4246DAF825
:101DE0000800FFF7B7FCA6EB08074544FFB2BAF8B6
:101DF000143003F10053063BDB000293DAF80C3099
:101E000005934FF0300B059B002B51D087B9DAF8C2
:101E10001000002861D0002F5FD0AB4550D98F4B08
:101E20008C4A40F2A651BFE737464FF00008DEE784
:101E3000029B23B98A4B874A4FF4B161B4E7029BF6
:101E4000E02B28BFE02306935B44AB4204931DD9EB
:101E50005B1B9F4226BFDBB203930397AB4504D9BC
:101E60007E4B7C4A40F291519EE70598CDF8008068
:101E700008ABA5EB0B01039A0430FFF76BFC039B47
:101E80009844FF1A1D445FFA88F8FFB2049B9B45F3
:101E900004D3744B6F4A40F29B5185E7029B069A2C
:101EA000DDF810B09B1A0293059B1B680593AAE707
:101EB000029BBB42ABD26C4B664A40F2A15173E726
:101EC000CDF800803A46A5EB0B0108ABFFF742FCCA
:101ED000B8443D445FFA88F80027BAF81430B5EBEF
:101EE000C30F04D9614B5B4A40F2B1515CE7B8F1D2
:101EF000400F04D95E4B574A40F2B25154E767B1E4
:101F00005C4B544A40F2B3514EE70093324608AB63
:101F10002946DAF80800FFF71DFC731E3F2B35B287
:101F200001D8A64204DD544B544A40F235213BE728
:101F300060070AD00AAB03EBD401624211F8083CF7
:101F400002F00702134101F8083C082C21D9102C9B
:101F500021D9202C8CBF08230423079A002A6DD096
:101F6000B4EBC30F6CD0082C04F1FF3215D89DF8E8
:101F7000203023FA02F2D10706D54FF0FF3202FAE1
:101F800004F423438DF820309DF8203089F8003088
:101F90004EE00123E1E70223DFE7102C11D8BDF862
:101FA000203023FA02F2D20706D54FF0FF3202FAB0
:101FB00004F42343ADF82030BDF82030A9F80030F8
:101FC00036E0202C0ED8089921FA02F2D30705D565
:101FD0004FF0FF3303FA04F40C430894089BC9F84C
:101FE000003025E0402C1CD0DDE90867304639463A
:101FF000FEF7F6F8002100F0010050EA01030BD0D3
:10200000224601200021FEF7F7F8404261EB410132
:1020100006430F43CDE90867DDE90823C9E900233A
:1020200006E0174B154A4FF42071BDE66FF001052D
:1020300028460BB0BDE8F08F1D46F9E7012CA3D070
:10204000082CA1D9102CB7D9202CE5D8C6E700BFA1
:102050005C42000834420008C44400087E42000884
:102060006B420008A3420008CB420008F24200087D
:10207000204300083843000852430008B4410008D8
:102080005043000830B585B030B9244B244A40F2A3
:10209000B121244801F00CFF23B9234B204A40F220
:1020A000B221F6E7402A04D9204B1D4A40F2B6215E
:1020B000EFE722B91D4B1A4A4FF42F71E9E70024CC
:1020C000012A0294039417D11B788DF80830530726
:1020D0000AD004AB03EBD203554213F8084C05F0C9
:1020E0000705AC4003F8084C00910346002102A804
:1020F000FFF730FB05B030BD082AE5D9102A03D818
:102100001B88ADF80830E2E7202A02D81B6802934A
:10211000DDE7D3E90045CDE90245D8E78C43000867
:10212000C8410008C4440008A74300085043000801
:1021300070B50C4600F10C05E16819B9A160216188
:10214000A18270BD0E682846FFF7BAFAE660F3E791
:102150002DE9F04FD1F8009091B0C9F3C0160446B4
:102160000D46CDE90223002E50D0C9F3C03BC9F380
:102170000626B9F1000F80F29F8119F0C04F40F0A0
:102180009B812B7B002B00F09781BBF1020F03D0CA
:102190002278B24240F0938109F07F02BBF1020F36
:1021A000059236D119F07F0FC9F30F2A01D10AF039
:1021B000030A2B447606059A93F8038046EA0B46F9
:1021C00046EA82465FEAD81346EA0A06069300F01A
:1021D0009A800022002310A961E90823059B00933F
:1021E00067685B4652462046B847002800F0888062
:1021F000A7698FB9314604F10C00FFF7DBF90746F8
:10220000D0B96FF0020011B0BDE8F08F4FF0020BB3
:10221000AFE7C9F3074ACCE73B699E420DD03F6860
:10222000002FF9D1314604F10C00FFF7C3F907463E
:102230000028E6D0A3693B60A761DDE90801FFF74C
:10224000D3FAB882F97D08F01F06C1F38401711A30
:1022500089B20FFA81FED7E90223BEF1000FB8BFA1
:1022600001F1200EC9F30461B8BF0FFA8EFE079189
:1022700052EA030100F02F81DDE90201801A61EBCF
:10228000030102460B469F480021994208BF904235
:10229000C0F02181069B002B3FD0BEF1010F00F35F
:1022A0001A8118F0400F38D0DDE90223C7E9022374
:1022B000202200210DEB0200FFF7B8F8DDE9022330
:1022C000CDE908232B1D0A932B7BADF836A0013BEB
:1022D000DBB2ADF834309DF81C308DF83A309DF803
:1022E00014308DF83B3020468DF838B08DF83960C9
:1022F000A36808A998473846FFF70CFA002082E740
:102300006FF00B007FE7A76917B96FF00C007AE751
:102310003B699E4296D03F68F6E7FB7DC8F34012CA
:10232000B2EBD31F40F0CE80C3F38403B34240F03E
:10233000CC8006992B7B4FEA981279B3D2073CD414
:10234000032B40F2C580DDE90223C7E902232B7B82
:10235000AE1D033BDBB23246394604F10C00FFF7F9
:1023600029FB002808DA39462046FFF7BFF938462E
:10237000FFF7D0F9032046E7AB883B832A7B033A7B
:10238000D2B2B88A3146FFF755FAFB7DB882DA43FC
:10239000C2F3C01262F3C713FB75AFE76AB92E1D13
:1023A000013BDBB23246394604F10C00FFF702FB79
:1023B0000028D8DB2A7B013AE2E7FA8AC2F3090255
:1023C000013B052AD9B250D8281D002399420AD9C9
:1023D00007EB020E013210F801CB8EF81AC0013360
:1023E000062ADBB2F2D1DDE902898B4207F11A023B
:1023F000CDE908890A9238BF04337A680B9234BF5A
:102400005B1900230C93FB8AADF836A0C3F30903D4
:1024100019449DF81C308DF83A309DF814308DF831
:102420003B300023ADF834108DF838B08DF83960AA
:102430007B602A7BB88A013A291DFFF7FBF93B8BA9
:10244000B882834203D1A36808A92046984708A907
:102450002046FFF76DFE3846FFF75CF9B88A3B8BE4
:10246000984214BF11200020CDE6786810B34FF0D9
:10247000060E03689BB9A2EB0E021B2A13D8033287
:10248000024405F1040E1F309942ACD91EF801CB6D
:1024900002F801CF01339042DBB2F5D1A3E70EF190
:1024A0001C0E1846E5E7184B184A194840F2B311BC
:1024B00001F0FEFC034696E76FF00900A3E66FF01B
:1024C0000A00A0E66FF00D009DE66FF00E009AE6A0
:1024D0006FF00F0097E6FB7D68F386036FF3C71379
:1024E000FB7539462046FFF701F9069B002B7FF468
:1024F000D8AEFB7DC3F38402013262F38603FB7521
:1025000003E700BF80841E00BC430008A041000810
:10251000C44400082DE9F041504EB04240F089809B
:102520004F4CDFF840E1256C45F000752564256EC1
:1025300045F000752566246E846AD4F8007207EAB7
:102540000E0747F00107C4F80072D4F8005205EAFC
:102550000E0545F0010545EA0121C4F80012002AE4
:1025600069D00021C4F81C120F46C4F80412C4F844
:102570000C12C4F8141204EBC10501311C29C5F872
:102580004072C5F84472F6D14FF0000E4FF0010CC6
:10259000964514D1826AD2F80032B04223F001038A
:1025A000C2F8003257D12E4B1A6C22F000721A6416
:1025B0001A6E22F000721A661B6EBDE8F0819F78D9
:1025C0001D8817F0010F18BFD4F804820CFA05F12A
:1025D0001CBF41EA0808C4F8048217F0020F1EBFAE
:1025E000D4F80C8241EA0808C4F80C827F0742BF85
:1025F000D4F814720F43C4F8147204EBC5055F6875
:10260000C5F840729F68C5F84472D4F81C5229433B
:10261000C4F81C120C330EF1010EB9E7846A0021D4
:10262000C4F81C12C4F80412C4F80C12C4F8141232
:10263000AAE7002AF2D1836A0022C3F84022C3F835
:102640004422C3F80422C3F814220122C3F80C2246
:10265000C3F81C229EE7BDE8F08100BFE0380020EF
:10266000003802400000FFFF184A916A08B58B68E5
:102670008B6013F0010105D013F00C0F14BF4FF461
:1026800080310121D80506D513F4406F14BF41F401
:10269000003141F00201D80306D513F4402F14BFD6
:1026A00041F4802141F00401D3690BB107489847F8
:1026B000202383F311880021054800F087FE0023C2
:1026C00083F31188BDE8084001F01EB9E03800200E
:1026D000E838002038B5124CA36ADD68AA0712D08A
:1026E0005A6922F002025A61A36913B101212046FE
:1026F0009847202383F3118800210A4800F066FEE2
:10270000002383F31188EB0606D5A36A1021D96054
:10271000236A0BB102489847BDE8384001F0F4B88D
:10272000E0380020F038002038B5124CA36A1D694B
:10273000AA0712D05A6922F010025A61A36913B194
:10274000022120469847202383F3118800210A485C
:1027500000F03CFE002383F31188EB0606D5A36A44
:1027600010211961236A0BB102489847BDE838402F
:1027700001F0CAB8E0380020F038002038B50F4C1E
:10278000A36A5D685D602A070AD5032222701A6871
:1027900022F002021A60636A13B1002120469847B2
:1027A0006B0706D5A36A9969236A13B10904034824
:1027B0009847BDE8384001F0A7B800BFE0380020D6
:1027C00010B50F4C204600F005FA0E4BA3620B210A
:1027D000132000F0E7F90B21142000F0E3F90B219E
:1027E000152000F0DFF90B21162000F0DBF90023A3
:1027F00020461A460E21BDE81040FFF78BBE00BFF1
:10280000E038002000640040114B984210B50446A7
:1028100009D1104B1A6C42F000721A641A6E42F021
:1028200000721A661B6EA36A01221A60A36A5A68B4
:10283000D20707D5626851681268D9611A60064AE2
:102840005A6110BD0121082000F056FCEEE700BFE0
:10285000E0380020003802405B87010003291AD8C5
:10286000DFE801F0020A0F14836A9B6813F0E05F4F
:1028700014BF012000207047836A9868C0F380600D
:102880007047836A9868C0F3C0607047836A98682D
:10289000C0F30070704700207047000010B5032996
:1028A0001FD8DFE801F0021F2327816A8B68C3F37A
:1028B0000163183301EB0313107881061ED55468A9
:1028C000C0F30011490041EAC40141F0040100F0E5
:1028D0000F00586090689860D268DA6041F001019A
:1028E000196010BD836A03F5C073E5E7836A03F5D9
:1028F000C873E1E7836A03F5D073DDE79488C0F31A
:102900000011490041EA4451E1E7000001290CD0DF
:1029100003D3022910D000207047836ADA68920737
:1029200001D1186903E001207047836AD86810F06C
:10293000030018BF01207047836AF2E710B539B968
:10294000836AD96889071BD11B699B0704D110BD15
:10295000012915D0022948D1816AD1F8C031D1F8B6
:10296000C401D1F8C8411461D1F8CC41546120248C
:102970000C610C69A40717D14C6944F0100412E0F3
:10298000816AD1F8B031D1F8B401D1F8B8411461FD
:10299000D1F8BC4154612024CC60CC68A40703D199
:1029A0004C6944F002044C6111795C0864F3041131
:1029B0009C0864F34511117189064BBF9168118918
:1029C000DB085B0D4CBF63F31C0163F30A01137951
:1029D00048BF916060F3030313714FEA10234FEA7D
:1029E000104058BF11811370508010BD002304495E
:1029F0001A465A50C8180833802B4260F9D17047E4
:102A00000C390020026843681143016003B1184784
:102A100070470000024AD36843F0C003D360704798
:102A200000100140024AD36843F0C003D3607047EE
:102A3000004400402DE9F041D0F85C64F768336849
:102A4000DA0505469CB20DD5202383F311884FF497
:102A500000710430FFF7D6FF6FF4807333600023FA
:102A600083F31188202383F3118805F1040814F0FF
:102A70002F0333D183F31188380615D5210613D5DA
:102A8000202383F3118805F1380000F027FA00288D
:102A900046DA0821281DFFF7B5FF4FF67F733B404C
:102AA000F360002383F311887A060ED563060CD5F4
:102AB000202383F31188EA6C2B6D9A4202D12B6C90
:102AC000002B2FD1002383F31188D5F86424D36819
:102AD000002B31D01069BDE8F0411847230713D00F
:102AE00014F0080F0CBF00218021E00748BF41F01F
:102AF0002001A20748BF41F04001630748BF41F4ED
:102B000080714046FFF77EFFA406736805D595F8EF
:102B100060142846194000F083FA3468A4B2A6E78E
:102B20007060BEE727F040073F041021281D3F0CCE
:102B3000FFF768FFF760C5E7BDE8F08108B5034817
:102B4000FFF778FFBDE8084000F0DEBE8C390020BA
:102B500008B50348FFF76EFFBDE8084000F0D4BE9B
:102B6000F43D002010B5094C094A2046002100F030
:102B700035FA084BC4F85C34074C084A002120465B
:102B800000F02CFA064BC4F85C3410BD8C390020E0
:102B9000152A000800100140F43D0020252A0008F5
:102BA0000044004000F1604300F01F02400903F5BB
:102BB000614309018000C9B200F1604083F800134D
:102BC00000F5614001239340C0F8803103607047F5
:102BD000FFF7F6BD00F108020123037082600023B5
:102BE000C26000F110024360026142618361C3610F
:102BF000036243627047000010B52023044683F34C
:102C00001188022303704160FFF7FEFD0323237048
:102C1000002383F3118810BD2DE9F0411F460446BF
:102C20000D461646202383F3118800F10808237807
:102C3000042B0ED029462046FFF710FE48B120464F
:102C400032462946FFF72AFE002080F31188BDE8AE
:102C5000F0813946404600F09DFB0028E7D0002374
:102C600083F31188BDE8F0812DE9F0411F46044649
:102C70000D461646202383F3118800F110082378AF
:102C8000042B0ED029462046FFF740FE48B12046CF
:102C900032462946FFF752FE002080F31188BDE836
:102CA000F0813946404600F075FB0028E7D000234C
:102CB00083F31188BDE8F081F8B51546826806698E
:102CC000AA420B46816938BF8568761AB542044628
:102CD00007D218462A46FEF797FBA3692B44A36147
:102CE0000DE011D932461846FEF78EFBAF1B3A466F
:102CF000E1683044FEF788FBE2683A44A261A368C9
:102D00005B1BA3602846F8BD18462A46FEF77CFBED
:102D1000E368E4E783682DE9F041044693421546F1
:102D2000266938BF85684069361AB5420F4606D213
:102D30002A46FEF769FB63692B4463610DE012D9F3
:102D40003246A5EB0608FEF75FFB4246B919E0687C
:102D5000FEF75AFBE26842446261A3685B1BA36012
:102D60002846BDE8F0812A46FEF74EFBE368E4E71B
:102D700010B50A440024C361029B00604060846077
:102D8000C160816141610261036210BD08B5826961
:102D90004369934201D1826882B9826801328260BC
:102DA0005A1C42611970426903699A4201D3C3688F
:102DB0004361002100F0FEFA002008BD4FF0FF3013
:102DC00008BD000070B5202304460E4683F3118829
:102DD000A568A5B1A368A269013BA360531CA361C8
:102DE00015782269934224BFE368A361E3690BB1BC
:102DF00020469847002383F31188284670BD31464A
:102E0000204600F0C7FA0028E2DA85F3118870BD89
:102E10002DE9F74F05460F4690469A46D0F81C908C
:102E2000202686F311884FF0000B144664B1224629
:102E300039462846FFF740FF034668B95146284601
:102E400000F0A8FA0028F1D0002383F31188A8EB42
:102E5000040003B0BDE8F08FB9F1000F03D001907A
:102E60002846C847019B8BF31188E41A1F4486F358
:102E70001188DBE7C16081614161C3611144009B3E
:102E8000006040608260016103627047F8B50446EB
:102E90000E461746202383F31188A568A5B1A368C1
:102EA000013BA36063695A1C62611E7023696269F9
:102EB0009A4224BFE3686361E3690BB120469847F7
:102EC000002080F31188F8BD3946204600F062FAF0
:102ED0000028E2DA85F31188F8BD000083694269B1
:102EE0009A4210B501D182687AB982680132826053
:102EF0005A1C82611C7803699A4201D3C3688361BA
:102F0000002100F057FA204610BD4FF0FF3010BDF1
:102F10002DE9F74F05460F4690469A46D0F81C908B
:102F2000202686F311884FF0000B144664B1224628
:102F300039462846FFF7EEFE034668B95146284653
:102F400000F028FA0028F1D0002383F31188A8EBC1
:102F5000040003B0BDE8F08FB9F1000F03D0019079
:102F60002846C847019B8BF31188E41A1F4486F357
:102F70001188DBE7026843681143016003B1184719
:102F8000704700001430FFF743BF00004FF0FF33DD
:102F90001430FFF73DBF00003830FFF7B9BF000025
:102FA0004FF0FF333830FFF7B3BF00001430FFF7A6
:102FB00009BF00004FF0FF311430FFF703BF0000DE
:102FC0003830FFF763BF00004FF0FF323830FFF7B3
:102FD0005DBF000000207047FFF7C4BD37B50F4B41
:102FE0000360002343608360C360012304460374CD
:102FF000154600900B464FF4007200F15C0114304E
:10300000FFF7B6FE00942B464FF4007204F51771DB
:1030100004F13800FFF72EFF03B030BD0045000873
:1030200038B5C36904460D461BB904210844FFF7AF
:10303000A1FF294604F11400FFF7A8FE002806DAD4
:10304000201D4FF48061BDE83840FFF793BF38BDC5
:10305000024B00221B605B609A6070475C4200205C
:10306000002303748268054B1B6899689142FBD268
:103070005A68036042601060586070475C420020EC
:1030800008B5202383F31188037C032B05D0042B80
:103090000DD02BB983F3118808BD436900221A6053
:1030A0004FF0FF334361FFF7DBFF0023F2E790E8C7
:1030B0000C001A6002685360F2E7000000230374FA
:1030C0008268054B1B6899689142FBD85A68036077
:1030D00042601060586070475C420020054B1969DF
:1030E0000874186802681A60536018610123037439
:1030F000FDF7AABA5C42002030B54B1C87B00546EC
:103100000A4C10D023690A4A01A800F07BF928462E
:10311000FFF7E4FF049B13B101A800F0AFF92369A6
:10312000586907B030BDFFF7D9FFF8E75C420020CF
:103130008130000838B50C4D41612B6981689A686F
:103140009142044603D8BDE83840FFF789BF1846CE
:10315000FFF786FF01232C61014623742046BDE85A
:103160003840FDF771BA00BF5C420020044B1A687A
:103170001B6990689B68984294BF002001207047AB
:103180005C42002010B5084C236820691A68226050
:103190005460012223611A74FFF790FF01462069F1
:1031A000BDE81040FDF750BA5C42002008B5FFF7BB
:1031B000DDFF18B1BDE80840FFF7E4BF08BD00001F
:1031C000FEE7000010B5174CFFF742FF00F00CF9C6
:1031D00080221549204600F091F8012344F8180C8C
:1031E0000374124B124AD96821F4E0610904090CF6
:1031F0000A431049DA60CA6842F08072CA600E4918
:103200000A6842F001020A601022DA77202283F86D
:103210002220002383F3118862B60848BDE81040DD
:1032200000F08EB8844200202845000800ED00E040
:103230000003FA05F0ED00E0001000E03045000862
:103240002DE9F84F1F4C4FF00008656904F1140791
:10325000C1464FF08043266A5B6AAA689E1B96426D
:103260001DD34FF0200AAA68236AD5F80CB0134486
:1032700023622B68BB425F60A6EB02066361C5F860
:103280000C8001D100F096FB89F311882869D8479A
:103290008AF311886569AB689E42E4D2D9E7626916
:1032A000BA420CD0916823628E1B9660A8680228EF
:1032B0002CBF1818981CBDE8F84F00F081BBBDE882
:1032C000F88F00BF5C420020EFF3118020B9EFF3CC
:1032D0000583202282F311887047000010B558B989
:1032E000EFF30584C4F3080414B180F3118810BD12
:1032F000FFF75CFF84F3118810BD0000826002229A
:1033000002740022427470478368A3F17C0243F880
:103310000C2C026943F83C2C426943F8382C074ACC
:1033200043F81C2CC26843F8102C022203F8082C26
:10333000002203F8072CA3F118007047610600086B
:1033400010B5202383F31188FFF7DEFF0021044628
:10335000FFF7F0FE002383F31188204610BD000024
:10336000024B1B6958610F20FFF7B8BE5C4200207A
:10337000202383F31188FFF7F3BF000008B501464F
:10338000202383F311880820FFF7B6FE002383F380
:10339000118808BD49B1064B42681B6918605A6024
:1033A000136043600420FFF7A7BE4FF0FF30704763
:1033B0005C4200200368984206D01A6802605060A0
:1033C00059611846FFF74CBE7047000038B50446F7
:1033D0000D462068844200D138BD036823605C60DC
:1033E0004561FFF73DFEF4E7054B03F114025A6116
:1033F0009A614FF0FF32DA6100221A62704700BF13
:103400005C420020F8B503614FF08043C2605C6A03
:10341000194B1A46022952F8145F38BF022195420F
:1034200006461F460AD1586198611C6205604560D6
:1034300081600819BDE8F84000F0B4BA186AAB68BA
:10344000241A0C1902D3E41A2D6804E09C4202D21B
:10345000204400F0B5FAAB689C42F4D86B68736006
:1034600035601E606E60B460A9684FF0FF33091BC1
:10347000A960FB61F8BD00BF5C42002010B41B4C8A
:10348000234653F8141F814210D0416802680A6035
:10349000026851609A424FF00001C16003D0936806
:1034A00081680B4493605DF8044B70470A68626161
:1034B00000209A425360C86003D15DF8044B00F0CD
:1034C00079BA93688868034493604FF08042206A19
:1034D000526A121A9342E6D9991A012998BF931C8D
:1034E00018445DF8044B00F06BBA00BF5C4200204A
:1034F00000207047FEE70000704700004FF0FF30EB
:1035000070470000BFF34F8F024AD368DB03FCD43F
:10351000704700BF003C024008B5094B1B7873B9E7
:10352000FFF7F0FF074B1A69002ABFBF064A5A602F
:1035300002F188325A601A6822F480621A6008BD6B
:1035400098440020003C02402301674508B50B4B1E
:103550001B7893B9FFF7D6FF094B1A6942F0004276
:103560001A611A6842F480521A601A6822F4805272
:103570001A601A6842F480621A6008BD98440020FC
:10358000003C0240072870B513D80B4A0B4C137847
:1035900063B90B4E4FF0006144F8231056F82350E6
:1035A0000133082B2944F7D10123137054F820006C
:1035B00070BD002070BD00BFBC4400209C440020B2
:1035C00050450008014B53F8200070475045000853
:1035D00008207047072810B5044601D9002010BD07
:1035E000FFF7D0FF064B53F824301844C21A0BB92A
:1035F000012010BD12680132F0D1043BF6E700BF94
:1036000050450008072838B5044629D800F0D2F8FC
:10361000144D2860FFF776FFFFF77EFF124AF32371
:10362000D360E300DBB243F4007343F002031361A1
:10363000136943F480331361FFF764FF2046FFF7FB
:10364000A1FF0A4B53F8241000F012F9FFF77EFF98
:1036500000F0B0F828602046BDE83840FFF7BABF58
:10366000002038BDC0440020003C02405045000806
:103670002DE9F84312F00103154640D184182E4A73
:1036800094423CD82D4B1B6813F0010337D02C4CCF
:10369000FFF742FFF323E360FFF734FF40F2012717
:1036A000032D01D9830713D0254C0F46401A40F251
:1036B0000118EB1B0B44012B00EB0706236924D8F0
:1036C00023F001032361FFF741FF0120BDE8F883E8
:1036D000236923F44073236123693B43236151F839
:1036E000046B0660BFF34F8FFFF70CFF03689E4229
:1036F00008D0236923F001032361FFF727FF00208F
:10370000BDE8F883043D0430CAE723F44073236125
:10371000236943EA08032361B94637F8023B338043
:10372000BFF34F8FFFF7EEFE3688B9F80030B6B220
:10373000B342BED0DDE700BFFFFF070800380240FC
:10374000003C0240084908B50B7828B153B9FFF78F
:10375000E3FE01230B7008BD23B1BDE808400870EB
:10376000FFF7F4BE08BD00BF9844002070B5FFF716
:10377000ABFD0E4E4FF08043596A3368994210D228
:103780000B4CD4E90023003243F10103C4E90023C8
:10379000541843F100053160FFF7A0FD204629468B
:1037A00070BD034BD3E90023F2E700BFC4440020FF
:1037B000C844002008B5FFF7D9FF4FF47A72002300
:1037C000FCF726FD08BD00BF10B50244064B0439C6
:1037D000D2B2904200D110BD441C00B253F8200078
:1037E00041F8040FE0B2F4E750280040104B30B528
:1037F0001C6F240407D41C6F44F400741C671C6FF6
:1038000044F400441C670B4C236843F4807323602A
:103810000244094B0439D2B2904200D130BD441C5D
:1038200000B251F8045F43F82050E0B2F4E700BF63
:1038300000380240007000405028004007B50122C7
:1038400001A90020FFF7C0FF019803B05DF804FB59
:1038500013B50446FFF7F2FFA04206D002A90122E9
:1038600041F8044D0020FFF7C1FF02B010BD000079
:1038700070470000074B45F255521A6002225A6009
:1038800040F6FF729A604CF6CC421A60024B01225D
:103890001A70704700300040D1440020034B1B7861
:1038A0001BB1034B4AF6AA221A607047D14400208C
:1038B00000300040034B1B689B0042BF024B0122BB
:1038C0001A70704774380240D0440020024B4FF009
:1038D00080721A60704700BF74380240014B18783C
:1038E000704700BFD0440020064A536823F001030C
:1038F0005360EFF30983683383F30988002383F36C
:103900001188704730EF00E010B5202383F3118851
:10391000104B5B6813F4006318D0F1EE103AEFF32C
:1039200009844FF0807344F84C3C0B4BDB6844F83F
:10393000083CA4F1680383F30988FFF717FC18B16A
:10394000064B44F8503C10BD054BFAE783F3118851
:1039500010BD00BF00ED00E030EF00E07106000890
:103960007406000870470000FEE70000084A094B93
:1039700009498B4204D3094A0021934205D3704779
:1039800052F8040F43F8040BF3E743F8041BF4E781
:1039900008470008D8440020D8440020D84400201C
:1039A00000F096B84FF08043002258631A6102225B
:1039B000DA6070474FF080430022DA607047000001
:1039C0004FF08043586370474B6843608B68836057
:1039D000CB68C3600B6943614B6903628B694362C7
:1039E0000B6803607047000008B51F4B1F481A6939
:1039F00042F0FF021A611A6922F0FF021A611A6985
:103A00001A6B42F0FF021A631A6D42F0FF021A6548
:103A1000174A1B6D1146FFF7D7FF164802F11C012C
:103A2000FFF7D2FF144802F13801FFF7CDFF13482A
:103A300002F15401FFF7C8FF114802F17001FFF7CE
:103A4000C3FF104802F18C01FFF7BEFF0E4802F1E0
:103A5000A801FFF7B9FF0D4802F1C401FFF7B4FF59
:103A6000BDE8084000F09CB8003802400000024069
:103A7000704500080004024000080240000C0240AB
:103A8000001002400014024000180240001C0240D6
:103A900008B500F0FDF9FFF795FBBDE80840FFF71A
:103AA00009BF0000704700004FF0804310B51A694D
:103AB000920708D500241C61202383F31188FFF7A7
:103AC000BFFB84F31188BDE81040FFF71DBF000065
:103AD000104B1A6C42F001021A641A6E42F0010295
:103AE0001A660D4A1B6E936843F0010393604FF012
:103AF00080432F229A624FF0FF32DA6200229A61ED
:103B00005A63DA605A6001225A6108211A601C2047
:103B1000FFF748B800380240002004E01E4B1A6945
:103B200062F0FF021A611A69D2B21A614FF0FF30D7
:103B30001A695A69586100215A6959615A691A6AA1
:103B400062F080521A621A6A02F080521A621A6A8D
:103B50005A6A58625A6A59625A6A1A6C42F080521A
:103B60001A641A6E42F080521A661A6E0B4A106876
:103B700040F480701060186F00F44070B0F5007F62
:103B80001EBF4FF4803018671967536823F4007321
:103B9000536000F05DB900BF003802400070004083
:103BA000334B344A1A64344A4FF4404111601A6866
:103BB00042F001021A601A689207FCD59A6822F056
:103BC00003029A602A4B19469A6812F00C02FBD144
:103BD000186800F0F90018609A601A6842F48032A0
:103BE0001A600B689B03FCD54B6F43F001034B67D6
:103BF0001F4B5A6F9007FCD5204A5A601A6842F052
:103C000080721A601C4A53685904FCD5184B1A6814
:103C10009201FCD51A4A9A600322C3F88C20002234
:103C2000C3F89420174B1A68174B9A42174B1BD1B5
:103C3000174A1168174A914216D140F203121A60CE
:103C40000B4B9A6842F002029A609A6802F00C02EA
:103C5000082AFAD15A6C42F480425A645A6E42F4ED
:103C600080425A665B6E704740F20372E7E700BF1E
:103C7000003802400004001000700040106041084D
:103C800000948838002004E011640020003C0240C9
:103C900000ED00E041C20F41084A08B553691168C0
:103CA0000B4003F00103536123B1054A13680BB1C4
:103CB00050689847BDE80840FFF726BE003C014029
:103CC0000C390020084A08B5536911680B4003F00D
:103CD0000203536123B1054A93680BB1D06898473A
:103CE000BDE80840FFF710BE003C01400C39002041
:103CF000084A08B5536911680B4003F00403536187
:103D000023B1054A13690BB150699847BDE80840D3
:103D1000FFF7FABD003C01400C390020084A08B505
:103D2000536911680B4003F00803536123B1054A3E
:103D300093690BB1D0699847BDE80840FFF7E4BD2F
:103D4000003C01400C390020084A08B5536911684D
:103D50000B4003F01003536123B1054A136A0BB102
:103D6000506A9847BDE80840FFF7CEBD003C0140CF
:103D70000C390020174B10B55C691A68144004F424
:103D800078725A61A30604D5134A936A0BB1D06ABC
:103D90009847600604D5104A136B0BB1506B9847D7
:103DA000210604D50C4A936B0BB1D06B9847E20502
:103DB00004D5094A136C0BB1506C9847A30504D580
:103DC000054A936C0BB1D06C9847BDE81040FFF7E3
:103DD0009BBD00BF003C01400C3900201A4B10B5C0
:103DE0005C691A68144004F47C425A61620504D587
:103DF000164A136D0BB1506D9847230504D5134A2D
:103E0000936D0BB1D06D9847E00404D50F4A136E43
:103E10000BB1506E9847A10404D50C4A936E0BB1B8
:103E2000D06E9847620404D5084A136F0BB1506FE7
:103E30009847230404D5054A936F0BB1D06F984778
:103E4000BDE81040FFF760BD003C01400C39002088
:103E5000062108B50846FEF7A5FE06210720FEF755
:103E6000A1FE06210820FEF79DFE06210920FEF78F
:103E700099FE06210A20FEF795FE06211720FEF77F
:103E800091FE06212820BDE80840FEF78BBE000009
:103E900008B5FFF743FEFEF7A9FDFEF799FEFFF711
:103EA0009BF8FFF7FFFDBDE80840FFF779BD000074
:103EB0001FB51C46094B1B680546D86852B1084B14
:103EC00002928DE80A0022462B460649FDF706FBC2
:103ED00000F042F8044B1A46F2E700BF102700201A
:103EE000504600085D4600088840000810B50139BA
:103EF0000244904201D1002010BD10F8013B11F89E
:103F0000014FA342F5D0181B10BD00002DE9F84366
:103F10000746884691461E468BB10D46A8EB050024
:103F2000B54207EB000402D20020BDE8F883324618
:103F300049462046FFF7DAFF18B1013DEEE7BDE83C
:103F4000F8832046BDE8F883034611F8012B03F8F7
:103F5000012B002AF9D1704708B5062000F02CF893
:103F60000120FFF7C7FA00001F2938B504460D46A7
:103F700004D9162303604FF0FF3038BD426C12B1F4
:103F800052F821304BB9204600F030F82A4601465D
:103F90002046BDE8384000F017B8012B0AD0591C64
:103FA00003D116230360012038BD002442F82540C8
:103FB00028469847002038BD024B01461868FFF795
:103FC000D3BF00BF1027002038B5074C002305469B
:103FD000084611462360FFF791FA431C02D123687B
:103FE00003B12B6038BD00BFD4440020FFF780BA76
:103FF00040A2E4F1646891064E6F206170702073F6
:1040000069670A00426164206677206C656E677498
:10401000682025750A0042616420626F6172645FE6
:1040200069642025752073686F756C642062652053
:1040300025750A00426164206677206465736372A7
:104040006970746F72206C656E6774682025750ADC
:104050000042616420617070204352432030782513
:104060003038783A30782530387820307825303834
:10407000783A3078253038780A00476F6F642066C8
:1040800069726D776172650A000000007265636590
:10409000697665645F756E697175655F69645F6C8B
:1040A000656E203C2055415643414E5F50524F545F
:1040B0004F434F4C5F44594E414D49435F4E4F442F
:1040C000455F49445F414C4C4F434154494F4E5F1B
:1040D000554E495155455F49445F4D41585F4C45E8
:1040E0004E475448002E2E2F2E2E2F546F6F6C7378
:1040F0002F41505F426F6F746C6F616465722F6304
:10410000616E2E63707000616C6C6F6361746564C6
:104110005F6E6F64655F6964203C3D20313237001B
:104120006F72672E6172647570696C6F742E63753F
:1041300061765F6770730000766F69642068616EF6
:10414000646C655F616C6C6F636174696F6E5F72E4
:104150006573706F6E73652843616E617264496E3A
:104160007374616E63652A2C2043616E61726452C0
:10417000785472616E736665722A290063616E619C
:104180007264496E6974000063616E6172645365A4
:10419000744C6F63616C4E6F6465494400000000AD
:1041A00063616E61726448616E646C6552784672D8
:1041B000616D650063616E6172644465636F64651F
:1041C0005363616C6172000063616E617264456E7D
:1041D000636F64655363616C61720000696E637242
:1041E000656D656E745472616E73666572494400E4
:1041F000656E717565756554784672616D6573009D
:104200007075736854785175657565007072657066
:10421000617265466F724E6578745472616E736632
:1042200065720000636F70794269744172726179DE
:104230000000000064657363617474657254726198
:104240006E736665725061796C6F61640000000086
:1042500066726565426C6F636B0000006269745F33
:104260006C656E677468203E20300072656D616910
:104270006E696E675F62697473203E203000696EFC
:104280007075745F6269745F6F6666736574203EF3
:104290003D20626C6F636B5F6269745F6F6666730B
:1042A000657400626C6F636B5F656E645F626974F6
:1042B0005F6F6666736574203E20626C6F636B5F30
:1042C0006269745F6F66667365740072656D6169BB
:1042D0006E696E675F6269745F6C656E6774682093
:1042E0003C3D2072656D61696E696E675F626974DD
:1042F0007300696E7075745F6269745F6F66667370
:104300006574203C3D207472616E736665722D3E4B
:104310007061796C6F61645F6C656E202A20380073
:104320006F75747075745F6269745F6F66667365CC
:1043300074203C3D2036340072656D61696E696E93
:10434000675F6269745F6C656E677468203D3D20CD
:10435000300028726573756C74203E203029202649
:10436000262028726573756C74203C3D20363429F4
:104370002026262028726573756C74203C3D2062CF
:1043800069745F6C656E6774682900006465737496
:10439000696E6174696F6E20213D202828766F69EF
:1043A00064202A2930290076616C756520213D2022
:1043B0002828766F6964202A293029006F66667381
:1043C00065745F77697468696E5F626C6F636B2098
:1043D0003C2028333255202D205F5F6275696C7454
:1043E000696E5F6F66667365746F66202843616EE1
:1043F000617264427566666572426C6F636B2C20F5
:1044000064617461292900006F75745F696E73209F
:10441000213D202828766F6964202A293029000050
:104420007372635F6C656E203E20305500000000A3
:104430002863616E5F6964202620307831464646E5
:10444000464646465529203D3D2063616E5F6964BE
:1044500000000000616C6C6F6361746F722D3E73BD
:104460007461746973746963732E63757272656EB7
:10447000745F75736167655F626C6F636B73203E19
:10448000203000007472616E736665725F6964202B
:10449000213D202828766F6964202A2930290000D0
:1044A00073746174652D3E6275666665725F626CD9
:1044B0006F636B73203D3D202828766F6964202A46
:1044C000293029002E2E2F2E2E2F6D6F64756C65CE
:1044D000732F6C696263616E6172642F63616E61D8
:1044E00072642E63006974656D2D3E6672616D6540
:1044F0002E646174615F6C656E203E2030000000A8
:1045000000000000A12F00088D2F0008C92F00080F
:10451000B52F0008C12F0008AD2F0008992F000803
:10452000852F0008D52F00086D61696E000000001E
:1045300048450008A04200209844002001000000E7
:10454000C13100080000000069646C6500000000D3
:10455000004000000040000000400000004000005B
:104560000000010000000200000002000000020044
:10457000A001102800000000AAAAAAAA5001100059
:10458000FFFF0000007700000000000000A40A0107
:1045900000000000AAA6AAAA80500000DFEF0000D9
:1045A000000000778800000000000000000000000C
:1045B000AAAAAAAA00000000FFFF00000000000055
:1045C000000000000000000000000000AAAAAAAA43
:1045D00000000000FFFF00000000000000000000DD
:1045E0000000000000000000AAAAAAAA0000000023
:1045F000FFFF0000000000000000000000000000BD
:1046000000000000AAAAAAAA00000000FFFF000004
:10461000000000000000000000000000000000009A
:10462000AAAAAAAA00000000FFFF000000000000E4
:104630000000000000000000000000000A00000070
:104640000000000003000000000000000000000067
:104650002C2066756E6374696F6E3A200061737307
:10466000657274696F6E2022257322206661696C01
:1046700065643A2066696C6520222573222C206CC3
:10468000696E65202564257325730A00B4BBFF7F1E
:1046900001000000000000006400000000000000B5
:1046A000FE2A0100D20400001427002000000000B0
:1046B00000000000000000000000000000000000FA
:1046C00000000000000000000000000000000000EA
:1046D00000000000000000000000000000000000DA
:1046E00000000000000000000000000000000000CA
:1046F00000000000000000000000000000000000BA
:0C470000000000000000000000000000AD
:00000001FF
