:020000040800F2
:1000000000060020A1020008BD0F0008C10F000873
:1000100019100008C10F0008ED0F0008A302000826
:10002000A3020008A3020008A30200082D2900086B
:10003000A3020008A3020008A3020008A30200080C
:10004000A3020008A3020008A3020008A3020008FC
:10005000A3020008A3020008AD3D0008D93D000836
:10006000053E0008313E00085D3E0008A30200087E
:10007000A3020008A3020008A3020008A3020008CC
:10008000A3020008A3020008A3020008A3020008BC
:10009000A3020008A3020008A3020008893E00088A
:1000A000A3020008A3020008A3020008A30200089C
:1000B000A3020008A3020008A3020008A30200088C
:1000C000A3020008A3020008A3020008A30200087C
:1000D000A3020008A3020008A3020008A30200086C
:1000E000ED3E0008A3020008A3020008A3020008D6
:1000F000A3020008A3020008A3020008A30200084C
:10010000A3020008A3020008753F0008A30200082C
:10011000A3020008A3020008A3020008A30200082B
:10012000A3020008A3020008A3020008A30200081B
:10013000A3020008A3020008A3020008A30200080B
:10014000A3020008A3020008A3020008A3020008FB
:10015000A3020008A3020008A3020008A3020008EB
:10016000A3020008A3020008A3020008A3020008DB
:10017000A3020008CD340008A3020008A30200086F
:10018000A3020008A3020008613F0008A3020008C0
:10019000A3020008A3020008A3020008A3020008AB
:1001A000A3020008A3020008A3020008A30200089B
:1001B000A3020008A3020008A3020008A30200088B
:1001C000A3020008A3020008A3020008A30200087B
:1001D000A3020008B9340008A3020008A302000823
:1001E000A3020008A3020008A3020008A30200085B
:1001F000A3020008A3020008A3020008A30200084B
:10020000A3020008A3020008A3020008A30200083A
:10021000A3020008A3020008A3020008A30200082A
:10022000A3020008A3020008A3020008A30200081A
:10023000A3020008A3020008A3020008A30200080A
:10024000A3020008A3020008A3020008A3020008FA
:10025000A3020008A3020008A3020008A3020008EA
:10026000A3020008A3020008A3020008A3020008DA
:10027000A3020008A3020008A3020008A3020008CA
:10028000A3020008A3020008A3020008A3020008BA
:10029000A3020008A3020008A3020008A3020008AA
:1002A00002E000F000F8FEE772B6394880F30888F3
:1002B000384880F3098838484EF60851CEF20001DC
:1002C000086040F20000CCF200004EF63471CEF22D
:1002D00000010860BFF34F8FBFF36F8F40F2000043
:1002E000C0F2F0004EF68851CEF200010860BFF374
:1002F0004F8FBFF36F8F4FF00000E1EE100A4EF604
:100300003C71CEF200010860062080F31488BFF330
:100310006F8F02F06FFB03F023FB4FF055301F4946
:100320001B4A91423CBF41F8040BFAE71C49194AA9
:1003300091423CBF41F8040BFAE71A491A4A1B4B99
:100340009A423EBF51F8040B42F8040BF8E7002034
:100350001749184A91423CBF41F8040BFAE702F0F2
:100360008DFB03F07DFB144C144DAC4203DA54F8C2
:10037000041B8847F9E700F041F8114C114DAC42DD
:1003800003DA54F8041B8847F9E702F075BB000054
:1003900000060020002200200000000800000020CD
:1003A0000006002080430008002200205022002088
:1003B00050220020E8460020A0020008A002000809
:1003C000A0020008A00200082DE9F04F2DED108AD0
:1003D000C1F80CD0D0F80CD0BDEC108ABDE8F08F7D
:1003E000002383F311882846A047002001F09AFEDD
:1003F000FEE701F01BFE00DFFEE7000038B500F06D
:10040000F5FC30B1164B00220E211A725A72997205
:10041000DA7202F04DFA044602F082FA0546D0B9CB
:10042000104B9C4219D001339C4241F2883412BFD8
:10043000054600240125002002F044FA0DB100F029
:100440005BF800F061FD00F019FC204600F014F9A3
:1004500000F052F8F9E70024EDE70446EBE700BFAF
:1004600000220020010007B008B500F0D3FBA0F186
:1004700020035842584108BD054B07B51B8802218F
:1004800001A8ADF8043000F0E3FB03B05DF804FB15
:100490003040000810B5202383F311881248C36848
:1004A0000BB101F0DBFE0023104A4FF47A710E48C5
:1004B00001F082FE002383F311880D4C236813B1F1
:1004C0002368013B2360636813B16368013B636089
:1004D000084B1B7833B9636823B9022000F08CFC09
:1004E0003223636010BD00BF502200209504000835
:1004F0006C23002064220020554B56492DE9F04121
:1005000053F8042F013201D1BDE8F0818B42F7D1BD
:10051000514C524B22689A4240F29880504B9B6853
:1005200003F1006303F500339A4280F08F800020CE
:1005300000F0C0FB02204B4B187000F05BFC4A4BF4
:10054000D3F8E8200022C3F8E820D3F81011C3F84C
:100550001021D3F81011D3F8EC10C3F8EC20D3F825
:100560001411C3F81421D3F81411D3F8F010C3F800
:10057000F020D3F81811C3F81821D3F81811D3F8C4
:10058000801041F00061C3F88010D3F8801021F092
:100590000061C3F88010D3F88010D3F8801041F0C8
:1005A0000071C3F88010D3F8801021F00071C3F8F7
:1005B0008010D3F8803072B62C4B2D490B601D682B
:1005C0002468BFF34F8FBFF36F8F2A4BC3F884208B
:1005D000BFF34F8F5A6922F480325A61BFF34F8FB5
:1005E000D3F8802043F6E07EC2F3C906C2F34E3250
:1005F000B707520102EA0E0838463146013948EA87
:10060000000C00F14040B1F1FF3FC3F874C2F5D1D6
:10061000203A12F1200FEDD1BFF34F8FBFF36F8F50
:10062000BFF34F8FBFF36F8F5A6922F400325A61C4
:100630000022C3F85022BFF34F8FBFF36F8F2023E8
:1006400083F31188AD4685F308882047BDE8F08123
:10065000FCFF01081C00020804000208FFFF01085B
:1006600000220020642200200044025800000208FA
:1006700008ED00E000ED00E02DE9F04F99B0B94D34
:100680002022FF21009010A8AC6800F0DFFBB64AE2
:1006900001951378A3B90121B4481170C3602023D8
:1006A00083F31188C3680BB101F0D8FD0023B04A71
:1006B0004FF47A71AD4801F07FFD002383F3118878
:1006C000009BAC4A03B113600026AB4B009DB246C1
:1006D0003746B1461E7056600293012000F08AFB37
:1006E000002D00F02582A34B1B68002B40F02082D8
:1006F00019B0BDE8F08F0220FFF7B6FE002840F0E9
:100700001082009B02210BA8002E08BF1D469B4BA8
:100710001B88ADF82C3000F09BFADEE74FF47A70BE
:1007200000F078FAB0F10008EBDB0220FFF79CFE46
:100730000028E6D008F1FF38B8F1040F00F2F38189
:10074000DFE808F0031E2124270018A80523042150
:1007500040F8343D00F07CFA01234FF0000903FA21
:1007600008F848EA0A0A5FFA8AFA00F0C3FB27B1E0
:100770000AF00B030B2B08BF0025FFF77DFEACE74B
:1007800004217848E6E704217D48E3E704217D4819
:10079000E0E74FF01C09484609F1040900F08CFA23
:1007A00004210B900BA800F053FAB9F12C0FF2D1F1
:1007B000D2E7002FA5D00AF00B030B2BA1D102200A
:1007C000FFF752FE804600289BD001206A4E00F0C1
:1007D00071FA00270220307000F00CFB5FFA87FBF3
:1007E000584600F077FA054688B15846013700F0C0
:1007F00081FA0028F2D146460025634B02210BA85E
:1008000047461B88ADF82C3000F022FA65E701233B
:100810002C460220337000F0EBFA019B9B689C424F
:1008200006D2204600F048FA0130E4D10434F4E75F
:100830000024029B464647461C7025464D4B5C6093
:1008400093E7002F3FF45DAF0AF00B030B2B7FF40F
:1008500058AF0220029B187000F0CCFA322000F052
:10086000D9F9B0F1000BFFF64CAF1BF003087FF491
:1008700048AF019B04EB0B0299688A423FF641AFF7
:10088000BBF5807F3FF63DAF404AD84503920FDA73
:100890004FF47A7000F0BEF9049004990029FFF635
:1008A00030AF0499039A08F8021008F10108ECE748
:1008B000C820FFF7D9FD804600283FF422AF1F2C47
:1008C00011D8C4F1200710AB24F003002F495F4575
:1008D000184428BF5F463A4600F090FA3A46FF2196
:1008E0002A4800F0B3FA4FEAAB0328492046DAB2AF
:1008F000039300F0B3FA074600283FF47EAF039B52
:1009000004EB830431E70220FFF7AEFD00283FF43B
:10091000F8AE00F009FA00283FF4F3AE4FF00008FB
:100920004346019A9268904532D2B8F11F0F12D80F
:10093000109A01320FD028F0030218A90A4452F885
:10094000202C0B92184604220BA908F1040800F091
:1009500077FB0346E5E74046039300F0ADF9039BC0
:100960000B90EFE700220020682300205022002097
:10097000950400086C230020642200203240000807
:1009800004220020082200203440000868220020B1
:1009900018A8042140F84C3D00F05AF9E5E618A8E3
:1009A0000023642140F8343D00F048F900287FF42A
:1009B000A8AE0220FFF758FD00283FF4A2AE0B9826
:1009C00000F0AAF918AB43F8480D04211846E3E7F4
:1009D00018A80023642140F8343D00F02FF90028C6
:1009E0007FF48FAE0220FFF73FFD00283FF489AE71
:1009F0000B9800F093F918AB43F8440DE5E702209B
:100A0000FFF732FD00283FF47CAE00F09DF918ABF3
:100A100043F8400DD9E70220FFF726FD00283FF4F8
:100A200070AE0BA9142000F095F9804618A8042197
:100A300040F83C8D00F00CF941460BA8ACE73220A1
:100A400000F0E8F8B0F10008FFF65BAE18F0030F15
:100A50007FF457AE019A08EB0903926893423FF680
:100A600050AE0220FFF700FD00283FF44AAE28F008
:100A70000308C844C1453FF478AE484609F104096B
:100A800000F01AF904210A900AA800F0E1F8F1E751
:100A90004FF47A70FFF7E8FC00283FF432AE00F024
:100AA00043F9002842D0109B01330BD0082210A933
:100AB000002000F0D3F9002838D02022FF2110A810
:100AC00000F0C4F9FFF7D8FC364801F031FB0FE61F
:100AD000002F3FF416AE0AF00B030B2B7FF411AE80
:100AE00018A80023642140F8343D00F0A7F88046A0
:100AF00000287FF406AE0220FFF7B6FC00283FF482
:100B000000AE0390FFF7B8FC41F28830454601F093
:100B10000FFB0B9800F032FA00F0ECF9039B1F4634
:100B2000DBE5074621E64FF00009EAE5B84664E652
:100B3000002000F06FF80490049B002BFFF6D0AD6E
:100B4000012000F055F9049B213B122B3FF6C5AD67
:100B500001A252F823F000BFF70600081D070008A5
:100B6000B3070008DB060008DB060008DB06000808
:100B7000430800083F0A0008070900089F09000809
:100B8000D1090008FF090008DB060008170A000861
:100B9000DB060008910A00086B070008DB06000866
:100BA000D10A0008A08601002DE9F84F4FF47A75AC
:100BB00007460E4600245543DFF85080DFF850907A
:100BC00098F900305FFA84FA5A1C01D0A34210D180
:100BD00059F82400324639460368D3F820B02B4632
:100BE000D847864205D1084B012083F800A0BDE814
:100BF000F88F0134022CE3D14FF4FA7001F098FA27
:100C00000020BDE8F88F00BFB82300200C22002090
:100C10003840000807B5002202AB012103F8012D7E
:100C200002461846FFF7C0FF20B19DF8070003B049
:100C30005DF804FB4FF0FF30F9E700000A4604219D
:100C400008B5FFF7B1FF80F00100C0B2404208BD17
:100C5000074B30B41A78074B53F822400A46014636
:100C600023682046DD69044BAC4630BC604700BFBA
:100C7000B823002038400008A0860100F8B50A4CCF
:100C800000250A4E01F0FAFC094F208030682388C5
:100C9000834207D901F0EEFC336805440133BD42BD
:100CA0003360F3D9F8BD00BFBA23002074230020BD
:100CB000FFFF010001F0B0BD00F1006000F5003061
:100CC0000068704700F10060920000F5003001F00C
:100CD00031BD0000054B1A68054B1B889B1A8342E7
:100CE00002D9104401F0C6BC0020704774230020D4
:100CF000BA23002038B5074D04462868204401F087
:100D0000BFFC28B928682044BDE8384001F0CABCBF
:100D100038BD00BF7423002000207047014BC0582D
:100D2000704700BF00E8F11F064991F8243033B145
:100D300000230822086A81F82430FFF7C3BF01208E
:100D4000704700BF78230020014B1868704700BF30
:100D50000010005C234BF0B5234C1B682788C3F3BD
:100D60000B0665681B0C94F90820BE4228D0A789A1
:100D7000BE4206D101220C2505FB0244656894F9A8
:100D8000082041F20104A3421CD041F20304A34213
:100D90001AD042F20104A34218D042F20304A34243
:100DA00008BF5622441E013D0B460C44A34217D2F5
:100DB00015F9016F581C5EB1034600F8016CF5E7A8
:100DC0000022D8E75A22EDE75922EBE75822E9E75B
:100DD0002C2584421D7001D9981C5A70401AF0BD10
:100DE0001846FBE70010005C10220020002070472E
:100DF000704700007047000070470000002310B5E6
:100E0000934203D0CC5CC4540133F9E710BD000019
:100E100030B5441E14F9010F0B4658B193F9005038
:100E20000131854206D11AB993F90020801A30BDEC
:100E3000013AEFE7002AF7D1104630BD02460346DB
:100E4000981A13F9011B0029FAD17047024403468E
:100E5000934202D003F8011BFAE770472DE9F047EF
:100E6000234C05468846174694F8243083BB2E460B
:100E7000DFF87C90C7B394F824302BB92022FF21EF
:100E800048462662FFF7E2FF94F824004146C0F18D
:100E9000080504EB8000BD4228BF3D465FFA85FA95
:100EA000AD00A7EB0A072A462E44FFF7A7FF94F8E8
:100EB0002430A844FFB29A445FFA8AFABAF1080FC4
:100EC00084F824A0D6D1FFF72FFF0028D2D108E064
:100ED000266A06EB8306B042CAD0FFF725FF00283A
:100EE000C5D10020BDE8F0870120BDE8F08700BF34
:100EF00078230020024B1A78024B1A70704700BF0B
:100F0000B82300200C22002038B5164C164D204680
:100F100000F00CFC2946204600F034FC2D681348F4
:100F2000D5F89020D2F8043843F00203C2F8043810
:100F300001F0FEF80E49284600F036FDD5F8902065
:100F40000C48D2F804380C49A04223F00203C2F83E
:100F500004384FF4E1330B6003D0BDE8384000F0B3
:100F600043BB38BD602A00204041000840420F00CA
:100F70006C4100083C240020A023002038B50B4B16
:100F800005461A780A4B53F822400A4B9C420CD073
:100F9000094B002118221846FFF758FF056001464B
:100FA0002046BDE8384000F01FBB38BDB823002004
:100FB00038400008602A0020A0230020FEE700003F
:100FC00000B59BB0EFF3098168226846FFF716FF72
:100FD000EFF30583044B9A6BDA6A9A6A9A6A9A6A03
:100FE0009A6A9A6A9B6AFEE700ED00E000B59BB042
:100FF000EFF3098168226846FFF700FFEFF30583EE
:10100000044B9A6B9A6A9A6A9A6A9A6A9A6A9B6A73
:10101000FEE700BF00ED00E000B59BB0EFF30981F3
:1010200068226846FFF7EAFEEFF30583034B5A6B2D
:101030009A6A9A6A9A6A9A6A9B6AFEE700ED00E0E9
:1010400030B50A44074D91420BD011F8013B0924F9
:101050005840013CF7D040F300032B4083EA500096
:10106000F7E730BD2083B8ED002304491A465A50F3
:10107000C81808334260802BF9D17047BC23002088
:10108000026843681143016003B1184770470000CC
:10109000024A136843F0C0031360704700780040B1
:1010A00013B50E4C204600F093FA04F1140000949E
:1010B00000234FF400720A4900F054F90094094BE0
:1010C0004FF40072084904F1380000F0CDF9074BE5
:1010D000E365074B236602B010BD00BF3C2400202F
:1010E000A824002091100008A826002000780040C5
:1010F00000E1F505254B002908BF1946037C012BAB
:1011000030B511D1224B98420ED1224BD3F8E820B2
:1011100042F08042C3F8E820D3F8102142F0804228
:10112000C3F81021D3F810310A68036EC46D03EBC5
:1011300052038166B3FBF2F34A68150442BF23F001
:10114000070503F0070343EA4503E3608B6843F0B8
:1011500040036360CB68510543F00103A36042F490
:10116000967343F0010323604FF0FF33236205D5EC
:1011700012F0102205D0B2F1805F04D080F8643004
:1011800030BD7F23FAE73F23F8E700BF5C4000084B
:101190003C240020004402582DE9F047C66D054666
:1011A0003768F469200734621AD014F0080F0CBFB6
:1011B00000218021E20748BF41F02001A3074FF042
:1011C000200348BF41F04001600748BF41F48071EF
:1011D00083F31188281DFFF753FF002383F3118841
:1011E000E2050AD5202383F311884FF40071281DEE
:1011F000FFF746FF002383F311884FF020094FF0DB
:10120000000A14F0200831D13B0616D54FF0200912
:1012100005F1380A200610D589F31188504600F0F0
:1012200057F900282FDA0821281DFFF729FF27F09A
:1012300080033360002383F3118879060DD562069D
:101240000BD5202383F31188EA6C2B6D9A4201D1D0
:101250002B6CEBB9002383F31188E30620D5AA6E2B
:101260001369EBB15069BDE8F047184789F311885D
:10127000736A284695F86410194000F0C3F98AF3A0
:101280001188F469BDE7B06288F31188F469C1E799
:1012900027F040071021281DFFF7F2FE3760D9E73D
:1012A000BDE8F087F8B51546826804460B46AA42A9
:1012B00000D28568A1692669761AB54207D2184618
:1012C0002A46FFF79BFDA3692B44A3610DE011D9CA
:1012D000AF1B32461846FFF791FD3A46E1683044AD
:1012E000FFF78CFDE2683A44A261A36828465B1BC5
:1012F000A360F8BD18462A46FFF780FDE368E4E7DF
:10130000836893422DE9F04104460F46154600D20A
:10131000856860692669361AB54207D22A46394679
:10132000FFF76CFD63692B4463610EE013D9A5EBF5
:10133000060832463946FFF761FD4246B919E068B2
:10134000FFF75CFDE26842446261A36828465B1BCC
:10135000A360BDE8F0812A463946FFF74FFDE368F8
:10136000E2E7000010B50A440024C361029B00605C
:1013700040608460C160816141610261036210BDAF
:1013800008B582694369934201D1826882B9826853
:10139000013282605A1C42611970426903699A42A3
:1013A00001D3C3684361002100F0DEFE002008BDC8
:1013B0004FF0FF3008BD000070B5202304460E46F4
:1013C00083F31188A568A5B1A368A269013BA36056
:1013D000531CA36115782269934224BFE368A3617B
:1013E000E3690BB120469847002383F31188284610
:1013F00070BD3146204600F0A7FE0028E2DA85F3F2
:10140000118870BD2DE9F74F05460F4690469A4664
:10141000D0F81C90202686F311884FF0000B14465C
:1014200064B1224639462846FFF73CFF034668B9B7
:101430005146284600F088FE0028F1D0002383F3AF
:101440001188A8EB040003B0BDE8F08FB9F1000FDC
:1014500003D001902846C847019B8BF31188E41AFA
:101460001F4486F31188DBE7C1608161416111444B
:10147000C361009B0060406082600161036270474D
:10148000F8B504460E461746202383F31188A56855
:10149000A5B1A368013BA36063695A1C62611E7019
:1014A000236962699A4224BFE3686361E3690BB10F
:1014B00020469847002080F31188F8BD3946204621
:1014C00000F042FE0028E2DA85F31188F8BD000042
:1014D000836942699A4210B501D182687AB98268FB
:1014E000013282605A1C82611C7803699A4201D3DE
:1014F000C3688361002100F037FE204610BD4FF025
:10150000FF3010BD2DE9F74F05460F4690469A462D
:10151000D0F81C90202686F311884FF0000B14465B
:1015200064B1224639462846FFF7EAFE034668B909
:101530005146284600F008FE0028F1D0002383F32E
:101540001188A8EB040003B0BDE8F08FB9F1000FDB
:1015500003D001902846C847019B8BF31188E41AF9
:101560001F4486F31188DBE702684368114301607A
:1015700003B11847704700001430FFF743BF000065
:101580004FF0FF331430FFF73DBF00003830FFF756
:10159000B9BF00004FF0FF333830FFF7B3BF000092
:1015A0001430FFF709BF00004FF0FF311430FFF790
:1015B00003BF00003830FFF763BF00004FF0FF3279
:1015C0003830FFF75DBF000000207047FFF768BDAF
:1015D000044B0360002343608360C36001230374F2
:1015E000704700BF7440000810B52023044683F301
:1015F0001188FFF77FFD02232374002383F31188F2
:1016000010BD000038B5C36904460D461BB904215E
:101610000844FFF7A9FF294604F11400FFF7B0FEC4
:10162000002806DA201D4FF48061BDE83840FFF73E
:101630009BBF38BD026843681143016003B118477E
:101640007047000037B5446B41F6A40563591A682A
:101650001178042914D1217C022911D1197901238F
:1016600012898B4013420BD101A904F14C0002F006
:1016700075F864590246019B2179206800F0ECF965
:1016800003B030BD143001F0F9BF00004FF0FF335C
:10169000143001F0F3BF00004C3002F0CBB8000072
:1016A0004FF0FF334C3002F0C5B80000143001F0A9
:1016B000C7BF00004FF0FF31143001F0C1BF000080
:1016C0004C3002F097B800004FF0FF324C3002F07F
:1016D00091B8000070B541F6A4060546825913681A
:1016E0001978042901D0012070BD017C0229FAD1AA
:1016F000127901205C8990400440F4D105F1140076
:1017000001F058FF02460028EDD0AD594FF4407368
:101710002868697900F08EF9204670BD406BFFF7AC
:10172000D9BF000000207047704700007FB5124B02
:1017300001250426044603600023057400F1840299
:10174000436029468360C3600C4B029014300193C0
:101750004FF44073009601F009FF094B04F69442E0
:101760002946019304F14C004FF440730294009613
:1017700001F0D0FF04B070BD9C4000081D170008A8
:10178000451600080A68202383F311880B790B3370
:1017900042F823004B79133342F823008B7913B1BD
:1017A0000B3342F8230041F6A403C1500223037413
:1017B000002383F31188704738B5037F044613B1C3
:1017C00090F85430ABB90125201D0221FFF732FFFC
:1017D00004F1140025776FF0010100F0D1FC84F8CA
:1017E000545004F14C006FF00101BDE8384000F0A6
:1017F000C7BC38BD10B5012104460430FFF71AFFFD
:101800000023237784F8543010BD000038B5044617
:101810000025143001F0C2FE04F14C00257701F0E0
:1018200091FF201D84F854500121FFF703FF20464B
:10183000BDE83840FFF74EBF90F8803003F06003FA
:10184000202B19D190F88120212A0AD0222A4FF08A
:1018500000030ED0202A0FD1084A42670722826770
:1018600004E0064B4367072383670023C367012017
:10187000704743678367F9E70020704728220020FC
:1018800073B541F6A405044643591A681178042932
:1018900019D1017C022916D11979012312898B40B3
:1018A000134210D100F14C06304602F00BF850B153
:1018B00001A9304601F052FF64590246019B21798B
:1018C000206800F0C9F802B070BD000001F10B0300
:1018D000F7B550F8234005460E46F4B1202383F3B4
:1018E000118805EB8607201D08214C34FFF7A2FE66
:1018F000FB685B691B6813B1204601F03DFF01A93D
:10190000204601F02BFF024648B1019B3146284694
:1019100000F0A2F8002383F3118803B0F0BDFB6848
:101920005A691268002AF5D01B8A013B1340F1D195
:1019300005F18002EAE70000133138B550F8214084
:10194000E4B1202383F3118841F6A403E25813681D
:10195000527903EB8203DB689B695D6845B1042122
:101960006018FFF767FE294604F1140001F02CFE11
:101970002046FFF7AFFE002383F3118838BD000037
:101980007047000001F00EB9012300F1300200F1B0
:10199000500103700023436042F8043B8A42D36144
:1019A000FAD103814381704738B50446202383F37D
:1019B0001188002500F10C0300F13002416043F86A
:1019C000045B9342FBD1204601F00EF90223237001
:1019D00085F3118838BD000070B500EB8103054622
:1019E00050690E461446DA6018B110220021FFF744
:1019F0002DFAA06918B110220021FFF727FA31460D
:101A00002846BDE8704001F001BA0000038900F1EA
:101A10003002002103F001030381438903F0010335
:101A2000438100F1100343F8041B9342FBD101F002
:101A300085BA0000F0B4012500EB810447898D4090
:101A4000E4683D43A469458123600023A26063608C
:101A5000F0BC01F0A1BA0000F0B4012500EB810454
:101A600007898D40E4683D43646905812360002354
:101A7000A2606360F0BC01F019BB0000022300F11A
:101A80000C0200F1300110B5037004460023A0F8E9
:101A9000883080F88A3080F88B300381438142F8A7
:101AA000043B8A42FBD184F87030204601F042F9B1
:101AB00063681B6823B120460021BDE81040184729
:101AC00010BD0000037880F88C3005230370436854
:101AD0001B6810B504460BB10421984700232381ED
:101AE000638110BD436890F88C201B6802700BB1B5
:101AF000052118477047000090F8703070B5044613
:101B000013B1002380F8703004F18002204601F008
:101B100039FA63689B6863BB94F8805015F06006DF
:101B200015D194F8813005F07F0545EA032540F290
:101B300002339D4200F00E815BD8022D00F0DC8064
:101B40003FD8002D00F08780012D00F0CF800021CC
:101B5000204601F0D1FC0021204601F0C1FC636861
:101B60001B6813B1062120469847062384F870307D
:101B700070BD204698470028CED094F8872094F86E
:101B8000863043EA0223A26F934238BFA36794F9D9
:101B90008030A56F002B4FF0200380F2FD80002DD8
:101BA00000F0EC80092284F8702083F31188002172
:101BB000A36F626F2046FFF74FFF002383F3118866
:101BC00070BDB5F5817F00F0B180B5F5407F49D09B
:101BD000B5F5807FBBD194F88230012BB7D1B4F832
:101BE000883023F00203A4F888306667A667E667AA
:101BF000C3E740F201639D421ED8B5F5C06F3BD2EA
:101C0000B5F5A06FA3D1B4F88030B3F5A06F0ED1B5
:101C100094F88230204684F88A3001F0E9F863684D
:101C20001B6813B10121204698470323237000232A
:101C30006367A367E367A0E7B5F5106F32D040F69E
:101C400002439D4252D0B5F5006F80D104F18B0361
:101C50006367012324E004F18803E56763670223D7
:101C6000A3678AE794F88230012B7FF470AFB4F851
:101C7000883043F00203B6E794F885202046616877
:101C800094F884304D6843EA022394F8831094F862
:101C90008220A84700283FF45AAF4368636703686F
:101CA000A367A4E72378042B10D1202383F31188A2
:101CB0002046FFF7ABFE86F311886368032184F8A2
:101CC0008B601B6821700BB12046984794F88230D6
:101CD000002BACD084F88B300423237063681B681E
:101CE000002BA4D0022120469847A0E7374B63671A
:101CF0000223A36700239DE794F88410204611F087
:101D0000800F01F00F010ED001F02EF9012806D04E
:101D100002287FF41CAF2E4BA067636767E72D4B4B
:101D2000A567636763E701F011F9EFE794F8823084
:101D3000002B7FF40CAF94F8843013F00F013FF4C4
:101D400076AF1A06204602D501F0EEFB6FE701F0F0
:101D5000DFFB6CE794F88230002B7FF4F8AE94F848
:101D6000843013F00F013FF462AF1B06204602D50A
:101D700001F0C2FB5BE701F0B3FB58E7142284F8E3
:101D8000702083F311882B462A4629462046FFF708
:101D900051FE85F3118870BD5DB1152284F8702065
:101DA00083F311880021A36F626F2046FFF742FE84
:101DB00003E70B2284F8702083F311882B462A4610
:101DC00029462046FFF748FEE3E700BFCC40000865
:101DD000C4400008C840000838B590F87030044688
:101DE000152B29D8DFE803F03E28282828283E288C
:101DF000280B293928282828282828283E3E90F80A
:101E0000871090F88620836F42EA01229A4214D903
:101E1000C268128AB3FBF2F502FB15356DB92023B7
:101E200083F311882B462A462946FFF715FE85F3D2
:101E300011880A2384F8703038BD142384F8703078
:101E4000202383F31188002320461A461946FFF702
:101E5000F1FD002383F3118838BDC36F03B19847A8
:101E60000023E7E7002101F047FB0021204601F0B5
:101E700037FB63681B6813B1062120469847062389
:101E8000D8E7000090F87020152A38B5044622D80B
:101E90000123934040F6416213421DD113F4801593
:101EA0000FD19B0217D50B2380F87030202383F3CA
:101EB00011882B462A462946FFF7CEFD85F3118867
:101EC00038BDC3689B695B682BB9C36F03B1984782
:101ED000002384F8703038BD002101F00DFB002193
:101EE000204601F0FDFA63681B6813B10621204605
:101EF00098470623EDE70000024B00221B605B6061
:101F00009A607047A8280020002382680374054B5C
:101F10001B6899689142FBD25A6803604260106066
:101F200058607047A828002008B5202383F3118843
:101F3000037C032B05D0042B0DD02BB983F3118820
:101F400008BD436900221A604FF0FF334361FFF779
:101F5000DBFF0023F2E790E80C001A600268536090
:101F6000F2E70000002382680374054B1B68996840
:101F70009142FBD85A680360426010605860704715
:101F8000A8280020054B1969087418680268536076
:101F90001A60186101230374FEF716BAA8280020FE
:101FA0004B1C30B5054687B00A4C10D0236901A8F8
:101FB000094A00F001F92846FFF7E4FF049B13B13A
:101FC00001A800F04BF92369586907B030BDFFF74D
:101FD000D9FFF8E7A8280020291F000838B50C4DC4
:101FE000044641612B6981689A68914203D8BDE833
:101FF0003840FFF789BF1846FFF7B4FF01232C6173
:10200000014623742046BDE83840FEF7DDB900BF25
:10201000A8280020044B1A681B6990689B689842A6
:1020200094BF002001207047A828002010B5084C5C
:10203000236820691A6854602260012223611A749F
:10204000FFF790FF01462069BDE81040FEF7BCB9DC
:10205000A8280020FEE7000010B50C4CFFF74CFF4D
:1020600000F09CF880220A49204600F021F8012364
:1020700044F8180C037400F069FC002383F3118802
:1020800062B60448BDE8104000F034B8D028002003
:10209000D0400008D840000800F01AB9034B596836
:1020A0005A68521A9042FBD8704700BF001000E0F7
:1020B0008260022202740022427470478368A3F196
:1020C0007C0243F80C2C026943F83C2C426943F82B
:1020D000382C074A43F81C2CC268A3F1180043F8B7
:1020E000102C022203F8082C002203F8072C70475A
:1020F000E103000810B5202383F31188FFF7DEFF0A
:1021000000210446FFF76AFF002383F3118820466D
:1021100010BD0000024B1B6958610F20FFF732BF52
:10212000A8280020202383F31188FFF7F3BF0000C5
:1021300008B50146202383F311880820FFF730FFFC
:10214000002383F3118808BD49B1064B42681B691F
:1021500018605A60136043600420FFF721BF4FF0FE
:10216000FF307047A82800200368984206D01A68FC
:102170000260506018465961FFF7C6BE7047000004
:1021800038B504460D462068844200D138BD036846
:1021900023605C604561FFF7B7FEF4E7054B03F190
:1021A00014025A619A614FF0FF32DA6100221A621A
:1021B000704700BFA8280020F8B5274F0D460361DF
:1021C0000446C2603E4601F0B5FB3B46022D29465F
:1021D00053F8142F38BF02219A421D460AD13862A3
:1021E00008447C61BC6122606260A160BDE8F84087
:1021F00001F08ABBD7F820E0A0EB0E035F181FD3D5
:1022000000279068834217D8376AAA421F44376272
:1022100001D0C01A906073699A68914219D85A68BF
:102220002360626014605C60A1609868411A9960E4
:102230004FF0FF33F361F8BD97601B1A1268E0E7B7
:1022400093689F4203D20EEB070001F06DFB394605
:10225000E1E7891A1B68DFE7A828002038B51B4B87
:1022600001685A691D46904203F114020CD044687B
:1022700021600021036893425C60C16025D09A68A8
:1022800081680A449A6038BD59614A6000215B69DF
:10229000C160934203D1BDE8384001F03FBB9A686A
:1022A00081680A449A602C6A01F044FB6A69001B49
:1022B0009268824209D9111A012998BF821C286AA2
:1022C000BDE83840104401F02FBB38BDA8280020DD
:1022D0002DE9F84F204C0027656904F11406B84633
:1022E00001F028FB236AA0EB030AAB6853451DD815
:1022F0004FF02009236AAA68D5F80CB01344236272
:10230000AB68AAEB030A2B68B3425E606361EF60BF
:1023100001D101F003FB88F311882869D84789F3BC
:1023200011886569AB689A45E4D2D9E76369B3421D
:1023300010D020629A68A2EB0A029A60226AAB6807
:10234000821A9B1A022B2CBFC0180230BDE8F84F2E
:1023500001F0EABABDE8F88FA828002000207047F5
:10236000FEE70000704700004FF0FF3070470000AC
:10237000022906D0032906D00129064818BF0020EB
:10238000704705487047032A9ABF044800EBC20013
:1023900000207047C84100087C410008302200201E
:1023A00070B59AB006460846144601AD294600F0BD
:1023B00095F82846FEF742FDC0B2431C5B0086E854
:1023C000180023700323023404F8013C002319464B
:1023D000DAB20234904201D81AB070BDEA5C01331F
:1023E00004F8011C04F8022CF2E7000008B52023D1
:1023F00083F311880348FFF743FA002383F311881E
:1024000008BD00BF602A002010B50446052916D873
:10241000DFE801F016150316161D202383F311883B
:102420000E4A0121FFF7D8FA20460D4A0221FFF794
:10243000D3FA0C48FFF7EAF9002383F3118810BDA3
:10244000202383F311880748FFF7B6F9F4E7202328
:1024500083F311880348FFF7CDF9EDE7F840000852
:102460001C410008602A002038B50C4D0C4C2A464F
:102470000C4904F10800FFF793FF05F1CA0204F1CB
:1024800010000949FFF78CFF05F5CA7204F1180026
:102490000649BDE83840FFF783BF00BF384300203E
:1024A00030220020484100085541000863410008DF
:1024B00070B5044608460D46FEF7C0FCC6B220467D
:1024C000013403780BB9184670BD32462946FEF731
:1024D0009FFC0028F3D1012070BD00002DE9F84FCA
:1024E00005460C46FEF7AAFC2C49C6B22846FFF763
:1024F000DFFF08B10336F6B229492846FFF7D8FFB7
:1025000008B11036F6B2632E0DD8DFF89080DFF8F0
:102510009090244FDFF894A0DFF894B02E7846B95D
:102520002670BDE8F88F29462046BDE8F84F01F037
:1025300077BD252E2ED1072241462846FEF768FC9E
:1025400070B9DBF8003007350A3444F80A3CDBF890
:10255000043044F8063CBBF8083024F8023CDDE7C0
:10256000082249462846FEF753FC98B9A21C0E4B98
:1025700013F8011F023209095345C95D02F8041C12
:10258000197801F00F01C95D02F8031CF0D118346D
:102590000835C3E7267001350134BFE7E84100087C
:1025A00063410008FB410008FFE7F11F0BE8F11F42
:1025B000F0410008BFF34F8F044B1A695107FCD15B
:1025C000D3F810215207F8D1704700BF0020005205
:1025D00008B50D4B1B78ABB9FFF7ECFF0B4BDA6876
:1025E000D10704D50A4A5A6002F188325A60D3F8FA
:1025F0000C21D20706D5064AC3F8042102F188321D
:10260000C3F8042108BD00BF9645002000200052F9
:102610002301674508B5114B1B78F3B9104B1A69B4
:10262000510703D5DA6842F04002DA60D3F810218E
:10263000520705D5D3F80C2142F04002C3F80C2113
:10264000FFF7B8FF064BDA6842F00102DA60D3F810
:102650000C2142F00102C3F80C2108BD9645002070
:10266000002000520F289ABF00F58060400400202F
:10267000704700004FF40030704700001020704792
:102680000F2808B50BD8FFF7EDFF00F500330268FF
:10269000013204D104308342F9D1012008BD002069
:1026A00008BD00000F2810B504463FD8FFF782FF91
:1026B000FFF78EFF1E484FF0FF33072C4361C0F831
:1026C00014311DD80361FFF775FF230243F0240383
:1026D000C360C36843F08003C36003695A07FCD436
:1026E000FFF768FF2046FFF7BDFF4FF4003100F011
:1026F000F9F8FFF78FFF2046BDE81040FFF7C0BF95
:10270000C0F81031FFF756FFA4F108031B0243F095
:102710002403C0F80C31D0F80C3143F08003C0F82A
:102720000C31D0F810315B07FBD4D9E7002010BD85
:10273000002000522DE9F84F40EA02030546894681
:102740009046DB065AD122F003020346024493422C
:1027500005D1FFF73DFF4E46DFF8B8B042E01968FB
:1027600001314BD10433F2E7264A05F1784326487C
:102770009342264B264F88BF9A46A3F1FC039CBF89
:10278000DA46184603F1F80388BF1F46FFF712FF29
:102790004FF0FF3306F11C02A5EB060E03603B6809
:1027A00043F002033B60331FDAF8004014F00504E5
:1027B000FAD153F8041F9A424EF80310F4D1BFF334
:1027C0004F8FFFF7F7FE4FF0FF33202231460360B3
:1027D00028463B6823F002033B6001F011FC58B926
:1027E00020352036A8EB06034B441F2BBCD8012014
:1027F000FFF710FFBDE8F88F2046F9E70020BDE89D
:10280000F88F00BFFFFF0F0014210052102100526B
:102810000C2000521020005210B5084C237828B12B
:1028200053B9FFF7D5FE0123237010BD23B12070EB
:10283000BDE81040FFF7EEBE10BD00BF964500207A
:1028400002440439064BD2B210B5904200D110BDFB
:10285000441C00B253F8200041F8040FE0B2F4E742
:10286000504000580F4B30B51C6F240405D41C6F2A
:102870001C671C6F44F400441C670B4C0244043971
:102880002368D2B243F480732360084B904200D196
:1028900030BD441C51F8045F00B243F82050E0B250
:1028A000F4E700BF00440258004802585040005866
:1028B00007B5012201A90020FFF7C2FF019803B06C
:1028C0005DF804FB13B50446FFF7F2FFA04206D003
:1028D00002A90122002041F8044DFFF7C3FF02B016
:1028E00010BD00000144BFF34F8F064B884204D354
:1028F000BFF34F8FBFF36F8F7047C3F85C02203078
:10290000F4E700BF00ED00E0034B1B685B0142BF32
:102910000122024B1A707047D0440258974500209C
:10292000014B1878704700BF97450020EFF30983EB
:10293000054968334A6822F001024A6083F3098836
:10294000002383F31188704730EF00E0202080F3EC
:10295000118862B60D4B0E4AD96821F4E061090472
:10296000090C0A430B49DA60CA6842F08072CA60F7
:10297000094A0A49C2F8B01F116841F0010111600B
:102980001022DA7783F82200704700BF00ED00E0E4
:102990000003FA05F0ED00E0001000E055CEACC5F4
:1029A00010B5202383F311880E4B5B6813F400638A
:1029B00014D0F1EE103AEFF309844FF08073683CC5
:1029C000E361094BDB68236684F30988FFF722FB88
:1029D00010B1064BA36110BD054BFBE783F31188D3
:1029E00010BD00BF00ED00E030EF00E0F303000891
:1029F000F6030008F0B5BFF34F8FBFF36F8F1D4B89
:102A00000021C3F85012BFF34F8FBFF36F8F5A6985
:102A100042F400325A61BFF34F8FBFF36F8FC3F898
:102A20008410BFF34F8FD3F8802043F6E076C2F3D3
:102A3000C904C2F34E32A507520102EA060E284627
:102A400021464EEA0007013900F14040C3F86072A8
:102A50004F1CF6D1203A12F1200FEED1BFF34F8F69
:102A60005A6942F480325A61BFF34F8FBFF36F8FC0
:102A7000F0BD00BF00ED00E0FEE70000084A094B92
:102A800009498B4204D3094A0021934205D3704778
:102A900052F8040F43F8040BF3E743F8041BF4E780
:102AA000CC430008E8460020E8460020E846002025
:102AB000D0F89430002170B5D0F890404FF0FF3539
:102AC0009E684A01A318D3F80009002805DAD3F854
:102AD000000940F08040C3F80009D3F8000B00283B
:102AE00005DAD3F8000B40F08040C3F8000B013149
:102AF000A3188E42C3F80859C3F8085BE1D24FF01F
:102B00000113C4F81C3870BD00EB81032DE9F04FB0
:102B1000D3F80CE04F1C4FEA4118DEF814403F0395
:102B2000D4F800C06568D0F8902065450AD301202C
:102B3000D2F8343800FA01F123EA0101C2F834185E
:102B4000BDE8F08FACEB0503BEF81060B34228BFC0
:102B5000334602EB0806D6F81869B6B2B3EB860F17
:102B600013D8A6683A449946A6F1040A5AF804BF55
:102B7000B9F1040FC2F800B002D9A9F10409F5E7D0
:102B80001E442B44A6606360CCE70020BDE8F08FB4
:102B9000890141F02001016103699B06FCD41220E8
:102BA000FFF77CBA10B50A4C2046FEF7EDFE094B44
:102BB000C4F89030084BC4F89430084C2046FEF717
:102BC000E3FE074BC4F89030064BC4F8943010BDB8
:102BD000984500200000084030420008344600209C
:102BE000000004403C4200080378012B70B5054604
:102BF0005DD1494BD0F89040984259D1474B0E21B6
:102C00006520D3F8D82042F00062C3F8D820D3F86A
:102C1000002142F00062C3F80021D3F80021D3F86C
:102C2000802042F00062C3F88020D3F8802022F098
:102C30000062C3F88020D3F8803000F081FC384B6C
:102C4000E360384BC4F800380023D5F89060C4F82E
:102C5000003EC02323604FF40413A3633369002BA9
:102C6000FCDA01230C203361FFF718FA3369DB0724
:102C7000FCD41220FFF712FA3369002BFCDA00268D
:102C80002846A660FFF714FF6B68C4F81068DB687D
:102C9000C4F81468C4F81C68002B3AD1224BA36115
:102CA0004FF0FF336361A36843F00103A36070BD7D
:102CB0001E4B9842C8D1194B0E214D20D3F8D82075
:102CC00042F00072C3F8D820D3F8002142F000721D
:102CD000C3F80021D3F80021D3F8802042F000721D
:102CE000C3F88020D3F8802022F00072C3F880203F
:102CF000D3F88020D3F8D82022F08062C3F8D820FF
:102D0000D3F8002122F08062C3F80021D3F800310B
:102D100093E7074BC3E700BF9845002000440258E3
:102D20004014004003002002003C30C03446002024
:102D3000083C30C0F8B5D0F89040054600214FF06F
:102D400000662046FFF724FFD5F8941000234FF0CB
:102D500001128F684FF0FF30C4F83438C4F81C28D3
:102D600004EB431201339F42C2F80069C2F8006BC2
:102D7000C2F80809C2F8080BF2D20B68D5F8902007
:102D8000C5F89830636210231361166916F01006B7
:102D9000FBD11220FFF782F9D4F8003823F4FE6348
:102DA000C4F80038A36943F4402343F01003A3613F
:102DB0000923C4F81038C4F814380B4BEB604FF0FB
:102DC000C043C4F8103B094BC4F8003BC4F8106979
:102DD000C4F80039D5F8983003F1100243F4801399
:102DE000C5F89820A362F8BD0C420008408000108E
:102DF000D0F8902090F88A10D2F8003823F4FE63BF
:102E000043EA0113C2F80038704700002DE9F04191
:102E10000EB20D4600EB8608D8F80C100F6807F0CC
:102E20000303022B53D0032B53D03F4A3F4F012BB8
:102E300018BF1746D0F890404FEA451E002205F112
:102E4000100C04EB0E03C3F8102B8A69002A42D041
:102E50004A8A05F158033A435B01E2500123D4F852
:102E60001C2803FA0CF31343C4F81C38A6440023AF
:102E70004A69CEF8103905F13F03002A3BD00A8A8F
:102E800004EB8303898B9208012988BF4A43D0F859
:102E90009810561841EA02422946C0F89860204628
:102EA0005A60FFF775FED8F80C301B8A43EA855349
:102EB0001F4305F148035B01E7500123D4F81C28A8
:102EC00003FA05F51543C4F81C58BDE8F081184F06
:102ED000B0E7184FAEE704EB4613D3F8002B22F40B
:102EE0000042C3F8002B0123D4F81C2803FA0CF38A
:102EF00022EA0303B8E704EB83030F4A04EB461608
:102F000029465A602046FFF743FED6F800390122D1
:102F100023F4004302FA05F5C6F80039D4F81C384A
:102F200023EA0505CFE700BF0080001000800410F1
:102F30000080081000800C1000040002D0F89420DB
:102F40001268C0F89820FFF7B3BD00005831D0F8E0
:102F5000903049015B5813F4004004D013F4001F73
:102F600014BF0120022070474831D0F89030490149
:102F70005B5813F4004004D013F4001F14BF012069
:102F80000220704700EB8101CB68196A0B6813605F
:102F90004B6853607047000000EB810330B5DD687B
:102FA000AA691368D36019B9402B84BF402313600A
:102FB0006B8A1468D0F890201C4402EB4110013C4D
:102FC00009B2B4FBF3F46343033323F0030343EA8E
:102FD000C44343F0C043C0F8103B2B6803F0030325
:102FE000012B0ED1D2F8083802EB411013F4807F88
:102FF000D0F8003B14BF43F0805343F00053C0F8B7
:10300000003B02EB4112D2F8003B43F00443C2F80C
:10301000003B30BD2DE9F041D0F8906005460C46EC
:1030200006EB4113D3F8087B3A07C3F8087B08D5B1
:10303000D6F814381B0704D500EB8103DB685B6806
:103040009847FA072FD5D6F81438DB072BD505EBB0
:103050008403D968CCB98B69488A5E68B6FBF0F204
:1030600000FB12628AB91868DA6890420DD2121A0F
:1030700083E81400202383F3118821462846FFF7B4
:103080008BFF84F31188BDE8F081012303FA04F279
:103090006B8923EA02036B81CB6823B12146284662
:1030A000BDE8F0411847BDE8F081000000EB810366
:1030B0004A0170B5DD68D0F890306C692668E6602A
:1030C00056BB1A444FF40020C2F810092A6802F0D7
:1030D0000302012A0AB20ED1D3F8080803EB421406
:1030E00010F4807FD4F8000914BF40F0805040F005
:1030F0000050C4F8000903EB4212D2F8000940F076
:103100000440C2F800090122D3F8340802FA01F1A0
:103110000143C3F8341870BD19B9402E84BF402054
:10312000206020681A442E8A841940F00050013C27
:10313000B4FBF6F440EAC440C6E700002DE9F041D4
:10314000D0F8906004460D4606EB4113D3F8087999
:10315000C3F80879FB071CD5D6F81038DA0718D55C
:1031600000EB8103D3F80CE0DEF81430D3F800C094
:10317000DA6894451BD2A2EB0C024FF000081A60EB
:10318000C3F80480202383F31188FFF78FFF88F3AF
:1031900011883B0618D50123D6F83428AB401342DA
:1031A00012D029462046BDE8F041FFF7ADBC01230F
:1031B00003FA01F2038923EA02030381DEF80830EF
:1031C000002BE6D09847E4E7BDE8F0812DE9F04711
:1031D000D0F8905004466E69AB691E40F1046E61F0
:1031E00003D5BDE8F047FEF749BC002E12DAD5F84A
:1031F000003E9A0705D0D5F8003E23F00303C5F83A
:10320000003ED5F80438204623F00103C5F8043801
:10321000FEF768FC330505D52046FFF749FC20463C
:10322000FEF750FCB7040CD5D5F8083813F0060F9C
:10323000EB6823F470530CBF43F4105343F4A053D2
:10324000EB60300704D56368DB680BB12046984714
:10325000F10200F1A180B2020BD5D4F890800027D2
:103260004FF00109D4F89430F9B29B688B4280F09A
:10327000D280F3061AD5D4F890100A6AC2F30A175E
:1032800002F00F0302F4F012B2F5802F00F0EB8091
:10329000B2F5402F0AD104EB830301F58051DB68BE
:1032A000186A00231A469F4240F0D1803003D5F8B7
:1032B000185835D5E90303D500212046FFF7AAFEAB
:1032C000AA0303D501212046FFF7A4FE6B0303D513
:1032D00002212046FFF79EFE2F0303D5032120463F
:1032E000FFF798FEE80203D504212046FFF792FE7F
:1032F000A90203D505212046FFF78CFE6A0203D5FB
:1033000006212046FFF786FE2B0203D50721204623
:10331000FFF780FEEF0103D508212046FFF77AFE74
:10332000700340F1C780E90703D500212046FFF76D
:1033300005FFAA0703D501212046FFF7FFFE6B0713
:1033400003D502212046FFF7F9FE2F0703D50321FD
:103350002046FFF7F3FEEE0603D504212046FFF7D3
:10336000EDFEA80603D505212046FFF7E7FE690616
:1033700003D506212046FFF7E1FE2A0603D50721E3
:103380002046FFF7DBFEEB0540F194802046082144
:10339000BDE8F047FFF7D2BED4F890904FF0000898
:1033A0004FF0010AD4F894305FFA88F79B68BB426B
:1033B000FFF451AF09EB4713D3F8002902F4402280
:1033C000B2F5802F24D1D3F80029002A20DAD3F8CF
:1033D000002942F09042C3F80029D3F80029002ABE
:1033E000FBDB3946D4F89000FFF7D2FB22890AFABA
:1033F00007F322EA0303238104EB8703DB689B685E
:1034000013B139462046984739462046FFF77CFBE2
:1034100008F10108C6E708EB4112D2F8003B03F4BB
:103420004023B3F5802F10D1D2F8003B002B0CDAEB
:10343000628909FA01F322EA0303638104EB810341
:10344000DB68DB680BB12046984701370AE713F0C9
:10345000030F00D10A68072B03F101039EBF02701E
:10346000120A01301FE704EB830301F58051DA688B
:1034700090690268D0F808C04068A2EB000E0022F4
:103480001046974208D1DB689B699A683A449A6073
:103490005A6817445F6009E712F0030F00D108680B
:1034A000964502F1010282BF8CF80000000A0CF17F
:1034B000010CE6E7BDE8F08708B50348FFF786FE94
:1034C000BDE80840FFF76CBA9845002008B50348EE
:1034D000FFF77CFEBDE80840FFF762BA34460020E3
:1034E000D0F8903003EB4111D1F8003B43F40013C6
:1034F000C1F8003B70470000D0F8903003EB411159
:10350000D1F8003943F40013C1F8003970470000C6
:10351000D0F8903003EB4111D1F8003B23F40013B5
:10352000C1F8003B70470000D0F8903003EB411128
:10353000D1F8003923F40013C1F8003970470000B6
:1035400000F1604300F01F020901400903F56143E7
:10355000C9B2800083F80013012300F1604093405A
:1035600000F56140C0F880310360704730B5043326
:10357000039C0172002104FB0325C361049B0060CE
:103580000363059B4060C160426102618561046222
:1035900042628162C162436330BD00000022416A21
:1035A000C260416101616FF001018262C262FEF797
:1035B000E7BD000003694269934203D1C2680AB1C2
:1035C00000207047181D7047036919600021C26808
:1035D0000132C260C269134482699342036124BF0D
:1035E000436A0361FEF7C0BD38B504460D46E36883
:1035F0003BB162690020131D1268A3621344E362A9
:1036000038BD237A33B929462046FEF79DFD0028B0
:10361000EDDA38BD6FF00100FBE70000C368C26956
:10362000013BC3604369134482699342436124BFF1
:10363000436A436100238362036B03B118477047F9
:1036400070B52023044683F31188866A3EB9FFF7DC
:10365000CBFF054618B186F31188284670BDA36AD2
:10366000E26A13F8015B9342A36202D32046FFF79C
:10367000D5FF002383F31188EFE700002DE9F84F11
:1036800004460E4690469946202787F31188002568
:10369000AA46D4F828B0BBF1000F09D1494620460C
:1036A000FFF7A2FF20B18BF311882846BDE8F88F01
:1036B000A16AA8EB050BE36A5B1A9B4528BF9B46F2
:1036C000BBF1400F1BD9334601F1400251F8040B06
:1036D000914243F8040BF9D1A36A40364035403398
:1036E000A362A26AE36A9A4202D32046FFF796FFDA
:1036F0008AF311884545D8D287F31188C9E7304647
:103700005A46FDF77BFBA36A5E445D445B44A362BB
:10371000E7E7000010B5029C04330172C36103FBAC
:103720000421002300608362C362039B4060036343
:10373000049BC4604261026181610462426243632E
:1037400010BD0000026A6FF00101C260426A42616E
:10375000026100228262C262FEF712BD4369026901
:103760009A4203D1C2680AB100207047184650F847
:10377000043B0B6070470000C3680021C26901333D
:10378000C3604369134482699342436124BF436A1F
:103790004361FEF7E9BC000038B504460D46E36816
:1037A0003BB1236900201A1DA262E2691344E3625F
:1037B00038BD237A33B929462046FEF7C5FC0028D8
:1037C000EDDA38BD6FF00100FBE700000369196016
:1037D000C268013AC260C2691344826993420361BC
:1037E00024BF436A036100238362036B03B118475C
:1037F0007047000070B5202304460E4683F31188FD
:10380000856A35B91146FFF7C7FF10B185F31188F6
:1038100070BDA36A1E70A36AE26A01339342A36279
:1038200004D3E16920460439FFF7D0FF002080F37C
:10383000118870BD2DE9F84F04460D4691469A4611
:103840004FF0200888F311880026B346A76A4FB9C5
:1038500051462046FFF7A0FF20B187F3118830467C
:10386000BDE8F88FA06AA9EB0603E76A3F1A9F42FA
:1038700028BF1F46402F1BD905F1400355F8042BE4
:103880009D4240F8042BF9D1A36A40364033A3622D
:10389000A26AE36A9A4204D3E16920460439FFF739
:1038A00095FF8BF311884E45D9D288F31188CDE767
:1038B00029463A46FDF7A2FAA36A3D443E443B44FA
:1038C000A362E5E7026943699A4203D1C3681BB961
:1038D000184670470023FBE7836A002BF8D0043BAF
:1038E0009B1AF5D01360C368013BC360C3691A44D7
:1038F00083699A42026124BF436A036100238362A1
:103900000123E5E700F0BAB8034B002258631A61BF
:103910000222DA60704700BF000C00400022014B19
:10392000DA607047000C0040014B5863704700BFDD
:10393000000C0040014B586A704700BF000C00406B
:103940004B6843608B688360CB68C3600B694361DD
:103950004B6903628B6943620B6803607047000028
:1039600008B5304B40F2FF712F48D3F888200A4346
:10397000C3F88820D3F8882022F4FF6222F00702DF
:10398000C3F88820D3F88820D3F8E0200A43C3F88E
:10399000E020D3F808210A43C3F80821234AD3F8CA
:1039A00008311146FFF7CCFF214802F11C01FFF757
:1039B000C7FF204802F13801FFF7C2FF1E4802F19D
:1039C0005401FFF7BDFF1D4802F17001FFF7B8FF7A
:1039D0001B4802F18C01FFF7B3FF1A4802F1A8015E
:1039E000FFF7AEFF184802F1C401FFF7A9FF17481F
:1039F00002F1E001FFF7A4FF154802F1FC01FFF717
:103A00009FFF144802F58C71FFF79AFF00F0EAF867
:103A1000114B05229A604FF06052DA600F4A1A612A
:103A200008BD00BF00440258000002584842000888
:103A30000004025800080258000C025800100258F6
:103A40000014025800180258001C025800200258A6
:103A5000002402580028025890ED00E01F000803DF
:103A600008B500F0BBFAFEF7F7FAFEF74DFFBDE828
:103A70000840FEF7F9BC000070470000114BD3F876
:103A8000E82042F00802C3F8E820D3F8102142F001
:103A90000802C3F810210C4AD3F81031D36B43F05D
:103AA0000803D363C722094B9A624FF0FF32DA62F0
:103AB00000229A615A63DA605A6001225A611A60E0
:103AC000704700BF004402580010005C000C00402A
:103AD000094A08B51369D1680B40D9B29B076FEA50
:103AE0000101116107D5202383F31188FEF7D4FA71
:103AF000002383F3118808BD000C0040384B4FF0C1
:103B0000FF31D3F88020C3F88010D3F88020002242
:103B1000C3F88020D3F88000D3F88400C3F8841061
:103B2000D3F88400C3F88420D3F88400D86F40F021
:103B3000FF4040F4FF0040F43F5040F03F00D867A2
:103B4000D86F20F0FF4020F4FF0020F43F5020F019
:103B50003F00D867D86FD3F888006FEA40506FEA0B
:103B60005050C3F88800D3F88800C0F30A00C3F8A7
:103B70008800D3F88800D3F89000C3F89010D3F8E9
:103B80009000C3F89020D3F89000D3F89400C3F8C5
:103B90009410D3F89400C3F89420D3F89400D3F889
:103BA0009800C3F89810D3F89800C3F89820D3F879
:103BB0009800D3F88C00C3F88C10D3F88C00C3F8AD
:103BC0008C20D3F88C00D3F89C00C3F89C10D3F859
:103BD0009C10C3F89C20D3F89C3000F0D3B900BFF0
:103BE000004402580122614B1A60614BD3F8F42063
:103BF00042F00202C3F8F420D3F81C2142F0020282
:103C0000C3F81C210222D3F81C315A4BDA605A68DF
:103C10009104FCD5584A1A6001229A60574ADA602A
:103C200000221A614FF440429A61524B9A69920401
:103C3000FCD51A6842F480721A604D4B1A6F12F468
:103C4000407F04D04FF480321A6700221A671A6846
:103C500042F001021A60464A134611684807FCD533
:103C6000002111611A6912F03802FBD1012119609B
:103C70004FF0804159605A67414ADA62414A1A61FD
:103C80001A6842F480321A60394A1346116889036F
:103C9000FCD5116841F4805111601A689204FCD57A
:103CA000394A3A499A6200225A6319633849DA63F9
:103CB00099635A64374A1A64374ADA621A6842F0DA
:103CC000A8521A602A4B1A6802F02852B2F1285FF3
:103CD000F9D148229A614FF48862DA6140221A626F
:103CE0002E4ADA644FF000521A652D4A5A652D4A61
:103CF0009A6532222C4B1A601A6802F00F02022ACF
:103D0000FAD11B4B1A6942F003021A611A6902F0D8
:103D10003802182AFAD1D3F8DC2042F00052C3F856
:103D2000DC20D3F8042142F00052C3F80421D3F878
:103D30000421D3F8DC2042F08042C3F8DC20D3F821
:103D4000042142F08042C3F80421D3F80421D3F8BF
:103D5000DC2042F00042C3F8DC20D3F8042142F01A
:103D60000042C3F80421D3F80431704708810051A0
:103D7000004402580048025800C000F00200000150
:103D80000000FF01008890083230600063020701E4
:103D90001802030347040508FD0BFF010000012082
:103DA0000010E00000010100002000524FF0B0427E
:103DB00008B5D2F8883003F00103C2F8883023B187
:103DC000044A13680BB150689847BDE80840FEF7F5
:103DD000E7BD00BFBC2300204FF0B04208B5D2F8C9
:103DE000883003F00203C2F8883023B1044A936894
:103DF0000BB1D0689847BDE80840FEF7D1BD00BFC1
:103E0000BC2300204FF0B04208B5D2F8883003F050
:103E10000403C2F8883023B1044A13690BB1506916
:103E20009847BDE80840FEF7BBBD00BFBC2300209B
:103E30004FF0B04208B5D2F8883003F00803C2F85A
:103E4000883023B1044A93690BB1D0699847BDE823
:103E50000840FEF7A5BD00BFBC2300204FF0B042D4
:103E600008B5D2F8883003F01003C2F8883023B1C7
:103E7000044A136A0BB1506A9847BDE80840FEF740
:103E80008FBD00BFBC2300204FF0B04310B5D3F866
:103E9000884004F47872C3F88820A30604D5124A37
:103EA000936A0BB1D06A9847600604D50E4A136B2B
:103EB0000BB1506B9847210604D50B4A936B0BB19D
:103EC000D06B9847E20504D5074A136C0BB1506CD0
:103ED0009847A30504D5044A936C0BB1D06C98475E
:103EE000BDE81040FEF75CBDBC2300204FF0B0439E
:103EF00010B5D3F8884004F47C42C3F888206205EA
:103F000004D5164A136D0BB1506D9847230504D59F
:103F1000124A936D0BB1D06D9847E00404D50F4A57
:103F2000136E0BB1506E9847A10404D50B4A936EE3
:103F30000BB1D06E9847620404D5084A136F0BB1D9
:103F4000506F9847230404D5044A936F0BB1D06F88
:103F50009847BDE81040FEF723BD00BFBC230020FA
:103F600008B50348FDF718F9BDE80840FEF718BD8D
:103F70003C24002008B5FFF7ABFDBDE80840FEF784
:103F80000FBD0000062108B50846FFF7D9FA062143
:103F90000720FFF7D5FA06210820FFF7D1FA0621FE
:103FA0000920FFF7CDFA06210A20FFF7C9FA0621FA
:103FB0001720FFF7C5FA06212820FFF7C1FA0921CB
:103FC0007A20FFF7BDFA07213220FFF7B9FA0C215A
:103FD0005220BDE80840FFF7B3BA000008B5FFF76C
:103FE0008DFDFDF741F8FDF7F1FAFDF7CBFCFDF78C
:103FF0009BFBFFF741FDBDE80840FFF783BC0000D5
:1040000010B501390244904201D1002010BD10F8D2
:10401000013B11F8014FA342F5D0181B10BD000061
:10402000034611F8012B03F8012B002AF9D1704740
:104030001210121312110000602A00203C240020EC
:1040400053544D333248373F3F3F0053544D333282
:10405000483734332F373533000000000096000016
:104060000000000000000000000000000000000050
:1040700000000000000000009515000881150008F0
:10408000BD150008A9150008B5150008A115000800
:104090008D15000879150008C915000800000000FA
:1040A000A11600088D160008C9160008B5160008EC
:1040B000C1160008AD1600089916000885160008FC
:1040C00025170008000000000100000000000000AB
:1040D0006D61696E00000000F0400008E8280020D3
:1040E000602A0020010000005520000800000000A8
:1040F00069646C6500000000020000000000000020
:10410000CD1800083919000840004000084300207D
:10411000184300200200000000000000030000001F
:1041200000000000811900080000000010000000DD
:1041300028430020000000000100000000000000F3
:1041400098450020010102004865782F50726F6683
:1041500069434E4300437562654F72616E67652D1A
:10416000424C002553455249414C25000924000882
:104170007123000839180008ED23000843000000EF
:104180008441000809024300020100C03209040012
:1041900000010202010005240010010524010001B4
:1041A000042402020524060001070582030800FF1B
:1041B00009040100020A0000000705010240000096
:1041C000070581024000000012000000D0410008F5
:1041D0001201100102000040AE2D16100002010273
:1041E000030100000403090425424F415244250005
:1041F000437562654F72616E6765003031323334EA
:104200003536373839414243444546000000000006
:10421000F91A0008D91D0008851E0008400040005A
:10422000D0460020D046002001000000E0460020DB
:1042300080000000400100000800000000010000B4
:1042400000040000080000000000812A00000000B7
:10425000AAAAAAAA00000000FFFF000000000000B8
:1042600000A00A000001000000000000AAAAAAAAFB
:1042700000000000FFFF0000000000000000000040
:104280001400005400000000AAAAAAAA14000054B6
:10429000FFFF0000000000000000000000401000D0
:1042A00000000000AAAA8AAA00401000FFFF000038
:1042B000000000000000000040810200000000003B
:1042C000AAAAAAAA00410100F7FF0000000000709E
:1042D000070000000000000000000000AAAAAAAA2F
:1042E00000000000FFFF00000000000000000000D0
:1042F0000000000000000000AAAAAAAA0000000016
:10430000FFFF0000000000000000000000000000AF
:1043100000000000AAAAAAAA00000000FFFF0000F7
:10432000000000000000000000000000000000008D
:10433000AAAAAAAA00000000FFFF000000000000D7
:10434000000000000000000000000000AAAAAAAAC5
:1043500000000000FFFF000000000000000000005F
:104360000000000000000000AAAAAAAA00000000A5
:10437000FFFF00000000000000000000000000003F
:104380008C0000000000000000001E00FF00000084
:1043900000000000404000083F0000005004000002
:1043A0004B4000083F00000000960000000008009D
:1043B00004000000E44100080000000000000000CC
:1043C00000000000000000000000000000000000ED
:00000001FF
