:020000040800F2
:100000000007002041050008291D00082D1D0008DB
:10001000851D00082D1D0008591D00084305000816
:10002000430500084305000843050008D5440008BF
:100030004305000843050008430500084305000880
:100040004305000843050008430500084305000870
:1000500043050008430500082156000849560008DA
:100060007156000899560008C1560008430500085B
:100070004305000843050008430500084305000840
:10008000430500084305000843050008A52C0008A7
:10009000112D0008652D0008B92D0008E95600084B
:1000A0004305000843050008430500084305000810
:1000B000BD57000843050008430500084305000834
:1000C00043050008430500084305000843050008F0
:1000D00043050008430500084305000843050008E0
:1000E0004D57000843050008430500084305000874
:1000F00043050008430500084305000843050008C0
:1001000043050008430500084305000843050008AF
:10011000430500084305000843050008430500089F
:10012000430500084305000843050008430500088F
:10013000430500084305000843050008430500087F
:10014000430500084305000843050008A54C0008C6
:10015000430500084305000843050008430500085F
:10016000430500084305000843050008430500084F
:10017000430500084305000843050008430500083F
:10018000430500084305000843050008430500082F
:10019000430500084305000843050008430500081F
:1001A000430500084305000843050008430500080F
:1001B00043050008430500084305000843050008FF
:1001C00043050008430500084305000843050008EF
:1001D00043050008430500084305000843050008DF
:1001E00043050008430500084305000843050008CF
:1001F00043050008430500084305000843050008BF
:10020000D0400B1CD1409C46203AD3401843524268
:1002100063469340184370479140031C90409C46AE
:10022000203A9340194352426346D34019437047E2
:1002300053B94AB9002908BF00281CBF4FF0FF314D
:100240004FF0FF3000F07AB9ADF1080C6DE904CE43
:1002500000F006F8DDF804E0DDE9022304B07047A1
:100260002DE9F0478C460D460446089E002B51D1DF
:100270008A4217466DD9B2FA82FEBEF1000F0BD04A
:10028000CEF1200C01FA0EF520FA0CFC02FA0EF762
:100290004CEA050C00FA0EF44FEA174A250CBCFB99
:1002A000FAF81FFA87F90AFB18CC45EA0C4508FB57
:1002B00009F3AB420AD9ED1908F1FF3280F023812E
:1002C000AB4240F22081A8F102083D44ED1AA4B2ED
:1002D000B5FBFAF00AFB105544EA054400FB09F9A6
:1002E000A14509D9E41900F1FF3380F00A81A14545
:1002F00040F2078102383C44A4EB090440EA08407C
:100300000021002E61D024FA0EF4002334607360C3
:10031000BDE8F0878B4207D9002E54D0002186E833
:1003200021000846BDE8F087B3FA83F1002940F0C8
:100330008E80AB4202D3824200F2FA80841A65EBCF
:1003400003050120AC46002E3FD086E81010BDE822
:10035000F08712B90127B7FBF2F7B7FA87FEBEF1B3
:10036000000F34D1EB1B3A0C1FFA87FC0121B3FBC1
:10037000F2F8250C02FB183345EA03450CFB08F3A1
:10038000AB4207D9ED1908F1FF3002D2AB4200F2BF
:10039000D1808046ED1AA3B2B5FBF2F002FB1055F6
:1003A00043EA05440CFB00FCA44507D9E41900F11D
:1003B000FF3302D2A44500F2B8801846A4EB0C0427
:1003C00040EA08409DE731463046BDE8F087CEF16F
:1003D000200405FA0EF307FA0EF720FA04F83A0C97
:1003E00025FA04F448EA0308B4FBF2F14FEA184591
:1003F00002FB11441FFA87FC45EA044501FB0CF39C
:10040000AB4200FA0EF409D9ED1901F1FF3080F08A
:100410008A80AB4240F2878002393D44EB1A1FFAD2
:1004200088F5B3FBF2F002FB103345EA034500FB0D
:100430000CF3AB4207D9ED1900F1FF386FD2AB4294
:100440006DD902383D44EB1A40EA01418FE7C1F112
:10045000200722FA07F88B4005FA01F448EA030363
:1004600020FA07FE4FEA134CFD404EEA040EB5FB9E
:10047000FCF94FEA1E440CFB19551FFA83F844EAB5
:10048000054509FB08F4AC4202FA01F200FA01FA50
:1004900008D9ED1809F1FF3043D2AC4241D9A9F196
:1004A00002091D442D1B1FFA8EFEB5FBFCF00CFB50
:1004B00010554EEA054400FB08F8A04507D9E4189A
:1004C00000F1FF3529D2A04527D902381C4440EA63
:1004D0000940A4EB0804A0FB02894C45C6464D46E2
:1004E00015D312D056B1BAEB0E0364EB050404FA2F
:1004F00007F7CB401F43CC40376074600021BDE854
:10050000F0871846F8E69046E0E6C245EAD2B8EB36
:10051000020E69EB03050138E4E72846D7E74046B9
:1005200091E78146BEE7014678E702383C4445E75B
:10053000084608E7A8F102083D442BE7704700BFD2
:1005400002E000F000F8FEE772B6394880F3088850
:10055000384880F3098838484EF60851CEF2000139
:10056000086040F20000CCF200004EF63471CEF28A
:1005700000010860BFF34F8FBFF36F8F40F20000A0
:10058000C0F2F0004EF68851CEF200010860BFF3D1
:100590004F8FBFF36F8F4FF00000E1EE100A4EF661
:1005A0003C71CEF200010860062080F31488BFF38E
:1005B0006F8F03F0F3FF04F0D9FE4FF055301F4961
:1005C0001B4A91423CBF41F8040BFAE71C49194A07
:1005D00091423CBF41F8040BFAE71A491A4A1B4BF7
:1005E0009A423EBF51F8040B42F8040BF8E7002092
:1005F0001749184A91423CBF41F8040BFAE704F04E
:1006000011F804F00FFF144C144DAC4203DA54F807
:10061000041B8847F9E700F041F8114C114DAC423A
:1006200003DA54F8041B8847F9E703F0F9BF000028
:100630000007002000230020000000080001002027
:1006400000070020485C00080023002060230020F1
:10065000602300203C400020000200080002000847
:1006600000020008000200082DE9F04F2DED108A6D
:10067000C1F80CD0D0F80CD0BDEC108ABDE8F08FDA
:10068000002383F311882846A047002003F0EEFAE8
:10069000FEE703F04BFA00DFFEE70000F8B52D4B54
:1006A000042200241A705A7007229C70DC701C719E
:1006B0005C719C71DC711C725C729A72DC7203F06A
:1006C000A3FE074603F000FF0646A8BB224B9F424D
:1006D00034D001339F4234D0204B27F0FF029A429E
:1006E00032D1F8B200F068FD354642F2107400F0E5
:1006F00079FF00F067FD08B90546044636B1184B8E
:100700009F4203D003F0D8FE00242546002003F0CA
:1007100085FE144B1B695B041AD40DB100F06CF814
:1007200001F0D2FA00F080FF01F06EF9204600F0EF
:1007300007F900F061F8F9E70546D8E705460446F1
:10074000D5E704460125D2E705464FF47A74CEE793
:100750000024E5E760230020010007B0000008B096
:10076000263A09B00008024008B501F01FF9A0F1CF
:1007700020035842584108BD07B5054B02211B888C
:10078000ADF8043001A801F02FF903B05DF804FBC7
:10079000A458000810B5202383F311881248C368B9
:1007A0000BB103F0FFFA0023104A0F484FF47A719F
:1007B00003F0A6FA002383F311880D4C236813B1CC
:1007C0002368013B2360636813B16368013B636086
:1007D000084B1B7833B9636823B9022001F0E2F9B2
:1007E0003223636010BD00BF6C2300209507000812
:1007F00088240020802300202DE9F041464B474902
:1008000053F8042F013201D1BDE8F0818B42F7D1BA
:10081000434C444B22689A427CD9434B9B6803F17A
:10082000006303F580339A4274D203F019FE03F09B
:100830002BFE002001F002F93C4B0220187001F061
:10084000A9F93B4B1A6C00221A64196E1A66196ECC
:10085000596C5A64596E5A66596E596941F0800153
:100860005961596921F0800159615969196941F04B
:1008700000511961196921F0005119611B6972B6A3
:100880002C492D4B0B601D682468BFF34F8FBFF3BD
:100890006F8F2A4BC3F88420BFF34F8F5A6922F41D
:1008A00080325A61BFF34F8FD3F88020C2F3C9065C
:1008B000C2F34E325201B70743F6E07E02EA0E0859
:1008C00038463146013948EA000CB1F1FF3FC3F820
:1008D00074C200F14040F5D1203A12F1200FEDD161
:1008E000BFF34F8FBFF36F8FBFF34F8FBFF36F8F88
:1008F0005A6922F400325A610022C3F85022BFF331
:100900004F8FBFF36F8F202383F31188AD4685F39C
:1009100008882047BDE8F081FCFF00081C000108A2
:1009200004000108FFFF000860230020802300204E
:100930000038024008ED00E00000010800ED00E092
:100940002DE9F04F99B0B34C01902022FF2110A85F
:10095000A66801F05BF9B04A1378A346A3B9AF4883
:100960000121C3601170202383F31188C3680BB188
:1009700003F018FA0023AA4AA8484FF47A7103F04A
:10098000BFF9002383F31188019B13B1A54B019A92
:100990001A60A54AA349019F0292002313704B607D
:1009A00099461C461D469846012001F0F3F8002F99
:1009B00000F012829B4B1B68002B40F00D8219B097
:1009C000BDE8F08F0220FFF7CFFE002840F0FB814A
:1009D000019BB9F1000F08BF1F46944B1B88ADF86F
:1009E0002C3002210BA800F0FFFFDDE74FF47A70F6
:1009F00000F0DCFF031E0393EADB0220FFF7B4FEE6
:100A000082460028E4D0039B581E042800F2DD81B2
:100A1000DFE800F0030E1114170018A8052340F8B2
:100A2000343D042100F0E0FF54464FF0000856E04A
:100A300004217848F6E704217D48F3E704217D4846
:100A4000F0E71C24204600F0FBFF04340B90042147
:100A50000BA800F0C9FF2C2CF4D1E5E7002DB7D08E
:100A6000002CB5D00220FFF77FFE0546002800F0DD
:100A7000AF8101206C4C00F0E1FF0220207001F0FA
:100A800089F84FF000095FFA89FA504600F0E6FF56
:100A9000074658B1504600F0F1FF09F1010900285E
:100AA000F1D12C46A9460027634B97E7012302208A
:100AB000237001F065F83E46DBF808309E4206D20E
:100AC000304600F0BDFF0130EBD10436F4E7029B65
:100AD00000261E70534BA9465E602C46374601F037
:100AE000E9F815B1002C18BF0027FFF745FE5BE7BA
:100AF000002D3FF46DAF002C3FF46AAF029B022043
:100B0000187001F047F8322000F050FFB0F1000AF1
:100B1000C0F25E811AF0030540F05A81DBF808202C
:100B200006EB0A03934200F25381BAF5807F00F28C
:100B30004F8155450DDA4FF47A7000F037FF04907D
:100B4000049B002BC0F244813C4A049BAB5401350A
:100B5000EFE7C820FFF708FE0546002800F03881BF
:100B60001F2E11D8C6F12004544528BF544610AB9F
:100B700026F0030022463149184401F01DF82246B0
:100B8000FF212E4801F042F84FEAAA0A5FFA8AF2E2
:100B90002A49304601F042F80446002800F01A8144
:100BA00006EB8A0605469AE70220FFF7DDFD0028DE
:100BB0003FF40EAF00F088FF00283FF409AF4FF07C
:100BC000000A5346DBF8082092451CD2BAF11F0FE9
:100BD00012D8109A01320FD02AF0030218A90A4441
:100BE00052F8202C0B92184604220BA901F0E2F8CF
:100BF0000AF1040A0346E5E75046039300F020FF9C
:100C0000039B0B90EFE718A8042140F84C3D00F03F
:100C1000EBFE64E760230020842400206C23002086
:100C2000950700088824002080230020A65800088B
:100C30006423002068230020A85800088423002093
:100C400018A8002340F8343D642100F0C3FE0028BA
:100C50007FF4BEAE0220FFF787FD00283FF4B8AE58
:100C60000B9800F01DFF18AB43F8480D04211846FF
:100C7000CDE718A8002340F8343D642100F0AAFE17
:100C800000287FF4A5AE0220FFF76EFD00283FF498
:100C90009FAE0B9800F012FF18AB43F8440DE5E748
:100CA0000220FFF761FD00283FF492AE00F01CFF28
:100CB00018AB43F8400DD9E70220FFF755FD002897
:100CC0003FF486AE0BA9142000F014FF824618A84A
:100CD000042140F83CAD00F087FE51460BA896E792
:100CE000322000F063FEB0F1000AFFF671AE1AF098
:100CF000030F7FF46DAEDBF808200AEB0803934284
:100D00003FF666AE0220FFF72FFD00283FF460AEED
:100D10002AF0030AC244D0453FF4E1AE404600F059
:100D20008FFE04210A900AA800F05EFE08F1040874
:100D3000F1E74FF47A70FFF717FD00283FF448AE53
:100D400000F0C2FE00283FF4AFAE109B01330CD080
:100D5000082210A9002000F061FF00283FF4A4AE93
:100D60002022FF2110A800F051FFFFF705FD3948B0
:100D700002F082FF23E6002D3FF42AAE002C3FF460
:100D800027AE18A8002340F8343D642100F022FE6D
:100D9000824600287FF41CAE0220FFF7E5FC002805
:100DA0003FF416AE0390FFF7E7FC41F2883002F003
:100DB00063FF0B9800F0B2FF00F07CFF039B5746E7
:100DC0001C461D46F0E5054689E64FF00008FFE5A4
:100DD0002546FDE52C4667E6002000F0E7FD04907F
:100DE000049B002B01DA00F075FC049B002BFFF63E
:100DF000DEAD012000F0C4FE049B213B122B3FF628
:100E0000D3AD01A252F823F0C5090008ED0900088E
:100E10005D0A0008A9090008A9090008A909000835
:100E2000F10A0008E10C0008A90B0008410C0008B9
:100E3000730C0008A10C0008A9090008B90C0008EF
:100E4000A9090008330D0008DF0A0008A9090008F5
:100E5000770D0008A086010009490B6849F2690076
:100E60009AB21B0C00FB0233064A0B60136844F273
:100E7000506198B21B0C01FB0030106080B27047CB
:100E80000C2300200823002010B500211022044666
:100E900000F0BCFE034B03CB206061601868A060CB
:100EA00010BD00BF107AF01FF0B51F4CBBB000F0B2
:100EB0007DFFA368C31AF92B30D906AD2346A06085
:100EC00028220021284601F0F3FB04F10E0000F077
:100ED00095FE0023C6B2591D5F1CDBB2B3424FEA38
:100EE000C10107DA0E3323440822284601F0E0FB53
:100EF0003B46F0E7012303930823207B02930B4B2F
:100F00000193C1F3CF01302305910093014604956D
:100F100003A3D3E90023064801F004FA3BB0F0BD77
:100F200078F6339F93CACD8DD0340020DD34002075
:100F3000A834002070B50D4614461E4601F09AF9FB
:100F400050B9022E0ED1012C0CD112A3D3E90023EB
:100F5000C5E90023012070BD052C14D003D8012C55
:100F600009D0002070BD282C09D0302CF9D10BA35A
:100F7000D3E90023ECE70BA3D3E90023E8E70BA3B5
:100F8000D3E90023E4E70BA3D3E90023E0E700BFA4
:100F9000AFF30080401DA12026812A0B78F6339FF5
:100FA00093CACD8D9E6AC421818A46EE2641727213
:100FB000DF25D7B7F017304A39059E5638B50446B5
:100FC0000D46034620222846002101F071FB2279BC
:100FD0002346032A28BF032203F8042F28460222AF
:100FE000202101F065FB62792346072A28BF0722EA
:100FF00003F8052F28460322222101F059FBA2798C
:101000002346072A28BF072203F8062F2846032273
:10101000252101F04DFB284604F108031022282168
:1010200001F046FB382038BD2DE9F04FADF5017DCC
:1010300021AE0EAD40F2791280460F4630460021B7
:1010400000F0E4FD48220021284600F0DFFD00F01A
:10105000ADFE574B4FF47A72B0FBF2F0186093E894
:101060000700012385E807002B740DF15A000023C7
:101070006B74FFF709FF042385F8203085F82130D1
:1010800007AB18464B4904F005FC1822286431468A
:10109000284685F83C20FFF791FF12AB0446014635
:1010A0000822304601F004FB0822A1180DF1490383
:1010B000304601F0FDFA0DF14A03082204F1100157
:1010C000304601F0F5FA13AB202204F11801304646
:1010D00001F0EEFA14AB402204F13801304601F081
:1010E000E7FA16AB082204F17801304601F0E0FA85
:1010F0000DF15903082204F18001304601F0D8FABD
:1011000004F1880A0DF15A0904F5847B4B465146D7
:10111000082230460AF1080A01F0CAFAD34509F15B
:101120000109F3D11BAB08225946304601F0C0FA41
:1011300004F588744FF0000995F834304B4510D809
:101140004FF0000995F83C304B4515D92B6C2146E2
:101150004B440822304601F0ABFA083409F101098A
:10116000F0E7AB6B21464B440822304601F0A0FA71
:10117000083409F10109DFE7E31DC3F3CF03F97E6A
:101180000593002304960393BB7E02931937012332
:101190000093019704A3D3E90023404601F0C2F86D
:1011A0000DF5017DBDE8F08F9E6AC421818A46EE6F
:1011B0009024002048590008014B1870704700BF68
:1011C0009C240020F0B5334B1C7B85B034B1324BEE
:1011D0000E221A810024204605B0F0BD2F4A106867
:1011E000516802AB03C308230DEB03022C492D48C1
:1011F00004F032FB054630B9274B2B480A221A81EE
:1012000000F08EFDE6E70169B1F5E02F06D9224B2B
:1012100026480B221A8100F083FDDCE7438B40F265
:101220000442934207D01C490C20088119462048EB
:1012300000F076FDCFE71F4A024402F11003994205
:1012400004D2154B1C4810221A81E4E710398E1A7B
:101250002046144900F0AEFD3246074605F118015C
:10126000204600F0A7FDAB689F4202D1EB68984290
:101270000AD0094B0D221A8100903B46EA68A96802
:101280000E4800F04DFDA5E70D4800F049FD012492
:10129000A1E700BFD034002090240020AC58000803
:1012A000DCFF060000000108B4580008C058000820
:1012B000D25800080800FFF7F05800080D59000840
:1012C000365900082DE9F04FADB006AF80460C4608
:1012D00000F0D0FF064600285BD1237E022B19D1F7
:1012E000E38A012B16D100F061FD0546FFF7B4FD3E
:1012F0004FF4C873B54AB0FBF3F105F5167501FB61
:101300001300E37E15FA80F01060914633B9B04BBC
:1013100000221A709C37BD46BDE8F08FA38AF5B253
:10132000013BAB4206F101060CD93B1D691CC9000B
:101330001D4400950023082201F0F801204601F029
:1013400089F8EBE707F11400FFF79EFD2A4607F145
:101350001401381D04F070FA03460028D7D10F2D70
:1013600008D89B4B1D70D9F80030A3F51673C9F847
:101370000030CFE707F19802014602F8950D2046AC
:101380000092072201F066F8F978404600F06AFF03
:10139000C0E7E38A052B00F0068106D8012BB9D1FE
:1013A00021464046FFF740FEB4E7282B3DD0302BC6
:1013B000B0D1637E874D01336A7BDBB29342E9464D
:1013C00040F0EF80E27E2B7B9A4240F0EA8007F10A
:1013D0009803002623F8846D1022009331460123E0
:1013E000204601F037F8B4F81480A8F102081FFA7B
:1013F00088F808F1030323F003030A3323F00703FB
:10140000ADEB030D0DF1180A33469BB2B11C9845A4
:101410004FEAC10106F101066CDD53440093082236
:101420000023204601F016F8EEE7A38A013B9BB2A9
:10143000C92B3FF66FAF674E357B4DBB06F10C03F2
:10144000009308222B462946204601F003F8A38A80
:1014500005F10109013BEDB29D424FEAC90109DAEC
:101460000E353544009500230822204600F0F2FF97
:101470004D46ECE700230022C6E900230023B360B9
:1014800086F8D730C6F8D830337B0BB9E37E337398
:10149000002507F114063B1D0822294630467D60D1
:1014A000BD60FD6001F004F93B7A05F10109AB4232
:1014B0004FEAC90107D9FB6808222B44304601F0E6
:1014C000F7F84D46F0E7C1F3CF010023E07E059128
:1014D00004960393A37E02931934282301460093B4
:1014E000019438A3D3E90023404600F01BFFFFF727
:1014F000DBFC0FE795F8D70000F0B0FAD5F8D8304C
:1015000006461BB995F8D70000F0B8FAD5F8D830E0
:1015100043449E4204D295F8D700013000F0AEFA61
:101520004FEA980B0024A0B2584504F1010408DAF0
:101530002B6880000AEB00010122184400F06EFBCA
:10154000F1E7D5E90023D5F8D84095F8D70012EB9C
:10155000080243F100034444C5E90023C5F8D8401C
:1015600000F07CFA844209D395F8D730013385F82E
:10157000D730D5F8D8309E1BC5F8D860B8F1FF0F2A
:1015800008DC00232B7300F09FFAFFF71BFE08B165
:10159000FFF732F92B68104A9B0A013313810023AD
:1015A000AB60CD46B6E6BFF34F8F0C490C4BCA6813
:1015B00002F4E0621343CB60BFF34F8F00BFFDE73F
:1015C000AFF3008026417272DF25D7B7A434002024
:1015D000A1340020D03400209024002000ED00E051
:1015E0000400FA0508B54FF000530B4A1968914200
:1015F0000AD10A4A597D117009481B7D0373C9221B
:1016000008490E3000F0D8FAE02200214FF00050D7
:10161000BDE8084000F0FABA9AAD44C59C24002009
:10162000D03400201600002030B5204C204921483D
:1016300085B00223637106230025ADF8083001232D
:10164000ADF80C5007228DF80C308DF80B301A4B8A
:101650004B608DF80A2001F01DFD184B0195009399
:101660001749184B18484FF4805200F0D3FD174B20
:101670001978254611B1144800F0F4FD00F096FBEE
:101680000446FFF7E9FB4FF4C87304F51674B0FB8A
:10169000F3F202FB13000E4B14FA80F0186002F014
:1016A00013FF08B10F232B8105B030BD902400201B
:1016B00000230020E835002005000600350F000853
:1016C000A0240020C5120008A83400209C2400207B
:1016D000A43400202DE9F04F96A7D7E900670FF258
:1016E0005C29D9E900898F4C93B0DFF858B2DFF854
:1016F00058A2204600F060FE0CAD079098B310226F
:101700000021284600F082FA079B197B4FF0000267
:1017100061F3030219468DF8302051F8040F49682F
:101720000EAA03C21B680D9A63F31C029DF83030A9
:101730000D9243F020038DF8303000232A461946DD
:10174000584601F0B7FC079030B9204600F038FE4B
:10175000079B8AF80030CCE79AF80030072B40DC72
:1017600001338AF8003018220021284600F04EFA92
:10177000DFF8D0B1DFF8D4A1002319462A46584635
:1017800001F0C0FC014680BB102208A800F03EFA20
:10179000DAF8143083F04003CAF8143000F008FB84
:1017A0000B4612A9024611E903000DF1240E8EE842
:1017B00003009DF83410C1F3030089064CBF0E9955
:1017C000BDF838108DF82C0046BFC1F31C0141F064
:1017D0000041C1F30A010891204608A900F0B0FFBA
:1017E000CAE7204600F0ECFDBDE7204600F042FDD0
:1017F000824600284AD1DFF858B100F0D7FADBF86A
:101800000030984242D300F0D1FA0790FFF724FB52
:10181000079A8DF820A04FF4C87302F51672B0FB3A
:10182000F3F101FB130012FA80F0CBF80000DFF8AF
:1018300024B19BF8001011B901238DF820302846FF
:101840000791FFF721FB0799C1F1100A5FFA8AFAA5
:10185000BAF1060F28BF4FF0060A524629440DF18F
:10186000210000F0A9F90AF10103049308AB0393E6
:10187000182302932C4B01930123009332463B46DD
:10188000204600F0F9FC00238BF8003000F08EFABF
:10189000264ADFF8C4A01368C31AB3F57A7F32D39F
:1018A000106000F085FA02460B46204600F092FDDB
:1018B000204600F0DFFC30B39AF80C30DFF89CB023
:1018C000002B14BF032302238BF8053000F06EFABF
:1018D0004FF47A732946B0FBF3F0CBF8000058467A
:1018E000FFF76CFB182307300293114B0193C0F3F1
:1018F000CF0040F2551304900093039542464B46A7
:10190000204600F0B9FC9AF80C300BB1FFF7CCFA86
:101910009AF80C30002B7FF4E8AE13B0BDE8F08FDE
:10192000AFF30080A8340020A0340020B0350020A0
:10193000B4350020401DA12026812A0BF1C6A7C185
:10194000D068080FE8350020B535002000000240BF
:10195000A4340020A1340020D034002090240020A2
:1019600070B50F4B0C4619780131C9B201290646F2
:101970000FD80C4803681D6A4FF47A7353433146FD
:101980002246A847844204D1074B00221A70012046
:1019900070BD4FF4FA7002F06FF9002070BD00BF07
:1019A0001023002050380020E435002007B502AB9A
:1019B000002203F8012D012102461846FFF7D0FF4F
:1019C00020B19DF8070003B05DF804FB4FF0FF3035
:1019D000F9E700000A4608B50421FFF7C1FF80F0CF
:1019E0000100C0B2404208BD30B4054C2368DD6937
:1019F000044B0A46AC460146204630BC604700BF57
:101A000050380020A086010070B502F0CBFB094CD5
:101A1000094E2080002530682388834208D902F0CF
:101A2000BBFB336805440133B5F5803F3360F2D327
:101A300070BD00BFE6350020B835002002F062BC62
:101A400000F1006000F580300068704700F1006030
:101A5000920000F5803002F0EBBB0000054B1A68E5
:101A6000054B1B889B1A834202D9104402F094BB99
:101A700000207047B8350020E635002038B5074D06
:101A800004462868204402F08FFB28B928682044C7
:101A9000BDE8384002F0A0BB38BD00BFB83500201B
:101AA00010F0030305D1B0F5047F02D2024BC058F9
:101AB00070470020704700BF0078F01F014BC058EE
:101AC000704700BF107AF01F064991F8243033B1F7
:101AD00000230822086A81F82430FFF7B7BF0120ED
:101AE000704700BFBC350020014B1868704700BF2D
:101AF000002004E0F0B5204B1E68204B1F885D6875
:101B000093F90840C6F30B02BA424FEA164622D0B8
:101B10009F89BA4221D01F8BBA4206D102220C24DF
:101B200004FB02335D6893F90840B6F5805F16D078
:101B300041F201039E4208BF5A24421E0A44013D5D
:101B40000B46934215D215F9016F581C4EB103464E
:101B500000F8016CF5E70022E1E70122DFE741240C
:101B6000EBE72C2582421D7001D9981C5C70401A4D
:101B7000F0BD1846FBE700BF002004E0142300205E
:101B8000022802BF024B4FF480029A61704700BFE7
:101B900000000240022802BF014B40229A617047B8
:101BA00000000240022801BF024A536983F040034B
:101BB000536170470000024010B50023934203D0E8
:101BC000CC5CC4540133F9E710BD000030B5441EAD
:101BD00014F9010F0B4660B193F90050854201F1F1
:101BE000010106D11AB993F90020801A30BD013ADB
:101BF000EEE7002AF7D1104630BD0000024603464A
:101C0000981A13F9011B0029FAD1704702440346C0
:101C1000934202D003F8011BFAE770472DE9F04721
:101C2000234C94F8243005468846174683BB2E463D
:101C3000DFF87C90C7B394F824302BB92022FF2121
:101C400048462662FFF7E2FF94F82400C0F1080539
:101C5000BD4228BF3D465FFA85FAAD0041462A469F
:101C600004EB8000FFF7A8FF94F82430A7EB0A07E5
:101C70009A445FFA8AFABAF1080F2E44A844FFB2D8
:101C800084F824A0D6D1FFF71FFF0028D2D108E0A6
:101C9000266A06EB8306B042CAD0FFF715FF00287C
:101CA000C5D10020BDE8F0870120BDE8F08700BF66
:101CB000BC350020024B1A78024B1A70704700BFE7
:101CC000E43500201023002038B5104D104C284674
:101CD00001F0BCFA2146284601F0E4FA24680D48D8
:101CE000E26ED2F8043843F00203C2F8043801F07F
:101CF000C3FF0949204601F0E3FBE26ED2F8043845
:101D000023F00203C2F8043838BD00BF5038002069
:101D1000345A000840420F005C5A00087047000027
:101D20000FB4002004B07047FEE7000000B59BB080
:101D3000EFF3098168226846FFF73EFFEFF3058362
:101D4000044B9A6BDA6A9A6A9A6A9A6A9A6A9A6AE7
:101D50009B6AFEE700ED00E000B59BB0EFF3098160
:101D600068226846FFF728FFEFF30583044B9A6B60
:101D70009A6A9A6A9A6A9A6A9A6A9B6AFEE700BFA6
:101D800000ED00E000B59BB0EFF3098168226846E2
:101D9000FFF712FFEFF30583034B5A6B9A6A9A6AB7
:101DA0009A6A9A6A9B6AFEE700ED00E002F0E8BAE0
:101DB00002F0D2BA30B5084D0A4491420BD011F866
:101DC000013B09245840013CF7D040F300032B406D
:101DD00083EA5000F7E730BD2083B8ED2DE9F047E6
:101DE000089E01F007054FEAD60C2A4406F00706C4
:101DF00000EBD1004FF47F49954201D1BDE8F08757
:101E000005F0070E06F0070AD64577464FEAD504D7
:101E100038BF5746C7F10807511B0CEBD6088F4255
:101E2000045D28BF0F4604FA0EF413F8081029FACF
:101E300007FE24FA0AF45FFA8EFE4C404EFA0AFEC0
:101E400004EA0E04614003F808103D443E44D3E721
:101E50000246006848B103681360D38811890133D2
:101E60009BB29942D38038BF1381704770B588B058
:101E70000D460446202200216846FFF7C7FE204693
:101E80000495FFF7E5FF054658B16B46044608AEDA
:101E90001A4603CAB24220606160134604F1080486
:101EA000F6D1284608B070BD2DE9F041056885B926
:101EB0000160BDE8F081002B29DA930CB34229D1EF
:101EC000A54201D10D60F3E7C8F800100C60BDE831
:101ED000F0814B6823F06047BE0C4FEAD37EC3F31A
:101EE000807C16EA230638BF3E46A8462C46636827
:101EF000BEEBD37F23F06042DDD1974203D1C3F321
:101F000080739C450AD1974205E01C46EFE7B24238
:101F100006D013469E422CBF00230123002BCFD1B5
:101F20002368A046002BF0D12160BDE8F0810000BD
:101F30002DE9F04106460F4600254FF6FF7441F2A9
:101F400021082A4630463946FEF75AF9C0B284EADB
:101F50000024082314F4004F4FEA4404A4B203F110
:101F6000FF3318BF84EA080413F0FF03F2D10835E9
:101F7000402DE6D12046BDE8F081000010B54B6849
:101F800033B9CA8A63F30902CA820020002110BD56
:101F9000C4681A681C60C360438A013B43824A607C
:101FA000EDE7000010B50A4441F22104914200D14E
:101FB00010BD11F8013B80EA0320082310F4004F04
:101FC0004FEA400080B203F1FF3318BF604013F0C6
:101FD000FF03F3D1EAE700002DE9F04F85B0814619
:101FE0008DE80A00BDF83C409346002A00F083804B
:101FF00024B10E9B002B7ED0072C2AD809F10C00AF
:10200000FFF726FF054628B96FF00205284605B000
:10201000BDE8F08F14220021FFF7F8FD22460E994B
:1020200005F10800FFF7C8FD631C2B749BF8003016
:102030002C4403F01F0363F03F032372009B43F023
:1020400000436B60294609F11C00FFF72DFF0125B5
:10205000DCE7019B1B0A4FF00008029300F10C0320
:102060004FF0800A4646454603930398FFF7F0FE7B
:1020700007460028C8D014220021FFF7C7FDC6BBC1
:102080009DF804303B729DF808307B7202220E9B53
:10209000711E1944B4420AD9B8180132D2B211F8EB
:1020A00001EF80F808E00136072AB6B2F2D19BF8BA
:1020B000001001F01F01B44208BF4FF0400AB818E9
:1020C00041EA48114AEA01030372009B013243F0DE
:1020D00000437B603A74394609F11C00FFF7E4FEC7
:1020E0000135B4422DB288F001084FF0000ABCD18E
:1020F0008CE70022CBE76FF0010587E72DE9F04779
:102100001E46CB8A9146C3F30902062A80460F4633
:1021100019D013460021B0B28DB25A1992B2052AD5
:1021200009D9A84210D8FA8A034463F30902FA8253
:102130000120BDE8F087A842F3D93A4419F80140DC
:1021400094760131E8E70025FB8A7C68C3F3090037
:10215000821F1C23B2FBF3FA03FB1A2A1FFA8AF22E
:102160007CB301212368002B39D1B31F03441C2009
:10217000B3FBF0F301339BB299420CD2BAF1000FDA
:1021800009D14046FFF764FE08B1C0F800A0206006
:1021900008B304460022B6B24FF0000AB54230D26E
:1021A000691E49441346E01801339BB211F801EF50
:1021B00080F804E001351C2BADB214D0AE42F2D849
:1021C000ECE74046FFF744FE044608B100230360F5
:1021D0007C60002CDED16FF00200BDE8F087013199
:1021E00089B21C46BEE7AE42D8D94046FFF730FE62
:1021F00008B1C0F800A020600028ECD004460022FE
:10220000CCE7FB8AC3F30902164466F30903FB8299
:102210008EE70000F8B5044615460E46242200213C
:102220001F46FFF7F3FC069B6360079B23626A0966
:102230004FF6FF739A424FF0000028BF1A46A7607E
:10224000207097B204F10C0503469A4205D1002391
:102250002B6027826382A382F8BD2E60013335464E
:102260002036F2E703781BB94BB2002BC8BF0170D0
:1022700070470000007870472DE9F7430D9EBDF8C8
:1022800028900B9D9DF83040BDF8388007461946D0
:10229000104616B9B8F1000F40D11F2C3ED83B783C
:1022A000D3B9B8F1070F36D839F0030336D1424617
:1022B00031464FF6FF70FFF775FE4FEA092920F00F
:1022C000010009F44079400449EA0464400C44EAFE
:1022D00040244FF6FF730DE043EA0923B8F1070FDE
:1022E00043EA0464F5D9FFF723FE42463146FFF77F
:1022F00059FE03468DE840012A4621463846FFF73D
:102300006BFE2B780133DBB21F2B88BF00232B70B1
:1023100003B0BDE8F0836FF00300F9E76FF0010050
:10232000F6E700002DE9F7430E9F0B9D9DF83480E2
:10233000BDF83C6081469DF8300007B9AEBB1F2850
:1023400033D899F800E0BEF1000F31D00C0244F010
:1023500080049DF8281044EAC83444EA014444EA61
:102360000E04072E44EA00641CD919461046FFF7F4
:10237000DFFD32463946FFF715FE0346019600970A
:102380002A4621464846FFF727FEB8F1010F06D13D
:102390002B780133DBB21F2B88BF00232B7003B0D7
:1023A000BDE8F0834FF6FF73E8E76FF00100F6E752
:1023B0006FF00300F3E70000C06900B1043070471C
:1023C000C3691A68C261C2681A60C360438A013B6C
:1023D000438270472DE9F047D0F818A0DFF87080ED
:1023E000054616461F4654464FF000090CB9BDE895
:1023F000F087D4E90223B21A67EB0303994508BFBB
:10240000904523D2AB699C42214628460FD1FFF765
:10241000B5FDAB691B68AB61EB6823606B8AEC6050
:10242000AC69013B6B822346A2461C46DEE7FFF700
:10243000A5FD2368CAF80030EB6823606B8AEC6066
:10244000013B6B82DAF800305446EDE72368EBE796
:1024500080841E002DE9F04F8BB00E461446079382
:10246000DDF850808346002800F01081B8F1000F9D
:1024700000F00C81531E3F2B00F20881012A03D18A
:10248000079B002B40F00281BBF81450ED000023A5
:10249000AE420893099304D3002630460BB0BDE842
:1024A000F08F33199D42DBF80C303ABFAD1BEDB213
:1024B000254623B9DBF81030002B00F093802F2E37
:1024C00065D8C6F13007BD424FF000032CBFFFB204
:1024D0002F460093314608AB3A46DBF80800FFF779
:1024E0007DFCA5EB07093E445FFA89F9BBF814307F
:1024F00003F10053063BDB000493DBF80C3003933D
:102500003021039B13B1B9F1000F43D1DBF8100068
:1025100040B1B9F1000F05D0009708AB4A46711AD7
:10252000FFF75CFC2EB2002DB6D060070AD00AABD4
:1025300003EBD401624211F8083C02F00702134198
:1025400001F8083C082C54D9102C54D9202C8CBFED
:1025500008230423079A002A00F09E80B4EBC30FDF
:1025600000F09D80082C48D89DF82030621E23FA88
:1025700002F2D10706D54FF0FF3202FA04F42343EA
:102580008DF820309DF8203088F8003085E7A94686
:102590000027ABE7049BE02B28BFE02306930B4406
:1025A000B342059315D9A3EB060AD14503980097CA
:1025B0002CBF5FFA8AFACA46711A08AB5246043039
:1025C000FFF70CFC5744A9EB0A095644FFB25FFA27
:1025D00089F9049B069A05999B1A0493039B1B682F
:1025E00003938EE700932A4608AB3146DBF80800D8
:1025F00096E70123AEE70223ACE7102C12D8BDF812
:102600002030621E23FA02F2D20706D54FF0FF32C5
:1026100002FA04F42343ADF82030BDF82030A8F8C6
:1026200000303AE7202C0FD8089A631E22FA03F3F1
:10263000DB0705D54FF0FF3303FA04F41443089485
:10264000089BC8F8003028E7402C22D0DDE908AB11
:10265000621E50465946FDF7D3FD002100F00100EF
:1026600050EA01030DD0224601200021FDF7D4FDE0
:10267000404261EB410140EA0A0041EA0B01CDE929
:102680000801DDE90823C8E9002306E76FF0010629
:1026900003E76FF0080600E7012C3FF473AF082C46
:1026A0007FF670AF102CB8D9202CEAD8C8E700000C
:1026B00030B5402A85B01FD8002A08BF0122002467
:1026C000012A0294039419D11B788DF8083053071E
:1026D0000AD004AB03EBD205544215F8083C04F0D1
:1026E0000704A34005F8083C00910346002102A816
:1026F000FFF774FB05B030BD4022E0E7082AE3D9BC
:10270000102A03D81B88ADF80830E0E7202A02D849
:102710001B680293DBE7D3E90045CDE90245D6E724
:1027200010B5CB681BB98B600B618B8210BDC46880
:102730001A681C60C360438A013B4382CA60F0E7A9
:102740002DE9F04FD1F800908FB0C9F3C0160446C0
:102750000D46CDE90223002E50D0C9F3C03AC9F38B
:102760000626B9F1000F80F2CB8119F0C04F40F07E
:10277000C7812B7B002B00F0C381BAF1020F03D07D
:102780002278B24240F0BF8109F07F02BAF1020F15
:10279000059236D119F07F0FC9F30F2B01D10BF041
:1027A000030B2B447606059A93F8038046EA0A4603
:1027B00046EA82465FEAD81346EA0B06049300F025
:1027C000A180002200230EA961E90823059B009344
:1027D000676853465A462046B847002800F08F8065
:1027E000A7698FB9314604F10C00FFF73FFB07469C
:1027F000D0B96FF002000FB0BDE8F08F4FF0020AC1
:10280000AFE7C9F3074BCCE73B699E420DD03F6869
:10281000002FF9D1314604F10C00FFF727FB0746E2
:102820000028E6D0A3693B60A761DDE90601FFF758
:102830007FFBB882F97D08F01F06C1F38401711A8D
:1028400089B20FFA81FED7E90223BEF1000FBCBFA7
:1028500001F1200E0FFA8EFE52EA0301C9F304695A
:1028600000F05D81DDE90201801A61EB030102469F
:102870000B46B6480021994208BF9042C0F04F81F4
:10288000049B002B48D0BEF1010F00F3488118F0E3
:10289000400F41D0DDE902230021C7E9022306A849
:1028A0002022FFF7B3F9DDE90223CDE906232B1D32
:1028B00008932B7BADF82EB0013BDBB2ADF82C308A
:1028C0009DF814308DF833308DF830A0A3688DF862
:1028D00031608DF8329006A920469847FB7DC3F3FE
:1028E0008402013262F38603FB75FB8A6FF30903EE
:1028F000FB821B0A6FF3C713FB7500207BE76FF0A9
:102900000B0078E7A76917B96FF00C0073E73B6914
:102910009E428FD03F68F6E7FB7DC8F34012B2EBD2
:10292000D31F40F0F380C3F38403B34240F0F1803F
:1029300004992B7B4FEA981200293BD012F0010832
:102940005CD1032B40F2E880DDE90223C7E90223D2
:102950002B7BAE1D033BDBB23246394604F10C0043
:10296000FFF7CCFB002814DA39462046FFF706FBB8
:10297000FB7DC3F38402013262F38603FB75FB8A9D
:1029800068F30903FB821B0A68F3C713FB75032076
:1029900031E7AB883B832A7B033AD2B2B88A31460F
:1029A000FFF700FBFB7DB882DA43C2F3C01262F38B
:1029B000C713A1E712BB2E1D013BDBB232463946DD
:1029C00004F10C00FFF79AFB002814DA3946204680
:1029D000FFF7D4FAFB7DC3F38402013262F386036E
:1029E000FB75049AFB8A62F30903FB82049A1B0AB3
:1029F00062F3C713CAE72A7B013ACEE7F98AC1F32B
:102A00000901013B0529DAB25AD8281D00239A4250
:102A10000AD907EB010E013110F801CB8EF81AC06C
:102A200001330629DBB2F2D1DDE902019342CDE99F
:102A3000060107F11A01089138BF0433796809913A
:102A400034BF5B1900230A93FB8AADF82EB0C3F3A1
:102A500009031A449DF814308DF833300023ADF883
:102A60002C208DF830A08DF831608DF832907B608D
:102A70002A7BB88A013A291DFFF794FA3B8BB8826A
:102A8000834203D1A36806A920469847204606A999
:102A9000FFF746FEFB7DB88AC3F38402013262F37E
:102AA0008603FB75FB8A6FF30903FB821B0A6FF336
:102AB000C713FB753B8B984214BF112000209AE688
:102AC000D7F804E0BEF1000F18D00623DEF80000AE
:102AD00088B9C91A05F1040800EB010CBCF11B0F01
:102AE000C3B2A1D893429FD2F44418F8013B8CF8AA
:102AF00004300130F0E71C338646E7E7734693E77E
:102B00006FF0090077E66FF00A0074E66FF00D00D1
:102B100071E66FF00E006EE66FF00F006BE6FB7D66
:102B200068F386036FF3C713FB7539462046FFF73A
:102B300025FA049B002B7FF4AAAEFB7DC3F384022D
:102B4000013262F38603FB75DEE600BF80841E005F
:102B50002DE9F041504EB04240F089804F4CDFF8F3
:102B600040E1256C45F000752564256E45F0007543
:102B70002566246E846AD4F8007207EA0E0747F0CF
:102B80000107C4F80072D4F8005205EA0E0545F0BA
:102B9000010545EA0121C4F80012002A69D000218C
:102BA000C4F81C120F46C4F80412C4F80C12C4F87E
:102BB000141204EBC10501311C29C5F84072C5F897
:102BC0004472F6D14FF0000E4FF0010C964514D12F
:102BD000826AD2F80032B04223F00103C2F8003218
:102BE00057D12E4B1A6C22F000721A641A6E22F022
:102BF00000721A661B6EBDE8F0819F781D8817F081
:102C0000010F18BFD4F804820CFA05F11CBF41EA89
:102C10000808C4F8048217F0020F1EBFD4F80C8213
:102C200041EA0808C4F80C827F0742BFD4F8147246
:102C30000F43C4F8147204EBC5055F68C5F8407211
:102C40009F68C5F84472D4F81C522943C4F81C127A
:102C50000C330EF1010EB9E7846A0021C4F81C128E
:102C6000C4F80412C4F80C12C4F81412AAE7002A1B
:102C7000F2D1836A0022C3F84022C3F84422C3F889
:102C80000422C3F814220122C3F80C22C3F81C2228
:102C90009EE7BDE8F08100BFE83500200038024023
:102CA0000000FFFF184A916A08B58B688B6013F02B
:102CB000010105D013F00C0F14BF4FF48031012136
:102CC000D80506D513F4406F14BF41F4003141F02C
:102CD0000201D80306D513F4402F14BF41F480211C
:102CE00041F00401D3690BB107489847202383F3CF
:102CF00011880021054800F0E7FF002383F31188C5
:102D0000BDE8084001F020BCE8350020F035002087
:102D100038B5124CA36ADD68AA0712D05A6922F0AE
:102D200002025A61A36913B101212046984720236A
:102D300083F3118800210A4800F0C6FF002383F3C3
:102D40001188EB0606D5A36A1021D960236A0BB15E
:102D500002489847BDE8384001F0F6BBE83500204E
:102D6000F835002038B5124CA36A1D69AA0712D0A5
:102D70005A6922F010025A61A36913B10221204658
:102D80009847202383F3118800210A4800F09CFF14
:102D9000002383F31188EB0606D5A36A102119617D
:102DA000236A0BB102489847BDE8384001F0CCBB1C
:102DB000E8350020F835002038B50F4CA36A5D686F
:102DC0005D602A070AD5042222701A6822F00202E6
:102DD0001A60636A13B10021204698476B0706D535
:102DE000A36A9969236A13B1090403489847BDE8A7
:102DF000384001F0A9BB00BFE835002010B50F4CEA
:102E0000204600F035F90E4BA3620B21132000F091
:102E100017F90B21142000F013F90B21152000F0F5
:102E20000FF90B21162000F00BF9002320461A465B
:102E30001C21BDE81040FFF78BBE00BFE835002025
:102E400000640040114B984210B5044609D1104B64
:102E50001A6C42F000721A641A6E42F000721A661E
:102E60001B6EA36A01221A60A36A5A68D20707D5AB
:102E7000626851681268D9611A60064A5A6110BDC9
:102E80000121082000F00CFEEEE700BFE83500202D
:102E9000003802405B87010003291AD8DFE801F0FF
:102EA000020A0F14836A9B6813F0E05F14BF0120CD
:102EB00000207047836A9868C0F380607047836A17
:102EC0009868C0F3C0607047836A9868C0F3007068
:102ED000704700207047000010B503291FD8DFE8B5
:102EE00001F0021F2327816A8B68C3F30163183343
:102EF00001EB0313107881061ED55468C0F300114E
:102F0000490041EAC40141F0040100F00F0058609B
:102F100090689860D268DA6041F00101196010BDD4
:102F2000836A03F5C073E5E7836A03F5C873E1E7D5
:102F3000836A03F5D073DDE79488C0F3001149007C
:102F400041EA4451E1E7000001290CD003D30229F2
:102F500010D000207047836ADA68920701D118699F
:102F600003E001207047836AD86810F0030018BF9F
:102F700001207047836AF2E710B539B9836AD968CE
:102F800089071BD11B699B0704D110BD012915D0EE
:102F9000022948D1816AD1F8C031D1F8C401D1F8F1
:102FA000C8411461D1F8CC41546120240C610C69F2
:102FB000A40717D14C6944F0100412E0816AD1F8DB
:102FC000B031D1F8B401D1F8B8411461D1F8BC41A5
:102FD00054612024CC60CC68A40703D14C6944F030
:102FE00002044C6111795C0864F304119C0864F3D9
:102FF0004511117189064BBF91681189DB085B0D82
:103000004CBF63F31C0163F30A01137948BF91605D
:1030100060F3030313714FEA10234FEA104058BFC7
:1030200011811370508010BD002304491A465A5074
:10303000C8180833802B4260F9D17047143600203D
:1030400000F1604300F01F02400903F561430901EC
:103050008000C9B200F1604083F8001300F56140C0
:1030600001239340C0F8803103607047FFF7C6BE6C
:1030700000F108020123037082600023C26000F1A6
:1030800010024360026142618361C3610362436273
:103090007047000010B52023044683F311880223F3
:1030A00003704160FFF7CEFE04232370002383F3F7
:1030B000118810BD2DE9F0411F4604460D46164605
:1030C000202383F3118800F108082378052B0ED004
:1030D00029462046FFF7E0FE48B120463246294601
:1030E000FFF7FAFE002080F31188BDE8F081394631
:1030F000404600F0CDFD0028E7D0002383F311887F
:10310000BDE8F0812DE9F0411F4604460D46164604
:10311000202383F3118800F110082378052B0ED0AB
:1031200029462046FFF710FF48B12046324629467F
:10313000FFF722FF002080F31188BDE8F0813946B7
:10314000404600F0A5FD0028E7D0002383F3118856
:10315000BDE8F081026843681143016003B118477C
:103160007047000013B5446BD4F894341A68117892
:10317000042915D1217C022912D119791289012340
:103180008B4013420CD101A904F14C0001F0F2FF75
:10319000D4F89444019B21790246206800F0E0F9BC
:1031A00002B010BD143001F075BF00004FF0FF33C6
:1031B000143001F06FBF00004C3002F047B800003F
:1031C0004FF0FF334C3002F041B80000143001F0F2
:1031D00043BF00004FF0FF31143001F03DBF00004D
:1031E0004C3002F013B800004FF0FF324C3002F0C8
:1031F0000DB80000D0F8942438B513681978042964
:10320000054601D0012038BD017C0229FAD112798E
:103210005C89012090400440F4D105F1140001F0D4
:10322000D5FE02460028EDD0D5F894544FF48073B3
:103230002868697900F082F9204638BD406BFFF7B5
:10324000D9BF000000207047704700007FB5124BC7
:103250000360002343608360C360012502260F4B97
:10326000057404460290019300F1840229460096F9
:103270004FF48073143001F085FE094B01930294E2
:1032800000964FF4807304F52372294604F14C0034
:1032900001F04CFF04B070BD905900083D320008A9
:1032A000653100080B68202282F311880A7903EB4C
:1032B000820210624A790D3243F822008A7912B1F3
:1032C00003EB8203186202230374C0F894140023F2
:1032D00083F311887047000038B5037F044613B1AB
:1032E00090F85430ABB9201D01250221FFF732FFC1
:1032F00004F1140025776FF0010100F0E5FC84F87B
:10330000545004F14C006FF00101BDE8384000F06A
:10331000DBBC38BD10B5012104460430FFF71AFFAD
:103320000023237784F8543010BD000038B50446DC
:103330000025143001F03EFE04F14C00257701F029
:103340000DFF201D84F854500121FFF703FF204694
:10335000BDE83840FFF74EBF90F85C3003F06003E3
:10336000202B19D190F85D20212A0AD0222A4FF073
:1033700000030ED0202A0FD1084A026507224265B9
:1033800004E0064B036507234365002383650120A2
:10339000704703654365F9E7002070473823002034
:1033A000D0F8943437B51A681178042904461AD134
:1033B000017C022917D11979128901238B4013420C
:1033C00011D100F14C05284601F088FF58B101A940
:1033D000284601F0CFFED4F89444019B217902469F
:1033E000206800F0BDF803B030BD000000EB8103A1
:1033F000F7B51C6A05460E46F4B1202383F3118805
:1034000005EB8607201D0821FFF7A4FEFB685B691A
:103410001B684C3413B1204601F0BAFE01A92046C6
:1034200001F0A8FE024648B1019B3146284600F053
:1034300097F8002383F3118803B0F0BDFB685A6945
:103440001268002AF5D01B8A013B1340F1D105F127
:103450005C02EAE70D3138B550F82140DCB1202399
:1034600083F31188D4F894241368527903EB820310
:10347000DB689B695D6845B104216018FFF76AFE4F
:10348000294604F1140001F0ABFD2046FFF7B2FE1F
:10349000002383F3118838BD7047000001F054B950
:1034A000012303700023436000F1240200F138017E
:1034B00042F8043B8A421361FAD103814381704789
:1034C00038B50446202383F3118800254160C56088
:1034D000056145618561C561056201F045F9022319
:1034E000237085F3118838BD70B500EB8103054664
:1034F0005069DA600E46144618B110220021FEF71A
:1035000085FBA06918B110220021FEF77FFB314630
:103510002846BDE8704001F0F1B90000028902F0D0
:1035200001020281428902F001024281002202610D
:1035300042618261C261026201F074BAF0B400EBD0
:1035400081044789E4680125A4698D403D43458194
:1035500023600023A2606360F0BC01F08FBA00001A
:10356000F0B400EB81040789E468012564698D40AB
:103570003D43058123600023A2606360F0BC01F03D
:1035800009BB000070B50223002504460370A0F8B3
:10359000645080F8665080F8675005814581C560A9
:1035A000056145618561C561056280F84C5001F097
:1035B00041F963681B6823B129462046BDE8704085
:1035C000184770BD037880F868300523037043689E
:1035D0001B6810B504460BB10421984700232381D2
:1035E000638110BD436890F868201B6802700BB1BE
:1035F000052118477047000090F84C3070B504461C
:1036000013B1002380F84C3004F15C02204601F035
:103610002BFA63689B6863BB94F85C5015F06006F6
:1036200015D194F85D3005F07F0545EA032540F299
:1036300002339D4200F00E815BD8022D00F0DC8049
:103640003FD8002D00F08780012D00F0CF800021B1
:10365000204601F079FC0021204601F06BFC6368F4
:103660001B6813B1062120469847062384F84C3086
:1036700070BD204698470028CED094F8632094F877
:10368000623043EA0223626D934238BF636594F966
:103690005C30656D002B4FF0200380F2FD80002D23
:1036A00000F0EC80092284F84C2083F3118800217B
:1036B000636D226D2046FFF753FF002383F31188CB
:1036C00070BDB5F5817F00F0B180B5F5407F49D080
:1036D000B5F5807FBBD194F85E30012BB7D1B4F83B
:1036E000643023F00203A4F8643026656665A6659D
:1036F000C3E740F201639D421ED8B5F5C06F3BD2CF
:10370000B5F5A06FA3D1B4F85C30B3F5A06F0ED1BE
:1037100094F85E3084F86630204601F0E3F8636880
:103720001B6813B10121204698470323237000230F
:1037300023656365A365A0E7B5F5106F32D040F649
:1037400002439D4252D0B5F5006F80D104F167036A
:103750002365012324E004F16403236502236365E8
:10376000A5658AE794F85E30012B7FF470AFB4F85A
:10377000643043F00203B6E794F86120616894F87E
:1037800060304D6894F85F1043EA0223204694F8B5
:103790005E20A84700283FF45AAF436823650368BA
:1037A0006365A4E72378042B10D1202383F31188C9
:1037B0002046FFF7B3FE86F31188636884F86760DC
:1037C0001B68032121700BB12046984794F85E30A6
:1037D000002BACD084F867300423237063681B6827
:1037E000002BA4D0022120469847A0E7374B236541
:1037F0000223636500239DE794F8601011F0800FA9
:10380000204601F00F010ED001F020F9012806D06A
:1038100002287FF41CAF2E4B2365606567E72D4BB4
:103820002365656563E701F003F9EFE794F85E301F
:10383000002B7FF40CAF94F8603013F00F013FF4CD
:1038400076AF1A06204602D501F092FB6FE701F031
:1038500085FB6CE794F85E30002B7FF4F8AE94F8AB
:10386000603013F00F013FF462AF1B06204602D513
:1038700001F06AFB5BE701F05DFB58E7142284F876
:103880004C2083F311882B462A4629462046FFF711
:1038900055FE85F3118870BD5DB1152284F84C206A
:1038A00083F311880021636D226D2046FFF746FEE9
:1038B00003E70B2284F84C2083F311882B462A4619
:1038C00029462046FFF74CFEE3E700BFC059000839
:1038D000B8590008BC59000838B590F84C30044677
:1038E000152B29D8DFE803F03E28282828283E2871
:1038F000280B293928282828282828283E3E90F8EF
:10390000631090F86220436D42EA01229A4214D972
:10391000C268128AB3FBF2F502FB15356DB920239C
:1039200083F311882B462A462946FFF719FE85F3B3
:1039300011880A2384F84C3038BD142384F84C30A5
:10394000202383F3118800231A4619462046FFF7E7
:10395000F5FD002383F3118838BD836D03B19847CB
:103960000023E7E7002101F0EFFA0021204601F0F3
:10397000E1FA63681B6813B10621204698470623C5
:10398000D8E7000090F84C20152A38B5044622D814
:103990000123934040F6416213421DD113F4801578
:1039A0000FD19B0217D50B2380F84C30202383F3D3
:1039B00011882B462A462946FFF7D2FD85F3118848
:1039C00038BDC3689B695B682BB9836D03B19847A9
:1039D000002384F84C3038BD002101F0B5FA0021F5
:1039E000204601F0A7FA63681B6813B10621204640
:1039F00098470623EDE70000024B00221B605B6046
:103A00009A60704794360020002303748268054B47
:103A10001B6899689142FBD25A680360426010604B
:103A2000586070479436002008B5202383F311882E
:103A3000037C032B05D0042B0DD02BB983F3118805
:103A400008BD436900221A604FF0FF334361FFF75E
:103A5000DBFF0023F2E790E80C001A600268536075
:103A6000F2E70000002303748268054B1B68996825
:103A70009142FBD85A6803604260106058607047FA
:103A800094360020054B19690874186802681A609A
:103A90005360186101230374FCF7E6BD94360020DF
:103AA00030B54B1C87B005460A4C10D023690A4A32
:103AB00001A800F025F92846FFF7E4FF049B13B1A5
:103AC00001A800F06FF92369586907B030BDFFF70E
:103AD000D9FFF8E794360020293A000838B50C4D94
:103AE00041612B6981689A689142044603D8BDE818
:103AF0003840FFF789BF1846FFF7B4FF01232C6158
:103B0000014623742046BDE83840FCF7ADBD00BF38
:103B100094360020044B1A681B6990689B68984291
:103B200094BF0020012070479436002010B5084C47
:103B3000236820691A6822605460012223611A7484
:103B4000FFF790FF01462069BDE81040FCF78CBDEF
:103B50009436002008B5FFF7DDFF18B1BDE8084036
:103B6000FFF7E4BF08BD0000FEE7000010B50C4CF5
:103B7000FFF742FF00F0B6F880220A49204600F025
:103B80003BF8012344F8180C037400F0B3FC002345
:103B900083F3118862B60448BDE8104000F04EB8C7
:103BA000BC360020C4590008CC59000800F034B9D4
:103BB000EFF3118020B9EFF30583202282F31188FF
:103BC0007047000010B558B9EFF30584C4F308043A
:103BD00014B180F3118810BDFFF7BCFF84F3118886
:103BE00010BD0000034B59685A68521A9042FBD826
:103BF000704700BF001000E08260022202740022C1
:103C0000427470478368A3F17C0243F80C2C02696C
:103C100043F83C2C426943F8382C074A43F81C2CE3
:103C2000C26843F8102C022203F8082C002203F883
:103C3000072CA3F1180070478106000810B5202357
:103C400083F31188FFF7DEFF00210446FFF746FFEC
:103C5000002383F31188204610BD0000024B1B692E
:103C600058610F20FFF70EBF94360020202383F306
:103C70001188FFF7F3BF000008B50146202383F346
:103C800011880820FFF70CFF002383F3118808BD7B
:103C900049B1064B42681B6918605A601360436063
:103CA0000420FFF7FDBE4FF0FF3070479436002030
:103CB0000368984206D01A6802605060596118463D
:103CC000FFF7A2BE7047000038B504460D462068D5
:103CD000844200D138BD036823605C604561FFF712
:103CE00093FEF4E7054B03F114025A619A614FF019
:103CF000FF32DA6100221A62704700BF943600205A
:103D0000F8B5274F0361C2600D46044601F01AFB67
:103D10003B46022D53F8142F294638BF02219A4200
:103D20003E461D460AD138627C61BC61084422606F
:103D30006260A160BDE8F84001F0F2BAD7F820E077
:103D4000A0EB0E035F181FD300279068834217D89B
:103D5000376AAA421F44376201D0C01A9060736963
:103D60009A68914219D85A682360626014605C6056
:103D7000A1609868411A99604FF0FF33F361F8BD74
:103D800097601B1A1268E0E793689F4203D20EEB1C
:103D9000070001F0D3FA3946E1E7891A1B68DFE72B
:103DA0009436002038B51B4B01685A6990421D4675
:103DB00003F114020CD0446821600368002193428F
:103DC0005C60C16025D09A6881680A449A6038BDF9
:103DD00059614A605B6900219342C16003D1BDE82B
:103DE000384001F0A5BA9A6881680A449A602C6A42
:103DF00001F0A8FA6A699268001B824209D9111A77
:103E0000012998BF821C286ABDE83840104401F09F
:103E100095BA38BD943600202DE9F84F204C002784
:103E2000656904F11406B84601F08CFA236AA0EB28
:103E3000030AAB6853451DD84FF02009236AAA68CE
:103E4000D5F80CB013442362AB68AAEB030A2B68C5
:103E5000B3425E606361EF6001D101F069FA88F3FB
:103E600011882869D84789F311886569AB689A4534
:103E7000E4D2D9E76369B34210D020629A68A2EB1A
:103E80000A029A60226AAB68821A9B1A022B2CBF24
:103E9000C0180230BDE8F84F01F050BABDE8F88F05
:103EA0009436002000207047FEE7000070470000B5
:103EB0004FF0FF3070470000022906D0032906D0DA
:103EC0000129064818BF0020704705487047032A9B
:103ED0009ABF044800EBC20000207047B85A00089F
:103EE0006C5A00084023002070B59AB001AD064618
:103EF00008462946144600F095F82846FDF77EFE50
:103F0000C0B2431C5B0086E8180023700323637073
:103F1000002302341946DAB2904204F1020401D8B7
:103F20001AB070BDEA5C04F8022C04F8011C0133DD
:103F3000F1E7000008B5202383F311880348FFF759
:103F40002FFA002383F3118808BD00BF50380020EA
:103F500010B50446052916D8DFE801F0161503163A
:103F6000161D202383F311880E4A0121FFF7BCFAA6
:103F700020460D4A0221FFF7B7FA0C48FFF7D6F9A1
:103F8000002383F3118810BD202383F31188074891
:103F9000FFF7A2F9F4E7202383F311880348FFF722
:103FA000B9F9EDE7EC590008105A00085038002024
:103FB00038B50C4D0C4C0D492A4604F10800FFF7AA
:103FC00093FF05F1CA0204F110000949FFF78CFFC5
:103FD00005F5CA7204F118000649BDE83840FFF73C
:103FE00083BF00BF183D0020402300203C5A00083A
:103FF000465A0008515A000870B5044608460D4656
:10400000FDF7FCFDC6B22046013403780BB9184613
:1040100070BD32462946FDF7D9FD0028F3D10120B5
:1040200070BD00002DE9F84F05460C46FDF7E6FD92
:104030002B49C6B22846FFF7DFFF08B10336F6B2B8
:1040400028492846FFF7D8FF08B11036F6B2632E8C
:104050000DD8DFF88C80DFF88C90234FDFF890A02C
:10406000DFF890B02E7846B92670BDE8F88F294663
:104070002046BDE8F84F01F00DBC252E2CD10722BB
:1040800041462846FDF7A2FD58B9DBF80030236011
:10409000DBF804306360BBF80830238107350A344D
:1040A000E0E7082249462846FDF790FDA0B90F4BEE
:1040B000A21C13F8011F09095345C95D02F8021C2F
:1040C000197801F00F0102F10202C95D02F8031C28
:1040D000EFD118340835C5E7267001350134C1E742
:1040E000D85A0008515A0008E05A00080F7AF01F09
:1040F0001B7AF01F56590008BFF34F8F024AD3684E
:10410000DB03FCD4704700BF003C024008B5074BFE
:104110001B7853B9FFF7F0FF054B1A69002ABFBFA0
:10412000044A5A6002F188325A6008BD763F002086
:10413000003C02402301674508B5054B1B7833B9A5
:10414000FFF7DAFF034A136943F00043136108BD28
:10415000763F0020003C0240072870B513D80B4A78
:104160000B4C137863B90B4E4FF0006144F82310E9
:1041700056F823500133082B2944F7D1012313703B
:1041800054F8200070BD002070BD00BF983F002093
:10419000783F0020F45A0008014B53F82000704784
:1041A000F45A000808207047072810B5044601D9C2
:1041B000002010BDFFF7D0FF064B53F82430184401
:1041C000C21A0BB9012010BD12680132F0D1043BB4
:1041D000F6E700BFF45A0008072810B5044621D8B6
:1041E000FFF78AFFFFF792FF0F4AF323D360C30064
:1041F000DBB243F4007343F002031361136943F429
:1042000080331361FFF778FFFFF7A6FF074B53F8E2
:10421000241000F013F9FFF78FFF2046BDE810408F
:10422000FFF7C2BF002010BD003C0240F45A000856
:104230002DE9F84312F00103154640D184182E4AA7
:1042400094423CD82D4B1B6813F0010337D02C4C03
:10425000FFF75CFFF323E360FFF74EFF40F2012717
:10426000032D01D9830713D0254C0F46401A40F285
:104270000118EB1B0B44012B00EB0706236924D824
:1042800023F001032361FFF757FF0120BDE8F88306
:10429000236923F44073236123693B43236151F86D
:1042A000046B0660BFF34F8FFFF726FF03689E4243
:1042B00008D0236923F001032361FFF73DFF0020AD
:1042C000BDE8F883043D0430CAE723F4407323615A
:1042D000236943EA08032361B94637F8023B338078
:1042E000BFF34F8FFFF708FF3688B9F80030B6B23A
:1042F000B342BED0DDE700BFFFFF07080038024031
:10430000003C0240084908B50B7828B153B9FFF7C3
:10431000FDFE01230B7008BD23B1BDE80840087005
:10432000FFF70ABF08BD00BF763F002038B501F097
:1043300009F8074B1A68824207D9064AD2E90045B4
:10434000003445F10105C2E90045186038BD00BFE1
:104350009C3F0020A03F002070B5FFF729FC0646D7
:10436000FFF7E4FF054BD3E90045241845F10005AC
:104370003046FFF727FC2046294670BDA03F0020AD
:1043800008B5FFF7E9FF4FF47A720023FBF750FFFF
:1043900008BD00BF10B50244064B0439D2B29042AA
:1043A00000D110BD441C00B253F8200041F8040FA6
:1043B000E0B2F4E750280040104B30B51C6F2404E5
:1043C00007D41C6F44F400741C671C6F44F4004451
:1043D0001C670B4C236843F4807323600244094B31
:1043E0000439D2B2904200D130BD441C00B251F821
:1043F000045F43F82050E0B2F4E700BF0038024009
:10440000007000405028004007B5012201A900209B
:10441000FFF7C0FF019803B05DF804FB13B5044635
:10442000FFF7F2FFA04206D002A9012241F8044D95
:104430000020FFF7C1FF02B010BD00000144BFF330
:104440004F8F064B884204D3BFF34F8FBFF36F8F5C
:104450007047C3F85C022030F4E700BF00ED00E0D5
:10446000074B45F255521A6002225A6040F6FF721D
:104470009A604CF6CC421A60024B01221A707047C7
:1044800000300040A93F0020034B1B781BB1034BB9
:104490004AF6AA221A607047A93F00200030004067
:1044A000034B1B689B0042BF024B01221A707047EE
:1044B00074380240A83F0020024B4FF080721A600F
:1044C000704700BF74380240014B1878704700BF36
:1044D000A83F0020EFF3098305494A6822F0010252
:1044E0004A60683383F30988002383F31188704797
:1044F00030EF00E0202080F3118862B60D4B0E4AA9
:10450000D96821F4E0610904090C0A430B49DA6017
:10451000CA6842F08072CA60094A0A49C2F8B01FEC
:10452000116841F0010111601022DA7783F822004E
:10453000704700BF00ED00E00003FA05F0ED00E079
:10454000001000E055CEACC510B5202383F31188D0
:104550000E4B5B6813F4006314D0F1EE103AEFF3E6
:104560000984683C4FF08073E361094BDB68236684
:1045700084F30988FFF7CEFA10B1064BA36110BD92
:10458000054BFBE783F3118810BD00BF00ED00E091
:1045900030EF00E09306000896060008F0B5BFF380
:1045A0004F8FBFF36F8F1D4B0021C3F85012BFF325
:1045B0004F8FBFF36F8F5A6942F400325A61BFF3D5
:1045C0004F8FBFF36F8FC3F88410BFF34F8FD3F8B3
:1045D0008020C2F3C904C2F34E325201A50743F64C
:1045E000E07602EA060E284621464EEA0007013927
:1045F000C3F860724F1C00F14040F6D1203A12F12E
:10460000200FEED1BFF34F8F5A6942F480325A61C6
:10461000BFF34F8FBFF36F8FF0BD00BF00ED00E021
:10462000FEE70000084A094B09498B4204D3094AB6
:104630000021934205D3704752F8040F43F8040B4E
:10464000F3E743F8041BF4E7A45C00083C400020B7
:104650003C4000203C400020036F70B5C46E9E6853
:1046600000214FF0FF354A01A3180131D3F80009AA
:104670000028BEBFD3F8000940F08040C3F800090D
:10468000D3F8000B0028BEBFD3F8000B40F08040E9
:10469000C3F8000BA3188E42C3F80859C3F8085B8F
:1046A000E1D24FF00113C4F81C3870BD890141F00C
:1046B0002001016103699B06FCD41220FFF792BA26
:1046C000204B03EB80022DE9F047D2F80CE0DD6EC1
:1046D000DEF81420461CD2F800C005EB063605EBC8
:1046E0004018516861450BD3D5F83428012303FAEB
:1046F00000F022EA0000C5F834081846BDE8F0874B
:10470000BEF81040ACEB0103A34228BF2346D8F803
:104710001849A4B2B3EB840F10D894681F46A4F1D3
:10472000040959F804AFC6F800A0042F01D9043FCA
:10473000F7E71C440B4494605360D2E70020BDE8C7
:10474000F08700BFAC3F002010B5054C2046FEF7B7
:10475000A7FE4FF0A043E366024B236710BD00BFE6
:10476000AC3F0020385B00080378012B70B505468C
:1047700050D12A4BC46E98421BD1294B5A6B42F040
:1047800080025A635A6D42F080025A655A6D5A6926
:1047900042F080025A615A6922F080025A610E2169
:1047A00043205B69FEF74CFC1E4BE3601E4BC4F8D4
:1047B00000380023C4F8003EC0232360EE6E4FF49F
:1047C0000413A3633369002BFCDA012333610C204B
:1047D000FFF708FA3369DB07FCD41220FFF702FA6F
:1047E0003369002BFCDA0026A6602846FFF734FF69
:1047F0006B68C4F81068DB68C4F81468C4F81C68F7
:104800004BB90A4BA3614FF0FF336361A36843F0D8
:104810000103A36070BD064BF4E700BFAC3F00206E
:10482000003802404014004003002002003C30C029
:10483000083C30C0F8B5C46E054600212046FFF79D
:1048400035FF296F00234FF001128F68C4F8343808
:104850004FF00066C4F81C284FF0FF3004EB431201
:1048600001339F42C2F80069C2F8006BC2F8080920
:10487000C2F8080BF2D20B68EA6E6B676362102312
:104880001361166916F01006FBD11220FFF7AAF982
:10489000D4F8003823F4FE63C4F80038A36943F465
:1048A000402343F01003A3610923C4F81038C4F86F
:1048B00014380A4BEB604FF0C043C4F8103B084B70
:1048C000C4F8003BC4F81069C4F800396B6F03F1F9
:1048D000100243F480136A67A362F8BD145B0008FA
:1048E00040800010C26E90F86610D2F8003823F4B1
:1048F000FE6343EA0113C2F8003870472DE9F04126
:104900000EB200EB86080D46D8F80C100F6807F0C1
:104910000303022B50D0032B50D03D4A3D4F012BB7
:1049200018BF1746C46E4FEA451E04EB0E03002263
:10493000C3F8102B8A6905F1100C002A40D04A8A6E
:1049400005F158035B013A43E2500123D4F81C28D7
:1049500003FA0CF31343A6444A69C4F81C38002335
:10496000CEF8103905F13F03002A39D00A8A898B25
:104970009208012988BF4A43416F04EB830356180C
:1049800041EA0242466729465A602046FFF78EFEFA
:10499000D8F80C301B8A43EA85531F4305F14803BE
:1049A0005B01E7500123D4F81C2803FA05F51543F1
:1049B000C4F81C58BDE8F081174FB3E7174FB1E7B3
:1049C00004EB4613D3F8002B22F40042C3F8002B6B
:1049D000D4F81C28012303FA0CF322EA0303BAE7F4
:1049E00004EB83030E4A5A6004EB46162946204620
:1049F000FFF75CFED6F8003923F40043C6F800390F
:104A0000D4F81C38012202FA05F523EA0505CFE7A0
:104A100000800010008004100080081000800C103E
:104A200000040002026F12684267FFF715BE000023
:104A30005831C36E49015B5813F4004004D013F49D
:104A4000001F14BF01200220704700004831C36ED0
:104A500049015B5813F4004004D013F4001F14BF45
:104A6000012002207047000000EB8101CB68196A29
:104A70000B6813604B6853607047000000EB8103C4
:104A800030B5DD68AA691368D36019B9402B84BFBB
:104A9000402313606B8A1468C26E1C44013CB4FB53
:104AA000F3F46343033323F0030302EB411043EABF
:104AB000C44343F0C043C0F8103B2B6803F003032A
:104AC000012B09B20ED1D2F8083802EB411013F4D1
:104AD000807FD0F8003B14BF43F0805343F0005375
:104AE000C0F8003B02EB4112D2F8003B43F0044314
:104AF000C2F8003B30BD00002DE9F041244DEE6EC0
:104B000006EB40130446D3F8087BC3F8087B38074C
:104B10000AD5D6F81438190706D505EB84032146C3
:104B2000DB6828465B689847FA072FD5D6F8143813
:104B3000DB072BD505EB8403D968CCB98B69488A90
:104B40005E68B6FBF0F200FB12628AB91868DA6898
:104B500090420DD2121A83E81400202383F31188A7
:104B60000B482146FFF78AFF84F31188BDE8F081E6
:104B7000012303FA04F26B8923EA02036B81CB68F9
:104B800023B121460248BDE8F0411847BDE8F08155
:104B9000AC3F002000EB810370B5DD68C36E6C692B
:104BA0002668E6604A0156BB1A444FF40020C2F85A
:104BB00010092A6802F00302012A0AB20ED1D3F8C2
:104BC000080803EB421410F4807FD4F8000914BFE6
:104BD00040F0805040F00050C4F8000903EB42124E
:104BE000D2F8000940F00440C2F80009D3F83408B4
:104BF000012202FA01F10143C3F8341870BD19B95A
:104C0000402E84BF4020206020682E8A841940F006
:104C10000050013C1A44B4FBF6F440EAC440C6E735
:104C2000F8B504461E48C56E05EB4413D3F8086971
:104C3000C3F80869F10717D5D5F81038DA0713D586
:104C400000EB8403D9684B691F68DA68974218D271
:104C5000D21B00271A605F60202383F3118821464E
:104C6000FFF798FF87F31188330617D5D5F8342856
:104C70000123A340134211D02046BDE8F840FFF7BE
:104C80001FBD012303FA04F2038923EA020303810F
:104C90008B68002BE8D021469847E5E7F8BD00BFB8
:104CA000AC3F0020A2482DE9F84FC56E6E69AB6994
:104CB0001E4016F4805F6E61044605D0FEF762FC6C
:104CC000BDE8F84FFFF740BC002E12DAD5F8003EE1
:104CD00097489B071EBFD5F8003E23F00303C5F895
:104CE000003ED5F8043823F00103C5F80438FEF778
:104CF00079FC370505D58E48FFF7AEFC8C48FEF7EA
:104D000061FCB0040CD5D5F8083813F0060FEB6839
:104D100023F470530CBF43F4105343F4A053EB60DF
:104D2000310704D56368DB680BB181489847F2020C
:104D30006FD4B3020CD5D4F86C80DFF8F4A100274F
:104D40004FF00109236F9B68F9B28B4280F09C8081
:104D5000F70619D5E16E0A6AC2F30A1702F00F03CB
:104D600002F4F012B2F5802F00F0B680B2F5402FB9
:104D70000AD104EB830301F58051DB68186A002334
:104D80001A469F4240F09C803303D5F818481DD541
:104D9000E70302D50020FFF7AFFEA50302D50120EF
:104DA000FFF7AAFE600302D50220FFF7A5FE21034C
:104DB00002D50320FFF7A0FEE20202D50420FFF790
:104DC0009BFEA30202D50520FFF796FE77037FF531
:104DD00077AFE60702D50020FFF722FFA50702D52F
:104DE0000120FFF71DFF600702D50220FFF718FF23
:104DF000210702D50320FFF713FFE20602D50420A6
:104E0000FFF70EFFA3067FF55BAF0520FFF708FF56
:104E100056E7D4F86C80DFF818A100274FF001099D
:104E2000236F9B685FFA87FB5B4582D308EB4B13CC
:104E3000D3F8002902F44022B2F5802F22D1D3F812
:104E40000029002A1EDAD3F8002942F09042C3F864
:104E50000029D3F80029002AFBDB5946E06EFFF752
:104E600025FC228909FA0BF322EA0303238104EBD0
:104E70008B03DB689B6813B15946504698475846E8
:104E8000FFF71EFC0137CBE708EB4112D2F8003BDD
:104E900003F44023B3F5802F10D1D2F8003B002B50
:104EA0000CDA628909FA01F322EA0303638104EB55
:104EB0008103DB68DB680BB150469847013741E757
:104EC0009C0708BF0A68072B98BF027003F1010313
:104ED0009CBF120A013054E7023304EB830201F550
:104EE0008051526890690268D0F808C04068A2EB0F
:104EF000000E0022104697420AD104EB8304636837
:104F00009B699A683A449A605A6817445F603BE725
:104F100012F0030F08BF0868964588BF8CF80000A0
:104F200002F1010284BF000A0CF1010CE3E700BFAB
:104F3000AC3F0020C36E03EB4111D1F8003B43F4BA
:104F40000013C1F8003B7047C36E03EB4111D1F869
:104F5000003943F40013C1F800397047C36E03EB06
:104F60004111D1F8003B23F40013C1F8003B704716
:104F7000C36E03EB4111D1F8003923F40013C1F8DB
:104F80000039704730B5039C0172043304FB0325DC
:104F9000C361049B03630021059B00604060C16006
:104FA000426102618561046242628162C16243635F
:104FB00030BD00000022416A41610161C26082622D
:104FC000C2626FF00101FEF77FBE00000369426913
:104FD000934203D1C2680AB100207047181D704780
:104FE00003691960C2680132C260C26913448269F0
:104FF0000361934224BF436A03610021FEF758BE58
:1050000038B504460D46E3683BB16269131D12686A
:10501000A3621344E362002038BD237A33B92946E2
:105020002046FEF735FE0028EDDA38BD6FF00100AE
:10503000FBE70000C368C269013BC36043691344D6
:1050400082694361934224BF436A436100238362C0
:10505000036B03B11847704770B52023044683F3F0
:105060001188866A3EB9FFF7CBFF054618B186F373
:105070001188284670BDA36AE26A13F8015BA36237
:10508000934202D32046FFF7D5FF002383F3118814
:10509000EFE700002DE9F84F04460E46904699468A
:1050A000202787F311880025AA46D4F828B0BBF141
:1050B000000F09D149462046FFF7A2FF20B18BF32C
:1050C00011882846BDE8F88FA16AE36AA8EB050BB2
:1050D0005B1A9B4528BF9B46BBF1400F1BD933464B
:1050E00001F1400251F8040B43F8040B9142F9D14D
:1050F000A36A40334036A3624035A26AE36A9A420B
:1051000002D32046FFF796FF8AF311884545D8D28F
:1051100087F31188C9E730465A46FCF74DFDA36A6C
:105120005B445E44A3625D44E7E7000010B5029C67
:105130000172043303FB0421C36100238362C36251
:10514000039B0363049B00604060C4604261026192
:10515000816104624262436310BD0000026AC26062
:10516000426A4261026100228262C2626FF0010102
:10517000FEF7AABD436902699A4203D1C2680AB127
:1051800000207047184650F8043B0B607047000041
:10519000C368C2690133C3604369134482694361D0
:1051A000934224BF436A43610021FEF781BD0000A2
:1051B00038B504460D46E3683BB123691A1DA26267
:1051C000E2691344E362002038BD237A33B92946EB
:1051D0002046FEF75DFD0028EDDA38BD6FF00100D6
:1051E000FBE7000003691960C268013AC260C26946
:1051F000134482690361934224BF436A036100231D
:105200008362036B03B118477047000070B5202319
:1052100004460E4683F31188856A35B91146FFF7B7
:10522000C7FF10B185F3118870BDA36A1E70A36A11
:10523000E26A01339342A36204D3E1692046043950
:10524000FFF7D0FF002080F3118870BD2DE9F84FE3
:1052500004460D4691469A464FF0200888F311887F
:105260000026B346A76A4FB951462046FFF7A0FF74
:1052700020B187F311883046BDE8F88FA06AE76A4D
:10528000A9EB06033F1A9F4228BF1F46402F1BD998
:1052900005F1400355F8042B40F8042B9D42F9D149
:1052A000A36A4033A3624036A26AE36A9A4204D3F7
:1052B000E16920460439FFF795FF8BF311884E45CD
:1052C000D9D288F31188CDE729463A46FCF774FC19
:1052D000A36A3B443D44A3623E44E5E70269436957
:1052E0009A4203D1C3681BB9184670470023FBE7F5
:1052F000836A002BF8D0043B9B1AF5D01360C36877
:10530000013BC360C3691A44836902619A4224BFA6
:10531000436A0361002383620123E5E700F090B84C
:105320004FF08043002258631A610222DA6070470E
:105330004FF080430022DA60704700004FF0804356
:10534000586370474FF08043586A70474B6843601A
:105350008B688360CB68C3600B6943614B690362F0
:105360008B6943620B6803607047000008B5224BED
:1053700022481A6940F2FF110A431A611A6922F49D
:10538000FF7222F001021A611A691A6B0A431A634A
:105390001A6D0A431A651A4A1B6D1146FFF7D6FFAC
:1053A000184802F11C01FFF7D1FF174802F138013C
:1053B000FFF7CCFF154802F15401FFF7C7FF14486F
:1053C00002F17001FFF7C2FF124802F18C01FFF7F2
:1053D000BDFF114802F1A801FFF7B8FF0F4802F125
:1053E000C401FFF7B3FF0E4802F1E001FFF7AEFF83
:1053F000BDE8084000F098B80038024000000240C4
:10540000445B00080004024000080240000C024017
:10541000001002400014024000180240001C02402C
:105420000020024008B500F0F5F9FEF79FFBFFF7FA
:1054300037F8BDE80840FEF7BBBD0000704700002C
:105440000F4B1A6C42F001021A641A6E42F001020C
:105450001A660C4A1B6E936843F0010393604FF089
:1054600080436B229A624FF0FF32DA6200229A6127
:105470005A63DA605A6001225A611A60704700BFAD
:1054800000380240002004E04FF0804208B5136964
:10549000D1680B40D9B2C9439B07116107D52023BE
:1054A00083F31188FEF782FB002383F3118808BD84
:1054B0001B4B1A696FEAC2526FEAD2521A611A691B
:1054C000C2F308021A614FF0FF301A695A69586135
:1054D00000215A6959615A691A6A62F080521A6247
:1054E0001A6A02F080521A621A6A5A6A58625A6A32
:1054F00059625A6A0B4A106840F480701060186F45
:1055000000F44070B0F5007F1EBF4FF48030186784
:105510001967536823F40073536000F057B900BF54
:105520000038024000700040374B384A1A64384A4D
:105530004FF4404111601A6842F001021A601A6883
:105540009207FCD59A6822F003029A602E4B194606
:105550009A6812F00C02FBD1186800F0F90018608C
:105560009A601A6842F480321A600B689B03FCD57B
:105570004B6F43F001034B67234B5A6F9007FCD5E9
:10558000244A5A601A6842F080721A60204B1A4608
:1055900059684904FCD5196841F480311960536891
:1055A000D803FCD5136843F400331360184A5368DA
:1055B0009903FCD5144B1A689201FCD5164A9A60DF
:1055C00040F20112C3F88C200022C3F89020134B44
:1055D00040F207321A601A6802F00F02072AFAD165
:1055E000094B9A6842F002029A609A6802F00C0233
:1055F000082AFAD15A6C42F480425A645A6E42F434
:1056000080425A665B6E704700380240000400100A
:10561000007000400836400900948838003C024081
:10562000074A08B5536903F00103536123B1054AE2
:1056300013680BB150689847BDE80840FEF784BF77
:10564000003C014014360020074A08B5536903F0B6
:105650000203536123B1054A93680BB1D0689847A0
:10566000BDE80840FEF770BF003C01401436002042
:10567000074A08B5536903F00403536123B1054A8F
:1056800013690BB150699847BDE80840FEF75CBF4D
:10569000003C014014360020074A08B5536903F066
:1056A0000803536123B1054A93690BB1D069984748
:1056B000BDE80840FEF748BF003C0140143600201A
:1056C000074A08B5536903F01003536123B1054A33
:1056D000136A0BB1506A9847BDE80840FEF734BF23
:1056E000003C014014360020164B10B55C6904F4F0
:1056F00078725A61A30604D5134A936A0BB1D06A33
:105700009847600604D5104A136B0BB1506B98474D
:10571000210604D50C4A936B0BB1D06B9847E20578
:1057200004D5094A136C0BB1506C9847A30504D5F6
:10573000054A936C0BB1D06C9847BDE81040FEF75A
:1057400003BF00BF003C014014360020194B10B5C8
:105750005C6904F47C425A61620504D5164A136DF3
:105760000BB1506D9847230504D5134A936D0BB1C7
:10577000D06D9847E00404D50F4A136E0BB1506EFC
:105780009847A10404D50C4A936E0BB1D06E98478C
:10579000620404D5084A136F0BB1506F9847230475
:1057A00004D5054A936F0BB1D06F9847BDE8104000
:1057B000FEF7CABE003C01401436002008B5FFF7D2
:1057C00063FEBDE80840FEF7BFBE0000062108B535
:1057D0000846FDF735FC06210720FDF731FC0621C0
:1057E0000820FDF72DFC06210920FDF729FC0621E4
:1057F0000A20FDF725FC06211720FDF721FC0621D4
:105800002820FDF71DFC07211C20BDE80840FDF7FE
:1058100017BC000008B5FFF74BFEFDF705FCFDF7D0
:1058200025FCFDF73BFEFDF70FFDFFF707FEBDE88A
:105830000840FFF773BD000010B5013902449042E3
:1058400001D1002010BD10F8013B11F8014FA34217
:10585000F5D0181B10BD00002DE9F8430746884617
:1058600091461E468BB10D46A8EB0500B54207EBED
:10587000000402D20020BDE8F883324649462046A3
:10588000FFF7DAFF18B1013DEEE7BDE8F8832046E7
:10589000BDE8F883034611F8012B03F8012B002A19
:1058A000F9D17047121012131211000040A2E4F156
:1058B000646891064E6F20617070207369670A00FA
:1058C000426164206677206C656E67746820257578
:1058D0000A0042616420626F6172645F696420251E
:1058E000752073686F756C642062652025750A00E9
:1058F0004261642066772064657363726970746FB7
:1059000072206C656E6774682025750A00426164B8
:105910002061707020435243203078253038783A27
:10592000307825303878203078253038783A30781B
:10593000253038780A00476F6F64206669726D778A
:105940006172650A000000006F72672E61726475F3
:1059500070696C6F742E46726565666C7952544B33
:105960000000000053544D3332463F3F3F3F3F3F1E
:105970000053544D333246375B347C355D780053E9
:10598000544D333246375B367C375D78000000007B
:1059900000000000C1310008AD310008E931000805
:1059A000D5310008E1310008CD310008B9310008D7
:1059B000A531000845320008000000000100000089
:1059C000000000006D61696E00000000E4590008ED
:1059D000D83600205038002001000000693B000844
:1059E0000000000069646C65000000000200000017
:1059F00000000000ED33000855340008400040006E
:105A0000E83C0020F83C00200200000000000000FC
:105A100003000000000000009934000800000000AE
:105A200010000000083D0020000000000100000000
:105A300000000000AC3F00200101020041726475CB
:105A400050696C6F740025424F415244252D424CE1
:105A5000002553455249414C25000000513F0008A4
:105A6000B93E000859330008353F000843000000E4
:105A7000745A000809024300020100C03209040000
:105A800000010202010005240010010524010001AB
:105A9000042402020524060001070582030800FF12
:105AA00009040100020A000000070501024000008D
:105AB000070581024000000012000000C05A0008E3
:105AC00012011001020000400912415700020102B8
:105AD000030100000403090425424F4152442500FC
:105AE0003031323334353637383941424344454614
:105AF00000000000004000000040000000400000E6
:105B00000040000000000100000002000000020050
:105B10000000020000000000F9350008D938000834
:105B20008539000840004000244000202440002027
:105B3000010000003440002080000000400100000F
:105B4000050000000010806A00000000AAAAAAAAAE
:105B500000000040FFFF00000000000000A00A005D
:105B600000000A0000000000AAAAAAAA0000000083
:105B7000FFFF00000000000099000000004000004E
:105B800000000000AAAAAAAA00000020FFFF00004F
:105B90000000000000000000000000000000000005
:105BA000AAAAAAAA00000000FFFF0000000000004F
:105BB000000000000000000000000000AAAAAAAA3D
:105BC00000000000FFFF00000000000000000000D7
:105BD0000000000000000000AAAAAAAA000000001D
:105BE000FFFF0000000000000000000000000000B7
:105BF00000000000AAAAAAAA00000000FFFF0000FF
:105C00000000000000000000000000000000000094
:105C10000A00000000000000030000000000000077
:105C20000000000000000000000000000000000074
:105C30000000000000000000000000000000000064
:105C400020A6FF7F010000006400000000000000AB
:105C5000FE2A0100D2040000FF0000000000000046
:105C6000645900083F000000490400007159000811
:105C70003F000000510400007F5900083F00000071
:105C8000009600000000080004000000D45A00083C
:105C90000000000000000000000000000000000004
:085CA0000000000000000000FC
:00000001FF
