:020000040800F2
:100000000007002029050008992A00089D2A0008F9
:10001000F52A00089D2A0008C92A00082B050008B7
:100020002B0500082B0500082B050008CD3800081B
:100030002B0500082B0500082B0500082B050008E0
:100040002B0500082B0500082B0500082B050008D0
:100050002B0500082B050008954B0008C14B000834
:10006000ED4B0008194C0008454C00082B05000812
:100070002B0500082B0500082B0500082B050008A0
:100080002B0500082B0500082B0500085927000840
:10009000692700087D2700082B050008714C00081F
:1000A0002B0500082B0500082B0500082B05000870
:1000B000FD4900082B0500082B0500082B0500084A
:1000C0002B0500082B0500082B0500082B05000850
:1000D0002B0500082B050008C93900082B0500086E
:1000E000D94C00082B0500082B0500082B0500083B
:1000F0002B0500082B0500082B0500082B05000820
:100100002B0500082B0500082B0500082B0500080F
:100110002B0500082B0500082B0500082B050008FF
:100120002B0500082B0500082B0500082B050008EF
:100130002B0500082B0500082B0500089127000857
:10014000A1270008B52700082B0500082B0500088B
:100150002B0500082B0500082B0500082B050008BF
:100160002B0500082B0500082B0500082B050008AF
:100170002B0500082B0500082B0500082B0500089F
:100180002B0500082B0500082B0500082B0500088F
:100190002B0500082B0500082B0500082B0500087F
:1001A0002B0500082B0500082B0500082B0500086F
:1001B0002B0500082B0500082B0500082B0500085F
:1001C0002B0500082B0500082B0500082B0500084F
:1001D0002B0500082B0500082B0500082B0500083F
:1001E000F518000800000000D0400B1CD1409C46D0
:1001F000203AD34018435242634693401843704715
:100200009140031C90409C46203A9340194352422F
:100210006346D3401943704753B94AB9002908BF10
:1002200000281CBF4FF0FF314FF0FF3000F07AB9CB
:10023000ADF1080C6DE904CE00F006F8DDF804E03D
:10024000DDE9022304B070472DE9F0478C460D46E6
:100250000446089E002B51D18A4217466DD9B2FA46
:1002600082FEBEF1000F0BD0CEF1200C01FA0EF58C
:1002700020FA0CFC02FA0EF74CEA050C00FA0EF418
:100280004FEA174A250CBCFBFAF81FFA87F90AFB5C
:1002900018CC45EA0C4508FB09F3AB420AD9ED1925
:1002A00008F1FF3280F02381AB4240F22081A8F1B7
:1002B00002083D44ED1AA4B2B5FBFAF00AFB105552
:1002C00044EA054400FB09F9A14509D9E41900F104
:1002D000FF3380F00A81A14540F2078102383C4497
:1002E000A4EB090440EA08400021002E61D024FA62
:1002F0000EF4002334607360BDE8F0878B4207D9A9
:10030000002E54D0002186E821000846BDE8F08781
:10031000B3FA83F1002940F08E80AB4202D38242CF
:1003200000F2FA80841A65EB03050120AC46002E2A
:100330003FD086E81010BDE8F08712B90127B7FB5F
:10034000F2F7B7FA87FEBEF1000F34D1EB1B3A0C7F
:100350001FFA87FC0121B3FBF2F8250C02FB1833CE
:1003600045EA03450CFB08F3AB4207D9ED1908F148
:10037000FF3002D2AB4200F2D1808046ED1AA3B228
:10038000B5FBF2F002FB105543EA05440CFB00FC00
:10039000A44507D9E41900F1FF3302D2A44500F2C5
:1003A000B8801846A4EB0C0440EA08409DE73146AB
:1003B0003046BDE8F087CEF1200405FA0EF307FAC7
:1003C0000EF720FA04F83A0C25FA04F448EA030878
:1003D000B4FBF2F14FEA184502FB11441FFA87FC07
:1003E00045EA044501FB0CF3AB4200FA0EF409D9CF
:1003F000ED1901F1FF3080F08A80AB4240F2878036
:1004000002393D44EB1A1FFA88F5B3FBF2F002FB08
:10041000103345EA034500FB0CF3AB4207D9ED1955
:1004200000F1FF386FD2AB426DD902383D44EB1A70
:1004300040EA01418FE7C1F1200722FA07F88B401B
:1004400005FA01F448EA030320FA07FE4FEA134CC9
:10045000FD404EEA040EB5FBFCF94FEA1E440CFBCE
:1004600019551FFA83F844EA054509FB08F4AC4224
:1004700002FA01F200FA01FA08D9ED1809F1FF3089
:1004800043D2AC4241D9A9F102091D442D1B1FFAE8
:100490008EFEB5FBFCF00CFB10554EEA054400FB4C
:1004A00008F8A04507D9E41800F1FF3529D2A04586
:1004B00027D902381C4440EA0940A4EB0804A0FBF9
:1004C00002894C45C6464D4615D312D056B1BAEBFB
:1004D0000E0364EB050404FA07F7CB401F43CC403E
:1004E000376074600021BDE8F0871846F8E6904652
:1004F000E0E6C245EAD2B8EB020E69EB030501382B
:10050000E4E72846D7E7404691E78146BEE7014643
:1005100078E702383C4445E7084608E7A8F10208B6
:100520003D442BE7704700BF02E000F000F8FEE713
:1005300072B6394880F30888384880F3098838480B
:100540004EF60851CEF20001086040F20000CCF2F5
:1005500000004EF63471CEF200010860BFF34F8FF9
:10056000BFF36F8F40F20000C0F2F0004EF68851EA
:10057000CEF200010860BFF34F8FBFF36F8F4FF0D3
:100580000000E1EE100A4EF63C71CEF20001086068
:10059000062080F31488BFF36F8F04F04FF904F046
:1005A00093F94FF055301F491B4A91423CBF41F827
:1005B000040BFAE71C49194A91423CBF41F8040B6D
:1005C000FAE71A491A4A1B4B9A423EBF51F8040BEC
:1005D00042F8040BF8E700201749184A91423CBF43
:1005E00041F8040BFAE704F02DF904F0C1F9144CBA
:1005F000144DAC4203DA54F8041B8847F9E700F0C5
:1006000041F8114C114DAC4203DA54F8041B8847F1
:10061000F9E704F015B900000007002000230020CE
:10062000000000080001002000070020A05300087F
:10063000002300207C23002080230020AC5C0020CD
:10064000E0010008E4010008E4010008E4010008FA
:100650002DE9F04F2DED108AC1F80CD0C3689D46EE
:10066000BDEC108ABDE8F08F002383F31188284683
:10067000A047002003F0CCFDFEE703F027FD00DFDC
:10068000FEE70000F8B504F07FF8064604F0D0F865
:10069000044678BB214B9E422CD001339E422CD085
:1006A0001F4B26F0FF029A422AD1F0B200F04AFD19
:1006B000274642F2107500F05BFF00F049FD18B3C9
:1006C00034B1184B9E4203D004F0AAF800252F46FF
:1006D000002004F063F80FB100F06EF801F0D6FAD4
:1006E00000F068FF01F072F9284600F0B5F800F05C
:1006F00063F8F9E727460025DDE705460127DAE735
:10070000074640F6C415D6E714B1064B9E42DBD12E
:10071000002004F043F80025E0E700BF010007B027
:10072000000008B0263A09B008B501F021F9A0F19F
:1007300020035842584108BD07B5054B02211B88CC
:10074000ADF8043001A801F031F903B05DF804FB05
:10075000AC50000810B5202383F311881248C368F9
:100760000BB103F0E3FD0023104A0F484FF47A71F8
:1007700003F08AFD002383F311880D4C236813B125
:100780002368013B2360636813B16368013B6360C6
:10079000084B1B7833B9636823B9022001F0FCF9D8
:1007A0003223636010BD00BF80230020550700087E
:1007B0009C2400209423002010B51E4B1E4953F8A2
:1007C000042F013200D110BD8B42F8D11B4C1C4BC1
:1007D00022689A422CD91B4B9B6803F1006303F5F6
:1007E00080339A4224D203F0EFFF04F001F8002096
:1007F00001F006F9144B0220187001F0C3F9134BF5
:100800001A6C00221A64196E1A66196E596C5A64B1
:10081000596E5A665B6E72B60D4A0E4B13601B68BA
:100820002268202181F311889D4683F308881047B0
:1008300010BD00BFFCFF00081C00010804000108F7
:10084000FFFF00080023002094230020003802400E
:1008500008ED00E0000001082DE9F04F99B0B94D16
:1008600000902022FF2110A8AC6801F0B1F9B64A2F
:1008700001951378A3B9B5480121C36011702023F5
:1008800083F31188C3680BB103F050FD0023B04A15
:10089000AE484FF47A7103F0F7FC002383F311881C
:1008A000009BAC4A03B11360AB4B009D0293002642
:1008B0001E705660B2463746B146012001F062F91B
:1008C000002D00F02582A34B1B68002B40F02082F6
:1008D00019B0BDE8F08F0220FFF726FF002840F096
:1008E0001082009B002E08BF1D469C4B02211B88D6
:1008F000ADF82C300BA801F059F8DEE74FF47A7010
:1009000001F036F8B0F10008EBDB0220FFF70CFF36
:100910000028E6D008F1FF38B8F1040F00F2F381A7
:10092000DFE808F0031E2124270018A8052340F85B
:10093000343D042101F03AF8012303FA08F848EAAB
:100940000A0A5FFA8AFA4FF0000901F095F927B117
:100950000AF00B030B2B08BF0025FFF7EDFEACE7F9
:1009600004217848E6E704217D48E3E704217D4837
:10097000E0E74FF01C09484601F044F809F104098A
:100980000B9004210BA801F011F8B9F12C0FF2D152
:10099000D2E7002FA5D00AF00B030B2BA1D1022028
:1009A000FFF7C2FE804600289BD001206A4E01F06E
:1009B00027F80220307001F0E5F800275FFA87FB86
:1009C000584601F02DF8054688B1584601F038F830
:1009D00001370028F2D146460025634B02211B88CF
:1009E000ADF82C300BA800F0E1FF474665E7012386
:1009F0000220337001F0BCF82C46019B9B689C429E
:100A000006D2204600F0FEFF0130E4D10434F4E7C2
:100A1000029B00241C704F4B46465C6047462546AF
:100A200093E7002F3FF45DAF0AF00B030B2B7FF42D
:100A300058AF029B0220187001F0A4F8322000F099
:100A400097FFB0F1000BFFF64CAF1BF003087FF4EB
:100A500048AF019B996804EB0B028A423FF641AF15
:100A6000BBF5807F3FF63DAF404A0392D8450FDA91
:100A70004FF47A7000F07CFF049004990029FFF68F
:100A800030AF039A049908F8021008F10108ECE766
:100A9000C820FFF749FE804600283FF422AF1F2CF4
:100AA00011D8C4F120075F4528BF5F4610AB24F082
:100AB00003003A462D49184401F078F83A46FF21E0
:100AC0002A4801F085F84FEAAB03DAB227490393CD
:100AD000204601F085F8074600283FF47EAF039BCF
:100AE00004EB830431E70220FFF71EFE00283FF4E9
:100AF000F8AE00F0CBFF00283FF4F3AE4FF0000853
:100B00004346019A9268904532D2B8F11F0F12D82D
:100B1000109A01320FD028F0030218A90A4452F8A3
:100B2000202C0B92184604220BA902F001F808F1C0
:100B300004080346E5E74046039300F063FF039B88
:100B40000B90EFE700230020982400208023002052
:100B5000550700089C24002094230020AE50000874
:100B60000423002008230020B05000089823002010
:100B700018A8042140F84C3D00F018FFE5E618A83D
:100B8000002340F8343D642100F006FF00287FF484
:100B9000A8AE0220FFF7C8FD00283FF4A2AE0B98D4
:100BA00000F060FF18AB43F8480D04211846E3E756
:100BB00018A8002340F8343D642100F0EDFE002821
:100BC0007FF48FAE0220FFF7AFFD00283FF489AE1F
:100BD0000B9800F055FF18AB43F8440DE5E70220F1
:100BE000FFF7A2FD00283FF47CAE00F05FFF18ABDA
:100BF00043F8400DD9E70220FFF796FD00283FF4A7
:100C000070AE0BA9142000F057FF804618A80421ED
:100C100040F83C8D00F0CAFE41460BA8ACE73220FC
:100C200000F0A6FEB0F10008FFF65BAE18F0030F6F
:100C30007FF457AE019A926808EB090393423FF69E
:100C400050AE0220FFF770FD00283FF44AAE28F0B6
:100C50000308C844C1453FF478AE484600F0D2FED0
:100C600004210A900AA800F0A1FE09F10409F1E7A5
:100C70004FF47A70FFF758FD00283FF432AE00F0D1
:100C800005FF002842D0109B01330BD0082210A989
:100C9000002000F0A5FF002838D02022FF2110A856
:100CA00000F096FFFFF748FD384803F0B7FA0FE66B
:100CB000002F3FF416AE0AF00B030B2B7FF411AE9E
:100CC00018A8002340F8343D642100F065FE8046FA
:100CD00000287FF406AE0220FFF726FD00283FF42F
:100CE00000AE0390FFF728FD41F2883003F096FA3A
:100CF0000B9800F0D7FF00F0BFFF039B45461F464F
:100D0000DBE5074621E64FF00009EAE5B84664E670
:100D1000002000F02DFE0490049B002B01DA00F06F
:100D200099FC049B002BFFF6CBAD012000F020FFC7
:100D3000049B213B122B3FF6C0AD01A252F823F0D9
:100D4000D7080008FD08000893090008BB08000840
:100D5000BB080008BB080008230A00081F0C000895
:100D6000E70A00087F0B0008B10B0008DF0B000842
:100D7000BB080008F70B0008BB080008710C00084E
:100D80004B090008BB080008B10C0008A086010050
:100D900009490B6849F269009AB21B0C00FB023347
:100DA000064A0B60136844F2506198B21B0C01FBB9
:100DB0000030106080B27047102300200C23002008
:100DC00010B500211022044600F002FF034B03CBB4
:100DD000206061601868A06010BD00BF107AFF1F1E
:100DE000F0B51F4CBBB001F09FFEA368C31AF92BEE
:100DF00030D906AD2346A06028220021284602F003
:100E000015FB04F10E0000F0DBFE0023C6B2591DF5
:100E10005F1CDBB2B3424FEAC10107DA0E33234451
:100E20000822284602F002FB3B46F0E70123039329
:100E30000823207B02930B4B0193C1F3CF01302396
:100E4000059100930146049503A3D3E900230648C6
:100E500002F026F93BB0F0BD78F6339F93CACD8DF2
:100E6000805600208D560020BC3400202DE9F04132
:100E70000E4CDFF840800E4FA4F5865646F8108CD5
:100E800014F8783C43B954F87C5C2DB1284601F045
:100E9000C3FC284603F0A8FFA4F19000A6F11004BB
:100EA00001F0BAFCA742E7D1BDE8F08180560020EE
:100EB000E03400200052000870B50D4614461E466E
:100EC00002F096F850B9022E0ED1012C0CD112A3CB
:100ED000D3E90023C5E90023012070BD052C14D0FF
:100EE00003D8012C09D0002070BD282C09D0302C4B
:100EF000F9D10BA3D3E90023ECE70BA3D3E900233B
:100F0000E8E70BA3D3E90023E4E70BA3D3E900232D
:100F1000E0E700BFAFF30080401DA12026812A0B2F
:100F200078F6339F93CACD8D9E6AC421818A46EE9E
:100F300026417272DF25D7B7F017304A39059E5621
:100F400038B504460D46034620222846002102F00B
:100F50006DFA22792346032A28BF032203F8042FBF
:100F600028460222202102F061FA62792346072AEC
:100F700028BF072203F8052F28460322222102F06A
:100F800055FAA2792346072A28BF072203F8062F1D
:100F900028460322252102F049FA284604F10803D5
:100FA0001022282102F042FA382038BD2DE9F04FF6
:100FB000ADF5017D21AE0EAD40F2791280460F46AF
:100FC0003046002100F004FE48220021284600F0AF
:100FD000FFFD01F0A9FD594B4FF47A72B0FBF2F01E
:100FE000186093E80700012385E807002B740DF1D2
:100FF0005A0000236B74FFF7E3FE042385F82030CA
:101000000B2385F8213007AB18464D4904F042F810
:10101000182228643146284685F83C20FFF790FFC7
:1010200012AB044601460822304602F0FFF90822BE
:10103000A1180DF14903304602F0F8F90DF14A0309
:10104000082204F11001304602F0F0F913AB20221F
:1010500004F11801304602F0E9F914AB402204F122
:101060003801304602F0E2F916AB082204F17801AB
:10107000304602F0DBF90DF15903082204F180013A
:10108000304602F0D3F904F1880A0DF15A0904F54B
:10109000847B4B465146082230460AF1080A02F08A
:1010A000C5F9D34509F10109F3D11BAB0822594613
:1010B000304602F0BBF904F588744FF0000995F84A
:1010C00034304B4510D84FF0000995F83C304B4573
:1010D00015D92B6C21464B440822304602F0A6F964
:1010E000083409F10109F0E7AB6B21464B440822B3
:1010F000304602F09BF9083409F10109DFE7E31DEE
:10110000C3F3CF03F97E0593002304960393BB7EBC
:101110000293193701230093019706A3D3E9002313
:10112000404601F0BDFF0DF5017DBDE8F08F00BF29
:10113000AFF300809E6AC421818A46EEA424002079
:1011400050510008014B1870704700BFB0240020B8
:10115000F0B5334B1C7B85B034B1324B0E221A8173
:101160000024204605B0F0BD2F4A1068516802AB3C
:1011700003C308230DEB03022C492D4803F06CFE3A
:10118000054630B9274B2B480A221A8101F01CFB77
:10119000E6E70169B1F5E02F06D9224B26480B227C
:1011A0001A8101F011FBDCE7438B40F20B429342C2
:1011B00007D01C490C2008811946204801F004FB87
:1011C000CFE71F4A024402F11003994204D2154BA3
:1011D0001C4810221A81E4E710398E1A204614495F
:1011E00001F0A6FC3246074605F11801204601F041
:1011F0009FFCAB689F4202D1EB6898420AD0094B32
:101200000D221A8100903B46EA68A9680E4801F059
:10121000DBFAA5E70D4801F0D7FA0124A1E700BFEA
:1012200080560020A4240020B4500008DCFF0600F3
:1012300000000108BC500008C8500008DA5000083F
:101240000800FFF7F8500008155100083E5100084B
:101250002DE9F04FADB006AF80460C4601F0C8FE58
:10126000064600285BD1237E022B19D1E38A012B8D
:1012700016D101F059FC0546FFF78AFD4FF4C873FB
:10128000B54AB0FBF3F105F5167501FB1300E37EDB
:1012900015FA80F01060914633B9B04B00221A70F5
:1012A0009C37BD46BDE8F08FA38AF5B2013BAB4247
:1012B00006F101060CD93B1D691CC9001D440095AF
:1012C0000023082201F0F801204601F081FFEBE73E
:1012D00007F11400FFF774FD2A4607F11401381DC9
:1012E00003F0AAFD03460028D7D10F2D08D89B4B49
:1012F0001D70D9F80030A3F51673C9F80030CFE798
:1013000007F19802014602F8950D20460092072247
:1013100001F05EFFF978404601F062FEC0E7E38A23
:10132000052B00F0068106D8012BB9D12146404695
:10133000FFF73CFEB4E7282B3DD0302BB0D1637EC5
:10134000874D01336A7BDBB29342E94640F0EF8080
:10135000E27E2B7B9A4240F0EA8007F19803002658
:1013600023F8846D1022009331460123204601F0BA
:101370002FFFB4F81480A8F102081FFA88F808F1CA
:10138000030323F003030A3323F00703ADEB030D3C
:101390000DF1180A33469BB2B11C98454FEAC101C2
:1013A00006F101066CDD5344009308220023204619
:1013B00001F00EFFEEE7A38A013B9BB2C92B3FF67B
:1013C0006FAF674E357B4DBB06F10C0300930822CF
:1013D0002B462946204601F0FBFEA38A05F10109B0
:1013E000013BEDB29D424FEAC90109DA0E353544A1
:1013F000009500230822204601F0EAFE4D46ECE766
:1014000000230022C6E900230023B36086F8D7300A
:10141000C6F8D830337B0BB9E37E3373002507F170
:1014200014063B1D0822294630467D60BD60FD60E4
:1014300001F0FCFF3B7A05F10109AB424FEAC9011B
:1014400007D9FB6808222B44304601F0EFFF4D46D8
:10145000F0E7C1F3CF010023E07E059104960393EA
:10146000A37E02931934282301460093019438A3E4
:10147000D3E90023404601F013FEFFF7B1FC0FE76C
:1014800095F8D70000F0CCFAD5F8D83006461BB94D
:1014900095F8D70000F0D4FAD5F8D83043449E42EE
:1014A00004D295F8D700013000F0CAFA4FEA980B41
:1014B0000024A0B2584504F1010408DA2B6880002A
:1014C0000AEB00010122184400F08AFBF1E7D5E99C
:1014D0000023D5F8D84095F8D70012EB080243F165
:1014E00000034444C5E90023C5F8D84000F098FA49
:1014F000844209D395F8D730013385F8D730D5F831
:10150000D8309E1BC5F8D860B8F1FF0F08DC002367
:101510002B7300F0BBFAFFF71BFE08B1FFF74CF985
:101520002B68104A9B0A013313810023AB60CD4620
:10153000B6E6BFF34F8F0C490C4BCA6802F4E06269
:101540001343CB60BFF34F8F00BFFDE7AFF30080C5
:1015500026417272DF25D7B7B8340020B534002099
:1015600080560020A424002000ED00E00400FA05CD
:1015700008B54FF000530B4A196891420AD10A4A44
:10158000597D117009481B7D0373C92208490E302B
:1015900000F00CFBE02200214FF00050BDE80840B5
:1015A00000F016BB9AAD44C5B02400208056002040
:1015B0001600002037B51D4D1D4C1E490223012287
:1015C0002846637100F0B6FF41F2D0030122EB58C8
:1015D00018491B681848984700230193174B00933C
:1015E0001749184B18484FF4805201F0D1FC174BA3
:1015F0001978254611B1144801F0F2FC01F094FA73
:101600000446FFF7C5FB4FF4C87304F51674B0FB2E
:10161000F3F202FB13000E4B14FA80F0186003F093
:1016200007F908B10F232B8103B030BDE03400204F
:10163000A424002040420F00B0450020B90E00084D
:10164000B424002051120008BC340020B024002033
:10165000B83400202DE9F04F93B0DFF87492994D23
:10166000484601F067FD0246002840D000240E9451
:101670008DF844400F941094037B8DF8443001465C
:101680000FAB51F8040F496803C3136812AF43F05E
:10169000004347F8103D2646A0462B59D3F80CA02E
:1016A00001F044FA884ACDF80080121805EB040BCB
:1016B0004FF000034B4158463946D04704F5865455
:1016C000103442F2A0130028C8BF46F001069C4225
:1016D000E3D17E4C2EB1484601F030FD84F8008005
:1016E000BEE72378072B00F3DF80013323700BAFB5
:1016F0000023DFF8FC910A938DF834300B937B6064
:101700000024264612AA01234FF0000800200021E1
:101710008DF81C3002F82B8D2B59CDE9000105EB1B
:10172000040BD3F804A007A943465846D0479DF8B8
:101730001CA0BAF1000F24D0D9F8143083F4004370
:10174000C9F81430102241460EA800F041FA2B5976
:1017500008AA1E690AA90DF11E035846B04797E86A
:1017600003000FAB83E803009DF834308DF844305C
:101770000A9B0E930EA9DDE90823554801F09EFE51
:10178000564604F58654103442F2A0139C42B9D157
:10179000002EB5D14E4801F02BFC00283FD14D4C16
:1017A00001F0C2F92368984239D301F0BDF905462A
:1017B000FFF7EEFA4FF4C87305F51675B0FBF3F2B8
:1017C00002FB130015FA80F0434D8DF828602E7847
:1017D000206016B901238DF82830C6F11004E4B258
:1017E0000EA8FFF7EDFA062C28BF06240EAB224602
:1017F00099190DF1290000F0D9F90AAB03931823C8
:101800000293364B0193013401230093049429A3DE
:10181000D3E900232E4801F0EDFB00232B7001F0EB
:1018200083F92F4A2F4C1368C31AB3F57A7F30D34C
:10183000106001F07BF902460B46254801F088FC58
:10184000234801F0D5FB20B3237B274E002B14BF88
:1018500003230223737101F067F90EAD4FF47A731D
:101860002946B0FBF3F030603046FFF769FB1823E0
:10187000073002931D4B0193C0F3CF0040F2551384
:101880000490009303950DA3D3E90023104801F0C1
:10189000B1FB237B0BB1FFF7A3FA237B002B7FF473
:1018A000DCAE13B0BDE8F08F094801F047FC1EE73D
:1018B000AFF30080401DA12026812A0BF1C6A7C1ED
:1018C000D068080FE034002040420F006557002028
:1018D000BC340020B8340020B5340020B4340020DB
:1018E0006057002080560020A42400206457002068
:1018F0000004024010B5084C204600F041FB04F5FE
:101900008650103000F03CFB044A05490020BDE839
:10191000104003F05BBA00BFE0340020B85700204D
:101920006D0E000870B50F4B0C4619780131C9B225
:10193000012906460FD80C4803681D6A4FF47A73D4
:10194000534331462246A847844204D1074B002224
:101950001A70012070BD4FF4FA7002F05FFC002095
:1019600070BD00BF142300203C580020A857002061
:1019700007B502AB002203F8012D012102461846EB
:10198000FFF7D0FF20B19DF8070003B05DF804FB1E
:101990004FF0FF30F9E700000A4608B50421FFF7D1
:1019A000C1FF80F00100C0B2404208BD30B4054C18
:1019B0002368DD69044B0A46AC460146204630BC2C
:1019C000604700BF3C580020A086010070B502F0BF
:1019D000A3FD094C094E20800025306823888342EE
:1019E00008D902F093FD336805440133B5F5803F13
:1019F0003360F2D370BD00BFAA57002068570020A3
:101A000002F03ABE00F1006000F5803000687047D7
:101A100000F10060920000F5803002F0C3BD0000CC
:101A2000054B1A68054B1B889B1A834202D9104448
:101A300002F06CBD0020704768570020AA570020B4
:101A400038B5074D04462868204402F067FD28B9E0
:101A500028682044BDE8384002F078BD38BD00BF9A
:101A60006857002010F0030308D1B0F5047F05D2B9
:101A700000F10050A0F50840006870470020704752
:101A8000014BC058704700BF107AFF1F064991F8FC
:101A9000243033B100230822086A81F82430FFF78C
:101AA000B7BF0120704700BF6C570020014B18687A
:101AB000704700BF002004E070B52A4B1C68C4F3D7
:101AC0000B03240C63B140F21342934231D040F235
:101AD000194293422FD040F2214293422DD1032349
:101AE000214A0C2505FB03235D6893F9082042F287
:101AF00001039C4224D0B4F5805F23D041F201035E
:101B00009C4221D041F203039C421FD041F20703C3
:101B10009C4208BF3122441E0C44013D0B46A342A7
:101B20001ED215F9016F581C96B1034600F8016CDE
:101B3000F5E70123D4E70223D2E73F220B4DD6E796
:101B40003322E3E74122E1E75A22E4E75922E2E7C0
:101B50002C2584421D7001D9981C5A70401A70BD02
:101B60001846FBE7002004E0785100086C5100089B
:101B7000022802BF024B4FF000429A61704700BF3B
:101B800000040240022802BF024B4FF400429A6157
:101B9000704700BF00040240022801BF024A536997
:101BA00083F40043536170470004024010B50023E2
:101BB000934203D0CC5CC4540133F9E710BD00005C
:101BC00002460346981A13F9011B0029FAD17047FF
:101BD00002440346934202D003F8011BFAE7704720
:101BE0002DE9F047234C94F82430054688461746E3
:101BF00083BB2E46DFF87C90C7B394F824302BB912
:101C00002022FF2148462662FFF7E2FF94F82400D5
:101C1000C0F10805BD4228BF3D465FFA85FAAD0018
:101C200041462A4604EB8000FFF7C0FF94F82430B9
:101C3000A7EB0A079A445FFA8AFABAF1080F2E4412
:101C4000A844FFB284F824A0D6D1FFF71FFF0028D4
:101C5000D2D108E0266A06EB8306B042CAD0FFF76D
:101C600015FF0028C5D10020BDE8F0870120BDE8A0
:101C7000F08700BF6C570020024B1A78024B1A7095
:101C8000704700BFA85700201423002003490448D0
:101C90004FF461430B6002F059B900BF9457002024
:101CA0003C580020074B10B500210446142218466A
:101CB000FFF78EFF04600146BDE81040024802F0C5
:101CC00045B900BF945700203C580020202383F3DF
:101CD000118862B670470000002383F3118862B652
:101CE00070470000012070470020704700207047B7
:101CF0007047000070470000002070470E207047BA
:101D000000F586500078C0F340007047F8B51F46D4
:101D10000B68BDF8185013F00054164669D10B7BC0
:101D2000082B66DCFFF7D2FFC26893685B015CD4C6
:101D300093681C0157D4936813F0805357D0022343
:101D40000C6803F1180E002CB8BFE4004FEA0E1E19
:101D5000B4BF44F00404640542F80E400C680FFA66
:101D600083FE14F0804F18BF02EB0E1C02EB0E1E18
:101D70001EBFDCF8804144F00204CCF880410C7BAB
:101D8000CEF8844102EB03128C68C2F88C414C6897
:101D9000C2F88841DEF8802142F00102CEF88021AD
:101DA00003F1830200EB4212C2E9006701F10C0467
:101DB000083251F8046B42F8046BA142F9D100EBF0
:101DC00043130978117003F5835301201A7F65F3DB
:101DD0000002C5F3400565F341026FF3C3021A77B1
:101DE000FFF77AFFF8BD0123AAE72346A8E71846C4
:101DF000F6E74FF0FF30F8BD08B5FFF767FF41F297
:101E00005403C05800F012FDBDE80840FFF764BF5E
:101E100038B5044600680D4600F032FD1F2809D988
:101E200020222946206800F0A3FDA0F1200358429B
:101E3000584138BD002038BD002202600273426064
:101E40008260704710B500220023C0E90023002300
:101E5000044603810C30FFF7EFFF204610BD000061
:101E60002DE9F041064688B041F254050C469046F3
:101E70001F46FFF72BFF6846FFF7E4FF705900F09D
:101E8000E7FC1F2805D80020FFF726FF08B0BDE8B3
:101E9000F08120226946705900F0F2FD2028F2D12D
:101EA00003AA234605AD144603CCAC421860596022
:101EB000224603F10803F6D12068186022791A71CE
:101EC000DDE90023C8E90023BDF808303B8001208C
:101ED000DAE70000274B2DE9F047044640F8103BB5
:101EE0008946FFF7A9FF04F12000FFF7ABFF04F1DB
:101EF0004006354604F5825728462035FFF7A2FFF5
:101F0000BD42F9D14FF4805341F248026B60002387
:101F10002E60A35041F24C0241F25401A3506018CC
:101F200001222A7404F5865A655004F5835502711E
:101F300008350AF1080A00260027984645E9026795
:101F40002846FFF779FF203545F8108C5545F5D127
:101F500041F2C803B9F1010F04F8039002DD06480D
:101F600000F0DCFD054B53F82930E3602046BDE866
:101F7000F08700BF00520008E4510008D05100086B
:101F800010B5044B197804464A1C1A70FFF7A2FFDB
:101F9000204610BDB4570020F0B579B1264B274834
:101FA000B0FBF1F0994294BF102309235C1CB0FBF5
:101FB000F4F704FB170434B1022B01DC0020F0BD60
:101FC000013BDBB2F2E77E1EB6F5806FF6D2C3EBC3
:101FD000C30E0EF10300C010C5B25C1B0130E4B2A9
:101FE0004FF47A7C0CFB00FC20449CFBF0F080B2A8
:101FF000B0F5617F08D90EF1FF354FF0080E95FB63
:10200000FEF5EDB25B1BDCB22B1903FB07770B4B24
:10201000B3FBF7F7B942D1D1691EC9B20F29CDD8A8
:10202000631EDBB2072BC9D8002090701680D170D8
:1020300013710120F0BD00BF3F420F0000366E015A
:1020400070B505460E464FF47A74EB685B6803F092
:102050000103B34207D04FF47A7002F0DFF8013C7D
:10206000F3D1204670BD012070BD0000F0B50329FA
:1020700089B005460C4647DC00F5865066010378BA
:10208000C3F38001002908BF114661F38203037086
:10209000AB1903F5835318331B79D80732D5002ABF
:1020A00032D0190723D46846FFF7CCFE05EB441362
:1020B00003F5835303F1100703AA0833186859681E
:1020C000144603C40833BB422246F7D11868206087
:1020D0001B792371DDE90E2305F58250CDE900233C
:1020E000694601231430ADF80830FFF791FE3544FE
:1020F00005F5835518352B791A075CBF43F00803A3
:102100002B7101E0002AF2D109B0F0BD70B5C268B0
:10211000936913F0700F17D000230C4D936141F2B7
:10212000780400EB4312224411794E0709D5890740
:1021300007D5C16855F823608E60117941F004011C
:1021400011710133032BECD170BD00BFD8510008D1
:10215000D3B51F46C36816469A68D207044609D508
:102160009A6801219960C2F34002CDE9006700211D
:10217000FFF77CFFE3689A68D1050BD59A684FF4A6
:1021800080719960C2F34022CDE9006701212046A9
:10219000FFF76CFFE3689A68D2030BD59A684FF497
:1021A00080319960C2F34042CDE9006702212046A8
:1021B000FFF75CFF204602B0BDE8D040FFF7A6BFA6
:1021C0000C4B10B51C56E3B2012B12D800F0AEFC3C
:1021D00002460B4652EA030103D012F1FF3243F1EB
:1021E000FF33054951F8240018B1BDE81040FFF74E
:1021F000AFBF10BDCC510008AC570020F8B51F464A
:1022000004461646C368002966D1D86803F10C025B
:10221000800765D0106803EB011003EB0111D0F8C3
:10222000B05115F0040FD0F8B05116BFED086D0D88
:1022300045F000452561D0F8B051AD0742BF256992
:1022400045F080452561D0F8B40100F00F002077FB
:10225000D1F8B8312375D1F8B8311B0A6375D1F8BC
:10226000B8311B0CA375D1F8B8311B0EE375D1F84A
:10227000BC312376D1F8BC311B0A6376D1F8BC316E
:102280001B0CA376D1F8BC311B0EE3763823136008
:1022900004F11C0104F1100304F12C0253F8040BA7
:1022A00042F8040B8B42F9D11B78137004F582506D
:1022B00000232385C4E9086704F120011430FFF7E7
:1022C000A7FD04F586522046137843F004031370EB
:1022D000BDE8F840FFF71ABF03F11002186997E74D
:1022E000F8BD00000D4B70B51C56E3B2012B0D4636
:1022F00013D800F01BFC02460B4652EA030103D040
:1023000012F1FF3243F1FF33054951F8240020B1A7
:102310002946BDE87040FFF771BF70BDCC51000881
:10232000AC5700202DE9F84F99469046FFF7CEFCB8
:10233000124C00F58356002341F2780700EB43115D
:1023400039440A7955070FD4D2060DD5D6E900AB2A
:10235000CB4508BFC24507D2C26854F823509560E8
:102360000A7942F004020A710133032B06F12006B8
:10237000E4D1BDE8F84FFFF7AFBC00BFD85100086B
:1023800008B5FFF7A3FCFFF7C1FEBDE80840FFF763
:10239000A3BC00002DE9F041C3680646986800F030
:1023A000E050B0F1E05F0F4619D010B3FFF78EFC9C
:1023B00006F583540834002541F2780806EB4513EE
:1023C00043441B791A070DD45B070BD421463846CA
:1023D00000F0FEF930B9FFF77FFCBDE8F081012085
:1023E000BDE8F0810135032D04F12004E6D1012080
:1023F000F1E7BDE8F081000008B5FFF767FC41F2A6
:102400005403C05800F024FAFFF766FC1F288CBF65
:102410000020012008BD0000F8B51D460023137000
:102420000F4606461446FFF7E7FF80F001003870BC
:1024300025B129463046FFF7ADFF2070F8BD0000FA
:10244000F8B50D461F460446164600F06FFB2B7884
:102450000BB9337873B102460B462046FFF762FF93
:102460002046FFF78DFF3B46324629462046FFF7C0
:10247000D3FF01231846F8BD10B5FFF727FC41F242
:10248000C8032A4AC35CD35CDBB1012B27D0FFF71A
:1024900023FC00F586542378DB0745D4002943D07C
:1024A000FFF714FC41F2C803C35CD35C23B3012BD8
:1024B0002FD0237843F001032370BDE81040FFF7CD
:1024C0000BBC1B4B1C6C44F000741C641C6A44F075
:1024D00000741C621C6A24F000741C62D7E7144B61
:1024E0001C6C44F080641C641C6A44F080641C62B0
:1024F0001C6A24F08064F0E70221132001F05CFBE9
:102500000221142001F058FB0221152001F054FB98
:10251000CFE702213F2001F04FFB0221402001F0D4
:102520004BFB02214120F1E710BD00BFC85100085C
:10253000003802402DE9F04341F2C80389B0C35C82
:10254000022B04468846174600F30281814D55F858
:1025500023200AB945F823002E68C4F804802772A6
:102560004EB941F2D00002F01FFC31468146FFF720
:10257000B1FCC5F8009041F2C803E35C012B60D0C8
:1025800001212046FFF778FFFFF7A0FBE268136800
:1025900023F002031360E268136843F00103136041
:1025A000E36800255D61FFF797FB01212046FFF7F7
:1025B00047FD002800F0868041F254032E46E05883
:1025C00000F034F9202200216846FFF701FB02A841
:1025D000FFF732FC0DF1200C05F583534CF8086D24
:1025E0006A4623449646BEE80300E64518605960F3
:1025F000724603F10803F5D1DEF8000018602035BB
:102600009EF804201A71602DDCD104F58656002551
:102610003378ADF800506FF3820333706A46414659
:1026200020468DF802508DF803508DF80450FFF7C6
:10263000B3FCE368C0B94FF400421A6009B0BDE8CA
:10264000F083286803681B6B98470146002897D1E0
:102650002868FFF711FF286803683A461B6841465F
:10266000984700288CD1E9E761221A609DF8023072
:102670009DF80310E2681B06090401F4702103F0C1
:1026800040730B43BDF80010C1F309010B439DF8E3
:102690000410090501F4E001022F43EA01030CBF15
:1026A0004FF0004100210B43D361E36813225A61CC
:1026B000E268136823F00103136029462046FFF700
:1026C000BFFC08B9E368B6E741F2C803E15C002942
:1026D00039D1E268D2F8003243F00103C2F8003287
:1026E000E268D2F8003223F47C5323F00E03C2F8E0
:1026F0000032E268D2F8003243F46063C2F800327C
:10270000E368C3F81412E368C3F80412E3686FF0D7
:102710007842C3F80C22E368C3F84012E368C3F8B8
:102720004412E368C3F8B012E368C3F8B412E36874
:1027300044F20102C3F81C22E268D2F8003223F00E
:102740000103C2F80032337843F00203337075E7B7
:10275000002073E7AC57002008B50020FFF730FDDC
:10276000BDE8084001F0E6B808B500210846FFF7CB
:10277000B9FDBDE8084001F0DDB8000008B5012151
:102780000020FFF7AFFDBDE8084001F0D3B800001E
:1027900008B50120FFF714FDBDE8084001F0CAB8F4
:1027A00008B500210120FFF79DFDBDE8084001F0BC
:1027B000C1B8000008B501210846FFF793FDBDE848
:1027C000084001F0B7B800000FB4002004B0704713
:1027D00010B509680468C80FB0EBD47F24F06042DC
:1027E00021F060430BD0002CB8BF920C0029B8BF79
:1027F0009B0C9A420FD034BF0120002010BD9A429A
:1028000005D1C1F38070C4F38074844203D19A422D
:102810002CBF0020012010BD10B5037C044613B965
:10282000006802F001FB204610BD00000023BFF34A
:102830005B8FC360BFF35B8FBFF35B8F8360BFF3BE
:102840005B8F7047BFF35B8F0068BFF35B8F704790
:1028500070B506460C30FFF7F5FF06F10805044693
:102860002846FFF7EFFF844206D228467668FFF736
:10287000E9FF3444201A70BD2846FFF7E3FFF9E76B
:1028800070B50546406898B105F10800FFF7DAFF1A
:1028900005F10C0604463046FFF7D4FF844230466B
:1028A00094BF6D680025FFF7CDFF013C2C44201A32
:1028B00070BD000038B50C460546FFF7C9FFA042C1
:1028C00010D305F10800FFF7BDFF6B68BFF35B8F06
:1028D0002044B0FBF3F403FB1400A860BFF35B8F4C
:1028E000012038BD002038BD2DE9F0411446804656
:1028F0000D46FFF7C5FF844228BF0446DCB14746BA
:1029000057F80C6B3846FFF79DFF30442860384677
:10291000D8F80460FFF796FF301AA0423BBF68600A
:10292000D8F800306C60241A3BBFAB60EC6001202B
:102930000220BDE8F0812046BDE8F08138B50C46A4
:102940000546FFF79DFFA04210D305F10C00FFF7ED
:1029500079FF6B68BFF35B8F2044B0FBF3F403FB9C
:102960001400E860BFF35B8F012038BD002038BD44
:102970002DE9F04385B0884669460746FFF7B4FF66
:102980000026814601AD34464E4505F108050CDAB6
:1029900008EB040155F8082C55F80C0CFFF706F964
:1029A00055F8083C01361C44EEE721463846FFF74F
:1029B000C5FF204605B0BDE8F0830000F8B5064627
:1029C0000C300F46FFF73EFF06F108050446284687
:1029D000FFF738FF8442284638BF7468FFF732FF9C
:1029E000201A386020B128463468FFF72BFF2044B6
:1029F000F8BD000073B5144606460D46FFF728FFE4
:102A0000844228BF04460190DCB101A93046FFF79B
:102A1000D5FF019B33B93268AB6085E81400EB60E9
:102A200001200CE0A34288BF0194286001986860EF
:102A3000A042F5D23368AB60241AEC60022002B0E9
:102A400070BD2046FBE700002DE9FF410F466946B7
:102A5000FFF7D0FF00248046254644450BDA0DEBF6
:102A6000C4035DF834105E6878193246FFF79EF8AB
:102A700035440134F1E7284604B0BDE8F081000098
:102A800038B50546FFF7E0FF044601462846FFF744
:102A900011FF204638BD0000FEE7000000B59BB0E6
:102AA000EFF3098168226846FFF780F8EFF30583AA
:102AB000044B9A6BDA6A9A6A9A6A9A6A9A6A9A6A6A
:102AC0009B6AFEE700ED00E000B59BB0EFF30981E3
:102AD00068226846FFF76AF8EFF30583044B9A6BA8
:102AE0009A6A9A6A9A6A9A6A9A6A9B6AFEE700BF29
:102AF00000ED00E000B59BB0EFF309816822684665
:102B0000FFF754F8EFF30583034B5A6B9A6A9A6AFE
:102B10009A6A9A6A9B6AFEE700ED00E00FB408B576
:102B2000029801F013FBFEE701F0EABD01F0D4BD0D
:102B300030B5084D0A4491420BD011F8013B0924ED
:102B40005840013CF7D040F300032B4083EA50008B
:102B5000F7E730BD2083B8ED2DE9F047089E01F07E
:102B600007054FEAD60C2A4406F0070600EBD10011
:102B70004FF47F49954201D1BDE8F08705F0070E7B
:102B800006F0070AD64577464FEAD50438BF5746C0
:102B9000C7F10807511B0CEBD6088F42045D28BF14
:102BA0000F4604FA0EF413F8081029FA07FE24FA67
:102BB0000AF45FFA8EFE4C404EFA0AFE04EA0E0456
:102BC000614003F808103D443E44D3E702460068E4
:102BD00048B103681360D388118901339BB29942CD
:102BE000D38038BF1381704770B588B00D46044656
:102BF000202200216846FEF7EBFF20460495FFF7F0
:102C0000E5FF054658B16B46044608AE1A4603CAAE
:102C1000B24220606160134604F10804F6D12846F0
:102C200008B070BD2DE9F041056885B90160BDE8C7
:102C3000F081002B29DA930CB34229D1A54201D1AE
:102C40000D60F3E7C8F800100C60BDE8F0814B6838
:102C500023F06047BE0C4FEAD37EC3F3807C16EAB4
:102C6000230638BF3E46A8462C466368BEEBD37F9A
:102C700023F06042DDD1974203D1C3F380739C45BA
:102C80000AD1974205E01C46EFE7B24206D0134650
:102C90009E422CBF00230123002BCFD12368A046E6
:102CA000002BF0D12160BDE8F08100002DE9F0415A
:102CB00006460F4600254FF6FF7441F221082A46CA
:102CC00030463946FDF790FAC0B284EA0024082362
:102CD00014F4004F4FEA4404A4B203F1FF3318BFC9
:102CE00084EA080413F0FF03F2D10835402DE6D141
:102CF0002046BDE8F081000010B54B6833B9CA8AA0
:102D000063F30902CA820020002110BDC4681A685A
:102D10001C60C360438A013B43824A60EDE70000C8
:102D200010B50A4441F22104914200D110BD11F8BE
:102D3000013B80EA0320082310F4004F4FEA4000D3
:102D400080B203F1FF3318BF604013F0FF03F3D1EB
:102D5000EAE700002DE9F04F85B081468DE80A00D2
:102D6000BDF83C409346002A00F0838024B10E9BBE
:102D7000002B7ED0072C2AD809F10C00FFF726FF84
:102D8000054628B96FF00205284605B0BDE8F08F6A
:102D900014220021FEF71CFF22460E9905F10800BF
:102DA000FEF704FF631C2B749BF800302C4403F0E7
:102DB0001F0363F03F032372009B43F000436B60EB
:102DC000294609F11C00FFF72DFF0125DCE7019BD7
:102DD0001B0A4FF00008029300F10C034FF0800A29
:102DE0004646454603930398FFF7F0FE0746002842
:102DF000C8D014220021FEF7EBFEC6BB9DF80430BC
:102E00003B729DF808307B7202220E9B711E1944A2
:102E1000B4420AD9B8180132D2B211F801EF80F8E1
:102E200008E00136072AB6B2F2D19BF8001001F093
:102E30001F01B44208BF4FF0400AB81841EA4811D8
:102E40004AEA01030372009B013243F000437B60B6
:102E50003A74394609F11C00FFF7E4FE0135B4422B
:102E60002DB288F001084FF0000ABCD18CE7002297
:102E7000CBE76FF0010587E72DE9F0471E46CB8AC7
:102E80009146C3F30902062A80460F4619D013461D
:102E90000021B0B28DB25A1992B2052A09D9A842BE
:102EA00010D8FA8A034463F30902FA820120BDE8CC
:102EB000F087A842F3D93A4419F8014094760131D9
:102EC000E8E70025FB8A7C68C3F30900821F1C2306
:102ED000B2FBF3FA03FB1A2A1FFA8AF27CB3012130
:102EE0002368002B39D1B31F03441C20B3FBF0F33C
:102EF00001339BB299420CD2BAF1000F09D140467E
:102F0000FFF764FE08B1C0F800A0206008B30446D3
:102F10000022B6B24FF0000AB54230D2691E4944D1
:102F20001346E01801339BB211F801EF80F804E07A
:102F300001351C2BADB214D0AE42F2D8ECE74046BE
:102F4000FFF744FE044608B1002303607C60002CB8
:102F5000DED16FF00200BDE8F087013189B21C4676
:102F6000BEE7AE42D8D94046FFF730FE08B1C0F800
:102F700000A020600028ECD004460022CCE7FB8AA9
:102F8000C3F30902164466F30903FB828EE70000CF
:102F9000F8B5044615460E46242200211F46FEF7CA
:102FA00017FE069B6360079B23626A094FF6FF7357
:102FB0009A424FF0000028BF1A46A760207097B2CF
:102FC00004F10C0503469A4205D100232B602782A9
:102FD0006382A382F8BD2E60013335462036F2E7C6
:102FE00003781BB94BB2002BC8BF017070470000BB
:102FF000007870472DE9F7430D9EBDF828900B9D92
:103000009DF83040BDF8388007461946104616B97D
:10301000B8F1000F40D11F2C3ED83B78D3B9B8F19E
:10302000070F36D839F0030336D1424631464FF602
:10303000FF70FFF775FE4FEA092920F0010009F43F
:103040004079400449EA0464400C44EA40244FF6C5
:10305000FF730DE043EA0923B8F1070F43EA046464
:10306000F5D9FFF723FE42463146FFF759FE0346E6
:103070008DE840012A4621463846FFF76BFE2B7843
:103080000133DBB21F2B88BF00232B7003B0BDE8D8
:10309000F0836FF00300F9E76FF00100F6E700003E
:1030A0002DE9F7430E9F0B9D9DF83480BDF83C60E1
:1030B00081469DF8300007B9AEBB1F2833D899F878
:1030C00000E0BEF1000F31D00C0244F080049DF806
:1030D000281044EAC83444EA014444EA0E04072EA6
:1030E00044EA00641CD919461046FFF7DFFD32465A
:1030F0003946FFF715FE0346019600972A462146FA
:103100004846FFF727FEB8F1010F06D12B780133AF
:10311000DBB21F2B88BF00232B7003B0BDE8F08308
:103120004FF6FF73E8E76FF00100F6E76FF003007A
:10313000F3E70000C06900B104307047C3691A6842
:10314000C261C2681A60C360438A013B4382704710
:103150002DE9F047D0F818A0DFF870800546164634
:103160001F4654464FF000090CB9BDE8F087D4E97A
:103170000223B21A67EB0303994508BF904523D297
:10318000AB699C42214628460FD1FFF7B5FDAB69DC
:103190001B68AB61EB6823606B8AEC60AC69013B38
:1031A0006B822346A2461C46DEE7FFF7A5FD236897
:1031B000CAF80030EB6823606B8AEC60013B6B82DD
:1031C000DAF800305446EDE72368EBE780841E0010
:1031D0002DE9F04F8BB00E4614460793DDF8508072
:1031E0008346002800F01081B8F1000F00F00C8138
:1031F000531E3F2B00F20881012A03D1079B002BAD
:1032000040F00281BBF81450ED000023AE42089359
:10321000099304D3002630460BB0BDE8F08F331974
:103220009D42DBF80C303ABFAD1BEDB2254623B909
:10323000DBF81030002B00F093802F2E65D8C6F1FC
:103240003007BD424FF000032CBFFFB22F46009362
:10325000314608AB3A46DBF80800FFF77DFCA5EBEA
:1032600007093E445FFA89F9BBF8143003F10053B3
:10327000063BDB000493DBF80C3003933021039B07
:1032800013B1B9F1000F43D1DBF8100040B1B9F12F
:10329000000F05D0009708AB4A46711AFFF75CFC97
:1032A0002EB2002DB6D060070AD00AAB03EBD401D2
:1032B000624211F8083C02F00702134101F8083C91
:1032C000082C54D9102C54D9202C8CBF082304234B
:1032D000079A002A00F09E80B4EBC30F00F09D8097
:1032E000082C48D89DF82030621E23FA02F2D1073C
:1032F00006D54FF0FF3202FA04F423438DF8203054
:103300009DF8203088F8003085E7A9460027ABE714
:10331000049BE02B28BFE02306930B44B3420593A4
:1033200015D9A3EB060AD145039800972CBF5FFA85
:103330008AFACA46711A08AB52460430FFF70CFCF1
:103340005744A9EB0A095644FFB25FFA89F9049B76
:10335000069A05999B1A0493039B1B6803938EE7B7
:1033600000932A4608AB3146DBF8080096E70123B4
:10337000AEE70223ACE7102C12D8BDF82030621E55
:1033800023FA02F2D20706D54FF0FF3202FA04F414
:103390002343ADF82030BDF82030A8F800303AE7DC
:1033A000202C0FD8089A631E22FA03F3DB0705D5F9
:1033B0004FF0FF3303FA04F414430894089BC8F851
:1033C000003028E7402C22D0DDE908AB621E5046D1
:1033D0005946FCF709FF002100F0010050EA010303
:1033E0000DD0224601200021FCF70AFF404261EB8C
:1033F000410140EA0A0041EA0B01CDE90801DDE99B
:103400000823C8E9002306E76FF0010603E76FF021
:10341000080600E7012C3FF473AF082C7FF670AF6D
:10342000102CB8D9202CEAD8C8E7000030B5402AC3
:1034300085B01FD8002A08BF01220024012A029467
:10344000039419D11B788DF8083053070AD004ABC8
:1034500003EBD205544215F8083C04F00704A340DE
:1034600005F8083C00910346002102A8FFF774FB11
:1034700005B030BD4022E0E7082AE3D9102A03D87E
:103480001B88ADF80830E0E7202A02D81B680293B9
:10349000DBE7D3E90045CDE90245D6E710B5CB68B7
:1034A0001BB98B600B618B8210BDC4681A681C60ED
:1034B000C360438A013B4382CA60F0E72DE9F04FC5
:1034C000D1F800908FB0C9F3C01604460D46CDE97F
:1034D0000223002E50D0C9F3C03AC9F30626B9F131
:1034E000000F80F2CB8119F0C04F40F0C7812B7BD9
:1034F000002B00F0C381BAF1020F03D02278B24250
:1035000040F0BF8109F07F02BAF1020F059236D177
:1035100019F07F0FC9F30F2B01D10BF0030B2B44D4
:103520007606059A93F8038046EA0A4646EA8246FA
:103530005FEAD81346EA0B06049300F0A18000224C
:1035400000230EA961E90823059B00936768534691
:103550005A462046B847002800F08F80A7698FB9E7
:10356000314604F10C00FFF73FFB0746D0B96FF07E
:1035700002000FB0BDE8F08F4FF0020AAFE7C9F3C9
:10358000074BCCE73B699E420DD03F68002FF9D135
:10359000314604F10C00FFF727FB07460028E6D070
:1035A000A3693B60A761DDE90601FFF77FFBB882F5
:1035B000F97D08F01F06C1F38401711A89B20FFA70
:1035C00081FED7E90223BEF1000FBCBF01F1200E3E
:1035D0000FFA8EFE52EA0301C9F3046900F05D811F
:1035E000DDE90201801A61EB030102460B46B64891
:1035F0000021994208BF9042C0F04F81049B002BEC
:1036000048D0BEF1010F00F3488118F0400F41D0BF
:10361000DDE902230021C7E9022306A82022FEF7E4
:10362000D7FADDE90223CDE906232B1D08932B7B76
:10363000ADF82EB0013BDBB2ADF82C309DF8143064
:103640008DF833308DF830A0A3688DF831608DF897
:10365000329006A920469847FB7DC3F384020132CD
:1036600062F38603FB75FB8A6FF30903FB821B0A77
:103670006FF3C713FB7500207BE76FF00B0078E753
:10368000A76917B96FF00C0073E73B699E428FD0B2
:103690003F68F6E7FB7DC8F34012B2EBD31F40F062
:1036A000F380C3F38403B34240F0F18004992B7B91
:1036B0004FEA981200293BD012F001085CD1032B8D
:1036C00040F2E880DDE90223C7E902232B7BAE1D2F
:1036D000033BDBB23246394604F10C00FFF7CCFB6A
:1036E000002814DA39462046FFF706FBFB7DC3F3BA
:1036F0008402013262F38603FB75FB8A68F30903D7
:10370000FB821B0A68F3C713FB75032031E7AB8804
:103710003B832A7B033AD2B2B88A3146FFF700FBDB
:10372000FB7DB882DA43C2F3C01262F3C713A1E78C
:1037300012BB2E1D013BDBB23246394604F10C00B0
:10374000FFF79AFB002814DA39462046FFF7D4FA2F
:10375000FB7DC3F38402013262F38603FB75049A96
:10376000FB8A62F30903FB82049A1B0A62F3C71304
:10377000CAE72A7B013ACEE7F98AC1F30901013B86
:103780000529DAB25AD8281D00239A420AD907EB34
:10379000010E013110F801CB8EF81AC00133062951
:1037A000DBB2F2D1DDE902019342CDE9060107F176
:1037B0001A01089138BF04337968099134BF5B1945
:1037C00000230A93FB8AADF82EB0C3F309031A4411
:1037D0009DF814308DF833300023ADF82C208DF88F
:1037E00030A08DF831608DF832907B602A7BB88AEA
:1037F000013A291DFFF794FA3B8BB882834203D12B
:10380000A36806A920469847204606A9FFF746FE6A
:10381000FB7DB88AC3F38402013262F38603FB7531
:10382000FB8A6FF30903FB821B0A6FF3C713FB7557
:103830003B8B984214BF112000209AE6D7F804E091
:10384000BEF1000F18D00623DEF8000088B9C91AAF
:1038500005F1040800EB010CBCF11B0FC3B2A1D8A9
:1038600093429FD2F44418F8013B8CF804300130A5
:10387000F0E71C338646E7E7734693E76FF00900ED
:1038800077E66FF00A0074E66FF00D0071E66FF0F6
:103890000E006EE66FF00F006BE6FB7D68F38603AB
:1038A0006FF3C713FB7539462046FFF725FA049BD3
:1038B000002B7FF4AAAEFB7DC3F38402013262F3D6
:1038C0008603FB75DEE600BF80841E00EFF30983EC
:1038D00005494A6822F001024A60683383F3098887
:1038E000002383F31188704730EF00E0202080F33D
:1038F000118862B60B4B0C4AD96821F4E0610904C7
:10390000090C0A430949DA60CA6842F08072CA6049
:1039100007490A6842F001020A601022DA7783F848
:103920002200704700ED00E00003FA05F0ED00E032
:10393000001000E010B5202383F311880E4B5B6864
:1039400013F4006314D0F1EE103AEFF30984683CED
:103950004FF08073E361094BDB68236684F30988C9
:1039600000F0A8FB10B1064BA36110BD054BFBE7AF
:1039700083F3118810BD00BF00ED00E030EF00E0E0
:103980007B0600087E060008002304491A465A50A8
:10399000C8180833802B4260F9D17047BC5700200B
:1039A000024AD36843F0C003D3607047004400402C
:1039B000044B5A6810439A6858600AB1181D1047A2
:1039C000704700BF3C5800202DE9F0413D4ED6F82D
:1039D0005C52EF682B68DA059CB20CD5202383F388
:1039E00011884FF40070FFF7E3FF6FF480732B60D2
:1039F000002383F31188202383F31188DFF8C48028
:103A000014F02F0331D183F31188380613D5210622
:103A100011D5202383F311882B4800F0F5F90028F5
:103A200044DA0820FFF7C4FF4FF67F733B40EB609A
:103A3000002383F311887A060DD563060BD5202366
:103A400083F31188F26C336D9A4201D1336C7BBBE6
:103A5000002383F31188D6F86422D3680BB1106970
:103A60009847BDE8F041FFF765BF230712D014F077
:103A7000080F0CBF00208020E10748BF40F0200065
:103A8000A20748BF40F04000630748BF40F4807081
:103A9000FFF78EFFA4066B6805D596F860124046C6
:103AA000194000F061FA2C68A4B2A9E76860BFE78A
:103AB00027F040073F0410203F0CFFF779FFEF602D
:103AC000C6E700BF3C5800207458002010B5054CD4
:103AD000054A0021204600F017FA044BC4F85C3276
:103AE00010BD00BF3C580020A13900080044004030
:103AF00038B52C4C037C002918BF0C46012B054619
:103B0000C0F8644210D1284B98420DD1274B1A6C53
:103B100042F400321A641A6E42F400321A660B2123
:103B200026201B6E00F048F8214BD5F85C229A4203
:103B3000236802D01F498A422DD1590801F13771FB
:103B400001F5D841B1FBF3F3A188080442BF23F08B
:103B5000070003F0070343EA40039360E38843F060
:103B600040039BB21361238943F001039BB253616D
:103B700041F4045343F02C03D36001F4A05100231B
:103B80001360B1F5806F136853680CBF7F23FF2368
:103B900085F8603238BD590801F1B77101F5585107
:103BA000D0E700BF345200083C58002000380240E3
:103BB000001001400014014000F1604300F01F02BA
:103BC000400903F5614309018000C9B200F160407A
:103BD00083F8001300F5614001239340C0F8803161
:103BE00003607047F8B5154682680669AA420B461D
:103BF000816938BF8568761AB542044607D21846EF
:103C00002A46FDF7D3FFA3692B44A3610DE011D928
:103C100032461846FDF7CAFFAF1B3A46E16830440A
:103C2000FDF7C4FFE2683A44A261A3685B1BA3608E
:103C30002846F8BD18462A46FDF7B8FFE368E4E7D2
:103C400083682DE9F041044693421546266938BF42
:103C500085684069361AB5420F4606D22A46FDF7F6
:103C6000A5FF63692B4463610DE012D93246A5EBD1
:103C70000608FDF79BFF4246B919E068FDF796FF7D
:103C8000E26842446261A3685B1BA3602846BDE80A
:103C9000F0812A46FDF78AFFE368E4E710B50A449D
:103CA0000024C361029B006040608460C160816148
:103CB00041610261036210BD08B5826943699342A4
:103CC00001D1826882B98268013282605A1C4261E5
:103CD0001970426903699A4201D3C36843610021A4
:103CE00000F0B8FA002008BD4FF0FF3008BD00001A
:103CF00070B5202304460E4683F31188A568A5B14C
:103D0000A368A269013BA360531CA36115782269D3
:103D1000934224BFE368A361E3690BB1204698474F
:103D2000002383F31188284670BD3146204600F0F9
:103D300081FA0028E2DA85F3118870BD2DE9F74F8A
:103D400005460F4690469A46D0F81C90202686F3EA
:103D500011884FF0000B144664B1224639462846BC
:103D6000FFF740FF034668B95146284600F062FA63
:103D70000028F1D0002383F31188A8EB040003B0DE
:103D8000BDE8F08FB9F1000F03D001902846C84775
:103D9000019B8BF31188E41A1F4486F31188DBE73B
:103DA000C16081614161C3611144009B006040605A
:103DB0008260016103627047F8B504460E461746FB
:103DC000202383F31188A568A5B1A368013BA360F4
:103DD00063695A1C62611E70236962699A4224BF3A
:103DE000E3686361E3690BB120469847002080F3E4
:103DF0001188F8BD3946204600F01CFA0028E2DAA6
:103E000085F31188F8BD0000836942699A4210B5B4
:103E100001D182687AB98268013282605A1C82615B
:103E20001C7803699A4201D3C3688361002100F0C2
:103E300011FA204610BD4FF0FF3010BD2DE9F74FAD
:103E400005460F4690469A46D0F81C90202686F3E9
:103E500011884FF0000B144664B1224639462846BB
:103E6000FFF7EEFE034668B95146284600F0E2F936
:103E70000028F1D0002383F31188A8EB040003B0DD
:103E8000BDE8F08FB9F1000F03D001902846C84774
:103E9000019B8BF31188E41A1F4486F31188DBE73A
:103EA000026843681143016003B11847704700007E
:103EB0001430FFF743BF00004FF0FF331430FFF71B
:103EC0003DBF00003830FFF7B9BF00004FF0FF33AF
:103ED0003830FFF7B3BF00001430FFF709BF000010
:103EE0004FF0FF311430FFF703BF00003830FFF709
:103EF00063BF00004FF0FF323830FFF75DBF0000B6
:103F000000207047FFF7E2BD37B50F4B0360002379
:103F100043608360C3600123044603741546009028
:103F20000B464FF4807200F15C011430FFF7B6FECF
:103F300000942B464FF4807204F5AE7104F1380002
:103F4000FFF72EFF03B030BD4852000810B5202304
:103F5000044683F31188FFF7CBFD0223237400236B
:103F600083F3118810BD000038B5C36904460D46BF
:103F70001BB904210844FFF793FF294604F11400FC
:103F8000FFF79AFE002806DA201D4FF48061BDE895
:103F90003840FFF785BF38BD024B00221B605B60D5
:103FA0009A607047A45A0020002303748268054B6E
:103FB0001B6899689142FBD25A68036042601060A6
:103FC00058607047A45A002008B5202383F3118855
:103FD000037C032B05D0042B0DD02BB983F3118860
:103FE00008BD436900221A604FF0FF334361FFF7B9
:103FF000DBFF0023F2E790E80C001A6002685360D0
:10400000F2E70000002303748268054B1B6899687F
:104010009142FBD85A680360426010605860704754
:10402000A45A0020054B19690874186802681A60C0
:104030005360186101230374FCF70ABBA45A0020E3
:1040400030B54B1C87B005460A4C10D023690A4A8C
:1040500001A800F019F92846FFF7E4FF049B13B10B
:1040600001A800F063F92369586907B030BDFFF774
:10407000D9FFF8E7A45A0020C93F000838B50C4D15
:1040800041612B6981689A689142044603D8BDE872
:104090003840FFF789BF1846FFF7B4FF01232C61B2
:1040A000014623742046BDE83840FCF7D1BA00BF72
:1040B000A45A0020044B1A681B6990689B689842B8
:1040C00094BF002001207047A45A002010B5084C6E
:1040D000236820691A6822605460012223611A74DF
:1040E000FFF790FF01462069BDE81040FCF7B0BA29
:1040F000A45A002008B5FFF7DDFF18B1BDE808405D
:10410000FFF7E4BF08BD0000FEE7000010B50C4C4F
:10411000FFF742FF00F0AAF880220A49204600F08B
:104120003DF8012344F8180C0374FFF7DFFB00236C
:1041300083F3118862B60448BDE8104000F050B81F
:10414000CC5A0020705200087852000808B572B6A8
:10415000034B586200F0A4FA00F034FBFEE700BF06
:10416000A45A002000F01CB9EFF3118020B9EFF33E
:104170000583202282F311887047000010B558B9DA
:10418000EFF30584C4F3080414B180F3118810BD63
:10419000FFF7B0FF84F3118810BD00008260022297
:1041A00002740022427470478368A3F17C0243F8D2
:1041B0000C2C026943F83C2C426943F8382C074A1E
:1041C00043F81C2CC26843F8102C022203F8082C78
:1041D000002203F8072CA3F11800704769060008B5
:1041E00010B5202383F31188FFF7DEFF002104467A
:1041F000FFF744FF002383F31188204610BD000021
:10420000024B1B6958610F20FFF70CBFA45A002016
:10421000202383F31188FFF7F3BF000008B50146A0
:10422000202383F311880820FFF70AFF002383F37C
:10423000118808BD49B1064B42681B6918605A6075
:10424000136043600420FFF7FBBE4FF0FF30704760
:10425000A45A00200368984206D01A680260506091
:1042600059611846FFF7A0BE70470000054B03F1E7
:1042700014025A619A614FF0FF32DA6100221A6229
:10428000704700BFA45A0020F8B5274F0361C260F1
:104290000D46044600F004FB3B46022D53F8142F54
:1042A000294638BF02219A423E461D460AD138624D
:1042B0007C61BC61084422606260A160BDE8F84096
:1042C00000F0DCBAD7F820E0A0EB0E035F181FD394
:1042D00000279068834217D8376AAA421F44376282
:1042E00001D0C01A906073699A68914219D85A68CF
:1042F0002360626014605C60A1609868411A9960F4
:104300004FF0FF33F361F8BD97601B1A1268E0E7C6
:1043100093689F4203D20EEB070000F0BDFA3946C6
:10432000E1E7891A1B68DFE7A45A002038B51B4B68
:1043300001685A6990421D4603F114020CD044688A
:1043400021600368002193425C60C16025D09A68B7
:1043500081680A449A6038BD59614A605B690021EE
:104360009342C16003D1BDE8384000F08FBA9A682B
:1043700081680A449A602C6A00F092FA6A6992682D
:10438000001B824209D9111A012998BF821C286A90
:10439000BDE83840104400F07FBA38BDA45A002070
:1043A0002DE9F84F204C0027656904F11406B84642
:1043B00000F076FA236AA0EB030AAB6853451DD8D8
:1043C0004FF02009236AAA68D5F80CB01344236281
:1043D000AB68AAEB030A2B68B3425E606361EF60CF
:1043E00001D100F053FA88F311882869D84789F37E
:1043F00011886569AB689A45E4D2D9E76369B3422D
:1044000010D020629A68A2EB0A029A60226AAB6816
:10441000821A9B1A022B2CBFC0180230BDE8F84F3D
:1044200000F03ABABDE8F88FA45A00200C230360CC
:104430004FF0FF307047000000207047FEE700009B
:10444000704700004FF0FF3070470000BFF34F8F00
:10445000024AD368DB03FCD4704700BF003C024033
:1044600008B5094B1B7873B9FFF7F0FF074B1A69C2
:10447000002ABFBF064A5A6002F188325A601A68A1
:1044800022F480621A6008BD605C0020003C02409B
:104490002301674508B50B4B1B7893B9FFF7D6FF8F
:1044A000094B1A6942F000421A611A6842F48052BC
:1044B0001A601A6822F480521A601A6842F4806204
:1044C0001A6008BD605C0020003C0240072870B5FF
:1044D00013D80B4A0B4C137863B90B4E4FF00061A5
:1044E00044F8231056F823500133082B2944F7D100
:1044F0000123137054F8200070BD002070BD00BF70
:10450000845C0020645C002098520008014B53F842
:10451000200070479852000808207047072810B5FF
:10452000044601D9002010BDFFF7D0FF064B53F819
:1045300024301844C21A0BB9012010BD1268013290
:10454000F0D1043BF6E700BF98520008072810B5E9
:10455000044621D8FFF77AFFFFF782FF0F4AF323C3
:10456000D360C300DBB243F4007343F00203136172
:10457000136943F480331361FFF768FFFFF7A6FF69
:10458000074B53F8241000F019F9FFF783FF20467A
:10459000BDE81040FFF7C2BF002010BD003C024044
:1045A000985200082DE9F84312F00103154640D156
:1045B00084182E4A94423CD82D4B1B6813F00103FB
:1045C00037D02C4CFFF74CFFF323E360FFF73EFF9F
:1045D00040F20127032D01D9830713D0254C0F4644
:1045E000401A40F20118EB1B0B44012B00EB0706AD
:1045F000236924D823F001032361FFF74BFF012037
:10460000BDE8F883236923F44073236123693B43A6
:10461000236151F8046B0660BFF34F8FFFF716FF5D
:1046200003689E4208D0236923F001032361FFF74A
:1046300031FF0020BDE8F883043D0430CAE723F4CD
:1046400040732361236943EA08032361B94637F8BD
:10465000023B3380BFF34F8FFFF7F8FE3688B9F87F
:104660000030B6B2B342BED0DDE700BFFFFF07089F
:1046700000380240003C0240084908B50B7828B1D8
:1046800053B9FFF7EDFE01230B7008BD23B1BDE860
:1046900008400870FFF7FEBE08BD00BF605C002048
:1046A0004FF480214FF0005000F08AB838B500F088
:1046B000F7F8074B1A68824207D9064AD2E9004543
:1046C000003445F10105C2E90045186038BD00BF5E
:1046D000885C0020905C002070B5FFF745FD064621
:1046E000FFF7E4FF054BD3E90045241845F1000529
:1046F0003046FFF743FD2046294670BD905C002000
:1047000008B5FFF7E9FF4FF47A720023FBF784FD49
:1047100008BD00BF10B50244064B0439D2B2904226
:1047200000D110BD441C00B253F8200041F8040F22
:10473000E0B2F4E750280040104B30B51C6F240461
:1047400007D41C6F44F400741C671C6F44F40044CD
:104750001C670B4C236843F4807323600244094BAD
:104760000439D2B2904200D130BD441C00B251F89D
:10477000045F43F82050E0B2F4E700BF0038024085
:10478000007000405028004007B5012201A9002018
:10479000FFF7C0FF019803B05DF804FB13B50446B2
:1047A000FFF7F2FFA04206D002A9012241F8044D12
:1047B0000020FFF7C1FF02B010BD000070470000ED
:1047C0007047000070470000074B45F255521A60D1
:1047D00002225A6040F6FF729A604CF6CC421A6090
:1047E000024B01221A70704700300040995C002093
:1047F000034B1B781BB1034B4AF6AA221A60704781
:10480000995C002000300040034B1B689B0042BFB6
:10481000024B01221A70704774380240985C0020E5
:10482000024B4FF080721A60704700BF743802402C
:10483000014B1878704700BF985C0020704700005B
:10484000FEE70000084A094B09498B4204D3094A94
:104850000021934205D3704752F8040F43F8040B2C
:10486000F3E743F8041BF4E718540008AC5C00209D
:10487000AC5C0020AC5C002000F086B84FF08043B8
:10488000002258631A610222DA6070474FF08043B9
:104890000022DA60704700004FF080435863704791
:1048A0004FF08043586A70474B6843608B68836061
:1048B000CB68C3600B6943614B6903628B694362D8
:1048C0000B6803607047000008B51F4B1F481A694A
:1048D00042F0FF021A611A6922F0FF021A611A6996
:1048E0001A6B42F0FF021A631A6D42F0FF021A655A
:1048F000174A1B6D1146FFF7D7FF164802F11C013E
:10490000FFF7D2FF144802F13801FFF7CDFF13483B
:1049100002F15401FFF7C8FF114802F17001FFF7DF
:10492000C3FF104802F18C01FFF7BEFF0E4802F1F1
:10493000A801FFF7B9FF0D4802F1C401FFF7B4FF6A
:10494000BDE8084000F0A4B8003802400000024072
:10495000B85200080004024000080240000C024067
:10496000001002400014024000180240001C0240E7
:1049700008B500F00BFAFFF7C9FBBDE80840FFF7E8
:1049800043BF000070470000104B1A6C42F0010258
:104990001A641A6E42F001021A660D4A1B6E936881
:1049A00043F0010393604FF080432F229A624FF04F
:1049B000FF32DA6200229A615A63DA605A60012299
:1049C0005A6108211A601C20FFF7F6B8003802402F
:1049D000002004E04FF0804208B51369D1680B4015
:1049E000D9B2C9439B07116107D5202383F31188EE
:1049F000FFF7B8FB002383F3118808BD08B5FFF764
:104A0000E9FFBDE80840FEF795BF00001E4B1A699C
:104A100062F0FF021A611A69D2B21A614FF0FF30D8
:104A20001A695A69586100215A6959615A691A6AA2
:104A300062F080521A621A6A02F080521A621A6A8E
:104A40005A6A58625A6A59625A6A1A6C42F080521B
:104A50001A641A6E42F080521A661A6E0B4A106877
:104A600040F480701060186F00F44070B0F5007F63
:104A70001EBF4FF4803018671967536823F4007322
:104A8000536000F063B900BF00380240007000407E
:104A9000364B374A1A64374A4FF4404111601A685E
:104AA00042F001021A601A689207FCD59A6822F057
:104AB00003029A602D4B19469A6812F00C02FBD142
:104AC000186800F0F90018609A601A6842F48032A1
:104AD0001A600B689B03FCD54B6F43F001034B67D7
:104AE000224B5A6F9007FCD5234A5A601A6842F04D
:104AF00080721A601F4A53685904FCD51B4B1A6810
:104B00009201FCD51D4A9A600322C3F88C20002232
:104B1000C3F894201A4B1A681A4B9A421A4B21D1A7
:104B20001A4A11681A4A91421CD140F203121A60C3
:104B3000154A136803F00F03032BFAD10B4B9A6845
:104B400042F002029A609A6802F00C02082AFAD136
:104B50005A6C42F480425A645A6E42F480425A6659
:104B60005B6E704740F20372E1E700BF003802401D
:104B70000004001000700040106041080094883864
:104B8000002004E011640020003C024000ED00E041
:104B900041C20F41084A08B5536911680B4003F040
:104BA0000103536123B1054A13680BB1506898475C
:104BB000BDE80840FEF7BEBE003C0140BC570020E7
:104BC000084A08B5536911680B4003F002035361AA
:104BD00023B1054A93680BB1D0689847BDE80840F7
:104BE000FEF7A8BE003C0140BC570020084A08B5AB
:104BF000536911680B4003F00403536123B1054A64
:104C000013690BB150699847BDE80840FEF792BEA2
:104C1000003C0140BC570020084A08B553691168A0
:104C20000B4003F00803536123B1054A93690BB1AC
:104C3000D0699847BDE80840FEF77CBE003C0140C3
:104C4000BC570020084A08B5536911680B4003F0AF
:104C50001003536123B1054A136A0BB1506A984798
:104C6000BDE80840FEF766BE003C0140BC5700208E
:104C7000174B10B55C691A68144004F478725A61D5
:104C8000A30604D5134A936A0BB1D06A984760060D
:104C900004D5104A136B0BB1506B9847210604D50D
:104CA0000C4A936B0BB1D06B9847E20504D5094AC7
:104CB000136C0BB1506C9847A30504D5054A936C4F
:104CC0000BB1D06C9847BDE81040FEF733BE00BF73
:104CD000003C0140BC5700201A4B10B55C691A68B3
:104CE000144004F47C425A61620504D5164A136DDF
:104CF0000BB1506D9847230504D5134A936D0BB142
:104D0000D06D9847E00404D50F4A136E0BB1506E76
:104D10009847A10404D50C4A936E0BB1D06E984706
:104D2000620404D5084A136F0BB1506F98472304EF
:104D300004D5054A936F0BB1D06F9847BDE810407A
:104D4000FEF7F8BD003C0140BC570020062108B525
:104D50000846FEF731FF06210720FEF72DFF06214A
:104D60000820FEF729FF06210920FEF725FF06216E
:104D70000A20FEF721FF06211720FEF71DFF06215E
:104D80002820BDE80840FEF717BF000008B5FFF770
:104D90003DFEFEF7F9FDFFF7B5F8FFF7F3FDBDE8BF
:104DA0000840FFF769BD000010B5002814BF044695
:104DB0000124204600F030F830B900F00DF808B9B1
:104DC00000F014F88047F4E710BD00000B460146E0
:104DD000184600F013B80000024B1868BFF35B8F51
:104DE000704700BF9C5C002000F01EB808B506208C
:104DF00000F034F90120FFF721FB000010B5054C4D
:104E000013462CB10A4601460220AFF3008010BDC4
:104E1000204610BD00000000024B0146186800F05B
:104E200087B800BF18230020024B0146186800F025
:104E300031B800BF1823002010B501390244904258
:104E400001D1002010BD10F8013B11F8014FA34221
:104E5000F5D0181B10BD00002DE9F8430746884621
:104E600091461E468BB10D46A8EB0500B54207EBF7
:104E7000000402D20020BDE8F883324649462046AD
:104E8000FFF7DAFF18B1013DEEE7BDE8F8832046F1
:104E9000BDE8F88338B50546002945D051F8043CF3
:104EA0000C1F002BB8BFE41800F0FCF81F4A136871
:104EB000104633B9636014602846BDE8384000F0FE
:104EC000F3B8A3420CD921686218934204BF1A6850
:104ED0005B68636004BF521822600460ECE713460D
:104EE0005A680AB1A242FAD919685818A0420BD1DF
:104EF00020680144581882421960DDD11068526858
:104F00005A6001441960D7E702D90C232B60D3E71C
:104F1000206821188A4204BF11685268626004BF89
:104F2000091821605C60C7E738BD00BFA05C0020A5
:104F300070B5CD1C25F0030508350C2D38BF0C25A8
:104F4000002D064601DBA94203D90C233360002063
:104F500070BD00F0A7F8234A1468214691B9224C8D
:104F600023681BB9304600F041F8206029463046DE
:104F700000F03CF8431C26D10C233360304600F08F
:104F800093F8E4E70B685B1B1AD40B2B0FD90B606B
:104F9000CD50CC18304600F087F804F10B00231DEB
:104FA00020F00700C31A1BD05A42E25070BD8C4259
:104FB0000DBF63684B686360136018BF0C46E9E778
:104FC0000C464968CAE7C41C24F00304A04205D07B
:104FD000211A304600F00AF80130CDD02560D9E71B
:104FE00070BD00BFA05C0020A45C002038B5064C5A
:104FF0000023054608462360FFF718FA431C02D138
:10500000236803B12B6038BDA85C00201F2938B588
:1050100004460D4604D9162303604FF0FF3038BD17
:10502000426C12B152F821304BB9204600F030F8F2
:105030002A4601462046BDE8384000F017B8012B4B
:105040000AD0591C03D116230360012038BD002467
:1050500042F8254028469847002038BD024B0146BB
:105060001868FFF7D3BF00BF1823002038B5074CDE
:1050700000230546084611462360FFF7E3F9431C69
:1050800002D1236803B12B6038BD00BFA85C0020AB
:10509000FFF7D2B9034611F8012B03F8012B002AC0
:1050A000F9D17047704700007047000012101213CA
:1050B0001211000040A2E4F1646891064E6F206175
:1050C0007070207369670A00426164206677206C03
:1050D000656E6774682025750A0042616420626FFE
:1050E0006172645F69642025752073686F756C64F4
:1050F0002062652025750A0042616420667720647D
:10510000657363726970746F72206C656E67746822
:105110002025750A0042616420617070204352436B
:10512000203078253038783A30782530387820307B
:1051300078253038783A3078253038780A00476F4B
:105140006F64206669726D776172650A0000000005
:105150006F72672E6172647570696C6F742E486F20
:105160006C7962726F4750530000000053544D3306
:1051700032463F3F3F000000000000006C51000835
:105180003F00000013040000A85100083F00000089
:1051900019040000B25100083F0000002104000083
:1051A000BC5100083F00000053544D3332463430A8
:1051B000780053544D3332463432780053544D33D3
:1051C0003246343436585800000100000001FF0018
:1051D0000064004000680040800000000080000083
:1051E000000080004261642043414E49666163656E
:1051F00020696E6465782E00000000000000000049
:105200003525000841240008E51C00080D1D000894
:10521000611E0008E91C0008FD1C0008ED1C0008C8
:10522000F11C0008F91C0008F51C0008F91D000815
:10523000011D0008009600000000000000000000B2
:10524000000000000000000000000000CD3E00084B
:10525000B93E0008F53E0008E13E0008ED3E0008BA
:10526000D93E0008C53E0008B13E0008013F0008D5
:105270006D61696E0000000090520008E85A00203D
:10528000605C0020010000000941000800000000EF
:1052900069646C65000000000040000000400000F0
:1052A000004000000040000000000100000002007B
:1052B0000000020000000200A001812A000000009E
:1052C000AAA9AAAA50000100EFFF00000077000081
:1052D000009009001000004A000000009AAAAAAA43
:1052E00000000000FBFF000000000000000099002B
:1052F0000000000000000000AAAAAAAA0000000006
:10530000FFFF00000000000000000000000000009F
:1053100000000000AAAAAAAA00000000FFFF0000E7
:10532000000000000000000000000000000000007D
:10533000AAAAAAAA00000000FFFF000000000000C7
:10534000000000000000000000000000AAAAAAAAB5
:1053500000000000FFFF000000000000000000004F
:105360000000000000000000AAAAAAAA0000000095
:10537000FFFF00000000000000000000000000002F
:10538000000000000A000000000000000300000010
:105390000000000000000000B0AEFF7F0100000030
:1053A0000B0400000000000000000700FE2A0100BE
:1053B000D2040000FF0000001C23002000000000B9
:1053C00000000000000000000000000000000000DD
:1053D00000000000000000000000000000000000CD
:1053E00000000000000000000000000000000000BD
:1053F00000000000000000000000000000000000AD
:10540000000000000000000000000000000000009C
:0C54100000000000000000000000000090
:00000001FF
