:020000040800F2
:10000000000700202905000861280008652800086D
:10001000B9280008652800088D2800082B0500086D
:100020002B0500082B0500082B050008653B000880
:100030002B0500082B0500082B0500082B050008E0
:100040002B0500082B0500082B0500082B050008D0
:100050002B0500082B050008A9650008D5650008D8
:10006000016600082D660008596600082B05000887
:100070002B0500082B0500082B0500082B050008A0
:100080002B0500082B0500082B050008FD2700089C
:100090002D2800083D2800082B050008856600086B
:1000A0002B0500082B0500082B0500082B05000870
:1000B000BD6300082B0500082B0500082B05000870
:1000C0002B0500082B0500082B0500082B05000850
:1000D0002B0500082B050008213C00082B05000813
:1000E000ED6600082B0500082B0500082B0500080D
:1000F0002B0500082B0500082B0500082B05000820
:100100002B0500082B0500082B0500082B0500080F
:100110002B0500082B0500082B0500082B050008FF
:100120002B0500082B0500082B0500082B050008EF
:100130002B0500082B0500082B0500082B050008DF
:100140002B0500082B0500082B050008595C00084A
:100150002B0500082B0500082B0500082B050008BF
:100160002B0500082B0500082B0500082B050008AF
:100170002B0500082B0500082B0500082B0500089F
:100180002B0500082B0500082B0500082B0500088F
:100190002B0500082B0500082B0500082B0500087F
:1001A0002B0500082B0500082B0500082B0500086F
:1001B0002B0500082B0500082B0500082B0500085F
:1001C0002B0500082B0500082B0500082B0500084F
:1001D0002B0500082B0500082B0500082B0500083F
:1001E000F518000800000000D0400B1CD1409C46D0
:1001F000203AD34018435242634693401843704715
:100200009140031C90409C46203A9340194352422F
:100210006346D3401943704753B94AB9002908BF10
:1002200000281CBF4FF0FF314FF0FF3000F07AB9CB
:10023000ADF1080C6DE904CE00F006F8DDF804E03D
:10024000DDE9022304B070472DE9F0478C460D46E6
:100250000446089E002B51D18A4217466DD9B2FA46
:1002600082FEBEF1000F0BD0CEF1200C01FA0EF58C
:1002700020FA0CFC02FA0EF74CEA050C00FA0EF418
:100280004FEA174A250CBCFBFAF81FFA87F90AFB5C
:1002900018CC45EA0C4508FB09F3AB420AD9ED1925
:1002A00008F1FF3280F02381AB4240F22081A8F1B7
:1002B00002083D44ED1AA4B2B5FBFAF00AFB105552
:1002C00044EA054400FB09F9A14509D9E41900F104
:1002D000FF3380F00A81A14540F2078102383C4497
:1002E000A4EB090440EA08400021002E61D024FA62
:1002F0000EF4002334607360BDE8F0878B4207D9A9
:10030000002E54D0002186E821000846BDE8F08781
:10031000B3FA83F1002940F08E80AB4202D38242CF
:1003200000F2FA80841A65EB03050120AC46002E2A
:100330003FD086E81010BDE8F08712B90127B7FB5F
:10034000F2F7B7FA87FEBEF1000F34D1EB1B3A0C7F
:100350001FFA87FC0121B3FBF2F8250C02FB1833CE
:1003600045EA03450CFB08F3AB4207D9ED1908F148
:10037000FF3002D2AB4200F2D1808046ED1AA3B228
:10038000B5FBF2F002FB105543EA05440CFB00FC00
:10039000A44507D9E41900F1FF3302D2A44500F2C5
:1003A000B8801846A4EB0C0440EA08409DE73146AB
:1003B0003046BDE8F087CEF1200405FA0EF307FAC7
:1003C0000EF720FA04F83A0C25FA04F448EA030878
:1003D000B4FBF2F14FEA184502FB11441FFA87FC07
:1003E00045EA044501FB0CF3AB4200FA0EF409D9CF
:1003F000ED1901F1FF3080F08A80AB4240F2878036
:1004000002393D44EB1A1FFA88F5B3FBF2F002FB08
:10041000103345EA034500FB0CF3AB4207D9ED1955
:1004200000F1FF386FD2AB426DD902383D44EB1A70
:1004300040EA01418FE7C1F1200722FA07F88B401B
:1004400005FA01F448EA030320FA07FE4FEA134CC9
:10045000FD404EEA040EB5FBFCF94FEA1E440CFBCE
:1004600019551FFA83F844EA054509FB08F4AC4224
:1004700002FA01F200FA01FA08D9ED1809F1FF3089
:1004800043D2AC4241D9A9F102091D442D1B1FFAE8
:100490008EFEB5FBFCF00CFB10554EEA054400FB4C
:1004A00008F8A04507D9E41800F1FF3529D2A04586
:1004B00027D902381C4440EA0940A4EB0804A0FBF9
:1004C00002894C45C6464D4615D312D056B1BAEBFB
:1004D0000E0364EB050404FA07F7CB401F43CC403E
:1004E000376074600021BDE8F0871846F8E6904652
:1004F000E0E6C245EAD2B8EB020E69EB030501382B
:10050000E4E72846D7E7404691E78146BEE7014643
:1005100078E702383C4445E7084608E7A8F10208B6
:100520003D442BE7704700BF02E000F000F8FEE713
:1005300072B6394880F30888384880F3098838480B
:100540004EF60851CEF20001086040F20000CCF2F5
:1005500000004EF63471CEF200010860BFF34F8FF9
:10056000BFF36F8F40F20000C0F2F0004EF68851EA
:10057000CEF200010860BFF34F8FBFF36F8F4FF0D3
:100580000000E1EE100A4EF63C71CEF20001086068
:10059000062080F31488BFF36F8F05F025F805F06F
:1005A000A3FE4FF055301F491B4A91423CBF41F812
:1005B000040BFAE71C49194A91423CBF41F8040B6D
:1005C000FAE71A491A4A1B4B9A423EBF51F8040BEC
:1005D00042F8040BF8E700201749184A91423CBF43
:1005E00041F8040BFAE705F003F805F0D9FE144CC6
:1005F000144DAC4203DA54F8041B8847F9E700F0C5
:100600003FF8114C114DAC4203DA54F8041B8847F3
:10061000F9E704F0EBBF00000007002000270020EE
:100620000000000800010020000700206874000896
:10063000002700209427002098270020545A0020EB
:10064000E0010008E4010008E4010008E4010008FA
:100650002DE9F04F2DED108AC1F80CD0C3689D46EE
:10066000BDEC108ABDE8F08F002383F31188284683
:10067000A047002004F0A6FB04F098FA00DFFEE794
:10068000F8B5314C7A2323700523002563701F23AE
:10069000A570E57025716571A571E57125726572AA
:1006A000A372E57201F08EFA20B10F2325726572F4
:1006B000A372E57204F03EFF074604F08FFF064682
:1006C000B0BB224B9F4233D001339F4233D0204BEB
:1006D00027F0FF029A4231D1F8B200F043FD3546CF
:1006E00042F2107400F06CFF00F042FD08B90546BC
:1006F000044636B1174B9F4203D004F067FF002435
:100700002546002004F020FF134B1B6913F480736F
:1007100018D00DB100F06AF801F034FB00F072FF60
:1007200001F07EF9204600F0C3F800F05FF8F9E729
:1007300035460024D6E704460125D3E7054641F2B5
:100740008834CFE71C46E7E798270020010007B070
:10075000000008B0263A09B00004024008B501F0D4
:10076000DDF8A0F120035842584108BD07B5054BFC
:1007700002211B88ADF8043001A801F03BF903B059
:100780005DF804FB046B000810B5202383F3118887
:100790001248C3680BB104F09BFB0023104A0F48BA
:1007A0004FF47A7104F058FB002383F311880D4C49
:1007B000236813B12368013B2360636813B1636846
:1007C000013B6360084B1B7833B9636823B902208F
:1007D00001F03EFA3223636010BD00BFA427002061
:1007E00089070008C0280020B827002010B5274B33
:1007F000274953F8042F013200D110BD8B42F8D1A4
:10080000244C254B22689A423ED9244B9B6803F125
:10081000006303F580339A4236D204F0ABFE04F055
:10082000BDFE002001F016F91D4B0220187001F0EA
:1008300001FA1C4B1A6C00221A64196E1A66196EA2
:10084000596C5A64596E5A665A6E5A6942F080025F
:100850005A615A6922F080025A615A691A6942F053
:1008600000521A611A6922F000521A611B6972B6AD
:100870000D4A0E4B13601B682268202181F31188FA
:100880009D4683F30888104710BD00BFFCFF000899
:100890001C00010804000108FFFF00089827002041
:1008A000B82700200038024008ED00E000000108F1
:1008B0002DE9F04F99B0B34C01902022FF2110A8F0
:1008C000A66801F001FAB04A1378A346A3B9AF486D
:1008D0000121C3601170202383F31188C3680BB119
:1008E00004F0F6FA0023AA4AA8484FF47A7104F0FB
:1008F000B3FA002383F31188019B13B1A54B019A2E
:100900001A60A54AA349019F0292002313704B600D
:1009100099461C461D469846012001F08BF9002F90
:1009200000F012829B4B1B68002B40F00D8219B027
:10093000BDE8F08F0220FFF711FF002840F0FB8197
:10094000019BB9F1000F08BF1F46944B1B88ADF8FF
:100950002C3002210BA801F04DF8DDE74FF47A703E
:1009600000F0DCFF031E0393EADB0220FFF7F6FE34
:1009700082460028E4D0039B581E042800F2DD8143
:10098000DFE800F0030E1114170018A8052340F843
:10099000343D042101F02EF854464FF0000856E093
:1009A00004217848F6E704217D48F3E704217D48D7
:1009B000F0E71C24204601F04FF804340B9004218A
:1009C0000BA801F017F82C2CF4D1E5E7002DB7D0D7
:1009D000002CB5D00220FFF7C1FE0546002800F02C
:1009E000AF8101206C4C01F035F80220207001F03D
:1009F00021F94FF000095FFA89FA504601F03AF800
:100A0000074658B1504601F045F809F101090028A0
:100A1000F1D12C46A9460027634B97E7012302201A
:100A2000237001F0F9F83E46DBF808309E4206D20A
:100A3000304601F011F80130EBD10436F4E7029BA7
:100A400000261E70534BA9465E602C46374601F0C7
:100A50008FF915B1002C18BF0027FFF787FE5BE761
:100A6000002D3FF46DAF002C3FF46AAF029B0220D3
:100A7000187001F0DFF8322000F050FFB0F1000AEA
:100A8000C0F25E811AF0030540F05A81DBF80820BD
:100A900006EB0A03934200F25381BAF5807F00F21D
:100AA0004F8155450DDA4FF47A7000F037FF04900E
:100AB000049B002BC0F244813C4A049BAB5401359B
:100AC000EFE7C820FFF74AFE0546002800F038810E
:100AD0001F2E11D8C6F12004544528BF544610AB30
:100AE00026F0030022463149184401F0C3F822469B
:100AF000FF212E4801F0E8F84FEAAA0A5FFA8AF2CD
:100B00002A49304601F0E8F80446002800F01A812E
:100B100006EB8A0605469AE70220FFF71FFE00282B
:100B20003FF40EAF00F0DCFF00283FF409AF4FF0B8
:100B3000000A5346DBF8082092451CD2BAF11F0F79
:100B400012D8109A01320FD02AF0030218A90A44D1
:100B500052F8202C0B92184604220BA902F030F810
:100B60000AF1040A0346E5E75046039300F074FFD8
:100B7000039B0B90EFE718A8042140F84C3D00F0D0
:100B800039FF64E798270020BC280020A427002014
:100B900089070008C0280020B8270020066B00083D
:100BA0009C270020A0270020086B0008BC270020FD
:100BB00018A8002340F8343D642100F0E7FE002827
:100BC0007FF4BEAE0220FFF7C9FD00283FF4B8AEA7
:100BD0000B9800F071FF18AB43F8480D042118463C
:100BE000CDE718A8002340F8343D642100F0CEFE84
:100BF00000287FF4A5AE0220FFF7B0FD00283FF4E7
:100C00009FAE0B9800F066FF18AB43F8440DE5E784
:100C10000220FFF7A3FD00283FF492AE00F070FF22
:100C200018AB43F8400DD9E70220FFF797FD0028E5
:100C30003FF486AE0BA9142000F068FF824618A886
:100C4000042140F83CAD00F0D5FE51460BA896E7D4
:100C5000322000F063FEB0F1000AFFF671AE1AF028
:100C6000030F7FF46DAEDBF808200AEB0803934214
:100C70003FF666AE0220FFF771FD00283FF460AE3C
:100C80002AF0030AC244D0453FF4E1AE404600F0EA
:100C9000E3FE04210A900AA800F0ACFE08F1040863
:100CA000F1E74FF47A70FFF759FD00283FF448AEA2
:100CB00000F016FF00283FF4AFAE109B01330CD0BC
:100CC000082210A9002001F007F800283FF4A4AE84
:100CD0002022FF2110A800F0F7FFFFF747FD394859
:100CE00004F076F823E6002D3FF42AAE002C3FF402
:100CF00027AE18A8002340F8343D642100F046FEDA
:100D0000824600287FF41CAE0220FFF727FD002852
:100D10003FF416AE0390FFF729FD41F2883004F04E
:100D200057F80B9801F062F801F022F8039B574640
:100D30001C461D46F0E5054689E64FF00008FFE534
:100D40002546FDE52C4667E6002000F0E7FD04900F
:100D5000049B002B01DA00F099FC049B002BFFF6AA
:100D6000DEAD012000F058FF049B213B122B3FF623
:100D7000D3AD01A252F823F0350900085D0900083F
:100D8000CD09000819090008190900081909000807
:100D9000610A0008510C0008190B0008B10B00088B
:100DA000E30B0008110C000819090008290C0008C1
:100DB00019090008A30C00084F0A000819090008C7
:100DC000E70C0008A086010009490B6849F2690098
:100DD0009AB21B0C00FB0233064A0B60136844F204
:100DE000506198B21B0C01FB0030106080B270475C
:100DF000042700200027002010B5002110220446FF
:100E000000F062FF034B03CB206061601868A060B4
:100E100010BD00BF107AFF1FF0B51F4CBBB001F032
:100E200067FDA368C31AF92B30D906AD2346A0602D
:100E300028220021284602F04DFC04F10E0000F0AB
:100E40003BFF0023C6B2591D5F1CDBB2B3424FEA21
:100E5000C10107DA0E3323440822284602F03AFC87
:100E60003B46F0E7012303930823207B02930B4BBF
:100E70000193C1F3CF0130230591009301460495FE
:100E800003A3D3E90023064802F0F4F93BB0F0BD18
:100E900078F6339F93CACD8DD8490020E5490020CC
:100EA000E038002038B50B4B036041F25403C21800
:100EB000044612793AB9C5582DB1284601F040FDD3
:100EC000284605F09FFC04F5825001F039FD2046CC
:100ED00038BD00BF406D000870B50D4614461E4673
:100EE00002F06EF950B9022E0ED1012C0CD112A3D2
:100EF000D3E90023C5E90023012070BD052C14D0DF
:100F000003D8012C09D0002070BD282C09D0302C2A
:100F1000F9D10BA3D3E90023ECE70BA3D3E900231A
:100F2000E8E70BA3D3E90023E4E70BA3D3E900230D
:100F3000E0E700BFAFF30080401DA12026812A0B0F
:100F400078F6339F93CACD8D9E6AC421818A46EE7E
:100F500026417272DF25D7B7F017304A39059E5601
:100F600038B504460D46034620222846002102F0EB
:100F7000B1FB22792346032A28BF032203F8042F5A
:100F800028460222202102F0A5FB62792346072A87
:100F900028BF072203F8052F28460322222102F04A
:100FA00099FBA2792346072A28BF072203F8062FB8
:100FB00028460322252102F08DFB284604F1080370
:100FC0001022282102F086FB382038BD2DE9F04F91
:100FD000ADF5017D21AE0EAD40F2791280460F468F
:100FE0003046002100F070FE48220021284600F023
:100FF0006BFE01F07DFC594B4FF47A72B0FBF2F0BE
:10100000186093E80700012385E807002B740DF1B1
:101010005A0000236B74FFF7EFFE052385F820309C
:101020007A2385F8213006AB18464D4905F05EFD60
:101030001D2228643146284685F83C20FFF790FFA2
:1010400012AB044601460822304602F043FB082258
:10105000A1180DF14903304602F03CFB0DF14A03A3
:10106000082204F11001304602F034FB13AB2022B9
:1010700004F11801304602F02DFB14AB402204F1BC
:101080003801304602F026FB16AB082204F1780145
:10109000304602F01FFB0DF15903082204F18001D4
:1010A000304602F017FB04F1880A0DF15A0904F5E5
:1010B000847B4B465146082230460AF1080A02F06A
:1010C00009FBD34509F10109F3D11BAB08225946AD
:1010D000304602F0FFFA04F588744FF0000995F8E5
:1010E00034304B4510D84FF0000995F83C304B4553
:1010F00015D92B6C21464B440822304602F0EAFAFF
:10110000083409F10109F0E7AB6B21464B44082292
:10111000304602F0DFFA083409F10109DFE7E31D88
:10112000C3F3CF03F97E0593002304960393BB7E9C
:101130000293193701230093019706A3D3E90023F3
:10114000404602F097F80DF5017DBDE8F08F00BF35
:10115000AFF300809E6AC421818A46EEC828002031
:101160003C6C0008014B1870704700BFD428002069
:10117000F0B5334B1C7B85B034B1324B0E221A8153
:101180000024204605B0F0BD2F4A1068516802AB1C
:1011900003C308230DEB03022C492D4805F088FBFF
:1011A000054630B9274B2B480A221A8101F04EFB25
:1011B000E6E70169B1F5F81F06D9224B26480B2254
:1011C0001A8101F043FBDCE7438B40F27A529342F1
:1011D00007D01C490C2008811946204801F036FB35
:1011E000CFE71F4A024402F11003994204D2154B83
:1011F0001C4810221A81E4E710398E1A204614493F
:1012000001F0DEFC3246074605F11801204601F0E8
:10121000D7FCAB689F4202D1EB6898420AD0094BD9
:101220000D221A8100903B46EA68A9680E4801F039
:101230000DFBA5E70D4801F009FB0124A1E700BF64
:10124000D8490020C82800200C6B0008DCFF1E00D5
:1012500000000108146B0008206B0008326B0008C6
:101260000800FFF7506B00086D6B0008966B0008D4
:101270002DE9F04FADB006AF80460C4601F0A0FF5F
:10128000054600286AD1237E022B18D1E38A012B60
:1012900015D101F02DFB8146FFF796FD4FF4C87381
:1012A000BD4EB0FBF3F209F5167902FB1300E37EA5
:1012B00019FA80F030608BB9B84B00221A709C3755
:1012C000BD46BDE8F08F3B1D1D440095002308225C
:1012D0004FEAC901204602F061F84D46A38A013B5E
:1012E000AB425FFA85F90BD905F10109B9F1110F8C
:1012F000E9D1AB4BAB4A40F23911AB4805F08CFA5F
:1013000007F11400FFF778FD2A4607F11401381D94
:1013100005F0BEFA03460028CED1B9F1100F07D070
:101320009E4B83F800903368A3F516733360C6E7CD
:1013300007F19802014602F8950D20460092072217
:1013400002F02CF8F9787F2904DD984B954A4FF488
:10135000A871D2E7404601F017FFB0E7E38A052BFA
:1013600000F0068106D8012BA9D121464046FFF79F
:101370002DFEA4E7282B3DD0302BA0D1637E8C4DD1
:1013800001336A7BDBB29342E94640F0EF80E27EB4
:101390002B7B9A4240F0EA8007F19803002623F85D
:1013A000846D1022009331460123204601F0F6FFA0
:1013B000B4F81480A8F102081FFA88F808F10303B2
:1013C00023F003030A3323F00703ADEB030D0DF104
:1013D000180A33469BB2B11C98454FEAC10106F189
:1013E00001066CDD5344009308220023204601F0DF
:1013F000D5FFEEE7A38A013B9BB2C92B3FF65FAF57
:101400006B4E357B4DBB06F10C03009308222B4637
:101410002946204601F0C2FFA38A05F10109013BDC
:10142000EDB29D424FEAC90109DA0E353544009507
:1014300000230822204601F0B1FF4D46ECE70023CF
:101440000022C6E900230023B36086F8D730C6F82F
:10145000D830337B0BB9E37E3373002507F11406D4
:101460003B1D0822294630467D60BD60FD6002F0CC
:1014700031F93B7A05F10109AB424FEAC90107D9BD
:10148000FB6808222B44304602F024F94D46F0E771
:10149000C1F3CF010023E07E059104960393A37E60
:1014A00002931934282301460093019438A3D3E909
:1014B0000023404601F0DEFEFFF7AEFCFFE695F8A4
:1014C000D70000F0D7FAD5F8D83006461BB995F802
:1014D000D70000F0DFFAD5F8D83043449E4204D25A
:1014E00095F8D700013000F0D5FA4FEA980B0024A8
:1014F000A0B2584504F1010408DA2B6880000AEB19
:1015000000010122184400F0E7FBF1E7D5E90023D0
:10151000D5F8D84095F8D70012EB080243F1000344
:101520004444C5E90023C5F8D84000F0A3FA84423A
:1015300009D395F8D730013385F8D730D5F8D830AE
:101540009E1BC5F8D860B8F1FF0F08DC00232B7391
:1015500000F0C6FAFFF70CFE08B1FFF747F92B6859
:10156000144A9B0A013313810023AB60CD46A6E6E3
:10157000BFF34F8F1049114BCA6802F4E062134366
:10158000CB60BFF34F8F00BFFDE700BFAFF300801C
:1015900026417272DF25D7B7DC380020D938002009
:1015A000A86B00085C6C0008016C0008236C000844
:1015B000D8490020C828002000ED00E00400FA050A
:1015C00008B54FF000530B4A196891420AD10A4AF4
:1015D000597D117009481B7D0373C92208490E30DB
:1015E00000F048FBE02200214FF00050BDE8084029
:1015F00000F06ABB9AAD44C5D4280020D849002029
:101600001600002037B5184D184919480223012249
:101610006B7100F0E9FF00230193164B009316490C
:10162000164B17484FF4805201F078FD154B19788E
:1016300011B1134801F0A8FD01F05AF90446FFF773
:10164000C3FB4FF4C87304F51674B0FBF3F202FB4E
:1016500013000D4B14FA80F0186003F0BFFF08B1BF
:101660000F232B8103B030BDC828002040420F005B
:1016700008390020D90E0008D8280020711200086F
:10168000E0380020D4280020DC3800202DE9F04F7D
:101690008C4C93B08C4EDFF850820027204601F02E
:1016A00035FE024668B300250E958DF844500F951F
:1016B0001095037B8DF8443001460FAB51F8040FB1
:1016C000DFF82892496803C3136843F000430E9380
:1016D00001F010F9821941EB070300950EA940466D
:1016E00000F0C4FBA84205DD204601F013FE89F896
:1016F0000050D3E799F80030072B46DC013389F816
:1017000000300BAD0023DFF8E0A1DFF8E4B10A936D
:101710008DF834300B934FF000086B604FF00009E8
:1017200012AA002602F82B6D33460127CDE9008965
:1017300007A950468DF81C7000F000FF9DF81C3082
:101740003BB3DBF8143083F00203CBF8143031469E
:1017500010220EA800F0B8FA0DF11E0308AA0AA97B
:10176000504600F02DFC95E803000FAB83E8030022
:101770009DF834308DF844300A9B0E930EA9DDE9B4
:101780000823204602F00CF8CAE7204601F0C2FD0B
:10179000B7E7204601F014FD0546002842D14B4E24
:1017A00001F0A6F8336898423CD301F0A1F88046D6
:1017B000FFF70AFB4FF4C87308F51678B0FBF3F295
:1017C00002FB130018FA80F03060414E8DF828506B
:1017D00096F80080B8F1000F01D18DF82870C8F19B
:1017E0001005EDB20EA8FFF707FB062D28BF062552
:1017F0000EAB2A4603EB08010DF1290000F03AFA7E
:101800000AAB039318230293324B01930135012352
:101810000093049527A3D3E90023204601F0D2FCCE
:101820000023337001F064F82B4A2C4D1368C31A5F
:10183000B3F57A7F30D3106001F05CF802460B46B6
:10184000204601F06DFD204601F0BAFC20B32B7B51
:10185000234E002B14BF03230223737101F048F8B9
:101860000EAF4FF47A733946B0FBF3F03060304678
:10187000FFF776FB1823073002931A4B0193C0F34E
:10188000CF0040F255130490009303970BA3D3E9C4
:101890000023204601F096FC2B7B0BB1FFF7BCFA2E
:1018A0002B7B002B7FF4F6AE13B0BDE8F08F00BFAA
:1018B000AFF30080401DA12026812A0BF1C6A7C1ED
:1018C000D068080FE038002040420F00DC380020CC
:1018D000D9380020D8380020B84A0020D849002044
:1018E000C8280020BC4A002008390020BD4A00203A
:1018F0000004024010B5064C0021204600F09AFB7F
:101900002046044A0449BDE8104004F06DBF00BF02
:1019100008390020084B0020A50E00082DE9F347E8
:1019200002AE00244FF47A7506F8014D144FDFF82B
:101930005880454397F900305A1C5FFA84F901D06A
:10194000A34212D158F8240003680122D3F820A042
:1019500031462B46D047012807D10A4B9DF8070096
:1019600083F8009002B0BDE8F0870134022CE1D189
:101970004FF4FA7003F02CFA4FF0FF30F2E700BF9B
:1019800008270020004B0020F06C00082DE9F047EC
:101990004FF47A75144FDFF8588006464D43002403
:1019A00097F900305A1C5FFA84F901D0A34210D194
:1019B00058F8240003680422D3F820A031462B46AF
:1019C000D047042805D1094B83F800900020BDE8DA
:1019D000F0870134022CE3D14FF4FA7003F0F8F9E8
:1019E0004FF0FF30BDE8F08708270020004B0020B3
:1019F000F06C000830B4074B1A78074B53F82240BC
:101A00002368DD69054B0A46AC460146204630BCDA
:101A1000604700BF004B0020F06C0008A08601006A
:101A200070B503F029FC094C094E20700025306880
:101A30002378834208D903F019FC33680544013345
:101A4000B5F5803F3360F2D370BD00BF014B00207D
:101A5000C04A002003F0C6BC00F1006000F58030F1
:101A60000068704700F10060920000F5803003F0DC
:101A700051BC0000054B1A68054B1B789B1A83422A
:101A800002D9104403F0F2BB00207047C04A002086
:101A9000014B002038B5074D04462868204403F068
:101AA000EDFB28B928682044BDE8384003F0FEBBB0
:101AB00038BD00BFC04A002010F0030308D1B0F5C4
:101AC000007F05D800F10050A0F50840006870477D
:101AD00000207047014BC058704700BF107AFF1FAD
:101AE000064991F8243033B100230822086A81F8AE
:101AF0002430FFF7B7BF0120704700BFC44A002061
:101B0000014B1868704700BF002004E070B52A4BF5
:101B10001C68C4F30B03240C63B140F213429342DC
:101B200031D040F2194293422FD040F221429342E9
:101B30002DD10323214A0C2505FB03235D6893F96E
:101B4000082042F201039C4224D0B4F5805F23D0E8
:101B500041F201039C4221D041F203039C421FD079
:101B600041F207039C4208BF3122441E0C44013D50
:101B70000B46A3421ED215F9016F581C96B10346BD
:101B800000F8016CF5E70123D4E70223D2E73F22F6
:101B90000B4DD6E73322E3E74122E1E75A22E4E79F
:101BA0005922E2E72C2584421D7001D9981C5A70F5
:101BB000401A70BD1846FBE7002004E0C06C000826
:101BC000A06C0008124B5A8842F201018A4293B27B
:101BD00014D0B3F5805F13D041F20102934211D0CB
:101BE00041F2030293420FD041F2070293420DD11A
:101BF0000423084A02EB8303D87870470023F8E7F0
:101C00000123F6E70223F4E70323F2E700207047FD
:101C1000002004E0AC6C0008022802D1044B98615B
:101C20007047012802BF024B08229A61704700BF2B
:101C300000040240022804D14FF40032034B9A61A1
:101C400070470128FCD14FF40022F7E7000402405E
:101C5000022805D1064A536983F002035361704795
:101C60000128FCD1024A536983F00803F6E700BF5C
:101C70000004024010B50023934203D0CC5CC4544E
:101C80000133F9E710BD000030B5441E14F9010F0F
:101C90000B4660B193F90050854201F1010106D174
:101CA0001AB993F90020801A30BD013AEEE7002AF4
:101CB000F7D1104630BD000002460346981A13F9CA
:101CC000011B0029FAD1704702440346934202D017
:101CD00003F8011BFAE770472DE9F047234C94F80D
:101CE000243005468846174683BB2E46DFF87C9095
:101CF000C7B394F824302BB92022FF21484626622E
:101D0000FFF7E2FF94F82400C0F10805BD4228BFA8
:101D10003D465FFA85FAAD0041462A4604EB800055
:101D2000FFF7A8FF94F82430A7EB0A079A445FFA5C
:101D30008AFABAF1080F2E44A844FFB284F824A00E
:101D4000D6D1FFF7CDFE0028D2D108E0266A06EBF7
:101D50008306B042CAD0FFF7C3FE0028C5D10020D9
:101D6000BDE8F0870120BDE8F08700BFC44A00202D
:101D7000024B1A78024B1A70704700BF004B0020CC
:101D80000827002038B5134C134D204602F0AAFA5C
:101D90002946204602F0D2FA2D6810486A6D936BEE
:101DA00023F40023936303F013F80D49284602F04F
:101DB000D1FB6A6D0B48936B0B4943F4002393638B
:101DC000A0424FF4E1330B6003D0BDE8384002F08D
:101DD000E7B938BD30520020D871000840420F00EA
:101DE000007200088C4B0020EC4A002038B50B4BE9
:101DF0001A780B4B53F822400A4B9C4205460CD0F4
:101E0000094B002118461422FFF75EFF05600146CA
:101E10002046BDE8384002F0C3B938BD004B002071
:101E2000F06C000830520020EC4A0020202383F39D
:101E3000118862B670470000002383F3118862B6F0
:101E40007047000001207047002070470020704755
:101E50000020704770470000002070470E20704738
:101E600000F586500078C0F340007047F8B51F4673
:101E70000B68BDF8185013F00054164669D10B7B5F
:101E8000082B66DCFFF7D2FFC26893685B015CD465
:101E900093681C0157D4936813F0805357D00223E2
:101EA0000C6803F1180E002CB8BFE4004FEA0E1EB8
:101EB000B4BF44F00404640542F80E400C680FFA05
:101EC00083FE14F0804F18BF02EB0E1C02EB0E1EB7
:101ED0001EBFDCF8804144F00204CCF880410C7B4A
:101EE000CEF8844102EB03128C68C2F88C414C6836
:101EF000C2F88841DEF8802142F00102CEF880214C
:101F000003F1830200EB4212C2E9006701F10C0405
:101F1000083251F8046B42F8046BA142F9D100EB8E
:101F200043130978117003F5835301201A7F65F379
:101F30000002C5F3400565F341026FF3C3021A774F
:101F4000FFF77AFFF8BD0123AAE72346A8E7184662
:101F5000F6E74FF0FF30F8BD08B5FFF767FF41F235
:101F60005403C05800F0F6FCBDE80840FFF764BF1A
:101F700038B5044600680D4600F016FD1F2809D943
:101F800020222946206800F087FDA0F12003584256
:101F9000584138BD002038BD002202600273426003
:101FA0008260704710B500220023C0E9002300239F
:101FB000044603810C30FFF7EFFF204610BD000000
:101FC0002DE9F041064688B041F254050C46904692
:101FD0001F46FFF72BFF6846FFF7E4FF705900F03C
:101FE000CBFC1F2805D80020FFF726FF08B0BDE86E
:101FF000F08120226946705900F0D6FD2028F2D1E8
:1020000003AA234605AD144603CCAC4218605960C0
:10201000224603F10803F6D12068186022791A716C
:10202000DDE90023C8E90023BDF808303B8001202A
:10203000DAE70000264B2DE9F047044640F8103B54
:102040008946FFF7A9FF04F12000FFF7ABFF04F179
:102050004006354604F5825728462035FFF7A2FF93
:10206000BD42F9D14FF4805341F248026B60002326
:102070002E60A35041F24C0241F25401A35060186B
:1020800001222A7404F5865A655004F583550271BD
:1020900008350AF1080A00260027984645E9026734
:1020A0002846FFF779FF203545F8108C5545F5D1C6
:1020B00041F2C80304F80390B9F1000F02D00548BB
:1020C00000F00EFC044BE3602046BDE8F08700BF43
:1020D000406D0008246D0008006400402DE9F041C7
:1020E00079B1274B274FB7FBF1F4994294BF1023E6
:1020F0000923581CB4FBF0FE00FB1E4038B1022B34
:1021000002DC0020BDE8F081013BDBB2F1E70EF11B
:10211000FF36B6F5806FF4D2C3EBC30C0CF10300AD
:10212000C010C5B25C1B0130E4B24FF47A7808FBF2
:1021300000F8204498FBF0F080B2B0F5617F08D938
:102140000CF1FF354FF0080C95FBFCF5EDB25B1B75
:10215000DCB22B1903FB0EEEB7FBFEFE7145D0D1AE
:10216000691EC9B20F29CCD8631EDBB2072BC8D8B1
:10217000002090701680D17013710120BDE8F081AD
:102180003F420F0080DE800270B505460E464FF4D8
:102190007A74EB685B6803F00103B34207D04FF435
:1021A0007A7002F015FE013CF3D1204670BD01208B
:1021B00070BD0000F0B5032989B005460C4647DC28
:1021C00000F5865066010378C3F38001002908BF3B
:1021D000114661F382030370AB1903F5835318337F
:1021E0001B79D80732D5002A32D0190723D4684684
:1021F000FFF7D8FE05EB441303F5835303F11007F3
:1022000003AA083318685968144603C40833BB424C
:102210002246F7D1186820601B792371DDE90E236F
:1022200005F58250CDE90023694601231430ADF84D
:102230000830FFF79DFE354405F5835518352B7999
:102240001A075CBF43F008032B7101E0002AF2D1AA
:1022500009B0F0BD70B5C268936913F0700F17D064
:1022600000230C4D936141F2780400EB43122244A9
:1022700011794E0709D5890707D5C16855F823603C
:102280008E60117941F0040111710133032BECD1FF
:1022900070BD00BF186D0008D3B51F46C368164651
:1022A0009A68D207044609D59A6801219960C2F359
:1022B0004002CDE900670021FFF77CFFE3689A68E0
:1022C000D1050BD59A684FF480719960C2F3402212
:1022D000CDE9006701212046FFF76CFFE3689A68AB
:1022E000D2030BD59A684FF480319960C2F3404213
:1022F000CDE9006702212046FFF75CFF204602B0CF
:10230000BDE8D040FFF7A6BFF8B51F460446164605
:10231000C368002966D1D86803F10C02800765D034
:10232000106803EB011003EB0111D0F8B05115F068
:10233000040FD0F8B05116BFED086D0D45F0004503
:102340002561D0F8B051AD0742BF256945F0804501
:102350002561D0F8B40100F00F002077D1F8B83132
:102360002375D1F8B8311B0A6375D1F8B8311B0C4D
:10237000A375D1F8B8311B0EE375D1F8BC312376C3
:10238000D1F8BC311B0A6376D1F8BC311B0CA376A3
:10239000D1F8BC311B0EE3763823136004F11C0125
:1023A00004F1100304F12C0253F8040B42F8040B5F
:1023B0008B42F9D11B78137004F5825000232385DA
:1023C000C4E9086704F120011430FFF7D1FD04F5DA
:1023D00086522046137843F004031370BDE8F8409A
:1023E000FFF738BF03F11002186997E7F8BD000046
:1023F00010B5044600F07EFA02460B4652EA03018D
:1024000003D012F1FF3243F1FF330449086820B1D1
:102410002146BDE81040FFF777BF10BD044B0020F8
:102420002DE9F84F99469046FFF700FD124C00F554
:102430008356002341F2780700EB431139440A79AF
:1024400055070FD4D2060DD5D6E900ABCB4508BF52
:10245000C24507D2C26854F8235095600A7942F009
:1024600004020A710133032B06F12006E4D1BDE812
:10247000F84FFFF7E1BC00BF186D000808B5FFF783
:10248000D5FCFFF7E7FEBDE80840FFF7D5BC00002C
:102490002DE9F041C3680646986800F0E050B0F1BD
:1024A000E05F0F4619D010B3FFF7C0FC06F5835468
:1024B0000834002541F2780806EB451343441B79A4
:1024C0001A070DD45B070BD42146384600F014FAE6
:1024D00030B9FFF7B1FCBDE8F0810120BDE8F08123
:1024E0000135032D04F12004E6D10120F1E7BDE818
:1024F000F081000008B5FFF799FC41F25403C05881
:1025000000F03AFAFFF798FC1F288CBF002001204A
:1025100008BD0000F8B51D46002313700F4606469F
:102520001446FFF7E7FF80F00100387025B1294617
:102530003046FFF7ADFF2070F8BD0000F8B50D463E
:1025400016461F46044600F0D1F92B7802460BB917
:10255000307868B100232046FFF762FF2046FFF77E
:102560008DFF20463B4632462946FFF7D3FF012028
:10257000F8BD000010B5FFF759FC41F2C803C35C79
:1025800063B9184B1A6C42F000721A641A6A42F06E
:1025900000721A621A6A22F000721A62FFF74CFC8B
:1025A00000F586542378DB071AD4C9B1FFF73EFC47
:1025B00041F2C803C35C5BB90221132001F026FC81
:1025C0000221142001F022FC0221152001F01EFC42
:1025D000237843F001032370BDE81040FFF72CBCC3
:1025E00010BD00BF003802402DE9F04341F2C8039E
:1025F00089B0C35C012B04468846174600F3FA8075
:102600007D4D55F823200AB945F823002E68C4F8FB
:10261000048027724EB941F2D00004F0D3F831465D
:102620008146FFF707FDC5F8009041F2C803E35C5F
:10263000012B60D001212046FFF79CFFFFF7F6FB3E
:10264000E268136823F002031360E268136843F042
:1026500001031360E36800255D61FFF7EDFB0121D5
:102660002046FFF791FD002800F0868041F25403D8
:102670002E46E05800F06EF9202200216846FFF750
:1026800023FB02A8FFF788FC0DF1200C05F583530E
:102690004CF8086D6A4623449646BEE80300E645BA
:1026A00018605960724603F10803F5D1DEF80000A6
:1026B000186020359EF804201A71602DDCD104F5D5
:1026C000865600253378ADF800506FF382033370DF
:1026D0006A46414620468DF802508DF803508DF829
:1026E0000450FFF7FBFCE368C0B94FF400421A60E6
:1026F00009B0BDE8F083286803681B6B9847014662
:10270000002897D12868FFF735FF286803683A4604
:102710001B684146984700288CD1E9E761221A607E
:102720009DF802309DF80310E2681B06090401F4CD
:10273000702103F040730B43BDF80010C1F3090191
:102740000B439DF80410090501F4E001022F43EA50
:1027500001030CBF4FF0004100210B43D361E3683C
:1027600013225A61E268136823F0010313602946BB
:102770002046FFF709FD08B9E368B6E741F2C80350
:10278000E15C91BBE268D2F8003243F00103C2F889
:102790000032E268D2F8003223F47C5323F00E03B7
:1027A000C2F80032E268D2F8003243F46063C2F843
:1027B0000032E368C3F81412E368C3F80412E36854
:1027C00041F6FF72C3F80C22E368C3F84012E368D5
:1027D000C3F84412E3680122C3F81C22E268D2F86D
:1027E000003223F00103C2F80032337843F00203D1
:1027F00033707DE700207BE7044B002008B500F034
:1028000079F802460B4652EA030103D012F1FF3277
:1028100043F1FF330449086808B1FFF73DFDBDE807
:10282000084001F0AFB900BF044B002008B50020FC
:10283000FFF7DEFDBDE8084001F0A4B908B50120AE
:10284000FFF7D6FDBDE8084001F09CB90FB40020A9
:1028500004B070470FB44FF0FF3004B07047000071
:10286000FEE7000000B59BB0EFF3098168226846DF
:10287000FFF700FAEFF30583034B9A6B9A6A9A6AA3
:102880009A6A9A6A9B6AFEE700ED00E000B59BB089
:10289000EFF3098168226846FFF7ECF9EFF305834F
:1028A000044B9A6B9A6A9A6A9A6A9A6A9A6A9B6ABB
:1028B000FEE700BF00ED00E000B59BB0EFF309813B
:1028C00068226846FFF7D6F9EFF30583034B5A6B8E
:1028D0009A6A9A6A9A6A9A6A9B6AFEE700ED00E031
:1028E0000FB408B5029802F0BFF9FEE702F0C2BDCE
:1028F00002F0DCBD02F09ABD10B509680468C80F8B
:10290000B0EBD47F24F0604221F060430BD0002C68
:10291000B8BF920C0029B8BF9B0C9A420FD034BFAD
:102920000120002010BD9A4205D1C1F38070C4F38C
:102930008074844203D19A422CBF0020012010BD34
:1029400010B5037C044613B9006803F099FF2046D4
:1029500010BD00000023BFF35B8FC360BFF35B8F2C
:10296000BFF35B8F8360BFF35B8F7047BFF35B8FF9
:102970000068BFF35B8F704770B506460C30FFF7F9
:10298000F5FF06F1080504462846FFF7EFFF8442ED
:1029900006D228467668FFF7E9FF3444201A70BD56
:1029A0002846FFF7E3FFF9E770B50546406898B1A0
:1029B00005F10800FFF7DAFF05F10C060446304682
:1029C000FFF7D4FF8442304694BF6D680025FFF7BF
:1029D000CDFF013C2C44201A70BD000038B50C46D8
:1029E0000546FFF7C9FFA04210D305F10800FFF725
:1029F000BDFF6B68BFF35B8F2044B0FBF3F403FBB8
:102A00001400A860BFF35B8F012038BD002038BDE3
:102A10002DE9F041144680460D46FFF7C5FF84427C
:102A200028BF0446DCB1474657F80C6B3846FFF721
:102A30009DFF304428603846D8F80460FFF796FFC1
:102A4000301AA0423BBF6860D8F800306C60241A8E
:102A50003BBFAB60EC6001200220BDE8F081204666
:102A6000BDE8F08138B50C460546FFF79DFFA04252
:102A700010D305F10C00FFF779FF6B68BFF35B8F94
:102A80002044B0FBF3F403FB1400E860BFF35B8F5A
:102A9000012038BD002038BD2DE9F04385B08846BF
:102AA00069460746FFF7B4FF0026814601AD34466C
:102AB0004E4505F108050CDA08EB040155F8082C21
:102AC00055F80C0CFFF7D6F855F8083C01361C44B5
:102AD000EEE721463846FFF7C5FF204605B0BDE8C2
:102AE000F0830000F8B506460C300F46FFF73EFFB6
:102AF00006F1080504462846FFF738FF84422846B9
:102B000038BF7468FFF732FF201A386020B12846BA
:102B10003468FFF72BFF2044F8BD000073B514465E
:102B200006460D46FFF728FF844228BF0446019061
:102B3000DCB101A93046FFF7D5FF019B33B93268FC
:102B4000AB6085E81400EB6001200CE0A34288BF75
:102B50000194286001986860A042F5D23368AB60A8
:102B6000241AEC60022002B070BD2046FBE7000092
:102B70002DE9FF410F466946FFF7D0FF002480464C
:102B8000254644450BDA0DEBC4035DF834105E684E
:102B900078193246FFF76EF835440134F1E72846DC
:102BA00004B0BDE8F081000038B50546FFF7E0FF4E
:102BB000044601462846FFF711FF204638BD0000B5
:102BC00030B5084D0A4491420BD011F8013B09245D
:102BD0005840013CF7D040F300032B4083EA5000FB
:102BE000F7E730BD2083B8ED0246006848B10368BE
:102BF0001360D388118901339BB29942D38038BFC7
:102C00001381704770B588B00D460446202200211C
:102C10006846FFF759F820460495FFF7E5FF05469B
:102C200058B16B46044608AE1A4603CAB242206049
:102C30006160134604F10804F6D1284608B070BD5F
:102C40002DE9F04130B9274B274A40F2C5312748DA
:102C500003F0E2FD0B7C23B9254B234A40F2C63139
:102C6000F5E7C66986B9C161BDE8F081002B29DAB4
:102C7000930CAB4229D1B44201D10C60F3E7C8F800
:102C800000100C60BDE8F0814B6823F06047BD0C7C
:102C90004FEAD37EC3F3807C15EA230538BF3D4657
:102CA000B04634466368BEEBD37F23F06042DDD18B
:102CB000974203D1C3F380739C450AD1974205E044
:102CC0001C46EFE7AA4206D013469D422CBF0023C4
:102CD0000123002BCFD12368A046002BF0D1216027
:102CE000BDE8F08104700008F86D0008BC700008B1
:102CF000DD70000808B5034A034B044840F25E311A
:102D000003F08AFDD46D00087C700008BC700008D8
:102D100008B503680B60C388016033B9044B054AEA
:102D200005484FF4C76103F077FD013BC38008BD40
:102D30004C700008486E0008BC70000870B50C4666
:102D400000F10C05616831B9E38A61F30903E3829C
:102D50000020002170BD0E682846FFF7D9FF66608D
:102D6000F0E7000008B5426832B10B4B0B4A0C4843
:102D700040F22F4103F050FDC37DC3F384010131C4
:102D800061F38603C375C38A62F30903C3821B0A16
:102D900062F3C713C37508BD98700008046E00087D
:102DA000BC7000082DE9F047089E32B91F4B204A3D
:102DB000204840F2395103F02FFD01F007054FEA9A
:102DC000D6082A4406F0070600EBD1004FF47F49ED
:102DD000954201D1BDE8F08705F0070E06F0070A1D
:102DE000D645774638BF5746C7F10807511BEC0850
:102DF0008F4228BF0F46045D08EBD60104FA0EF49B
:102E000013F801C029FA07FE24FA0AF45FFA8EFECD
:102E10008CEA04044EFA0AFE04EA0E048CEA040C5E
:102E200003F801C03D443E44D2E700BF18700008DB
:102E30001C6E0008BC7000082DE9F04106460F46E4
:102E400000254FF6FF7441F221082A4630463946E4
:102E5000FDF7CAF9C0B284EA0024082314F4004F35
:102E60004FEA4404A4B203F1FF3318BF84EA080414
:102E700013F0FF03F2D10835402DE6D12046BDE81E
:102E8000F081000010B50A4441F22104914200D1C2
:102E900010BD11F8013B80EA0320082310F4004F15
:102EA0004FEA400080B203F1FF3318BF604013F0D7
:102EB000FF03F3D1EAE700002DE9F04F85B08A4621
:102EC0008DE80C00BDF83C40814630B9494B4A4A78
:102ED00040F26E31494803F09FFC11F0604F04D07E
:102EE000474B454A40F26F31F4E7009B002B7ED000
:102EF00024B10E9B002B7AD0072C28D809F10C00A6
:102F0000FFF772FE054628B96FF00205284605B0A6
:102F1000BDE8F08F14220021FEF7D6FE22460E995E
:102F200005F10800FEF7A6FE631C2B74009B1B78BE
:102F30002C4403F01F0363F03F0323724AF0004365
:102F40006B6029464846FFF77BFE0125DEE7019BC3
:102F50001B0A4FF00008029300F10C034FF0800BA6
:102F60004646454603930398FFF73EFE0746002872
:102F7000CAD014220021FEF7A7FEB6BB9DF804308C
:102F80003B729DF808307B7202220E9B711E194421
:102F9000B4420AD9B8180132D2B211F801EF80F860
:102FA00008E00136072AB6B2F2D1009B197801F089
:102FB0001F01B44208BF4FF0400BB81841EA481156
:102FC0004BEA0103037201324AF000437B603A741A
:102FD00039464846FFF734FE0135B4422DB288F039
:102FE00001084FF0000BBED190E70022CDE76FF053
:102FF00001058BE704700008E86D0008BC7000084C
:10300000287000082DE9F0471E46CB8A9146C3F38D
:103010000902062A80460F4619D013460021B0B295
:103020008DB25A1992B2052A09D9A84210D8FA8A43
:10303000034463F30902FA820120BDE8F087A84245
:10304000F3D93A4419F8014094760131E8E70025B4
:10305000FB8A7C68C3F30900821F1C23B2FBF3FACE
:1030600003FB1A2A1FFA8AF27CB301212368002B82
:1030700039D1B31F03441C20B3FBF0F301339BB2DF
:1030800099420CD2BAF1000F09D14046FFF7ACFDCE
:1030900008B1C0F800A0206008B304460022B6B210
:1030A0004FF0000AB54230D2691E49441346E01879
:1030B00001339BB211F801EF80F804E001351C2BBD
:1030C000ADB214D0AE42F2D8ECE74046FFF78CFD2B
:1030D000044608B1002303607C60002CDED16FF051
:1030E0000200BDE8F087013189B21C46BEE7AE425E
:1030F000D8D94046FFF778FD08B1C0F800A020609D
:103100000028ECD004460022CCE7FB8AC3F3090276
:10311000164466F30903FB828EE70000F8B50E46FD
:1031200015461F46044628B9144B154A15484F2129
:1031300003F072FB24220021FEF7C6FD069B6360AC
:10314000079B23626A094FF6FF739A424FF0000013
:1031500028BF1A46A7602070A061E06197B204F111
:103160000C05824205D100232B6027826382A38253
:10317000F8BD2E60013035462036F2E700700008B9
:10318000746D0008BC70000808B528B9084B094ADE
:103190007321094803F040FB037823B94BB2002B9D
:1031A00001DD017008BD054B024A7D21F1E700BF3A
:1031B00004700008806D0008BC700008486F0008AB
:1031C000007870472DE9F7430D9EBDF828900B9DC0
:1031D0009DF83040BDF8388007461946104616B9AC
:1031E000B8F1000F43D11F2C41D83B78D3B9B8F1C7
:1031F000070F39D839F0030339D1424631464FF62B
:10320000FF70FFF73FFE4FEA092920F0010009F4A3
:103210004079400449EA0464400C44EA40244FF6F3
:10322000FF730DE043EA0923B8F1070F43EA046492
:10323000F5D9FFF701FE42463146FFF723FE03466C
:103240008DE840012A4621463846FFF735FE0DB984
:10325000FFF750FD2B780133DBB21F2B88BF002313
:103260002B7003B0BDE8F0836FF00300F9E76FF057
:103270000100F6E72DE9F7430E9F0B9D9DF8348082
:10328000BDF83C6081469DF8300007B9C6BB1F28D9
:1032900036D899F800E0BEF1000F34D00C0244F0AB
:1032A00080049DF8281044EAC83444EA014444EA02
:1032B0000E04072E44EA006415D919461046FFF79C
:1032C000BBFD32463946FFF7DDFD03460196009708
:1032D0002A4621464846FFF7EFFDB8F1010F0CD111
:1032E00025B9FFF707FD4FF6FF73EFE72B780133A2
:1032F000DBB21F2B88BF00232B7003B0BDE8F08327
:103300006FF00100F9E76FF00300F6E7C06900B164
:1033100004307047C1690B68C3610C30FFF7F8BC1B
:103320002DE9F84FD0F818A0DFF86C800546164656
:103330001F4654464FF0000900F10C0B0CB9BDE8D4
:10334000F88FD4E90223B21A67EB0303994508BF4B
:1033500090451FD2AB699C42214628460DD1FFF70C
:10336000EDFCAB691B68AB6121465846FFF7D0FC0A
:10337000AC692346A2461C46E0E7FFF7DFFC236862
:10338000CAF8003021465846FFF7C2FC5446DAF826
:103390000030EFE72368EDE780841E002DE9F04F51
:1033A0008BB00D4614460793DDF8509082460028F6
:1033B00000F06481B9F1000F00F06081531E3F2BD3
:1033C00000F25C81012A03D1079B002B40F056815B
:1033D000BAF81460F6000023B5420893099380F010
:1033E00053812B199E420AD2761B16F0FF0607D195
:1033F000AB4BAC4A40F26751AB4803F00DFA26469E
:10340000DAF80C3023B9DAF81030002B00F0A58080
:103410002F2D31D8C5F1300846454FF000032CBFA1
:103420005FFA88F8B0460093294608AB4246DAF8BE
:103430000800FFF7B7FCA6EB08074544FFB2BAF84F
:10344000143003F10053063BDB000293DAF80C3032
:1034500005934FF0300B059B002B51D087B9DAF85C
:103460001000002861D0002F5FD0AB4550D98F4BA2
:103470008C4A40F2A651BFE737464FF00008DEE71E
:10348000029B23B98A4B874A4FF4B161B4E7029B90
:10349000E02B28BFE02306935B44AB4204931DD985
:1034A0005B1B9F4226BFDBB203930397AB4504D956
:1034B0007E4B7C4A40F291519EE70598CDF8008002
:1034C00008ABA5EB0B01039A0430FFF76BFC039BE1
:1034D0009844FF1A1D445FFA88F8FFB2049B9B458D
:1034E00004D3744B6F4A40F29B5185E7029B069AC6
:1034F000DDF810B09B1A0293059B1B680593AAE7A1
:10350000029BBB42ABD26C4B664A40F2A15173E7BF
:10351000CDF800803A46A5EB0B0108ABFFF742FC63
:10352000B8443D445FFA88F80027BAF81430B5EB88
:10353000C30F04D9614B5B4A40F2B1515CE7B8F16B
:10354000400F04D95E4B574A40F2B25154E767B17D
:103550005C4B544A40F2B3514EE70093324608ABFD
:103560002946DAF80800FFF71DFC731E3F2B35B221
:1035700001D8A64204DD544B544A40F235213BE7C2
:1035800060070AD00AAB03EBD401624211F8083C91
:1035900002F00702134101F8083C082C21D9102C35
:1035A00021D9202C8CBF08230423079A002A6DD030
:1035B000B4EBC30F6CD0082C04F1FF3215D89DF882
:1035C000203023FA02F2D10706D54FF0FF3202FA7B
:1035D00004F423438DF820309DF8203089F8003022
:1035E0004EE00123E1E70223DFE7102C11D8BDF8FC
:1035F000203023FA02F2D20706D54FF0FF3202FA4A
:1036000004F42343ADF82030BDF82030A9F8003091
:1036100036E0202C0ED8089921FA02F2D30705D5FE
:103620004FF0FF3303FA04F40C430894089BC9F8E5
:10363000003025E0402C1CD0DDE9086730463946D3
:10364000FCF7D2FD002100F0010050EA01030BD08D
:10365000224601200021FCF7D3FD404261EB4101ED
:1036600006430F43CDE90867DDE90823C9E90023D4
:1036700006E0174B154A4FF42071BDE66FF00105C7
:1036800028460BB0BDE8F08F1D46F9E7012CA3D00A
:10369000082CA1D9102CB7D9202CE5D8C6E700BF3B
:1036A000546E00082C6E0008BC700008766E00088E
:1036B000636E00089B6E0008C36E0008EA6E000887
:1036C000186F0008306F00084A6F0008AC6D0008E2
:1036D000486F000830B585B030B9244B244A40F219
:1036E000B121244803F098F823B9234B204A40F233
:1036F000B221F6E7402A04D9204B1D4A40F2B621F8
:10370000EFE722B91D4B1A4A4FF42F71E9E7002465
:10371000012A0294039417D11B788DF808305307BF
:103720000AD004AB03EBD203554213F8084C05F062
:103730000705AC4003F8084C00910346002102A89D
:10374000FFF730FB05B030BD082AE5D9102A03D8B1
:103750001B88ADF80830E2E7202A02D81B680293E4
:10376000DDE7D3E90045CDE90245D8E7846F0008DD
:10377000C06D0008BC7000089F6F0008486F00080B
:1037800070B50C4600F10C05E16819B9A160216122
:10379000A18270BD0E682846FFF7BAFAE660F3E72B
:1037A0002DE9F04FD1F8009091B0C9F3C01604464E
:1037B0000D46CDE90223002E50D0C9F3C03BC9F31A
:1037C0000626B9F1000F80F29F8119F0C04F40F03A
:1037D0009B812B7B002B00F09781BBF1020F03D064
:1037E0002278B24240F0938109F07F02BBF1020FD0
:1037F000059236D119F07F0FC9F30F2A01D10AF0D3
:10380000030A2B447606059A93F8038046EA0B4692
:1038100046EA82465FEAD81346EA0A06069300F0B3
:103820009A800022002310A961E90823059B0093D8
:1038300067685B4652462046B847002800F08880FB
:10384000A7698FB9314604F10C00FFF7DBF9074691
:10385000D0B96FF0020011B0BDE8F08F4FF0020B4D
:10386000AFE7C9F3074ACCE73B699E420DD03F68FA
:10387000002FF9D1314604F10C00FFF7C3F90746D8
:103880000028E6D0A3693B60A761DDE90801FFF7E6
:10389000D3FAB882F97D08F01F06C1F38401711ACA
:1038A00089B20FFA81FED7E90223BEF1000FB8BF3B
:1038B00001F1200EC9F30461B8BF0FFA8EFE079123
:1038C00052EA030100F02F81DDE90201801A61EB69
:1038D000030102460B469F480021994208BF9042CF
:1038E000C0F02181069B002B3FD0BEF1010F00F3F9
:1038F0001A8118F0400F38D0DDE90223C7E902230E
:10390000202200210DEB0200FEF7DEF9DDE90223A3
:10391000CDE908232B1D0A932B7BADF836A0013B84
:10392000DBB2ADF834309DF81C308DF83A309DF89C
:1039300014308DF83B3020468DF838B08DF8396062
:10394000A36808A998473846FFF70CFA002082E7D9
:103950006FF00B007FE7A76917B96FF00C007AE7EB
:103960003B699E4296D03F68F6E7FB7DC8F3401264
:10397000B2EBD31F40F0CE80C3F38403B34240F0D8
:10398000CC8006992B7B4FEA981279B3D2073CD4AE
:10399000032B40F2C580DDE90223C7E902232B7B1C
:1039A000AE1D033BDBB23246394604F10C00FFF793
:1039B00029FB002808DA39462046FFF7BFF93846C8
:1039C000FFF7D0F9032046E7AB883B832A7B033A15
:1039D000D2B2B88A3146FFF755FAFB7DB882DA4396
:1039E000C2F3C01262F3C713FB75AFE76AB92E1DAD
:1039F000013BDBB23246394604F10C00FFF702FB13
:103A00000028D8DB2A7B013AE2E7FA8AC2F30902EE
:103A1000013B052AD9B250D8281D002399420AD962
:103A200007EB020E013210F801CB8EF81AC00133F9
:103A3000062ADBB2F2D1DDE902898B4207F11A02D4
:103A4000CDE908890A9238BF04337A680B9234BFF3
:103A50005B1900230C93FB8AADF836A0C3F309036E
:103A600019449DF81C308DF83A309DF814308DF8CB
:103A70003B300023ADF834108DF838B08DF8396044
:103A80007B602A7BB88A013A291DFFF7FBF93B8B43
:103A9000B882834203D1A36808A92046984708A9A1
:103AA0002046FFF76DFE3846FFF75CF9B88A3B8B7E
:103AB000984214BF11200020CDE6786810B34FF073
:103AC000060E03689BB9A2EB0E021B2A13D8033221
:103AD000024405F1040E1F309942ACD91EF801CB07
:103AE00002F801CF01339042DBB2F5D1A3E70EF12A
:103AF0001C0E1846E5E7184B184A194840F2B31156
:103B000002F08AFE034696E76FF00900A3E66FF025
:103B10000A00A0E66FF00D009DE66FF00E009AE639
:103B20006FF00F0097E6FB7D68F386036FF3C71312
:103B3000FB7539462046FFF701F9069B002B7FF401
:103B4000D8AEFB7DC3F38402013262F38603FB75BA
:103B500003E700BF80841E00B46F0008986D000862
:103B6000BC700008064A536823F001035360EFF36A
:103B70000983683383F30988002383F3118870472E
:103B800030EF00E010B5202383F31188104B5B6801
:103B900013F4006318D0F1EE103AEFF309844FF0FC
:103BA000807344F84C3C0B4BDB6844F8083CA4F1B0
:103BB000680383F3098800F0EDFF18B1064B44F861
:103BC000503C10BD054BFAE783F3118810BD00BFD0
:103BD00000ED00E030EF00E0790600087C06000808
:103BE000002304491A465A50C8180833802B4260F3
:103BF000F9D170470C4B0020024AD36843F0C00350
:103C0000D360704700440040044B5A6810439A68E0
:103C100058600AB1181D1047704700BF8C4B002038
:103C20002DE9F0413D4ED6F85C54EF682B68DA057B
:103C30009CB20CD5202383F311884FF40070FFF75A
:103C4000E3FF6FF480732B60002383F3118820233C
:103C500083F31188DFF8C48014F02F0331D183F38C
:103C60001188380613D5210611D5202383F3118836
:103C70002B4800F0F3F9002844DA0820FFF7C4FFCE
:103C80004FF67F733B40EB60002383F311887A0685
:103C90000DD563060BD5202383F31188F26C336DA9
:103CA0009A4201D1336C7BBB002383F31188D6F891
:103CB0006424D3680BB110699847BDE8F041FFF761
:103CC00061BF230712D014F0080F0CBF0020802022
:103CD000E10748BF40F02000A20748BF40F0400085
:103CE000630748BF40F48070FFF78EFFA4066B683F
:103CF00005D596F860144046194000F05FFA2C682C
:103D0000A4B2A9E76860BFE727F040073F0410208E
:103D10003F0CFFF779FFEF60C6E700BF8C4B002038
:103D2000C44B002010B5054C054A0021204600F088
:103D300015FA044BC4F85C3410BD00BF8C4B002056
:103D4000F93B00080044004038B5294C037C0029A9
:103D500018BF0C46012B0546C0F8644410D1254B12
:103D600098420DD1244B1A6C42F400321A641A6E38
:103D700042F400321A660B2126201B6E00F046F832
:103D80001E4BD5F85C249A42236802D01C498A4213
:103D90002BD11C4901EB5301B1FBF3F3A1880804BB
:103DA00042BF23F0070003F0070343EA4003936098
:103DB000E38843F040039BB21361238943F001037E
:103DC0009BB2536141F4045343F02C03D36001F4DC
:103DD000A05100231360B1F5806F136853680CBFC6
:103DE0007F23FF2385F8603438BD0749D2E700BF41
:103DF000F87000088C4B0020003802400010014091
:103E00000014014000BD010580DE800200F1604326
:103E100000F01F02400903F5614309018000C9B2A7
:103E200000F1604083F8001300F5614001239340E6
:103E3000C0F8803103607047F8B51546826806699E
:103E4000AA420B46816938BF8568761AB542044696
:103E500007D218462A46FDF70DFFA3692B44A3613C
:103E60000DE011D932461846FDF704FFAF1B3A4664
:103E7000E1683044FDF7FEFEE2683A44A261A368BF
:103E80005B1BA3602846F8BD18462A46FDF7F2FEE4
:103E9000E368E4E783682DE9F04104469342154660
:103EA000266938BF85684069361AB5420F4606D282
:103EB0002A46FDF7DFFE63692B4463610DE012D9EA
:103EC0003246A5EB0608FDF7D5FE4246B919E06873
:103ED000FDF7D0FEE26842446261A3685B1BA36009
:103EE0002846BDE8F0812A46FDF7C4FEE368E4E712
:103EF00010B50A440024C361029B006040608460E6
:103F0000C160816141610261036210BD08B58269CF
:103F10004369934201D1826882B98268013282602A
:103F20005A1C42611970426903699A4201D3C368FD
:103F30004361002100F068FF002008BD4FF0FF3012
:103F400008BD000070B5202304460E4683F3118897
:103F5000A568A5B1A368A269013BA360531CA36136
:103F600015782269934224BFE368A361E3690BB12A
:103F700020469847002383F31188284670BD3146B8
:103F8000204600F031FF0028E2DA85F3118870BD89
:103F90002DE9F74F05460F4690469A46D0F81C90FB
:103FA000202686F311884FF0000B144664B1224698
:103FB00039462846FFF740FF034668B95146284670
:103FC00000F012FF0028F1D0002383F31188A8EB42
:103FD000040003B0BDE8F08FB9F1000F03D00190E9
:103FE0002846C847019B8BF31188E41A1F4486F3C7
:103FF0001188DBE7C16081614161C3611144009BAD
:10400000006040608260016103627047F8B5044659
:104010000E461746202383F31188A568A5B1A3682F
:10402000013BA36063695A1C62611E702369626967
:104030009A4224BFE3686361E3690BB12046984765
:10404000002080F31188F8BD3946204600F0CCFEF0
:104050000028E2DA85F31188F8BD0000836942691F
:104060009A4210B501D182687AB9826801328260C1
:104070005A1C82611C7803699A4201D3C368836128
:10408000002100F0C1FE204610BD4FF0FF3010BDF2
:104090002DE9F74F05460F4690469A46D0F81C90FA
:1040A000202686F311884FF0000B144664B1224697
:1040B00039462846FFF7EEFE034668B951462846C2
:1040C00000F092FE0028F1D0002383F31188A8EBC2
:1040D000040003B0BDE8F08FB9F1000F03D00190E8
:1040E0002846C847019B8BF31188E41A1F4486F3C6
:1040F0001188DBE7026843681143016003B1184788
:10410000704700001430FFF743BF00004FF0FF334B
:104110001430FFF73DBF00003830FFF7B9BF000093
:104120004FF0FF333830FFF7B3BF00001430FFF714
:1041300009BF00004FF0FF311430FFF703BF00004C
:104140003830FFF763BF00004FF0FF323830FFF721
:104150005DBF000000207047FFF7E4BD37B50F4B8F
:104160000360002343608360C3600123044603743B
:10417000154600900B464FF4007200F15C011430BC
:10418000FFF7B6FE00942B464FF4007204F517714A
:1041900004F13800FFF72EFF03B030BD0C710008AA
:1041A00010B52023044683F31188FFF7CDFD0223C9
:1041B0002374002383F3118810BD000038B5C36950
:1041C00004460D461BB904210844FFF793FF294616
:1041D00004F11400FFF79AFE002806DA201D4FF4C0
:1041E0008061BDE83840FFF785BF38BD026843688D
:1041F0001143016003B118477047000013B5446BC9
:10420000D4F894341A681178042915D1217C022934
:1042100012D11979128901238B4013420CD101A9C3
:1042200004F14C0001F068FFD4F89444019B21791B
:104230000246206800F0DAF902B010BD143001F037
:10424000EBBE00004FF0FF33143001F0E5BE00007C
:104250004C3001F0BDBF00004FF0FF334C3001F097
:10426000B7BF0000143001F0B9BE00004FF0FF31BD
:10427000143001F0B3BE00004C3001F089BF0000E3
:104280004FF0FF324C3001F083BF0000D0F894248F
:1042900038B5136819780429054601D0012038BDC6
:1042A000017C0229FAD112795C89012090400440F6
:1042B000F4D105F1140001F04BFE02460028EDD0C8
:1042C000D5F894544FF480732868697900F07CF92C
:1042D000204638BD406BFFF7D9BF00000020704773
:1042E000704700007FB5124B03600023436083607A
:1042F000C360012502260F4B05740446029001930A
:1043000000F18402294600964FF48073143001F0C6
:10431000FBFD094B0193029400964FF4807304F562
:104320002372294604F14C0001F0C2FE04B070BDB6
:1043300034710008D5420008FD4100080B682022B6
:1043400082F311880A7903EB820290614A7909327B
:1043500043F822008A7912B103EB820398610223A9
:104360000374C0F89414002383F31188704700008D
:1043700038B5037F044613B190F85430ABB9201D13
:1043800001250221FFF732FF04F1140025776FF0B9
:10439000010100F045FD84F8545004F14C006FF029
:1043A0000101BDE8384000F03BBD38BD10B501212A
:1043B00004460430FFF71AFF0023237784F85430B3
:1043C00010BD000038B504460025143001F0B4FDDE
:1043D00004F14C00257701F083FE201D84F8545031
:1043E0000121FFF703FF2046BDE83840FFF74EBF2D
:1043F00090F8443003F06003202B19D190F8452049
:10440000212A0AD0222A4FF000030ED0202A0FD1F1
:10441000084A82630722C26304E0064B83630723D2
:10442000C36300230364012070478363C363F9E718
:104430000020704709270020D0F8943437B51A6857
:104440001178042904461AD1017C022917D119795F
:10445000128901238B40134211D100F14C052846EB
:1044600001F0FEFE58B101A9284601F045FED4F83E
:104470009444019B21790246206800F0B7F803B00C
:1044800030BD000000EB8103F7B59C6905460E4680
:10449000F4B1202383F3118805EB8607201D082142
:1044A000FFF7A4FEFB685B691B684C3413B1204620
:1044B00001F030FE01A9204601F01EFE024648B17F
:1044C000019B3146284600F091F8002383F31188C0
:1044D00003B0F0BDFB685A691268002AF5D01B8A48
:1044E000013B1340F1D105F14402EAE7093138B547
:1044F00050F82140DCB1202383F31188D4F89424B0
:104500001368527903EB8203DB689B695D6845B1F0
:1045100004216018FFF76AFE294604F1140001F037
:1045200021FD2046FFF7B2FE002383F3118838BD3A
:104530007047000001F0E2B80123037000234360DC
:10454000C36183620362C362436203630381438185
:104550007047000038B50446202383F311880025F6
:104560004160C56005614561856101F0D7F80223AE
:10457000237085F3118838BD70B500EB81030546C3
:104580005069DA600E46144618B110220021FDF77A
:104590009BFBA06918B110220021FDF795FB314665
:1045A0002846BDE8704001F083B90000028902F09E
:1045B00001020281428902F001024281002202616D
:1045C0004261826101F008BAF0B400EB81044789CE
:1045D000E4680125A4698D403D43458123600023A3
:1045E000A2606360F0BC01F023BA0000F0B400EBFD
:1045F00081040789E468012564698D403D43058194
:1046000023600023A2606360F0BC01F09DBA00004B
:1046100070B50223002504460370A0F84C5080F8C2
:104620004E5080F84F5005814581C5600561456158
:10463000856180F8345001F0D7F863681B6823B1B6
:1046400029462046BDE87040184770BD436802788F
:104650001B6880F85020052202700BB10421184716
:1046600070470000436890F850201B6802700BB13F
:10467000052118477047000090F8343070B50446A3
:1046800013B1002380F8343004F14402204601F0D5
:10469000C5F963689B6863BB94F8445015F06006E5
:1046A00015D194F8453005F07F0545EA032540F221
:1046B00002339D4200F00E815BD8022D00F0DC80B9
:1046C0003FD8002D00F08780012D00F0CF80002121
:1046D000204601F0FBFB0021204601F0EDFB636862
:1046E0001B6813B1062120469847062384F834300E
:1046F00070BD204698470028CED094F84B2094F8FF
:104700004A3043EA0223E26B934238BFE36394F9F1
:104710004430E56B002B4FF0200380F2FD80002D2C
:1047200000F0EC80092284F8342083F31188002102
:10473000E36BA26B2046FFF759FF002383F3118838
:1047400070BDB5F5817F00F0B180B5F5407F49D0EF
:10475000B5F5807FBBD194F84630012BB7D1B4F8C2
:104760004C3023F00203A4F84C30A663E6632664C1
:10477000C3E740F201639D421ED8B5F5C06F3BD23E
:10478000B5F5A06FA3D1B4F84430B3F5A06F0ED146
:1047900094F8463084F84E30204601F07DF8636886
:1047A0001B6813B10121204698470323237000237F
:1047B000A363E3632364A0E7B5F5106F32D040F63E
:1047C00002439D4252D0B5F5006F80D104F14F03F2
:1047D000A363012324E004F14C03A3630223E363F6
:1047E00025648AE794F84630012B7FF470AFB4F863
:1047F0004C3043F00203B6E794F84920616894F81E
:1048000048304D6894F8471043EA0223204694F854
:104810004620A84700283FF45AAF4368A3630368C3
:10482000E363A4E72378042B10D1202383F31188BA
:104830002046FFF7BBFE86F31188636884F84F605B
:104840001B68032121700BB12046984794F846302D
:10485000002BACD084F84F300423237063681B68AE
:10486000002BA4D0022120469847A0E7374BA36332
:104870000223E36300239DE794F8481011F0800FB2
:10488000204601F00F010ED001F0BAF8012806D041
:1048900002287FF41CAF2E4BA363E06367E72D4B28
:1048A000A363E56363E701F09DF8EFE794F8463012
:1048B000002B7FF40CAF94F8483013F00F013FF455
:1048C00076AF1A06204602D501F014FB6FE701F01F
:1048D00007FB6CE794F84630002B7FF4F8AE94F8B1
:1048E000483013F00F013FF462AF1B06204602D59B
:1048F00001F0ECFA5BE701F0DFFA58E7142284F8E4
:10490000342083F311882B462A4629462046FFF798
:104910005BFE85F3118870BD5DB1152284F83420EB
:1049200083F311880021E36BA26B2046FFF74CFE56
:1049300003E70B2284F8342083F311882B462A46A0
:1049400029462046FFF752FEE3E700BF64710008E6
:104950005C7100086071000838B590F83430044686
:10496000152B29D8DFE803F03E28282828283E28E0
:10497000280B293928282828282828283E3E90F85E
:104980004B1090F84A20C36B42EA01229A4214D994
:10499000C268128AB3FBF2F502FB15356DB920230C
:1049A00083F311882B462A462946FFF71FFE85F31D
:1049B00011880A2384F8343038BD142384F8343045
:1049C000202383F3118800231A4619462046FFF757
:1049D000FBFD002383F3118838BD036C03B19847B6
:1049E0000023E7E7002101F071FA0021204601F0E1
:1049F00063FA63681B6813B10621204698470623B3
:104A0000D8E7000090F83420152A38B5044622D89B
:104A10000123934040F6416213421DD113F48015E7
:104A20000FD19B0217D50B2380F83430202383F35A
:104A300011882B462A462946FFF7D8FD85F31188B1
:104A400038BDC3689B695B682BB9036C03B1984799
:104A5000002384F8343038BD002101F037FA0021FA
:104A6000204601F029FA63681B6813B1062120462D
:104A700098470623EDE70000024B00221B605B60B5
:104A80009A607047F44F0020002303748268054B3E
:104A90001B6899689142FBD25A68036042601060BB
:104AA00058607047F44F002008B5202383F3118825
:104AB000037C032B05D0042B0DD02BB983F3118875
:104AC00008BD436900221A604FF0FF334361FFF7CE
:104AD000DBFF0023F2E790E80C001A6002685360E5
:104AE000F2E70000002303748268054B1B68996895
:104AF0009142FBD85A68036042601060586070476A
:104B0000F44F0020054B19690874186802681A6090
:104B10005360186101230374FBF79ABDF44F002022
:104B200030B54B1C87B005460A4C10D023690A4AA1
:104B300001A800F091F92846FFF7E4FF049B13B1A8
:104B400001A800F0C5F92369586907B030BDFFF727
:104B5000D9FFF8E7F44F0020A94A000838B50C4DFA
:104B600041612B6981689A689142044603D8BDE887
:104B70003840FFF789BF1846FFF786FF01232C61F5
:104B8000014623742046BDE83840FBF761BD00BFF5
:104B9000F44F0020044B1A681B6990689B68984288
:104BA00094BF002001207047F44F002010B5084C3E
:104BB000236820691A6822605460012223611A74F4
:104BC000FFF790FF01462069BDE81040FBF740BDAC
:104BD000F44F002008B5FFF7DDFF18B1BDE808402D
:104BE000FFF7E4BF08BD0000FEE7000010B5174C5A
:104BF000FFF742FF00F022F980221549204600F01D
:104C0000A7F8012344F8180C0374124B124AD96810
:104C100021F4E0610904090C0A431049DA60CA680A
:104C200042F08072CA600E490A6842F001020A60CE
:104C30001022DA77202283F82220002383F31188C0
:104C400062B60848BDE8104000F0A4B81C5000202F
:104C50006871000800ED00E00003FA05F0ED00E0E7
:104C6000001000E07071000808B572B6034B58627E
:104C700000F0CCFB00F07CFCFEE700BFF44F00200E
:104C80002DE9F84F1F4C4FF00008656904F1140737
:104C9000C1464FF08043266A5B6AAA689E1B964213
:104CA0001DD34FF0200AAA68236AD5F80CB013442C
:104CB00023622B68BB425F60A6EB02066361C5F806
:104CC0000C8001D101F0F6FA89F311882869D847E0
:104CD0008AF311886569AB689E42E4D2D9E76269BC
:104CE000BA420CD0916823628E1B9660A868022895
:104CF0002CBF1818981CBDE8F84F01F0E1BABDE8C8
:104D0000F88F00BFF44F0020EFF3118020B9EFF3CC
:104D10000583202282F311887047000010B558B92E
:104D2000EFF30584C4F3080414B180F3118810BDB7
:104D3000FFF750FF84F3118810BD0000034B596842
:104D40005A68521A9042FBD8704700BF001000E02A
:104D50008260022202740022427470478368A3F1C9
:104D60007C0243F80C2C026943F83C2C426943F85E
:104D7000382C074A43F81C2CC26843F8102C022236
:104D800003F8082C002203F8072CA3F11800704741
:104D90006906000810B5202383F31188FFF7DEFFB2
:104DA00000210446FFF7DAFE002383F31188204632
:104DB00010BD0000024B1B6958610F20FFF7A2BE17
:104DC000F44F0020202383F31188FFF7F3BF000086
:104DD00008B50146202383F311880820FFF7A0FEC1
:104DE000002383F3118808BD49B1064B42681B6953
:104DF00018605A60136043600420FFF791BE4FF0C3
:104E0000FF307047F44F00200368984206D01A68BC
:104E10000260506059611846FFF736BE70470000C7
:104E200038B504460D462068844200D138BD036879
:104E300023605C604561FFF727FEF4E7054B03F153
:104E400014025A619A614FF0FF32DA6100221A624D
:104E5000704700BFF44F0020F8B503614FF0804366
:104E6000C2605C6A194B1A46022952F8145F38BFB7
:104E70000221954206461F460AD1586198611C627C
:104E80000560456081600819BDE8F84001F00ABA84
:104E9000186AAB68241A0C1902D3E41A2D6804E0CE
:104EA0009C4202D2204401F00BFAAB689C42F4D839
:104EB0006B68736035601E606E60B460A9684FF007
:104EC000FF33091BA960FB61F8BD00BFF44F002050
:104ED00010B41B4C234653F8141F814210D0416874
:104EE00002680A60026851609A424FF00001C16096
:104EF00003D0936881680B4493605DF8044B70475E
:104F00000A68626100209A425360C86003D15DF86C
:104F1000044B01F0CFB993688868034493604FF065
:104F20008042206A526A121A9342E6D9991A0129DC
:104F300098BF931C18445DF8044B01F0C1B900BF41
:104F4000F44F00200C2303604FF0FF307047000047
:104F500000207047FEE70000704700004FF0FF3070
:104F600070470000022906D0032906D0012906480F
:104F700018BF0020704705487047032A9ABF0448AD
:104F800000EBC200002070475C720008107200083D
:104F90001027002070B59AB001AD06460846294694
:104FA000144600F095F82846FCF786FEC0B2431C74
:104FB0005B0086E81800237003236370002302342B
:104FC0001946DAB2904204F1020401D81AB070BD59
:104FD000EA5C04F8022C04F8011C0133F1E700003C
:104FE00008B5202383F311880348FFF725FA00232F
:104FF00083F3118808BD00BF3052002010B504466D
:10500000052916D8DFE801F016150316161D202312
:1050100083F311880E4A0121FFF7AEFA20460D4AAC
:105020000221FFF7A9FA0C48FFF7CCF9002383F31C
:10503000118810BD202383F311880748FFF798F9E2
:10504000F4E7202383F311880348FFF7AFF9EDE776
:1050500090710008B47100083052002038B50C4D32
:105060000C4C0D492A4604F10800FFF793FF05F1A7
:10507000CA0204F110000949FFF78CFF05F5CA7256
:1050800004F118000649BDE83840FFF783BF00BFB0
:10509000F856002010270020E0710008EA7100088F
:1050A000F571000870B5044608460D46FCF704FE8D
:1050B000C6B22046013403780BB9184670BD32469B
:1050C0002946FCF7E1FD0028F3D1012070BD000066
:1050D0002DE9F04704460D46FCF7EEFD2D49C6B21A
:1050E0002046FFF7DFFF08B10836F6B22A4920460E
:1050F000FFF7D8FF08B11036F6B2632E0BD8DFF8F1
:105100009480DFF89490254FDFF89CA0267846B96C
:105110002E70BDE8F08721462846BDE8F04701F033
:10512000E5BC252E31D1072241462046FCF7ACFDD7
:1051300080B91B4B2A4603F10C0153F8040B42F8CB
:10514000040B8B42F9D119889B7811809370073436
:105150000F35DBE7082249462046FCF795FDA0B94C
:10516000104BAA1C13F8011F09095345C95D02F829
:10517000021C197801F00F0102F10202C95D02F868
:10518000031CEFD118350834C0E72E700134013507
:10519000BCE700BF7C720008F5710008847200084B
:1051A0004A6C00080F7AFF1F1B7AFF1FBFF34F8F57
:1051B000024AD368DB03FCD4704700BF003C0240C6
:1051C00008B5094B1B7873B9FFF7F0FF074B1A6955
:1051D000002ABFBF064A5A6002F188325A601A6834
:1051E00022F480621A6008BD56590020003C02403B
:1051F0002301674508B50B4B1B7893B9FFF7D6FF22
:10520000094B1A6942F000421A611A6842F480524E
:105210001A601A6822F480521A601A6842F4806296
:105220001A6008BD56590020003C0240172870B58E
:1052300013D80B4A0B4C137863B90B4E4FF0006137
:1052400044F8231056F823500133182B2944F7D182
:105250000123137054F8200070BD002070BD00BF02
:10526000B85900205859002098720008014B53F893
:10527000200070479872000818207047172810B552
:10528000044601D9002010BDFFF7D0FF064B53F8AC
:1052900024301844C21A0BB9012010BD1268013223
:1052A000F0D1043BF6E700BF98720008172810B54C
:1052B000044629D8FFF77AFFFFF782FF1349F3234B
:1052C000CB600C23B0FBF3F203FB1200D30143EAE3
:1052D000C003DBB243F4007343F002030B610B69BC
:1052E00043F480330B61FFF761FF2046FFF79EFF19
:1052F000074B53F8241000F037F9FFF77BFF2046E7
:10530000BDE81040FFF7BABF002010BD003C0240CE
:10531000987200082DE9F84312F00103154640D1B8
:105320008218B2F1026F3CD22C4B1B6813F00103C0
:1053300037D02B4CFFF744FFF323E360FFF736FF32
:1053400040F20127032D01D9830713D0244C0F46C7
:10535000401A40F20118EB1B0B44012B00EB07062F
:10536000236924D823F001032361FFF743FF0120C1
:10537000BDE8F883236923F44073236123693B4329
:10538000236151F8046B0660BFF34F8FFFF70EFFE8
:1053900003689E4208D0236923F001032361FFF7CD
:1053A00029FF0020BDE8F883043D0430CAE723F458
:1053B00040732361236943EA08032361B94637F840
:1053C000023B3380BFF34F8FFFF7F0FE3688B9F80A
:1053D0000030B6B2B342BED0DDE700BF00380240B5
:1053E000003C0240084908B50B7828B153B9FFF7D3
:1053F000E7FE01230B7008BD23B1BDE8084008702B
:10540000FFF7F8BE08BD00BF5659002008B54FF49D
:1054100040314FF0005000F0A9F84FF480314FF0C8
:105420008050BDE8084000F0A1B8000070B5FFF75B
:105430006BFC0E4E4FF08043596A3368994210D28C
:105440000B4CD4E90023003243F10103C4E90023EB
:10545000541843F100053160FFF760FC20462946EF
:1054600070BD034BD3E90023F2E700BFBC59002015
:10547000C0590020D0B5FFF747FC4FF08042094BE0
:10548000546A1A68944207D2074AD2E90067003684
:1054900047F10107C2E900671C60FFF73FFC2046A7
:1054A000D0BD00BFBC590020C059002008B5FFF78F
:1054B000BDFF4FF47A720023FAF7AEFE08BD00BFBD
:1054C00010B50244064B0439D2B2904200D110BD4F
:1054D000441C00B253F8200041F8040FE0B2F4E796
:1054E00050280040104B30B51C6F240407D41C6FAB
:1054F00044F400741C671C6F44F400441C670B4C9C
:10550000236843F4807323600244094B0439D2B208
:10551000904200D130BD441C00B251F8045F43F802
:105520002050E0B2F4E700BF0038024000700040B5
:105530005028004007B5012201A90020FFF7C0FF55
:10554000019803B05DF804FB13B50446FFF7F2FFC2
:10555000A04206D002A9012241F8044D0020FFF725
:10556000C1FF02B010BD000070470000704700008E
:1055700070470000074B45F255521A6002225A60EC
:1055800040F6FF729A604CF6CC421A60024B012240
:105590001A70704700300040C9590020034B1B7837
:1055A0001BB1034B4AF6AA221A607047C959002062
:1055B00000300040034B1B689B0042BF024B01229E
:1055C0001A70704774380240C8590020024B4FF0DF
:1055D00080721A60704700BF74380240014B18781F
:1055E000704700BFC859002070470000FEE7000068
:1055F000084A094B09498B4204D3094A00219342C6
:1056000005D3704752F8040F43F8040BF3E743F84F
:10561000041BF4E7F8740008545A0020545A002080
:10562000545A0020836D30B500229D68446D1146A8
:105630004FF0FF3004EB421301329542C3F80019DA
:10564000C3F81019C3F80809C3F8001BC3F8101BEE
:10565000C3F8080BEED24FF00113C4F81C3830BD6C
:10566000890141F02001016103699B06FCD41220ED
:10567000FFF764BB204B03EB80022DE9F047D2F823
:105680000CE05D6DDEF81420461CD2F800C005EB7E
:10569000063605EB4018516861450BD3D5F8342820
:1056A000012303FA00F022EA0000C5F83408184686
:1056B000BDE8F087BEF81040ACEB0103A34228BF61
:1056C0002346D8F81849A4B2B3EB840F10D89468D5
:1056D0001F46A4F1040959F804AFC6F800A0042F2E
:1056E00001D9043FF7E71C440B4494605360D2E7B0
:1056F0000020BDE8F08700BFCC59002010B5054C54
:105700002046FEF719FF4FF0A0436365024BA365E7
:1057100010BD00BFCC5900201C7300080378012B7A
:1057200070B5054650D12A4B446D98421BD1294B88
:105730005A6B42F080025A635A6D42F080025A65F9
:105740005A6D5A6942F080025A615A6922F0800209
:105750005A610E2143205B69FEF758FB1E4BE36044
:105760001E4BC4F800380023C4F8003EC023236059
:105770006E6D4FF45023A3633369002BFCDA0123D1
:1057800033610C20FFF7DAFA3369DB07FCD412200F
:10579000FFF7D4FA3369002BFCDA0026A66028460E
:1057A000FFF740FF6B68C4F81068DB68C4F8146842
:1057B000C4F81C684BB90A4BA3614FF0FF33636117
:1057C000A36843F00103A36070BD064BF4E700BF7C
:1057D000CC59002000380240401400400300200251
:1057E000003C30C0083C30C0F8B5446D054600218F
:1057F0002046FFF735FFA96D00234FF001128F6897
:10580000C4F834384FF00066C4F81C284FF0FF305D
:1058100004EB431201339F42C2F80069C2F8006BE7
:10582000C2F80809C2F8080BF2D20B686A6DEB6582
:10583000636210231361166916F01006FBD1122063
:10584000FFF77CFAD4F8003823F4FE63C4F800387C
:10585000A36943F4402343F01003A3610923C4F870
:105860001038C4F814380A4BEB604FF0C043C4F84A
:10587000103B084BC4F8003BC4F81069C4F8003969
:10588000EB6D03F1100243F48013EA65A362F8BDE7
:10589000F872000840800010426D90F84E10D2F867
:1058A000003823F4FE6343EA0113C2F8003870475E
:1058B0002DE9F0410EB200EB86080D46D8F80C1029
:1058C0000F6807F00303022B50D0032B50D03D4A42
:1058D0003D4F012B18BF1746446D4FEA451E04EBA0
:1058E0000E030022C3F8102B8A6905F1100C002A60
:1058F00040D04A8A05F158035B013A43E250012344
:10590000D4F81C2803FA0CF31343A6444A69C4F8DC
:105910001C380023CEF8103905F13F03002A39D096
:105920000A8A898B9208012988BF4A43C16D04EB1A
:105930008303561841EA0242C66529465A6020464A
:10594000FFF78EFED8F80C301B8A43EA85531F43BD
:1059500005F148035B01E7500123D4F81C2803FA42
:1059600005F51543C4F81C58BDE8F081174FB3E79F
:10597000174FB1E704EB4613D3F8002B22F4004293
:10598000C3F8002BD4F81C28012303FA0CF322EAF5
:105990000303BAE704EB83030E4A5A6004EB46168E
:1059A00029462046FFF75CFED6F8003923F4004371
:1059B000C6F80039D4F81C38012202FA05F523EAAA
:1059C0000505CFE70080001000800410008008105B
:1059D00000800C1000040002826D1268C265FFF79F
:1059E00021BE00005831436D49015B5813F400405B
:1059F00004D013F4001F14BF0120022070470000E0
:105A00004831436D49015B5813F4004004D013F44E
:105A1000001F14BF012002207047000000EB81012D
:105A2000CB68196A0B6813604B68536070470000BD
:105A300000EB810330B5DD68AA691368D36019B93A
:105A4000402B84BF402313606B8A1468426D1C4452
:105A5000013CB4FBF3F46343033323F0030302EB91
:105A6000411043EAC44343F0C043C0F8103B2B68E5
:105A700003F00303012B09B20ED1D2F8083802EB70
:105A8000411013F4807FD0F8003B14BF43F08053E3
:105A900043F00053C0F8003B02EB4112D2F8003B48
:105AA00043F00443C2F8003B30BD00002DE9F04153
:105AB000244D6E6D06EB40130446D3F8087BC3F803
:105AC000087B38070AD5D6F81438190706D505EB30
:105AD00084032146DB6828465B689847FA072FD580
:105AE000D6F81438DB072BD505EB8403D968CCB97D
:105AF0008B69488A5E68B6FBF0F200FB12628AB9D5
:105B00001868DA6890420DD2121A83E81400202334
:105B100083F311880B482146FFF78AFF84F311882D
:105B2000BDE8F081012303FA04F26B8923EA020342
:105B30006B81CB6823B121460248BDE8F04118478C
:105B4000BDE8F081CC59002000EB810370B5DD6821
:105B5000436D6C692668E6604A0156BB1A444FF4EF
:105B60000020C2F810092A6802F00302012A0AB2D2
:105B70000ED1D3F8080803EB421410F4807FD4F858
:105B8000000914BF40F0805040F00050C4F80009F4
:105B900003EB4212D2F8000940F00440C2F80009B9
:105BA000D3F83408012202FA01F10143C3F8341892
:105BB00070BD19B9402E84BF4020206020682E8A15
:105BC000841940F00050013C1A44B4FBF6F440EA5A
:105BD000C440C6E7F8B504461E48456D05EB4413BE
:105BE000D3F80869C3F80869F10717D5D5F8103854
:105BF000DA0713D500EB8403D9684B691F68DA68AC
:105C0000974218D2D21B00271A605F60202383F3CB
:105C100011882146FFF798FF87F31188330617D5BF
:105C2000D5F834280123A340134211D02046BDE803
:105C3000F840FFF71FBD012303FA04F2038923EAAA
:105C4000020303818B68002BE8D021469847E5E7E3
:105C5000F8BD00BFCC59002096482DE9F84F456D9E
:105C60006E69AB691E4016F4805F6E61044605D014
:105C7000FEF7CEFCBDE8F84FFDF784BF002E12DA28
:105C8000D5F8003E8B489B071EBFD5F8003E23F099
:105C90000303C5F8003ED5F8043823F00103C5F826
:105CA0000438FEF7DFFC370502D58248FEF7CEFC4C
:105CB000B0040CD5D5F8083813F0060FEB6823F4C0
:105CC00070530CBF43F4105343F4A053EB603107FF
:105CD00004D56368DB680BB176489847F2025AD462
:105CE000B3020CD5D4F85480DFF8C8A100274FF0D8
:105CF0000109A36D9B68F9B28B4280F08780F7069B
:105D000019D5616D0A6AC2F30A1702F00F0302F493
:105D1000F012B2F5802F00F0A180B2F5402F0AD129
:105D200004EB830301F58051DB68186A00231A46EF
:105D30009F4240F087803003D5F8184813D5E1031F
:105D400002D50020FFF7B2FEA20302D50120FFF723
:105D5000ADFE630302D50220FFF7A8FE270302D59C
:105D60000320FFF7A3FE750384D5E00702D50020CA
:105D7000FFF730FFA10702D50120FFF72BFF6207D5
:105D800002D50220FFF726FF23077FF573AF03201C
:105D9000FFF720FF6EE7D4F85480DFF818A1002742
:105DA0004FF00109A36D9B685FFA87FB5B4597D3B2
:105DB00008EB4B13D3F8002902F44022B2F5802FF0
:105DC00022D1D3F80029002A1EDAD3F8002942F0A4
:105DD0009042C3F80029D3F80029002AFBDB59467A
:105DE000606DFFF73DFC228909FA0BF322EA0303F9
:105DF000238104EB8B03DB689B6813B15946504643
:105E000098475846FFF736FC0137CBE708EB4112BD
:105E1000D2F8003B03F44023B3F5802F10D1D2F821
:105E2000003B002B0CDA628909FA01F322EA030332
:105E3000638104EB8103DB68DB680BB15046984754
:105E4000013756E79C0708BF0A68072B98BF027006
:105E500003F101039CBF120A013069E7023304EB2E
:105E6000830201F58051526890690268D0F808C039
:105E70004068A2EB000E0022104697420AD104EBC4
:105E8000830463689B699A683A449A605A68174425
:105E90005F6050E712F0030F08BF0868964588BF9F
:105EA0008CF8000002F1010284BF000A0CF1010C21
:105EB000E3E700BFCC590020436D03EB4111D1F85B
:105EC000003B43F40013C1F8003B7047436D03EB04
:105ED0004111D1F8003943F40013C1F8003970477B
:105EE000436D03EB4111D1F8003B23F40013C1F8DB
:105EF000003B7047436D03EB4111D1F8003923F4A7
:105F00000013C1F80039704730B5039C01720433A7
:105F100004FB0325C361049B03630021059B006010
:105F20004060C160426102618561046242628162D7
:105F3000C162436330BD00000022416A41610161DA
:105F4000C2608262C2626FF00101FEF769BF0000A9
:105F500003694269934203D1C2680AB100207047C5
:105F6000181D704703691960C2680132C260C269B6
:105F7000134482690361934224BF436A0361002191
:105F8000FEF742BF38B504460D46E3683BB162698F
:105F9000131D1268A3621344E362002038BD237A04
:105FA00033B929462046FEF71FFF0028EDDA38BD39
:105FB0006FF00100FBE70000C368C269013BC360EA
:105FC0004369134482694361934224BF436A436136
:105FD00000238362036B03B11847704770B5202319
:105FE000044683F31188866A3EB9FFF7CBFF054666
:105FF00018B186F31188284670BDA36AE26A13F8C7
:10600000015BA362934202D32046FFF7D5FF002332
:1060100083F31188EFE700002DE9F84F04460E46A0
:1060200090469946202787F311880025AA46D4F880
:1060300028B0BBF1000F09D149462046FFF7A2FF67
:1060400020B18BF311882846BDE8F88FA16AE36A76
:10605000A8EB050B5B1A9B4528BF9B46BBF1400F85
:106060001BD9334601F1400251F8040B43F8040BED
:106070009142F9D1A36A40334036A3624035A26A07
:10608000E36A9A4202D32046FFF796FF8AF311880B
:106090004545D8D287F31188C9E730465A46FBF701
:1060A000E9FDA36A5B445E44A3625D44E7E7000048
:1060B00010B5029C0172043303FB0421C361002369
:1060C0008362C362039B0363049B00604060C460FF
:1060D00042610261816104624262436310BD00005B
:1060E000026AC260426A4261026100228262C26246
:1060F0006FF00101FEF794BE436902699A4203D131
:10610000C2680AB100207047184650F8043B0B6083
:1061100070470000C368C2690133C3604369134418
:1061200082694361934224BF436A43610021FEF7C1
:106130006BBE000038B504460D46E3683BB12369E9
:106140001A1DA262E2691344E362002038BD237A7B
:1061500033B929462046FEF747FE0028EDDA38BD60
:106160006FF00100FBE7000003691960C268013AA3
:10617000C260C269134482690361934224BF436AC7
:10618000036100238362036B03B11847704700006B
:1061900070B5202304460E4683F31188856A35B90D
:1061A0001146FFF7C7FF10B185F3118870BDA36AD0
:1061B0001E70A36AE26A01339342A36204D3E169C9
:1061C00020460439FFF7D0FF002080F3118870BD0E
:1061D0002DE9F84F04460D4691469A464FF02008A7
:1061E00088F311880026B346A76A4FB95146204666
:1061F000FFF7A0FF20B187F311883046BDE8F88F84
:10620000A06AE76AA9EB06033F1A9F4228BF1F4610
:10621000402F1BD905F1400355F8042B40F8042BFF
:106220009D42F9D1A36A4033A3624036A26AE36A71
:106230009A4204D3E16920460439FFF795FF8BF3B6
:1062400011884E45D9D288F31188CDE729463A46C0
:10625000FBF710FDA36A3B443D44A3623E44E5E7DF
:10626000026943699A4203D1C3681BB91846704753
:106270000023FBE7836A002BF8D0043B9B1AF5D080
:106280001360C368013BC360C3691A448369026138
:106290009A4224BF436A0361002383620123E5E736
:1062A00000F0A0B84FF08043002258631A61022228
:1062B000DA6070474FF080430022DA6070470000D8
:1062C0004FF08043586370474B6843608B6883602E
:1062D000CB68C3600B6943614B6903628B6943629E
:1062E0000B6803607047000008B5224B22481A690A
:1062F00040F2FF110A431A611A6922F4FF7222F078
:1063000001021A611A691A6B0A431A631A6D0A4369
:106310001A651A4A1B6D1146FFF7D6FF184802F19D
:106320001C01FFF7D1FF174802F13801FFF7CCFF3E
:10633000154802F15401FFF7C7FF144802F170013C
:10634000FFF7C2FF124802F18C01FFF7BDFF1148B1
:1063500002F1A801FFF7B8FF0F4802F1C401FFF7EF
:10636000B3FF0E4802F1E001FFF7AEFFBDE80840C1
:1063700000F0A2B800380240000002402873000874
:106380000004024000080240000C024000100240DD
:106390000014024000180240001C0240002002408D
:1063A00008B500F0FDF9FEF721FCFFF703F9BDE8A1
:1063B0000840FEF753BE0000704700004FF08043D6
:1063C00010B51A69920708D500241C61202383F3B5
:1063D0001188FEF755FC84F31188BDE81040FDF7E5
:1063E000D1BB0000104B1A6C42F001021A641A6E05
:1063F00042F001021A660D4A1B6E936843F00103D6
:1064000093604FF0804353229A624FF0FF32DA627A
:1064100000229A615A63DA605A6001225A610821A7
:106420001A601C20FDF7F2BC00380240002004E096
:106430001F4B1A696FEAC2526FEAD2521A611A6987
:10644000C2F308021A614FF0FF301A695A695861A5
:1064500000215A6959615A691A6A62F080521A62B7
:106460001A6A02F080521A621A6A5A6A58625A6AA2
:1064700059625A6A1A6C42F080521A641A6E42F0DB
:1064800080521A661A6E0B4A106840F480701060D1
:10649000186F00F44070B0F5007F1EBF4FF48030DD
:1064A00018671967536823F40073536000F058B9F4
:1064B0000038024000700040324B4FF080521A64A6
:1064C000314A4FF4404111601A6842F001021A60EB
:1064D0001A689207FCD59A6822F003029A60294B49
:1064E00019469A6812F00C02FBD1186800F0F90006
:1064F00018609A601A6842F480321A600B689B0335
:10650000FCD54B6F43F001034B671E4B5A6F90074E
:10651000FCD51E4A5A601A6842F080721A601A4A04
:1065200053685904FCD5174B1A689201FCD5184AD8
:106530009A600322C3F88C20164B1A68164B9A42B5
:10654000164B1BD1164A1168164A914216D140F2D9
:1065500005121A600B4B9A6842F002029A609A6820
:1065600002F00C02082AFAD15A6C42F480425A64B2
:106570005A6E42F480425A665B6E704740F2057272
:10658000E7E700BF003802400070004018544007A1
:1065900000948838002004E011640020003C024090
:1065A00000ED00E041C20F41084A08B55369116887
:1065B0000B4003F00103536123B1054A13680BB18B
:1065C00050689847BDE80840FDF7DCBA003C014040
:1065D0000C4B0020084A08B5536911680B4003F0C2
:1065E0000203536123B1054A93680BB1D068984701
:1065F000BDE80840FDF7C6BA003C01400C4B002046
:10660000084A08B5536911680B4003F0040353614D
:1066100023B1054A13690BB150699847BDE808409A
:10662000FDF7B0BA003C01400C4B0020084A08B509
:10663000536911680B4003F00803536123B1054A05
:1066400093690BB1D0699847BDE80840FDF79ABA45
:10665000003C01400C4B0020084A08B55369116802
:106660000B4003F01003536123B1054A136A0BB1C9
:10667000506A9847BDE80840FDF784BA003C0140E5
:106680000C4B0020174B10B55C691A68144004F4D9
:1066900078725A61A30604D5134A936A0BB1D06A83
:1066A0009847600604D5104A136B0BB1506B98479E
:1066B000210604D50C4A936B0BB1D06B9847E205C9
:1066C00004D5094A136C0BB1506C9847A30504D547
:1066D000054A936C0BB1D06C9847BDE81040FDF7AC
:1066E00051BA00BF003C01400C4B00201A4B10B5C2
:1066F0005C691A68144004F47C425A61620504D54E
:10670000164A136D0BB1506D9847230504D5134AF3
:10671000936D0BB1D06D9847E00404D50F4A136E0A
:106720000BB1506E9847A10404D50C4A936E0BB17F
:10673000D06E9847620404D5084A136F0BB1506FAE
:106740009847230404D5054A936F0BB1D06F98473F
:10675000BDE81040FDF716BA003C01400C4B00208C
:10676000062108B50846FDF751FB06210720FDF775
:106770004DFB06210820FDF749FB06210920FDF706
:1067800045FB06210A20FDF741FB06211720FDF7F6
:106790003DFB06212820BDE80840FDF737BB00007F
:1067A00008B5FFF745FEFDF71BFAFDF7D5FCFDF731
:1067B000C1FEFDF795FDFFF7FFFDBDE80840FFF7BF
:1067C0006FBD000010B5002814BF04460124204608
:1067D00000F04EF830B900F00DF808B900F014F8E8
:1067E0008047F4E710BD00000B460146184600F054
:1067F00031B80000024B1868BFF35B8F704700BFD1
:10680000445A002000F03CB808B5062000F052F9C8
:106810000120FEF79FFB00001FB51C46094B1B68BB
:106820000546D86852B1084B02928DE80A0022460C
:106830002B460649FCF70EF8FFF7E6FF044B1A4615
:10684000F2E700BF302700202474000831740008EC
:10685000A46B000810B5054C13462CB10A4601463E
:106860000220AFF3008010BD204610BD00000000E4
:10687000024B0146186800F087B800BF302700209F
:10688000024B0146186800F031B800BF30270020E5
:1068900010B501390244904201D1002010BD10F81A
:1068A000013B11F8014FA342F5D0181B10BD0000A9
:1068B0002DE9F8430746884691461E468BB10D46A2
:1068C000A8EB0500B54207EB000402D20020BDE8AA
:1068D000F883324649462046FFF7DAFF18B1013DFA
:1068E000EEE7BDE8F8832046BDE8F88338B50546F5
:1068F000002945D051F8043C0C1F002BB8BFE41808
:1069000000F0FCF81F4A1368104633B96360146046
:106910002846BDE8384000F0F3B8A3420CD92168FE
:106920006218934204BF1A685B68636004BF521820
:1069300022600460ECE713465A680AB1A242FAD911
:1069400019685818A0420BD1206801445818824297
:106950001960DDD1106852685A6001441960D7E7A8
:1069600002D90C232B60D3E7206821188A4204BF88
:1069700011685268626004BF091821605C60C7E753
:1069800038BD00BF485A002070B5CD1C25F0030566
:1069900008350C2D38BF0C25002D064601DBA94219
:1069A00003D90C233360002070BD00F0A7F8234A00
:1069B0001468214691B9224C23681BB9304600F077
:1069C00041F820602946304600F03CF8431C26D1AF
:1069D0000C233360304600F093F8E4E70B685B1B50
:1069E0001AD40B2B0FD90B60CD50CC18304600F0C9
:1069F00087F804F10B00231D20F00700C31A1BD0F9
:106A00005A42E25070BD8C420DBF63684B686360B0
:106A1000136018BF0C46E9E70C464968CAE7C41C76
:106A200024F00304A04205D0211A304600F00AF8F1
:106A30000130CDD02560D9E770BD00BF485A002095
:106A40004C5A002038B5064C002305460846236002
:106A5000FEF778FA431C02D1236803B12B6038BDDE
:106A6000505A00201F2938B504460D4604D9162374
:106A700003604FF0FF3038BD426C12B152F8213044
:106A80004BB9204600F030F82A4601462046BDE8C2
:106A9000384000F017B8012B0AD0591C03D1162337
:106AA0000360012038BD002442F82540284698475D
:106AB000002038BD024B01461868FFF7D3BF00BF66
:106AC0003027002038B5074C0023054608461146FC
:106AD0002360FEF743FA431C02D1236803B12B6005
:106AE00038BD00BF505A0020FEF732BA034611F8F5
:106AF000012B03F8012B002AF9D1704770470000E1
:106B000070470000121012131211000040A2E4F1AD
:106B1000646891064E6F20617070207369670A0087
:106B2000426164206677206C656E67746820257505
:106B30000A0042616420626F6172645F69642025AB
:106B4000752073686F756C642062652025750A0076
:106B50004261642066772064657363726970746F44
:106B600072206C656E6774682025750A0042616446
:106B70002061707020435243203078253038783AB5
:106B8000307825303878203078253038783A3078A9
:106B9000253038780A00476F6F64206669726D7718
:106BA0006172650A0000000072656365697665645C
:106BB0005F756E697175655F69645F6C656E203CB9
:106BC0002055415643414E5F50524F544F434F4C16
:106BD0005F44594E414D49435F4E4F44455F4944E0
:106BE0005F414C4C4F434154494F4E5F554E4951C4
:106BF00055455F49445F4D41585F4C454E475448A9
:106C0000002E2E2F2E2E2F546F6F6C732F41505F3E
:106C1000426F6F746C6F616465722F63616E2E6377
:106C2000707000616C6C6F63617465645F6E6F643B
:106C3000655F6964203C3D20313237006F72672EFA
:106C40006172647570696C6F742E506978726163DB
:106C500065722D706572697068000000766F6964F6
:106C60002068616E646C655F616C6C6F63617469F0
:106C70006F6E5F726573706F6E73652843616E61CE
:106C80007264496E7374616E63652A2C2043616E71
:106C900061726452785472616E736665722A29005B
:106CA00053544D3332463F3F3F0000000120330034
:106CB0000010410101105A01031059010710310160
:106CC00000000000A06C00083F000000130400005A
:106CD000F86C00083F00000019040000026D000875
:106CE0003F000000210400000C6D00083F00000080
:106CF000305200208C4B002053544D3332463430F8
:106D0000780053544D3332463432780053544D3367
:106D100032463434365858008000000000800000AD
:106D2000000080004261642043414E496661636512
:106D300020696E6465782E000000000000000000ED
:106D4000E92500083D250008451E00086D1E0008C5
:106D5000C11F0008491E00085D1E00084D1E0008E6
:106D6000511E0008591E0008551E0008591F000832
:106D7000611E000863616E617264496E697400008F
:106D800063616E6172645365744C6F63616C4E6FC6
:106D9000646549440000000063616E61726448618B
:106DA0006E646C6552784672616D650063616E61F8
:106DB00072644465636F64655363616C6172000063
:106DC00063616E617264456E636F64655363616C89
:106DD00061720000696E6372656D656E74547261F4
:106DE0006E73666572494400656E717565756554AC
:106DF000784672616D65730070757368547851756B
:106E00006575650070726570617265466F724E657A
:106E100078745472616E736665720000636F707986
:106E200042697441727261790000000064657363A5
:106E300061747465725472616E73666572506179C3
:106E40006C6F61640000000066726565426C6F6380
:106E50006B0000006269745F6C656E677468203E49
:106E600020300072656D61696E696E675F6269747A
:106E700073203E203000696E7075745F6269745FC4
:106E80006F6666736574203E3D20626C6F636B5F56
:106E90006269745F6F666673657400626C6F636BC2
:106EA0005F656E645F6269745F6F666673657420A8
:106EB0003E20626C6F636B5F6269745F6F666673BE
:106EC00065740072656D61696E696E675F62697491
:106ED0005F6C656E677468203C3D2072656D61690A
:106EE0006E696E675F6269747300696E7075745F56
:106EF0006269745F6F6666736574203C3D207472CE
:106F0000616E736665722D3E7061796C6F61645F4E
:106F10006C656E202A2038006F75747075745F621E
:106F200069745F6F6666736574203C3D203634007B
:106F300072656D61696E696E675F6269745F6C65C9
:106F40006E677468203D3D20300028726573756C53
:106F500074203E2030292026262028726573756C07
:106F600074203C3D20363429202626202872657363
:106F7000756C74203C3D206269745F6C656E67744B
:106F80006829000064657374696E6174696F6E20AE
:106F9000213D202828766F6964202A29302900762F
:106FA000616C756520213D202828766F6964202A50
:106FB000293029006F66667365745F776974686944
:106FC0006E5F626C6F636B203C2028333255202D3E
:106FD000205F5F6275696C74696E5F6F666673656A
:106FE000746F66202843616E6172644275666665DF
:106FF00072426C6F636B2C206461746129290000FC
:107000006F75745F696E7320213D202828766F6943
:1070100064202A29302900007372635F6C656E203A
:107020003E203055000000002863616E5F696420D7
:107030002620307831464646464646465529203D6C
:107040003D2063616E5F696400000000616C6C6FDD
:107050006361746F722D3E737461746973746963D4
:10706000732E63757272656E745F75736167655FA9
:10707000626C6F636B73203E203000007472616E2F
:10708000736665725F696420213D202828766F69E8
:1070900064202A293029000073746174652D3E62D2
:1070A00075666665725F626C6F636B73203D3D2031
:1070B0002828766F6964202A293029002E2E2F2E49
:1070C0002E2F6D6F64756C65732F6C696263616ED2
:1070D0006172642F63616E6172642E63006974650E
:1070E0006D2D3E6672616D652E646174615F6C65C5
:1070F0006E203E20300000000096000000000000DE
:10710000000000000000000000000000000000007F
:10711000214100080D41000849410008354100089F
:10712000414100082D4100081941000805410008AF
:10713000554100080000000059420008454200087F
:10714000814200086D42000879420008654200084B
:10715000514200083D420008DD42000800000000E6
:1071600001000000000000006D61696E0000000079
:1071700088710008385000203052002001000000C3
:10718000E94B00080000000069646C650000000025
:10719000020000000000000085440008ED440008E3
:1071A00040004000C8560020D856002002000000D1
:1071B000000000000300000000000000314500084E
:1071C0000000000010000000E85600200000000051
:1071D0000100000000000000CC5900200101020065
:1071E0004172647550696C6F740025424F4152447E
:1071F000252D424C002553455249414C25000000A5
:10720000FD4F0008654F0008F1430008E14F0008FA
:10721000430000001872000809024300020100C088
:1072200032090400000102020100052400100105DA
:10723000240100010424020205240600010705823E
:10724000030800FF09040100020A0000000705010D
:10725000024000000705810240000000120000000B
:107260006472000812011001020000400912415727
:1072700000020102030100000403090425424F41FA
:1072800052442500303132333435363738394142B3
:10729000434445460000000000400000004000005C
:1072A000004000000040000000000100000002005B
:1072B00000000200000002000000020000000200C6
:1072C000000002000000020000400000004000003A
:1072D000004000000040000000000100000002002B
:1072E0000000020000000200000002000000020096
:1072F00000000200000002000000000079460008C3
:1073000059490008054A0008400040002C5A002056
:107310002C5A0020010000003C5A00208000000090
:1073200040010000030000000000802A000000006F
:10733000AAAAAAAA00000000FFFF000000000000A7
:1073400000A00A004400000000000000AAAAAAAAA7
:1073500000000000FFFF000000000000000000002F
:107360001000004000000000AAAAAAAA10000040D5
:10737000FFFF000000000000000000000A6810008D
:1073800000000000AAAAAAAA00541000FFFF0000F3
:10739000990070070000000000000040000000009D
:1073A000AAAAAAAA00000040FFFF000000000000F7
:1073B000000000000000000000000000AAAAAAAA25
:1073C00000000000FFFF00000000000000000000BF
:1073D0000000000000000000AAAAAAAA0000000005
:1073E000FFFF00000000000000000000000000009F
:1073F000000000000A000000000000000300000080
:10740000000000000000000000000000000000007C
:10741000000000000000000000000000000000006C
:10742000000000002C2066756E6374696F6E3A2050
:1074300000617373657274696F6E20222573222058
:107440006661696C65643A2066696C652022257303
:10745000222C206C696E65202564257325730A0033
:10746000E88DFF7F01000000FE2A0100D204000029
:10747000FF00960000000008040000007872000879
:1074800000000000000000000000000000000000FC
:107490000000000000000000342700200000000071
:1074A00000000000000000000000000000000000DC
:1074B00000000000000000000000000000000000CC
:1074C00000000000000000000000000000000000BC
:1074D00000000000000000000000000000000000AC
:1074E000000000000000000000000000000000009C
:0C74F00000000000000000000000000090
:00000001FF
